{
  "address": "0x7D31ed03c2442F9ffc4f22d90772EE1f32fa9b0D",
  "abi": [
    {
      "inputs": [
        {
          "internalType": "contract IERC20Metadata",
          "name": "_asset",
          "type": "address"
        },
        {
          "internalType": "uint256",
          "name": "_epochLength",
          "type": "uint256"
        },
        {
          "internalType": "uint256",
          "name": "_firstEpochNumber",
          "type": "uint256"
        },
        {
          "internalType": "uint256",
          "name": "_firstEpochTime",
          "type": "uint256"
        },
        {
          "internalType": "address",
          "name": "_authority",
          "type": "address"
        }
      ],
      "stateMutability": "nonpayable",
      "type": "constructor"
    },
    {
      "inputs": [],
      "name": "UNAUTHORIZED",
      "type": "error"
    },
    {
      "anonymous": false,
      "inputs": [
        {
          "indexed": true,
          "internalType": "address",
          "name": "owner",
          "type": "address"
        },
        {
          "indexed": true,
          "internalType": "address",
          "name": "spender",
          "type": "address"
        },
        {
          "indexed": false,
          "internalType": "uint256",
          "name": "value",
          "type": "uint256"
        }
      ],
      "name": "Approval",
      "type": "event"
    },
    {
      "anonymous": false,
      "inputs": [
        {
          "indexed": false,
          "internalType": "contract IHectagonAuthority",
          "name": "authority",
          "type": "address"
        }
      ],
      "name": "AuthorityUpdated",
      "type": "event"
    },
    {
      "anonymous": false,
      "inputs": [
        {
          "indexed": true,
          "internalType": "address",
          "name": "caller",
          "type": "address"
        },
        {
          "indexed": true,
          "internalType": "address",
          "name": "owner",
          "type": "address"
        },
        {
          "indexed": false,
          "internalType": "uint256",
          "name": "assets",
          "type": "uint256"
        },
        {
          "indexed": false,
          "internalType": "uint256",
          "name": "shares",
          "type": "uint256"
        }
      ],
      "name": "Deposit",
      "type": "event"
    },
    {
      "anonymous": false,
      "inputs": [
        {
          "indexed": false,
          "internalType": "address",
          "name": "distributor",
          "type": "address"
        }
      ],
      "name": "DistributorSet",
      "type": "event"
    },
    {
      "anonymous": false,
      "inputs": [
        {
          "indexed": true,
          "internalType": "uint256",
          "name": "epoch",
          "type": "uint256"
        },
        {
          "indexed": false,
          "internalType": "uint256",
          "name": "distribute",
          "type": "uint256"
        }
      ],
      "name": "LogEpoch",
      "type": "event"
    },
    {
      "anonymous": false,
      "inputs": [
        {
          "indexed": true,
          "internalType": "address",
          "name": "from",
          "type": "address"
        },
        {
          "indexed": true,
          "internalType": "address",
          "name": "to",
          "type": "address"
        },
        {
          "indexed": false,
          "internalType": "uint256",
          "name": "value",
          "type": "uint256"
        }
      ],
      "name": "Transfer",
      "type": "event"
    },
    {
      "anonymous": false,
      "inputs": [
        {
          "indexed": true,
          "internalType": "address",
          "name": "caller",
          "type": "address"
        },
        {
          "indexed": true,
          "internalType": "address",
          "name": "receiver",
          "type": "address"
        },
        {
          "indexed": true,
          "internalType": "address",
          "name": "owner",
          "type": "address"
        },
        {
          "indexed": false,
          "internalType": "uint256",
          "name": "assets",
          "type": "uint256"
        },
        {
          "indexed": false,
          "internalType": "uint256",
          "name": "shares",
          "type": "uint256"
        }
      ],
      "name": "Withdraw",
      "type": "event"
    },
    {
      "inputs": [
        {
          "internalType": "address",
          "name": "owner",
          "type": "address"
        },
        {
          "internalType": "address",
          "name": "spender",
          "type": "address"
        }
      ],
      "name": "allowance",
      "outputs": [
        {
          "internalType": "uint256",
          "name": "",
          "type": "uint256"
        }
      ],
      "stateMutability": "view",
      "type": "function"
    },
    {
      "inputs": [
        {
          "internalType": "address",
          "name": "spender",
          "type": "address"
        },
        {
          "internalType": "uint256",
          "name": "amount",
          "type": "uint256"
        }
      ],
      "name": "approve",
      "outputs": [
        {
          "internalType": "bool",
          "name": "",
          "type": "bool"
        }
      ],
      "stateMutability": "nonpayable",
      "type": "function"
    },
    {
      "inputs": [],
      "name": "asset",
      "outputs": [
        {
          "internalType": "address",
          "name": "",
          "type": "address"
        }
      ],
      "stateMutability": "view",
      "type": "function"
    },
    {
      "inputs": [],
      "name": "authority",
      "outputs": [
        {
          "internalType": "contract IHectagonAuthority",
          "name": "",
          "type": "address"
        }
      ],
      "stateMutability": "view",
      "type": "function"
    },
    {
      "inputs": [
        {
          "internalType": "address",
          "name": "account",
          "type": "address"
        }
      ],
      "name": "balanceOf",
      "outputs": [
        {
          "internalType": "uint256",
          "name": "",
          "type": "uint256"
        }
      ],
      "stateMutability": "view",
      "type": "function"
    },
    {
      "inputs": [],
      "name": "bountyHunter",
      "outputs": [],
      "stateMutability": "nonpayable",
      "type": "function"
    },
    {
      "inputs": [
        {
          "internalType": "uint256",
          "name": "shares",
          "type": "uint256"
        }
      ],
      "name": "convertToAssets",
      "outputs": [
        {
          "internalType": "uint256",
          "name": "assets",
          "type": "uint256"
        }
      ],
      "stateMutability": "view",
      "type": "function"
    },
    {
      "inputs": [
        {
          "internalType": "uint256",
          "name": "assets",
          "type": "uint256"
        }
      ],
      "name": "convertToShares",
      "outputs": [
        {
          "internalType": "uint256",
          "name": "shares",
          "type": "uint256"
        }
      ],
      "stateMutability": "view",
      "type": "function"
    },
    {
      "inputs": [],
      "name": "decimals",
      "outputs": [
        {
          "internalType": "uint8",
          "name": "",
          "type": "uint8"
        }
      ],
      "stateMutability": "view",
      "type": "function"
    },
    {
      "inputs": [
        {
          "internalType": "address",
          "name": "spender",
          "type": "address"
        },
        {
          "internalType": "uint256",
          "name": "subtractedValue",
          "type": "uint256"
        }
      ],
      "name": "decreaseAllowance",
      "outputs": [
        {
          "internalType": "bool",
          "name": "",
          "type": "bool"
        }
      ],
      "stateMutability": "nonpayable",
      "type": "function"
    },
    {
      "inputs": [
        {
          "internalType": "uint256",
          "name": "assets",
          "type": "uint256"
        },
        {
          "internalType": "address",
          "name": "receiver",
          "type": "address"
        }
      ],
      "name": "deposit",
      "outputs": [
        {
          "internalType": "uint256",
          "name": "",
          "type": "uint256"
        }
      ],
      "stateMutability": "nonpayable",
      "type": "function"
    },
    {
      "inputs": [],
      "name": "distributor",
      "outputs": [
        {
          "internalType": "contract IDistributor",
          "name": "",
          "type": "address"
        }
      ],
      "stateMutability": "view",
      "type": "function"
    },
    {
      "inputs": [],
      "name": "epoch",
      "outputs": [
        {
          "internalType": "uint256",
          "name": "length",
          "type": "uint256"
        },
        {
          "internalType": "uint256",
          "name": "number",
          "type": "uint256"
        },
        {
          "internalType": "uint256",
          "name": "end",
          "type": "uint256"
        }
      ],
      "stateMutability": "view",
      "type": "function"
    },
    {
      "inputs": [
        {
          "internalType": "address",
          "name": "spender",
          "type": "address"
        },
        {
          "internalType": "uint256",
          "name": "addedValue",
          "type": "uint256"
        }
      ],
      "name": "increaseAllowance",
      "outputs": [
        {
          "internalType": "bool",
          "name": "",
          "type": "bool"
        }
      ],
      "stateMutability": "nonpayable",
      "type": "function"
    },
    {
      "inputs": [],
      "name": "index",
      "outputs": [
        {
          "internalType": "uint256",
          "name": "",
          "type": "uint256"
        }
      ],
      "stateMutability": "view",
      "type": "function"
    },
    {
      "inputs": [
        {
          "internalType": "address",
          "name": "",
          "type": "address"
        }
      ],
      "name": "maxDeposit",
      "outputs": [
        {
          "internalType": "uint256",
          "name": "",
          "type": "uint256"
        }
      ],
      "stateMutability": "view",
      "type": "function"
    },
    {
      "inputs": [
        {
          "internalType": "address",
          "name": "",
          "type": "address"
        }
      ],
      "name": "maxMint",
      "outputs": [
        {
          "internalType": "uint256",
          "name": "",
          "type": "uint256"
        }
      ],
      "stateMutability": "view",
      "type": "function"
    },
    {
      "inputs": [
        {
          "internalType": "address",
          "name": "owner",
          "type": "address"
        }
      ],
      "name": "maxRedeem",
      "outputs": [
        {
          "internalType": "uint256",
          "name": "",
          "type": "uint256"
        }
      ],
      "stateMutability": "view",
      "type": "function"
    },
    {
      "inputs": [
        {
          "internalType": "address",
          "name": "owner",
          "type": "address"
        }
      ],
      "name": "maxWithdraw",
      "outputs": [
        {
          "internalType": "uint256",
          "name": "",
          "type": "uint256"
        }
      ],
      "stateMutability": "view",
      "type": "function"
    },
    {
      "inputs": [
        {
          "internalType": "uint256",
          "name": "shares",
          "type": "uint256"
        },
        {
          "internalType": "address",
          "name": "receiver",
          "type": "address"
        }
      ],
      "name": "mint",
      "outputs": [
        {
          "internalType": "uint256",
          "name": "",
          "type": "uint256"
        }
      ],
      "stateMutability": "nonpayable",
      "type": "function"
    },
    {
      "inputs": [],
      "name": "name",
      "outputs": [
        {
          "internalType": "string",
          "name": "",
          "type": "string"
        }
      ],
      "stateMutability": "view",
      "type": "function"
    },
    {
      "inputs": [],
      "name": "nextEpoch",
      "outputs": [
        {
          "internalType": "uint256",
          "name": "bounty",
          "type": "uint256"
        }
      ],
      "stateMutability": "nonpayable",
      "type": "function"
    },
    {
      "inputs": [
        {
          "internalType": "uint256",
          "name": "assets",
          "type": "uint256"
        }
      ],
      "name": "previewDeposit",
      "outputs": [
        {
          "internalType": "uint256",
          "name": "",
          "type": "uint256"
        }
      ],
      "stateMutability": "view",
      "type": "function"
    },
    {
      "inputs": [
        {
          "internalType": "uint256",
          "name": "shares",
          "type": "uint256"
        }
      ],
      "name": "previewMint",
      "outputs": [
        {
          "internalType": "uint256",
          "name": "",
          "type": "uint256"
        }
      ],
      "stateMutability": "view",
      "type": "function"
    },
    {
      "inputs": [
        {
          "internalType": "uint256",
          "name": "shares",
          "type": "uint256"
        }
      ],
      "name": "previewRedeem",
      "outputs": [
        {
          "internalType": "uint256",
          "name": "",
          "type": "uint256"
        }
      ],
      "stateMutability": "view",
      "type": "function"
    },
    {
      "inputs": [
        {
          "internalType": "uint256",
          "name": "assets",
          "type": "uint256"
        }
      ],
      "name": "previewWithdraw",
      "outputs": [
        {
          "internalType": "uint256",
          "name": "",
          "type": "uint256"
        }
      ],
      "stateMutability": "view",
      "type": "function"
    },
    {
      "inputs": [
        {
          "internalType": "uint256",
          "name": "shares",
          "type": "uint256"
        },
        {
          "internalType": "address",
          "name": "receiver",
          "type": "address"
        },
        {
          "internalType": "address",
          "name": "owner",
          "type": "address"
        }
      ],
      "name": "redeem",
      "outputs": [
        {
          "internalType": "uint256",
          "name": "",
          "type": "uint256"
        }
      ],
      "stateMutability": "nonpayable",
      "type": "function"
    },
    {
      "inputs": [],
      "name": "secondsToNextEpoch",
      "outputs": [
        {
          "internalType": "uint256",
          "name": "",
          "type": "uint256"
        }
      ],
      "stateMutability": "view",
      "type": "function"
    },
    {
      "inputs": [
        {
          "internalType": "contract IHectagonAuthority",
          "name": "_newAuthority",
          "type": "address"
        }
      ],
      "name": "setAuthority",
      "outputs": [],
      "stateMutability": "nonpayable",
      "type": "function"
    },
    {
      "inputs": [
        {
          "internalType": "address",
          "name": "_distributor",
          "type": "address"
        }
      ],
      "name": "setDistributor",
      "outputs": [],
      "stateMutability": "nonpayable",
      "type": "function"
    },
    {
      "inputs": [],
      "name": "symbol",
      "outputs": [
        {
          "internalType": "string",
          "name": "",
          "type": "string"
        }
      ],
      "stateMutability": "view",
      "type": "function"
    },
    {
      "inputs": [],
      "name": "totalAssets",
      "outputs": [
        {
          "internalType": "uint256",
          "name": "",
          "type": "uint256"
        }
      ],
      "stateMutability": "view",
      "type": "function"
    },
    {
      "inputs": [],
      "name": "totalSupply",
      "outputs": [
        {
          "internalType": "uint256",
          "name": "",
          "type": "uint256"
        }
      ],
      "stateMutability": "view",
      "type": "function"
    },
    {
      "inputs": [
        {
          "internalType": "address",
          "name": "to",
          "type": "address"
        },
        {
          "internalType": "uint256",
          "name": "amount",
          "type": "uint256"
        }
      ],
      "name": "transfer",
      "outputs": [
        {
          "internalType": "bool",
          "name": "",
          "type": "bool"
        }
      ],
      "stateMutability": "nonpayable",
      "type": "function"
    },
    {
      "inputs": [
        {
          "internalType": "address",
          "name": "from",
          "type": "address"
        },
        {
          "internalType": "address",
          "name": "to",
          "type": "address"
        },
        {
          "internalType": "uint256",
          "name": "amount",
          "type": "uint256"
        }
      ],
      "name": "transferFrom",
      "outputs": [
        {
          "internalType": "bool",
          "name": "",
          "type": "bool"
        }
      ],
      "stateMutability": "nonpayable",
      "type": "function"
    },
    {
      "inputs": [
        {
          "internalType": "uint256",
          "name": "assets",
          "type": "uint256"
        },
        {
          "internalType": "address",
          "name": "receiver",
          "type": "address"
        },
        {
          "internalType": "address",
          "name": "owner",
          "type": "address"
        }
      ],
      "name": "withdraw",
      "outputs": [
        {
          "internalType": "uint256",
          "name": "",
          "type": "uint256"
        }
      ],
      "stateMutability": "nonpayable",
      "type": "function"
    }
  ],
  "transactionHash": "0x73515ae935a7bd89c1abf2bd46eb593d70cd15e50b4e7abdefae1dc4ae0abe81",
  "args": [
    "0x343915085b919fbd4414F7046f903d194c6F60EE",
    "28800",
    "0",
    "1659956400",
    "0x6FCb3832d50D9142ce88985ab0b95c71227366B3"
  ],
  "solcInputHash": "ca12d8af804850e81cc663dd9685dae9",
  "bytecode": "0x60a06040523480156200001157600080fd5b50604051620021db380380620021db8339810160408190526200003491620001f7565b604080518082018252601381527f476f7665726e616e6365204865637461676f6e0000000000000000000000000060208083019182528351808501909452600684526567484543544160d01b908401528151849389939290916200009b9160039162000138565b508051620000b190600490602084019062000138565b5050506001600160a01b03908116608052600580546001600160a01b03191691831691821790556040519081527f2f658b440c35314f52658ea8a740e05b284cdc84dc9ae01e891f21b8933e7cad9060200160405180910390a150506040805160608101825284815260208101849052018190526006929092556007556008555062000291565b828054620001469062000254565b90600052602060002090601f0160209004810192826200016a5760008555620001b5565b82601f106200018557805160ff1916838001178555620001b5565b82800160010185558215620001b5579182015b82811115620001b557825182559160200191906001019062000198565b50620001c3929150620001c7565b5090565b5b80821115620001c35760008155600101620001c8565b6001600160a01b0381168114620001f457600080fd5b50565b600080600080600060a086880312156200021057600080fd5b85516200021d81620001de565b8095505060208601519350604086015192506060860151915060808601516200024681620001de565b809150509295509295909350565b600181811c908216806200026957607f821691505b602082108114156200028b57634e487b7160e01b600052602260045260246000fd5b50919050565b608051611f04620002d76000396000818161031801528181610554015281816105e301528181610de501528181610fe501528181611313015261147d0152611f046000f3fe608060405234801561001057600080fd5b506004361061025c5760003560e01c8063900cf0cf11610145578063ba087652116100bd578063c6e6f5921161008c578063d905777e11610071578063d905777e146104f0578063dd62ed3e14610503578063ef8b30f7146104ca57600080fd5b8063c6e6f592146104ca578063ce96cb77146104dd57600080fd5b8063ba0876521461047c578063bf7e214f1461048f578063bfe10928146104a2578063c63d75b6146104b557600080fd5b8063a457c2d711610114578063aea0e78b116100f9578063aea0e78b1461044e578063b3d7f6b914610456578063b460af941461046957600080fd5b8063a457c2d714610428578063a9059cbb1461043b57600080fd5b8063900cf0cf146103d85780639483c1d71461040557806394bf804d1461040d57806395d89b411461042057600080fd5b8063313ce567116101d85780634cdad506116101a757806370a082311161018c57806370a082311461038957806375619ab5146103b25780637a9e5e4b146103c557600080fd5b80634cdad5061461029b5780636e553f651461037657600080fd5b8063313ce5671461030757806338d52e0f146103165780633950935114610350578063402d267d1461036357600080fd5b8063095ea7b31161022f57806318160ddd1161021457806318160ddd146102e457806323b872dd146102ec5780632986c0e5146102ff57600080fd5b8063095ea7b3146102ae5780630a28a477146102d157600080fd5b806301e1d1141461026157806304b4b8c51461027c57806306fdde031461028657806307a2d13a1461029b575b600080fd5b61026961053c565b6040519081526020015b60405180910390f35b6102846105cc565b005b61028e61060c565b6040516102739190611b1b565b6102696102a9366004611b4e565b61069e565b6102c16102bc366004611b7c565b6106b1565b6040519015158152602001610273565b6102696102df366004611b4e565b6106c9565b600254610269565b6102c16102fa366004611ba8565b6106d6565b6102696106fc565b60405160128152602001610273565b7f00000000000000000000000000000000000000000000000000000000000000005b6040516001600160a01b039091168152602001610273565b6102c161035e366004611b7c565b61070d565b610269610371366004611be9565b61074c565b610269610384366004611c06565b61076a565b610269610397366004611be9565b6001600160a01b031660009081526020819052604090205490565b6102846103c0366004611be9565b6107fa565b6102846103d3366004611be9565b610864565b6006546007546008546103ea92919083565b60408051938452602084019290925290820152606001610273565b6102696108c7565b61026961041b366004611c06565b6108e9565b61028e61092e565b6102c1610436366004611b7c565b61093d565b6102c1610449366004611b7c565b6109f2565b610269610a00565b610269610464366004611b4e565b610bae565b610269610477366004611c36565b610bbb565b61026961048a366004611c36565b610c44565b600554610338906001600160a01b031681565b600954610338906001600160a01b031681565b6102696104c3366004611be9565b5060001990565b6102696104d8366004611b4e565b610ccf565b6102696104eb366004611be9565b610cdc565b6102696104fe366004611be9565b610d00565b610269610511366004611c78565b6001600160a01b03918216600090815260016020908152604080832093909416825291909152205490565b6040516370a0823160e01b81523060048201526000907f00000000000000000000000000000000000000000000000000000000000000006001600160a01b0316906370a0823190602401602060405180830381865afa1580156105a3573d6000803e3d6000fd5b505050506040513d601f19601f820116820180604052508101906105c79190611ca6565b905090565b60006105d6610a00565b90508015610609576106097f00000000000000000000000000000000000000000000000000000000000000003383610d1e565b50565b60606003805461061b90611cbf565b80601f016020809104026020016040519081016040528092919081815260200182805461064790611cbf565b80156106945780601f1061066957610100808354040283529160200191610694565b820191906000526020600020905b81548152906001019060200180831161067757829003601f168201915b5050505050905090565b60006106ab826000610db3565b92915050565b6000336106bf818585610e87565b5060019392505050565b60006106ab826001610fab565b6000336106e4858285611065565b6106ef8585856110f7565b60019150505b9392505050565b60006105c76102a96012600a611df4565b3360008181526001602090815260408083206001600160a01b03871684529091528120549091906106bf9082908690610747908790611e03565b610e87565b60006107566112f4565b6107615760006106ab565b60001992915050565b60006107758261074c565b8311156107c95760405162461bcd60e51b815260206004820152601e60248201527f455243343632363a206465706f736974206d6f7265207468616e206d6178000060448201526064015b60405180910390fd5b60006107d3610a00565b905060006107e46104d88387611e03565b90506107f23385878461130e565b949350505050565b6108026113a0565b6009805473ffffffffffffffffffffffffffffffffffffffff19166001600160a01b0383169081179091556040519081527f86719c518c7d99ac94b3d405d462ea876ba5cd0a978461dc9a7c9862a9485886906020015b60405180910390a150565b61086c6113a0565b6005805473ffffffffffffffffffffffffffffffffffffffff19166001600160a01b0383169081179091556040519081527f2f658b440c35314f52658ea8a740e05b284cdc84dc9ae01e891f21b8933e7cad90602001610859565b600042600660020154116108db5750600090565b6008546105c7904290611e1b565b6000806108f4610a00565b9050600061090182610ccf565b9050600061090e86610bae565b9050610925338683610920868b611e03565b61130e565b95945050505050565b60606004805461061b90611cbf565b3360008181526001602090815260408083206001600160a01b0387168452909152812054909190838110156109da5760405162461bcd60e51b815260206004820152602560248201527f45524332303a2064656372656173656420616c6c6f77616e63652062656c6f7760448201527f207a65726f00000000000000000000000000000000000000000000000000000060648201526084016107c0565b6109e78286868403610e87565b506001949350505050565b6000336106bf8185856110f7565b60004260066002015411610bab57600654600854610a1e9190611e03565b60085560078054906000610a3183611e32565b91905055506000610a4061053c565b6009549091506001600160a01b031615801590610a6557506000610a6360025490565b115b15610b4e57600960009054906101000a90046001600160a01b03166001600160a01b031663e4fc6b6d6040518163ffffffff1660e01b8152600401600060405180830381600087803b158015610aba57600080fd5b505af1158015610ace573d6000803e3d6000fd5b50505050600960009054906101000a90046001600160a01b03166001600160a01b031663e7187e8a6040518163ffffffff1660e01b81526004016020604051808303816000875af1158015610b27573d6000803e3d6000fd5b505050506040513d601f19601f82011682018060405250810190610b4b9190611ca6565b91505b600081610b5961053c565b610b639190611e1b565b600754909150610b7590600190611e1b565b6040518281527f1a224258155b16d5f723eec2813e723890e50a957ea2e49c707f88dc1cfdb5ce9060200160405180910390a250505b90565b60006106ab826001610db3565b6000610bc682610cdc565b841115610c155760405162461bcd60e51b815260206004820152601f60248201527f455243343632363a207769746864726177206d6f7265207468616e206d61780060448201526064016107c0565b6000610c1f610a00565b90506000610c2c866106c9565b9050610925338686610c3e868b611e03565b8561144a565b6000610c4f82610d00565b841115610c9e5760405162461bcd60e51b815260206004820152601d60248201527f455243343632363a2072656465656d206d6f7265207468616e206d617800000060448201526064016107c0565b6000610ca8610a00565b9050600081610cb68761069e565b610cc09190611e03565b9050610925338686848a61144a565b60006106ab826000610fab565b6001600160a01b0381166000908152602081905260408120546106ab906000610db3565b6001600160a01b0381166000908152602081905260408120546106ab565b6040516001600160a01b038316602482015260448101829052610dae90849063a9059cbb60e01b906064015b60408051601f198184030181529190526020810180517bffffffffffffffffffffffffffffffffffffffffffffffffffffffff167fffffffff000000000000000000000000000000000000000000000000000000009093169290921790915261150a565b505050565b600080610dbf60025490565b90508015610de057610ddb610dd261053c565b859083866115ef565b6107f2565b6107f27f00000000000000000000000000000000000000000000000000000000000000006001600160a01b031663313ce5676040518163ffffffff1660e01b8152600401602060405180830381865afa158015610e41573d6000803e3d6000fd5b505050506040513d601f19601f82011682018060405250810190610e659190611e4d565b610e7090600a611df4565b60125b610e7e90600a611df4565b869190866115ef565b6001600160a01b038316610ee95760405162461bcd60e51b8152602060048201526024808201527f45524332303a20617070726f76652066726f6d20746865207a65726f206164646044820152637265737360e01b60648201526084016107c0565b6001600160a01b038216610f4a5760405162461bcd60e51b815260206004820152602260248201527f45524332303a20617070726f766520746f20746865207a65726f206164647265604482015261737360f01b60648201526084016107c0565b6001600160a01b0383811660008181526001602090815260408083209487168084529482529182902085905590518481527f8c5be1e5ebec7d5bd14f71427d1e84f3dd0314c0f7b2291e5b200ac8c7c3b925910160405180910390a3505050565b600080610fb760025490565b9050831580610fc4575080155b610fd457610ddb81610e7e61053c565b6107f2610fe36012600a611df4565b7f00000000000000000000000000000000000000000000000000000000000000006001600160a01b031663313ce5676040518163ffffffff1660e01b8152600401602060405180830381865afa158015611041573d6000803e3d6000fd5b505050506040513d601f19601f82011682018060405250810190610e739190611e4d565b6001600160a01b0383811660009081526001602090815260408083209386168352929052205460001981146110f157818110156110e45760405162461bcd60e51b815260206004820152601d60248201527f45524332303a20696e73756666696369656e7420616c6c6f77616e636500000060448201526064016107c0565b6110f18484848403610e87565b50505050565b6001600160a01b0383166111735760405162461bcd60e51b815260206004820152602560248201527f45524332303a207472616e736665722066726f6d20746865207a65726f20616460448201527f647265737300000000000000000000000000000000000000000000000000000060648201526084016107c0565b6001600160a01b0382166111d55760405162461bcd60e51b815260206004820152602360248201527f45524332303a207472616e7366657220746f20746865207a65726f206164647260448201526265737360e81b60648201526084016107c0565b6001600160a01b038316600090815260208190526040902054818110156112645760405162461bcd60e51b815260206004820152602660248201527f45524332303a207472616e7366657220616d6f756e742065786365656473206260448201527f616c616e6365000000000000000000000000000000000000000000000000000060648201526084016107c0565b6001600160a01b0380851660009081526020819052604080822085850390559185168152908120805484929061129b908490611e03565b92505081905550826001600160a01b0316846001600160a01b03167fddf252ad1be2c89b69c2b068fc378daa952ba7f163c4a11628f55a4df523b3ef846040516112e791815260200190565b60405180910390a36110f1565b6000806112ff61053c565b11806105c75750506002541590565b61133a7f000000000000000000000000000000000000000000000000000000000000000085308561164a565b6113448382611682565b826001600160a01b0316846001600160a01b03167fdcbc1c05240f31ff3ad067ef1ee35ce4997762752e3a095284754544f4c709d78484604051611392929190918252602082015260400190565b60405180910390a350505050565b600560009054906101000a90046001600160a01b03166001600160a01b0316630c340a246040518163ffffffff1660e01b8152600401602060405180830381865afa1580156113f3573d6000803e3d6000fd5b505050506040513d601f19601f820116820180604052508101906114179190611e70565b6001600160a01b0316336001600160a01b0316146114485760405163075fd2b160e01b815260040160405180910390fd5b565b826001600160a01b0316856001600160a01b03161461146e5761146e838683611065565b6114788382611761565b6114a37f00000000000000000000000000000000000000000000000000000000000000008584610d1e565b826001600160a01b0316846001600160a01b0316866001600160a01b03167ffbde797d201c681b91056529119e0b02407c7bb96a4a2c75c01fc9667232c8db85856040516114fb929190918252602082015260400190565b60405180910390a45050505050565b600061155f826040518060400160405280602081526020017f5361666545524332303a206c6f772d6c6576656c2063616c6c206661696c6564815250856001600160a01b03166118af9092919063ffffffff16565b805190915015610dae578080602001905181019061157d9190611e8d565b610dae5760405162461bcd60e51b815260206004820152602a60248201527f5361666545524332303a204552433230206f7065726174696f6e20646964206e60448201527f6f7420737563636565640000000000000000000000000000000000000000000060648201526084016107c0565b6000806115fd8686866118be565b9050600183600281111561161357611613611eaf565b14801561163057506000848061162b5761162b611ec5565b868809115b1561092557611640600182611e03565b9695505050505050565b6040516001600160a01b03808516602483015283166044820152606481018290526110f19085906323b872dd60e01b90608401610d4a565b6001600160a01b0382166116d85760405162461bcd60e51b815260206004820152601f60248201527f45524332303a206d696e7420746f20746865207a65726f20616464726573730060448201526064016107c0565b80600260008282546116ea9190611e03565b90915550506001600160a01b03821660009081526020819052604081208054839290611717908490611e03565b90915550506040518181526001600160a01b038316906000907fddf252ad1be2c89b69c2b068fc378daa952ba7f163c4a11628f55a4df523b3ef9060200160405180910390a35050565b6001600160a01b0382166117c15760405162461bcd60e51b815260206004820152602160248201527f45524332303a206275726e2066726f6d20746865207a65726f206164647265736044820152607360f81b60648201526084016107c0565b6001600160a01b038216600090815260208190526040902054818110156118355760405162461bcd60e51b815260206004820152602260248201527f45524332303a206275726e20616d6f756e7420657863656564732062616c616e604482015261636560f01b60648201526084016107c0565b6001600160a01b0383166000908152602081905260408120838303905560028054849290611864908490611e1b565b90915550506040518281526000906001600160a01b038516907fddf252ad1be2c89b69c2b068fc378daa952ba7f163c4a11628f55a4df523b3ef9060200160405180910390a3505050565b60606107f2848460008561196e565b6000808060001985870985870292508281108382030391505080600014156118f9578382816118ef576118ef611ec5565b04925050506106f5565b80841161190557600080fd5b60008486880960026001871981018816978890046003810283188082028403028082028403028082028403028082028403028082028403029081029092039091026000889003889004909101858311909403939093029303949094049190911702949350505050565b6060824710156119e65760405162461bcd60e51b815260206004820152602660248201527f416464726573733a20696e73756666696369656e742062616c616e636520666f60448201527f722063616c6c000000000000000000000000000000000000000000000000000060648201526084016107c0565b6001600160a01b0385163b611a3d5760405162461bcd60e51b815260206004820152601d60248201527f416464726573733a2063616c6c20746f206e6f6e2d636f6e747261637400000060448201526064016107c0565b600080866001600160a01b03168587604051611a599190611edb565b60006040518083038185875af1925050503d8060008114611a96576040519150601f19603f3d011682016040523d82523d6000602084013e611a9b565b606091505b5091509150611aab828286611ab6565b979650505050505050565b60608315611ac55750816106f5565b825115611ad55782518084602001fd5b8160405162461bcd60e51b81526004016107c09190611b1b565b60005b83811015611b0a578181015183820152602001611af2565b838111156110f15750506000910152565b6020815260008251806020840152611b3a816040850160208701611aef565b601f01601f19169190910160400192915050565b600060208284031215611b6057600080fd5b5035919050565b6001600160a01b038116811461060957600080fd5b60008060408385031215611b8f57600080fd5b8235611b9a81611b67565b946020939093013593505050565b600080600060608486031215611bbd57600080fd5b8335611bc881611b67565b92506020840135611bd881611b67565b929592945050506040919091013590565b600060208284031215611bfb57600080fd5b81356106f581611b67565b60008060408385031215611c1957600080fd5b823591506020830135611c2b81611b67565b809150509250929050565b600080600060608486031215611c4b57600080fd5b833592506020840135611c5d81611b67565b91506040840135611c6d81611b67565b809150509250925092565b60008060408385031215611c8b57600080fd5b8235611c9681611b67565b91506020830135611c2b81611b67565b600060208284031215611cb857600080fd5b5051919050565b600181811c90821680611cd357607f821691505b60208210811415611cf457634e487b7160e01b600052602260045260246000fd5b50919050565b634e487b7160e01b600052601160045260246000fd5b600181815b80851115611d4b578160001904821115611d3157611d31611cfa565b80851615611d3e57918102915b93841c9390800290611d15565b509250929050565b600082611d62575060016106ab565b81611d6f575060006106ab565b8160018114611d855760028114611d8f57611dab565b60019150506106ab565b60ff841115611da057611da0611cfa565b50506001821b6106ab565b5060208310610133831016604e8410600b8410161715611dce575081810a6106ab565b611dd88383611d10565b8060001904821115611dec57611dec611cfa565b029392505050565b60006106f560ff841683611d53565b60008219821115611e1657611e16611cfa565b500190565b600082821015611e2d57611e2d611cfa565b500390565b6000600019821415611e4657611e46611cfa565b5060010190565b600060208284031215611e5f57600080fd5b815160ff811681146106f557600080fd5b600060208284031215611e8257600080fd5b81516106f581611b67565b600060208284031215611e9f57600080fd5b815180151581146106f557600080fd5b634e487b7160e01b600052602160045260246000fd5b634e487b7160e01b600052601260045260246000fd5b60008251611eed818460208701611aef565b919091019291505056fea164736f6c634300080a000a",
  "devdoc": {
    "kind": "dev",
    "methods": {
      "allowance(address,address)": {
        "details": "See {IERC20-allowance}."
      },
      "approve(address,uint256)": {
        "details": "See {IERC20-approve}. NOTE: If `amount` is the maximum `uint256`, the allowance is not updated on `transferFrom`. This is semantically equivalent to an infinite approval. Requirements: - `spender` cannot be the zero address."
      },
      "asset()": {
        "details": "See {IERC4262-asset}. "
      },
      "balanceOf(address)": {
        "details": "See {IERC20-balanceOf}."
      },
      "convertToAssets(uint256)": {
        "details": "See {IERC4262-convertToAssets}. "
      },
      "convertToShares(uint256)": {
        "details": "See {IERC4262-convertToShares}. "
      },
      "decimals()": {
        "details": "Returns the number of decimals used to get its user representation. For example, if `decimals` equals `2`, a balance of `505` tokens should be displayed to a user as `5.05` (`505 / 10 ** 2`). Tokens usually opt for a value of 18, imitating the relationship between Ether and Wei. This is the value {ERC20} uses, unless this function is overridden; NOTE: This information is only used for _display_ purposes: it in no way affects any of the arithmetic of the contract, including {IERC20-balanceOf} and {IERC20-transfer}."
      },
      "decreaseAllowance(address,uint256)": {
        "details": "Atomically decreases the allowance granted to `spender` by the caller. This is an alternative to {approve} that can be used as a mitigation for problems described in {IERC20-approve}. Emits an {Approval} event indicating the updated allowance. Requirements: - `spender` cannot be the zero address. - `spender` must have allowance for the caller of at least `subtractedValue`."
      },
      "deposit(uint256,address)": {
        "details": "See {IERC4262-deposit}. "
      },
      "increaseAllowance(address,uint256)": {
        "details": "Atomically increases the allowance granted to `spender` by the caller. This is an alternative to {approve} that can be used as a mitigation for problems described in {IERC20-approve}. Emits an {Approval} event indicating the updated allowance. Requirements: - `spender` cannot be the zero address."
      },
      "index()": {
        "returns": {
          "_0": "uint"
        }
      },
      "maxDeposit(address)": {
        "details": "See {IERC4262-maxDeposit}. "
      },
      "maxMint(address)": {
        "details": "See {IERC4262-maxMint}. "
      },
      "maxRedeem(address)": {
        "details": "See {IERC4262-maxRedeem}. "
      },
      "maxWithdraw(address)": {
        "details": "See {IERC4262-maxWithdraw}. "
      },
      "mint(uint256,address)": {
        "details": "See {IERC4262-mint}. "
      },
      "name()": {
        "details": "Returns the name of the token."
      },
      "previewDeposit(uint256)": {
        "details": "See {IERC4262-previewDeposit}. "
      },
      "previewMint(uint256)": {
        "details": "See {IERC4262-previewMint}. "
      },
      "previewRedeem(uint256)": {
        "details": "See {IERC4262-previewRedeem}. "
      },
      "previewWithdraw(uint256)": {
        "details": "See {IERC4262-previewWithdraw}. "
      },
      "redeem(uint256,address,address)": {
        "details": "See {IERC4262-redeem}. "
      },
      "setDistributor(address)": {
        "params": {
          "_distributor": "address"
        }
      },
      "symbol()": {
        "details": "Returns the symbol of the token, usually a shorter version of the name."
      },
      "totalAssets()": {
        "details": "See {IERC4262-totalAssets}. "
      },
      "totalSupply()": {
        "details": "See {IERC20-totalSupply}."
      },
      "transfer(address,uint256)": {
        "details": "See {IERC20-transfer}. Requirements: - `to` cannot be the zero address. - the caller must have a balance of at least `amount`."
      },
      "transferFrom(address,address,uint256)": {
        "details": "See {IERC20-transferFrom}. Emits an {Approval} event indicating the updated allowance. This is not required by the EIP. See the note at the beginning of {ERC20}. NOTE: Does not update the allowance if the current allowance is the maximum `uint256`. Requirements: - `from` and `to` cannot be the zero address. - `from` must have a balance of at least `amount`. - the caller must have allowance for ``from``'s tokens of at least `amount`."
      },
      "withdraw(uint256,address,address)": {
        "details": "See {IERC4262-withdraw}. "
      }
    },
    "version": 1
  },
  "userdoc": {
    "kind": "user",
    "methods": {
      "index()": {
        "notice": "returns the index, which tracks protocol growth"
      },
      "nextEpoch()": {
        "notice": "trigger nextEpoch if epoch over"
      },
      "secondsToNextEpoch()": {
        "notice": "seconds until the next epoch begins"
      },
      "setDistributor(address)": {
        "notice": "sets the contract address for LP staking"
      }
    },
    "version": 1
  },
  "storageLayout": {
    "storage": [
      {
        "astId": 404,
        "contract": "contracts/GovernanceHectagon.sol:GovernanceHectagon",
        "label": "_balances",
        "offset": 0,
        "slot": "0",
        "type": "t_mapping(t_address,t_uint256)"
      },
      {
        "astId": 410,
        "contract": "contracts/GovernanceHectagon.sol:GovernanceHectagon",
        "label": "_allowances",
        "offset": 0,
        "slot": "1",
        "type": "t_mapping(t_address,t_mapping(t_address,t_uint256))"
      },
      {
        "astId": 412,
        "contract": "contracts/GovernanceHectagon.sol:GovernanceHectagon",
        "label": "_totalSupply",
        "offset": 0,
        "slot": "2",
        "type": "t_uint256"
      },
      {
        "astId": 414,
        "contract": "contracts/GovernanceHectagon.sol:GovernanceHectagon",
        "label": "_name",
        "offset": 0,
        "slot": "3",
        "type": "t_string_storage"
      },
      {
        "astId": 416,
        "contract": "contracts/GovernanceHectagon.sol:GovernanceHectagon",
        "label": "_symbol",
        "offset": 0,
        "slot": "4",
        "type": "t_string_storage"
      },
      {
        "astId": 12083,
        "contract": "contracts/GovernanceHectagon.sol:GovernanceHectagon",
        "label": "authority",
        "offset": 0,
        "slot": "5",
        "type": "t_contract(IHectagonAuthority)8713"
      },
      {
        "astId": 5817,
        "contract": "contracts/GovernanceHectagon.sol:GovernanceHectagon",
        "label": "epoch",
        "offset": 0,
        "slot": "6",
        "type": "t_struct(Epoch)5814_storage"
      },
      {
        "astId": 5820,
        "contract": "contracts/GovernanceHectagon.sol:GovernanceHectagon",
        "label": "distributor",
        "offset": 0,
        "slot": "9",
        "type": "t_contract(IDistributor)8601"
      }
    ],
    "types": {
      "t_address": {
        "encoding": "inplace",
        "label": "address",
        "numberOfBytes": "20"
      },
      "t_contract(IDistributor)8601": {
        "encoding": "inplace",
        "label": "contract IDistributor",
        "numberOfBytes": "20"
      },
      "t_contract(IHectagonAuthority)8713": {
        "encoding": "inplace",
        "label": "contract IHectagonAuthority",
        "numberOfBytes": "20"
      },
      "t_mapping(t_address,t_mapping(t_address,t_uint256))": {
        "encoding": "mapping",
        "key": "t_address",
        "label": "mapping(address => mapping(address => uint256))",
        "numberOfBytes": "32",
        "value": "t_mapping(t_address,t_uint256)"
      },
      "t_mapping(t_address,t_uint256)": {
        "encoding": "mapping",
        "key": "t_address",
        "label": "mapping(address => uint256)",
        "numberOfBytes": "32",
        "value": "t_uint256"
      },
      "t_string_storage": {
        "encoding": "bytes",
        "label": "string",
        "numberOfBytes": "32"
      },
      "t_struct(Epoch)5814_storage": {
        "encoding": "inplace",
        "label": "struct GovernanceHectagon.Epoch",
        "members": [
          {
            "astId": 5809,
            "contract": "contracts/GovernanceHectagon.sol:GovernanceHectagon",
            "label": "length",
            "offset": 0,
            "slot": "0",
            "type": "t_uint256"
          },
          {
            "astId": 5811,
            "contract": "contracts/GovernanceHectagon.sol:GovernanceHectagon",
            "label": "number",
            "offset": 0,
            "slot": "1",
            "type": "t_uint256"
          },
          {
            "astId": 5813,
            "contract": "contracts/GovernanceHectagon.sol:GovernanceHectagon",
            "label": "end",
            "offset": 0,
            "slot": "2",
            "type": "t_uint256"
          }
        ],
        "numberOfBytes": "96"
      },
      "t_uint256": {
        "encoding": "inplace",
        "label": "uint256",
        "numberOfBytes": "32"
      }
    }
  }
}