{
  "address": "0x63add74873b304B3992DCe7A38C1A1ed684E5A98",
  "abi": [
    {
      "inputs": [
        {
          "internalType": "address",
          "name": "_hectaCirculatingSupply",
          "type": "address"
        },
        {
          "internalType": "address",
          "name": "_pHecta",
          "type": "address"
        },
        {
          "internalType": "address",
          "name": "_tHecta",
          "type": "address"
        },
        {
          "internalType": "address",
          "name": "_gHecta",
          "type": "address"
        }
      ],
      "stateMutability": "nonpayable",
      "type": "constructor"
    },
    {
      "anonymous": false,
      "inputs": [
        {
          "indexed": true,
          "internalType": "address",
          "name": "previousOwner",
          "type": "address"
        },
        {
          "indexed": true,
          "internalType": "address",
          "name": "newOwner",
          "type": "address"
        }
      ],
      "name": "OwnershipTransferred",
      "type": "event"
    },
    {
      "inputs": [],
      "name": "TOTAL_POINT",
      "outputs": [
        {
          "internalType": "uint256",
          "name": "",
          "type": "uint256"
        }
      ],
      "stateMutability": "view",
      "type": "function"
    },
    {
      "inputs": [],
      "name": "caclulateHectaWeight",
      "outputs": [
        {
          "internalType": "uint256",
          "name": "",
          "type": "uint256"
        }
      ],
      "stateMutability": "view",
      "type": "function"
    },
    {
      "inputs": [],
      "name": "gHecta",
      "outputs": [
        {
          "internalType": "contract IgHECTA",
          "name": "",
          "type": "address"
        }
      ],
      "stateMutability": "view",
      "type": "function"
    },
    {
      "inputs": [],
      "name": "gHectaWeight",
      "outputs": [
        {
          "internalType": "uint256",
          "name": "",
          "type": "uint256"
        }
      ],
      "stateMutability": "view",
      "type": "function"
    },
    {
      "inputs": [],
      "name": "hectaCirculatingSupply",
      "outputs": [
        {
          "internalType": "contract IHectaCirculatingSupply",
          "name": "",
          "type": "address"
        }
      ],
      "stateMutability": "view",
      "type": "function"
    },
    {
      "inputs": [],
      "name": "owner",
      "outputs": [
        {
          "internalType": "address",
          "name": "",
          "type": "address"
        }
      ],
      "stateMutability": "view",
      "type": "function"
    },
    {
      "inputs": [],
      "name": "pHecta",
      "outputs": [
        {
          "internalType": "contract IERC20",
          "name": "",
          "type": "address"
        }
      ],
      "stateMutability": "view",
      "type": "function"
    },
    {
      "inputs": [],
      "name": "pHectaWeight",
      "outputs": [
        {
          "internalType": "uint256",
          "name": "",
          "type": "uint256"
        }
      ],
      "stateMutability": "pure",
      "type": "function"
    },
    {
      "inputs": [],
      "name": "renounceOwnership",
      "outputs": [],
      "stateMutability": "nonpayable",
      "type": "function"
    },
    {
      "inputs": [
        {
          "internalType": "address",
          "name": "_hectaCirculatingSupply",
          "type": "address"
        },
        {
          "internalType": "address",
          "name": "_pHecta",
          "type": "address"
        },
        {
          "internalType": "address",
          "name": "_tHecta",
          "type": "address"
        },
        {
          "internalType": "address",
          "name": "_gHecta",
          "type": "address"
        }
      ],
      "name": "setAddresses",
      "outputs": [],
      "stateMutability": "nonpayable",
      "type": "function"
    },
    {
      "inputs": [],
      "name": "tHecta",
      "outputs": [
        {
          "internalType": "contract IERC20",
          "name": "",
          "type": "address"
        }
      ],
      "stateMutability": "view",
      "type": "function"
    },
    {
      "inputs": [],
      "name": "tHectaWeight",
      "outputs": [
        {
          "internalType": "uint256",
          "name": "",
          "type": "uint256"
        }
      ],
      "stateMutability": "pure",
      "type": "function"
    },
    {
      "inputs": [
        {
          "internalType": "address",
          "name": "newOwner",
          "type": "address"
        }
      ],
      "name": "transferOwnership",
      "outputs": [],
      "stateMutability": "nonpayable",
      "type": "function"
    }
  ],
  "transactionHash": "0x6b47efe18baa89953ffd241876d9e8ffdff5ab4c074396fdaee70fb6474c27e5",
  "args": [
    "0x44F759187a1694F22EC16D44809c120DADF315FD",
    "0x33218297D315fC70E1520e292CA88348b648bf15",
    "0x459F18859399e3178CE1E74F0c4a791eAEe13bEE",
    "0x7D31ed03c2442F9ffc4f22d90772EE1f32fa9b0D"
  ],
  "solcInputHash": "ca12d8af804850e81cc663dd9685dae9",
  "bytecode": "0x608060405234801561001057600080fd5b50604051610b83380380610b8383398101604081905261002f91610272565b61003833610206565b6001600160a01b0384166100935760405162461bcd60e51b815260206004820152601360248201527f5a65726f20616464726573733a2048454354410000000000000000000000000060448201526064015b60405180910390fd5b600180546001600160a01b0319166001600160a01b038681169190911790915583166101015760405162461bcd60e51b815260206004820152601460248201527f5a65726f20616464726573733a20704845435441000000000000000000000000604482015260640161008a565b600280546001600160a01b0319166001600160a01b0385811691909117909155821661016f5760405162461bcd60e51b815260206004820152601460248201527f5a65726f20616464726573733a20744845435441000000000000000000000000604482015260640161008a565b600380546001600160a01b0319166001600160a01b038481169190911790915581166101dd5760405162461bcd60e51b815260206004820152601460248201527f5a65726f20616464726573733a20674865637461000000000000000000000000604482015260640161008a565b600480546001600160a01b0319166001600160a01b0392909216919091179055506102c6915050565b600080546001600160a01b038381166001600160a01b0319831681178455604051919092169283917f8be0079c531659141344cd1fd0a4f28419497f9722a3daafe3b4186f6b6457e09190a35050565b80516001600160a01b038116811461026d57600080fd5b919050565b6000806000806080858703121561028857600080fd5b61029185610256565b935061029f60208601610256565b92506102ad60408601610256565b91506102bb60608601610256565b905092959194509250565b6108ae806102d56000396000f3fe608060405234801561001057600080fd5b50600436106100df5760003560e01c80638155fa6c1161008c578063a3ff0c4e11610066578063a3ff0c4e14610195578063b2e1e000146100e4578063ec71e0eb1461019d578063f2fde38b146101a957600080fd5b80638155fa6c1461015e5780638da5cb5b14610171578063931ae9851461018257600080fd5b80634244bc56116100bd5780634244bc561461012e5780634a945f8d14610141578063715018a61461015657600080fd5b806304a70281146100e45780632b430bc7146100fb578063332b367314610103575b600080fd5b6101f45b6040519081526020015b60405180910390f35b6100e86101bc565b600154610116906001600160a01b031681565b6040516001600160a01b0390911681526020016100f2565b600454610116906001600160a01b031681565b61015461014f36600461078c565b6103be565b005b610154610590565b600254610116906001600160a01b031681565b6000546001600160a01b0316610116565b600354610116906001600160a01b031681565b6100e86105a4565b6100e864174876e80081565b6101546101b73660046107e0565b610636565b600080600260009054906101000a90046001600160a01b03166001600160a01b03166318160ddd6040518163ffffffff1660e01b8152600401602060405180830381865afa158015610212573d6000803e3d6000fd5b505050506040513d601f19601f820116820180604052508101906102369190610802565b610242906101f4610831565b90506000600360009054906101000a90046001600160a01b03166001600160a01b03166318160ddd6040518163ffffffff1660e01b8152600401602060405180830381865afa158015610299573d6000803e3d6000fd5b505050506040513d601f19601f820116820180604052508101906102bd9190610802565b6102c9906101f4610831565b90506000600160009054906101000a90046001600160a01b03166001600160a01b0316639358928b6040518163ffffffff1660e01b8152600401602060405180830381865afa158015610320573d6000803e3d6000fd5b505050506040513d601f19601f820116820180604052508101906103449190610802565b905080610355576000935050505090565b61035f8284610850565b61037264174876e800633b9aca00610831565b1015610382576000935050505090565b80828461039864174876e800633b9aca00610831565b6103a29190610868565b6103ac9190610868565b6103b6919061087f565b935050505090565b6103c66106c6565b6001600160a01b0384166104215760405162461bcd60e51b815260206004820152601360248201527f5a65726f20616464726573733a2048454354410000000000000000000000000060448201526064015b60405180910390fd5b600180546001600160a01b0319166001600160a01b0386811691909117909155831661048f5760405162461bcd60e51b815260206004820152601460248201527f5a65726f20616464726573733a207048454354410000000000000000000000006044820152606401610418565b600280546001600160a01b0319166001600160a01b038581169190911790915582166104fd5760405162461bcd60e51b815260206004820152601460248201527f5a65726f20616464726573733a207448454354410000000000000000000000006044820152606401610418565b600380546001600160a01b0319166001600160a01b0384811691909117909155811661056b5760405162461bcd60e51b815260206004820152601460248201527f5a65726f20616464726573733a206748656374610000000000000000000000006044820152606401610418565b600480546001600160a01b0319166001600160a01b0392909216919091179055505050565b6105986106c6565b6105a26000610720565b565b6004805460408051632986c0e560e01b81529051600093633b9aca00936001600160a01b031692632986c0e592818301926020928290030181865afa1580156105f1573d6000803e3d6000fd5b505050506040513d601f19601f820116820180604052508101906106159190610802565b61061d6101bc565b6106279190610831565b610631919061087f565b905090565b61063e6106c6565b6001600160a01b0381166106ba5760405162461bcd60e51b815260206004820152602660248201527f4f776e61626c653a206e6577206f776e657220697320746865207a65726f206160448201527f64647265737300000000000000000000000000000000000000000000000000006064820152608401610418565b6106c381610720565b50565b6000546001600160a01b031633146105a25760405162461bcd60e51b815260206004820181905260248201527f4f776e61626c653a2063616c6c6572206973206e6f7420746865206f776e65726044820152606401610418565b600080546001600160a01b038381166001600160a01b0319831681178455604051919092169283917f8be0079c531659141344cd1fd0a4f28419497f9722a3daafe3b4186f6b6457e09190a35050565b80356001600160a01b038116811461078757600080fd5b919050565b600080600080608085870312156107a257600080fd5b6107ab85610770565b93506107b960208601610770565b92506107c760408601610770565b91506107d560608601610770565b905092959194509250565b6000602082840312156107f257600080fd5b6107fb82610770565b9392505050565b60006020828403121561081457600080fd5b5051919050565b634e487b7160e01b600052601160045260246000fd5b600081600019048311821515161561084b5761084b61081b565b500290565b600082198211156108635761086361081b565b500190565b60008282101561087a5761087a61081b565b500390565b60008261089c57634e487b7160e01b600052601260045260246000fd5b50049056fea164736f6c634300080a000a",
  "devdoc": {
    "kind": "dev",
    "methods": {
      "owner()": {
        "details": "Returns the address of the current owner."
      },
      "renounceOwnership()": {
        "details": "Leaves the contract without owner. It will not be possible to call `onlyOwner` functions anymore. Can only be called by the current owner. NOTE: Renouncing ownership will leave the contract without an owner, thereby removing any functionality that is only available to the owner."
      },
      "transferOwnership(address)": {
        "details": "Transfers ownership of the contract to a new account (`newOwner`). Can only be called by the current owner."
      }
    },
    "version": 1
  },
  "userdoc": {
    "kind": "user",
    "methods": {},
    "version": 1
  },
  "storageLayout": {
    "storage": [
      {
        "astId": 7,
        "contract": "contracts/Snapshot.sol:Snapshot",
        "label": "_owner",
        "offset": 0,
        "slot": "0",
        "type": "t_address"
      },
      {
        "astId": 7847,
        "contract": "contracts/Snapshot.sol:Snapshot",
        "label": "hectaCirculatingSupply",
        "offset": 0,
        "slot": "1",
        "type": "t_contract(IHectaCirculatingSupply)8634"
      },
      {
        "astId": 7850,
        "contract": "contracts/Snapshot.sol:Snapshot",
        "label": "pHecta",
        "offset": 0,
        "slot": "2",
        "type": "t_contract(IERC20)1052"
      },
      {
        "astId": 7853,
        "contract": "contracts/Snapshot.sol:Snapshot",
        "label": "tHecta",
        "offset": 0,
        "slot": "3",
        "type": "t_contract(IERC20)1052"
      },
      {
        "astId": 7856,
        "contract": "contracts/Snapshot.sol:Snapshot",
        "label": "gHecta",
        "offset": 0,
        "slot": "4",
        "type": "t_contract(IgHECTA)9170"
      }
    ],
    "types": {
      "t_address": {
        "encoding": "inplace",
        "label": "address",
        "numberOfBytes": "20"
      },
      "t_contract(IERC20)1052": {
        "encoding": "inplace",
        "label": "contract IERC20",
        "numberOfBytes": "20"
      },
      "t_contract(IHectaCirculatingSupply)8634": {
        "encoding": "inplace",
        "label": "contract IHectaCirculatingSupply",
        "numberOfBytes": "20"
      },
      "t_contract(IgHECTA)9170": {
        "encoding": "inplace",
        "label": "contract IgHECTA",
        "numberOfBytes": "20"
      }
    }
  }
}