{
  "address": "0x459F18859399e3178CE1E74F0c4a791eAEe13bEE",
  "abi": [
    {
      "inputs": [],
      "stateMutability": "nonpayable",
      "type": "constructor"
    },
    {
      "anonymous": false,
      "inputs": [
        {
          "indexed": true,
          "internalType": "address",
          "name": "owner",
          "type": "address"
        },
        {
          "indexed": true,
          "internalType": "address",
          "name": "spender",
          "type": "address"
        },
        {
          "indexed": false,
          "internalType": "uint256",
          "name": "value",
          "type": "uint256"
        }
      ],
      "name": "Approval",
      "type": "event"
    },
    {
      "anonymous": false,
      "inputs": [
        {
          "indexed": true,
          "internalType": "address",
          "name": "from",
          "type": "address"
        },
        {
          "indexed": false,
          "internalType": "uint256",
          "name": "amount",
          "type": "uint256"
        }
      ],
      "name": "Exercise",
      "type": "event"
    },
    {
      "anonymous": false,
      "inputs": [
        {
          "indexed": true,
          "internalType": "address",
          "name": "previousOwner",
          "type": "address"
        },
        {
          "indexed": true,
          "internalType": "address",
          "name": "newOwner",
          "type": "address"
        }
      ],
      "name": "OwnershipTransferred",
      "type": "event"
    },
    {
      "anonymous": false,
      "inputs": [
        {
          "indexed": false,
          "internalType": "address",
          "name": "account",
          "type": "address"
        }
      ],
      "name": "Paused",
      "type": "event"
    },
    {
      "anonymous": false,
      "inputs": [
        {
          "indexed": true,
          "internalType": "address",
          "name": "from",
          "type": "address"
        },
        {
          "indexed": true,
          "internalType": "address",
          "name": "to",
          "type": "address"
        },
        {
          "indexed": false,
          "internalType": "uint256",
          "name": "value",
          "type": "uint256"
        }
      ],
      "name": "Transfer",
      "type": "event"
    },
    {
      "anonymous": false,
      "inputs": [
        {
          "indexed": false,
          "internalType": "address",
          "name": "account",
          "type": "address"
        }
      ],
      "name": "Unpaused",
      "type": "event"
    },
    {
      "inputs": [],
      "name": "RATE_DENOMINATOR",
      "outputs": [
        {
          "internalType": "uint256",
          "name": "",
          "type": "uint256"
        }
      ],
      "stateMutability": "view",
      "type": "function"
    },
    {
      "inputs": [],
      "name": "RATE_NUMERATOR",
      "outputs": [
        {
          "internalType": "uint256",
          "name": "",
          "type": "uint256"
        }
      ],
      "stateMutability": "view",
      "type": "function"
    },
    {
      "inputs": [
        {
          "internalType": "address",
          "name": "owner",
          "type": "address"
        },
        {
          "internalType": "address",
          "name": "spender",
          "type": "address"
        }
      ],
      "name": "allowance",
      "outputs": [
        {
          "internalType": "uint256",
          "name": "",
          "type": "uint256"
        }
      ],
      "stateMutability": "view",
      "type": "function"
    },
    {
      "inputs": [
        {
          "internalType": "address",
          "name": "spender",
          "type": "address"
        },
        {
          "internalType": "uint256",
          "name": "amount",
          "type": "uint256"
        }
      ],
      "name": "approve",
      "outputs": [
        {
          "internalType": "bool",
          "name": "",
          "type": "bool"
        }
      ],
      "stateMutability": "nonpayable",
      "type": "function"
    },
    {
      "inputs": [
        {
          "internalType": "address",
          "name": "account",
          "type": "address"
        }
      ],
      "name": "balanceOf",
      "outputs": [
        {
          "internalType": "uint256",
          "name": "",
          "type": "uint256"
        }
      ],
      "stateMutability": "view",
      "type": "function"
    },
    {
      "inputs": [],
      "name": "beat",
      "outputs": [],
      "stateMutability": "nonpayable",
      "type": "function"
    },
    {
      "inputs": [
        {
          "internalType": "uint256",
          "name": "amount",
          "type": "uint256"
        }
      ],
      "name": "burn",
      "outputs": [],
      "stateMutability": "nonpayable",
      "type": "function"
    },
    {
      "inputs": [
        {
          "internalType": "address",
          "name": "account",
          "type": "address"
        },
        {
          "internalType": "uint256",
          "name": "amount",
          "type": "uint256"
        }
      ],
      "name": "burnFrom",
      "outputs": [],
      "stateMutability": "nonpayable",
      "type": "function"
    },
    {
      "inputs": [],
      "name": "busdAddress",
      "outputs": [
        {
          "internalType": "address",
          "name": "",
          "type": "address"
        }
      ],
      "stateMutability": "view",
      "type": "function"
    },
    {
      "inputs": [],
      "name": "circulatingHectaContract",
      "outputs": [
        {
          "internalType": "contract IHectaCirculatingSupply",
          "name": "",
          "type": "address"
        }
      ],
      "stateMutability": "view",
      "type": "function"
    },
    {
      "inputs": [
        {
          "internalType": "address",
          "name": "_user",
          "type": "address"
        },
        {
          "internalType": "uint256[]",
          "name": "_indexes",
          "type": "uint256[]"
        }
      ],
      "name": "claim",
      "outputs": [
        {
          "internalType": "uint256",
          "name": "amount_",
          "type": "uint256"
        }
      ],
      "stateMutability": "nonpayable",
      "type": "function"
    },
    {
      "inputs": [
        {
          "internalType": "address",
          "name": "_user",
          "type": "address"
        }
      ],
      "name": "claimAll",
      "outputs": [
        {
          "internalType": "uint256",
          "name": "",
          "type": "uint256"
        }
      ],
      "stateMutability": "nonpayable",
      "type": "function"
    },
    {
      "inputs": [],
      "name": "decimals",
      "outputs": [
        {
          "internalType": "uint8",
          "name": "",
          "type": "uint8"
        }
      ],
      "stateMutability": "view",
      "type": "function"
    },
    {
      "inputs": [
        {
          "internalType": "address",
          "name": "spender",
          "type": "address"
        },
        {
          "internalType": "uint256",
          "name": "subtractedValue",
          "type": "uint256"
        }
      ],
      "name": "decreaseAllowance",
      "outputs": [
        {
          "internalType": "bool",
          "name": "",
          "type": "bool"
        }
      ],
      "stateMutability": "nonpayable",
      "type": "function"
    },
    {
      "inputs": [],
      "name": "disableWhiteList",
      "outputs": [],
      "stateMutability": "nonpayable",
      "type": "function"
    },
    {
      "inputs": [],
      "name": "enableWhiteList",
      "outputs": [],
      "stateMutability": "nonpayable",
      "type": "function"
    },
    {
      "inputs": [
        {
          "internalType": "uint256",
          "name": "amount_",
          "type": "uint256"
        }
      ],
      "name": "exercise",
      "outputs": [],
      "stateMutability": "nonpayable",
      "type": "function"
    },
    {
      "inputs": [
        {
          "internalType": "address",
          "name": "addr",
          "type": "address"
        }
      ],
      "name": "getClaimable",
      "outputs": [
        {
          "internalType": "uint256",
          "name": "",
          "type": "uint256"
        }
      ],
      "stateMutability": "view",
      "type": "function"
    },
    {
      "inputs": [],
      "name": "hectaAddress",
      "outputs": [
        {
          "internalType": "address",
          "name": "",
          "type": "address"
        }
      ],
      "stateMutability": "view",
      "type": "function"
    },
    {
      "inputs": [
        {
          "internalType": "address",
          "name": "",
          "type": "address"
        }
      ],
      "name": "holders",
      "outputs": [
        {
          "internalType": "bool",
          "name": "isTransferable",
          "type": "bool"
        },
        {
          "internalType": "uint256",
          "name": "lastRebaseSpaceIndex",
          "type": "uint256"
        },
        {
          "internalType": "uint256",
          "name": "maxClaim",
          "type": "uint256"
        },
        {
          "internalType": "uint256",
          "name": "claimed",
          "type": "uint256"
        },
        {
          "internalType": "uint256",
          "name": "currentSpaceProfit",
          "type": "uint256"
        }
      ],
      "stateMutability": "view",
      "type": "function"
    },
    {
      "inputs": [
        {
          "internalType": "address",
          "name": "spender",
          "type": "address"
        },
        {
          "internalType": "uint256",
          "name": "addedValue",
          "type": "uint256"
        }
      ],
      "name": "increaseAllowance",
      "outputs": [
        {
          "internalType": "bool",
          "name": "",
          "type": "bool"
        }
      ],
      "stateMutability": "nonpayable",
      "type": "function"
    },
    {
      "inputs": [
        {
          "internalType": "address",
          "name": "_user",
          "type": "address"
        }
      ],
      "name": "indexesFor",
      "outputs": [
        {
          "internalType": "uint256[]",
          "name": "",
          "type": "uint256[]"
        }
      ],
      "stateMutability": "view",
      "type": "function"
    },
    {
      "inputs": [
        {
          "internalType": "address",
          "name": "hectaAddress_",
          "type": "address"
        },
        {
          "internalType": "address",
          "name": "treasuryAddress_",
          "type": "address"
        },
        {
          "internalType": "address",
          "name": "busdAddress_",
          "type": "address"
        },
        {
          "internalType": "contract IHectaCirculatingSupply",
          "name": "circulatingHectaContract_",
          "type": "address"
        }
      ],
      "name": "initialize",
      "outputs": [],
      "stateMutability": "nonpayable",
      "type": "function"
    },
    {
      "inputs": [
        {
          "internalType": "address",
          "name": "",
          "type": "address"
        }
      ],
      "name": "investors",
      "outputs": [
        {
          "internalType": "bool",
          "name": "",
          "type": "bool"
        }
      ],
      "stateMutability": "view",
      "type": "function"
    },
    {
      "inputs": [],
      "name": "name",
      "outputs": [
        {
          "internalType": "string",
          "name": "",
          "type": "string"
        }
      ],
      "stateMutability": "view",
      "type": "function"
    },
    {
      "inputs": [
        {
          "internalType": "address",
          "name": "",
          "type": "address"
        },
        {
          "internalType": "uint256",
          "name": "",
          "type": "uint256"
        }
      ],
      "name": "notes",
      "outputs": [
        {
          "internalType": "uint256",
          "name": "claimableAt",
          "type": "uint256"
        },
        {
          "internalType": "uint256",
          "name": "claimedAt",
          "type": "uint256"
        },
        {
          "internalType": "uint256",
          "name": "amount",
          "type": "uint256"
        }
      ],
      "stateMutability": "view",
      "type": "function"
    },
    {
      "inputs": [],
      "name": "owner",
      "outputs": [
        {
          "internalType": "address",
          "name": "",
          "type": "address"
        }
      ],
      "stateMutability": "view",
      "type": "function"
    },
    {
      "inputs": [],
      "name": "pause",
      "outputs": [],
      "stateMutability": "nonpayable",
      "type": "function"
    },
    {
      "inputs": [],
      "name": "paused",
      "outputs": [
        {
          "internalType": "bool",
          "name": "",
          "type": "bool"
        }
      ],
      "stateMutability": "view",
      "type": "function"
    },
    {
      "inputs": [
        {
          "internalType": "address",
          "name": "_user",
          "type": "address"
        },
        {
          "internalType": "uint256",
          "name": "_index",
          "type": "uint256"
        }
      ],
      "name": "pendingFor",
      "outputs": [
        {
          "internalType": "uint256",
          "name": "amount_",
          "type": "uint256"
        },
        {
          "internalType": "bool",
          "name": "claimable_",
          "type": "bool"
        }
      ],
      "stateMutability": "view",
      "type": "function"
    },
    {
      "inputs": [],
      "name": "renounceOwnership",
      "outputs": [],
      "stateMutability": "nonpayable",
      "type": "function"
    },
    {
      "inputs": [
        {
          "internalType": "uint256",
          "name": "spaceLength_",
          "type": "uint256"
        }
      ],
      "name": "setSpaceLength",
      "outputs": [],
      "stateMutability": "nonpayable",
      "type": "function"
    },
    {
      "inputs": [
        {
          "internalType": "uint256",
          "name": "vestingLength_",
          "type": "uint256"
        }
      ],
      "name": "setVestingLength",
      "outputs": [],
      "stateMutability": "nonpayable",
      "type": "function"
    },
    {
      "inputs": [],
      "name": "spaceCounter",
      "outputs": [
        {
          "internalType": "uint256",
          "name": "_value",
          "type": "uint256"
        }
      ],
      "stateMutability": "view",
      "type": "function"
    },
    {
      "inputs": [],
      "name": "spaceLength",
      "outputs": [
        {
          "internalType": "uint256",
          "name": "",
          "type": "uint256"
        }
      ],
      "stateMutability": "view",
      "type": "function"
    },
    {
      "inputs": [
        {
          "internalType": "uint256",
          "name": "",
          "type": "uint256"
        }
      ],
      "name": "spaces",
      "outputs": [
        {
          "internalType": "uint256",
          "name": "totalHecta",
          "type": "uint256"
        },
        {
          "internalType": "uint256",
          "name": "totalPHecta",
          "type": "uint256"
        },
        {
          "internalType": "uint256",
          "name": "startedTime",
          "type": "uint256"
        }
      ],
      "stateMutability": "view",
      "type": "function"
    },
    {
      "inputs": [
        {
          "internalType": "uint256",
          "name": "startTimestamp_",
          "type": "uint256"
        }
      ],
      "name": "start",
      "outputs": [],
      "stateMutability": "nonpayable",
      "type": "function"
    },
    {
      "inputs": [],
      "name": "startTimestamp",
      "outputs": [
        {
          "internalType": "uint256",
          "name": "",
          "type": "uint256"
        }
      ],
      "stateMutability": "view",
      "type": "function"
    },
    {
      "inputs": [],
      "name": "symbol",
      "outputs": [
        {
          "internalType": "string",
          "name": "",
          "type": "string"
        }
      ],
      "stateMutability": "view",
      "type": "function"
    },
    {
      "inputs": [
        {
          "internalType": "address",
          "name": "token",
          "type": "address"
        },
        {
          "internalType": "uint256",
          "name": "amount_",
          "type": "uint256"
        }
      ],
      "name": "toTokenAmount",
      "outputs": [
        {
          "internalType": "uint256",
          "name": "value_",
          "type": "uint256"
        }
      ],
      "stateMutability": "view",
      "type": "function"
    },
    {
      "inputs": [
        {
          "internalType": "address",
          "name": "investor",
          "type": "address"
        }
      ],
      "name": "toggleInvestor",
      "outputs": [],
      "stateMutability": "nonpayable",
      "type": "function"
    },
    {
      "inputs": [],
      "name": "totalSupply",
      "outputs": [
        {
          "internalType": "uint256",
          "name": "",
          "type": "uint256"
        }
      ],
      "stateMutability": "view",
      "type": "function"
    },
    {
      "inputs": [
        {
          "internalType": "address",
          "name": "recipient",
          "type": "address"
        },
        {
          "internalType": "uint256",
          "name": "amount",
          "type": "uint256"
        }
      ],
      "name": "transfer",
      "outputs": [
        {
          "internalType": "bool",
          "name": "",
          "type": "bool"
        }
      ],
      "stateMutability": "nonpayable",
      "type": "function"
    },
    {
      "inputs": [
        {
          "internalType": "address",
          "name": "from",
          "type": "address"
        },
        {
          "internalType": "address",
          "name": "to",
          "type": "address"
        },
        {
          "internalType": "uint256",
          "name": "amount",
          "type": "uint256"
        }
      ],
      "name": "transferFrom",
      "outputs": [
        {
          "internalType": "bool",
          "name": "",
          "type": "bool"
        }
      ],
      "stateMutability": "nonpayable",
      "type": "function"
    },
    {
      "inputs": [
        {
          "internalType": "address",
          "name": "newOwner",
          "type": "address"
        }
      ],
      "name": "transferOwnership",
      "outputs": [],
      "stateMutability": "nonpayable",
      "type": "function"
    },
    {
      "inputs": [],
      "name": "treasuryAddress",
      "outputs": [
        {
          "internalType": "address",
          "name": "",
          "type": "address"
        }
      ],
      "stateMutability": "view",
      "type": "function"
    },
    {
      "inputs": [],
      "name": "unpause",
      "outputs": [],
      "stateMutability": "nonpayable",
      "type": "function"
    },
    {
      "inputs": [],
      "name": "useWhiteList",
      "outputs": [
        {
          "internalType": "bool",
          "name": "",
          "type": "bool"
        }
      ],
      "stateMutability": "view",
      "type": "function"
    },
    {
      "inputs": [],
      "name": "vestingLength",
      "outputs": [
        {
          "internalType": "uint256",
          "name": "",
          "type": "uint256"
        }
      ],
      "stateMutability": "view",
      "type": "function"
    }
  ],
  "transactionHash": "0xf4f7d7e0aee1700685fd7f14eef0d33754fa87c8bc7571e4fcf30e3e379e0075",
  "args": [],
  "solcInputHash": "ca12d8af804850e81cc663dd9685dae9",
  "bytecode": "0x608060405262093a8060115562093a806012553480156200001f57600080fd5b50604080518082018252600d81526c2a32b0b6902432b1ba30b3b7b760991b6020808301919091528251808401909352600683526574486563746160d01b908301526000805460ff19169055906200007733620000c4565b81516200008c906004906020850190620009ab565b508051620000a2906005906020840190620009ab565b505050620000be3366b1a2bc2ec500006200011d60201b60201c565b62000b56565b600080546001600160a01b03838116610100818102610100600160a81b0319851617855560405193049190911692909183917f8be0079c531659141344cd1fd0a4f28419497f9722a3daafe3b4186f6b6457e091a35050565b6001600160a01b038216620001795760405162461bcd60e51b815260206004820152601f60248201527f45524332303a206d696e7420746f20746865207a65726f20616464726573730060448201526064015b60405180910390fd5b620001876000838362000222565b80600360008282546200019b919062000a67565b90915550506001600160a01b03821660009081526001602052604081208054839290620001ca90849062000a67565b90915550506040518181526001600160a01b038316906000907fddf252ad1be2c89b69c2b068fc378daa952ba7f163c4a11628f55a4df523b3ef9060200160405180910390a36200021e60008383620002fe565b5050565b600b54158015906200023c57506001600160a01b03831615155b80156200025157506001600160a01b03821615155b15620002f957620002628362000413565b6200026d8262000413565b6001600160a01b0383166000908152600e602052604090206001015415620002f9576001600160a01b0383166000908152600e602052604090205460ff16620002f95760405162461bcd60e51b815260206004820152601e60248201527f43616e6e6f74207472616e736665722061667465722065786572636973650000604482015260640162000170565b505050565b600b54158015906200031857506001600160a01b03831615155b80156200032d57506001600160a01b03821615155b15620002f9576001600160a01b0383166000908152600160205260408120546200035990839062000a67565b6001600160a01b0385166000908152600e602052604090206004015462000381908462000a82565b6200038d919062000aa4565b6001600160a01b0385166000908152600e6020526040902060020154909150620003b990829062000ac7565b6001600160a01b038086166000908152600e60205260408082206002908101949094559186168152200154620003f190829062000a67565b6001600160a01b0384166000908152600e602052604090206002015550505050565b6200041d620004c8565b6200043460066200064960201b6200169f1760201c565b6001600160a01b0382166000908152600e60205260409020600101541015620004aa57600062000464826200064d565b6020808201516001600160a01b0385166000908152600e909252604091829020600481019190915582516002820155910151600180830191909155815460ff1916179055505b50565b6001600160a01b031660009081526001602052604090205490565b6000600f6000620004e560066200064960201b6200169f1760201c565b8152602001908152602001600020604051806060016040529081600082015481526020016001820154815260200160028201548152505090506000600b54118015620005425750601154604082015162000540904262000ac7565b115b15620004aa576200055f6006620009a260201b620016a31760201c565b6040518060600160405280600a60009054906101000a90046001600160a01b03166001600160a01b0316639358928b6040518163ffffffff1660e01b8152600401602060405180830381865afa158015620005be573d6000803e3d6000fd5b505050506040513d601f19601f82011682018060405250810190620005e4919062000ae1565b8152602001620005f360035490565b815260200142815250600f60006200061760066200064960201b6200169f1760201c565b815260200190815260200160002060008201518160000155602082015181600101556040820151816002015590505050565b5490565b6200067260405180606001604052806000815260200160008152602001600081525090565b600b541580620006825750600354155b15620006ad576040518060600160405280600081526020016000815260200160008152509050919050565b6000620006c660066200064960201b6200169f1760201c565b6000818152600f6020908152604080832081516060810183528154815260018083015482860152600290920154818401526001600160a01b0389168552600e9093529083206004810154910154939450909284111562000817576001600160a01b0386166000908152600e60205260409020600101545b848110156200081557600f60006200075783600162000a67565b8152602001908152602001600020600101546200077a88620004ad60201b60201c565b6000838152600f60208190526040822054620f42409261c3509290620007a288600162000a67565b815260200190815260200160002060000154620007c0919062000ac7565b620007cc919062000a82565b620007d8919062000aa4565b620007e4919062000a82565b620007f0919062000aa4565b9150620007fe828462000a67565b9250806200080c8162000afb565b9150506200073d565b505b60115460408401516200082b904262000ac7565b111562000953576040805160608101808352600a54639358928b60e01b909152915160009282916001600160a01b0390911690639358928b906064808501916020918187030181865afa15801562000887573d6000803e3d6000fd5b505050506040513d601f19601f82011682018060405250810190620008ad919062000ae1565b8152602001620008bc60035490565b815242602091820152810151909150620008eb886001600160a01b031660009081526001602052604090205490565b6000878152600f60205260409020548351620f42409161c3509162000911919062000ac7565b6200091d919062000a82565b62000929919062000aa4565b62000935919062000a82565b62000941919062000aa4565b91506200094f828462000a67565b9250505b604080516060810182526001600160a01b0388166000908152600e602052919091206002015481906200098890859062000a67565b815260200182815260200185815250945050505050919050565b80546001019055565b828054620009b99062000b19565b90600052602060002090601f016020900481019282620009dd576000855562000a28565b82601f10620009f857805160ff191683800117855562000a28565b8280016001018555821562000a28579182015b8281111562000a2857825182559160200191906001019062000a0b565b5062000a3692915062000a3a565b5090565b5b8082111562000a36576000815560010162000a3b565b634e487b7160e01b600052601160045260246000fd5b6000821982111562000a7d5762000a7d62000a51565b500190565b600081600019048311821515161562000a9f5762000a9f62000a51565b500290565b60008262000ac257634e487b7160e01b600052601260045260246000fd5b500490565b60008282101562000adc5762000adc62000a51565b500390565b60006020828403121562000af457600080fd5b5051919050565b600060001982141562000b125762000b1262000a51565b5060010190565b600181811c9082168062000b2e57607f821691505b6020821081141562000b5057634e487b7160e01b600052602260045260246000fd5b50919050565b612b048062000b666000396000f3fe608060405234801561001057600080fd5b506004361061032b5760003560e01c806379cc6790116101b2578063b07f0a41116100f9578063dd62ed3e116100a2578063e6fd48bc1161007c578063e6fd48bc14610735578063ec8f03361461073e578063f2fde38b14610748578063f8c8765e1461075b57600080fd5b8063dd62ed3e146106c9578063e0b117ff14610702578063e481b2651461071557600080fd5b8063c5f956af116100d3578063c5f956af146106a1578063d99f8674146106b4578063dcd83616146106c157600080fd5b8063b07f0a411461065d578063b217f9d414610670578063c3e0fb1c1461067957600080fd5b806395805dad1161015b578063a583024b11610135578063a583024b1461062e578063a9059cbb14610641578063a9e107491461065457600080fd5b806395805dad1461060057806395d89b4114610613578063a457c2d71461061b57600080fd5b80637efad8e01161018c5780637efad8e0146105d85780638456cb59146105e25780638da5cb5b146105ea57600080fd5b806379cc6790146105b45780637a259dba146105c75780637d0273d0146105cf57600080fd5b8063418c85261161027657806370a082311161021f57806376a90231116101f957806376a902311461057b57806377329f351461058e578063795ab83e146105a157600080fd5b806370a0823114610500578063715018a6146105295780637586353b1461053157600080fd5b8063539b2ba411610250578063539b2ba4146104ca5780635c975abb146104d25780636f7bc9be146104dd57600080fd5b8063418c85261461049157806342966c68146104a457806345718278146104b757600080fd5b80631c837c3e116102d8578063313ce567116102b2578063313ce5671461046757806339509351146104765780633f4ba83a1461048957600080fd5b80631c837c3e1461042c5780631ed948b31461044157806323b872dd1461045457600080fd5b806313bf537c1161030957806313bf537c1461038e57806318160ddd146103b957806318a5bbdc146103c157600080fd5b8063015c1c7a1461033057806306fdde0314610356578063095ea7b31461036b575b600080fd5b61034361033e3660046125d4565b61076e565b6040519081526020015b60405180910390f35b61035e610804565b60405161034d919061262c565b61037e6103793660046125d4565b610896565b604051901515815260200161034d565b600a546103a1906001600160a01b031681565b6040516001600160a01b03909116815260200161034d565b600354610343565b6104026103cf36600461265f565b600e602052600090815260409020805460018201546002830154600384015460049094015460ff90931693919290919085565b6040805195151586526020860194909452928401919091526060830152608082015260a00161034d565b61043f61043a36600461267c565b6108b0565b005b61043f61044f36600461267c565b6108bd565b61037e610462366004612695565b6108ca565b6040516009815260200161034d565b61037e6104843660046125d4565b6108ee565b61043f61092d565b61043f61049f36600461265f565b61093f565b61043f6104b236600461267c565b610970565b6103436104c53660046126ec565b61097d565b61043f610ac0565b60005460ff1661037e565b61037e6104eb36600461265f565b600d6020526000908152604090205460ff1681565b61034361050e36600461265f565b6001600160a01b031660009081526001602052604090205490565b61043f610ad7565b61056061053f36600461267c565b600f6020526000908152604090208054600182015460029092015490919083565b6040805193845260208401929092529082015260600161034d565b6009546103a1906001600160a01b031681565b61034361059c36600461265f565b610ae9565b6007546103a1906001600160a01b031681565b61043f6105c23660046125d4565b610af8565b61043f610b11565b61034361c35081565b610343620f424081565b61043f610c65565b60005461010090046001600160a01b03166103a1565b61043f61060e36600461267c565b610c75565b61035e610d09565b61037e6106293660046125d4565b610d18565b61034361063c36600461265f565b610dc2565b61037e61064f3660046125d4565b610e03565b61034360115481565b61043f61066b36600461267c565b610e21565b61034360125481565b61068c6106873660046125d4565b6112c3565b6040805192835290151560208301520161034d565b6008546103a1906001600160a01b031681565b600c5461037e9060ff1681565b61043f611352565b6103436106d73660046127bf565b6001600160a01b03918216600090815260026020908152604080832093909416825291909152205490565b6105606107103660046125d4565b611366565b61072861072336600461265f565b6113a8565b60405161034d91906127f8565b610343600b5481565b6006546103439081565b61043f61075636600461265f565b6115a2565b61043f61076936600461283c565b61162f565b600061077c6009600a612992565b836001600160a01b031663313ce5676040518163ffffffff1660e01b8152600401602060405180830381865afa1580156107ba573d6000803e3d6000fd5b505050506040513d601f19601f820116820180604052508101906107de91906129a1565b6107e990600a612992565b6107f390846129c4565b6107fd91906129e3565b9392505050565b60606004805461081390612a05565b80601f016020809104026020016040519081016040528092919081815260200182805461083f90612a05565b801561088c5780601f106108615761010080835404028352916020019161088c565b820191906000526020600020905b81548152906001019060200180831161086f57829003601f168201915b5050505050905090565b6000336108a48185856116ac565b60019150505b92915050565b6108b86117d0565b601155565b6108c56117d0565b601255565b6000336108d8858285611830565b6108e38585856118c2565b506001949350505050565b3360008181526002602090815260408083206001600160a01b03871684529091528120549091906108a49082908690610928908790612a40565b6116ac565b6109356117d0565b61093d611ad0565b565b6109476117d0565b6001600160a01b03166000908152600d60205260409020805460ff19811660ff90911615179055565b61097a3382611b22565b50565b600042815b8351811015610a40576000806109b1878785815181106109a4576109a4612a58565b60200260200101516112c3565b915091508015610a2b576001600160a01b0387166000908152601060205260409020865165ffffffffffff861691908890869081106109f2576109f2612a58565b602002602001015181548110610a0a57610a0a612a58565b6000918252602090912060016003909202010155610a288286612a40565b94505b50508080610a3890612a6e565b915050610982565b5060075460405163a9059cbb60e01b81526001600160a01b038681166004830152602482018590529091169063a9059cbb906044016020604051808303816000875af1158015610a94573d6000803e3d6000fd5b505050506040513d601f19601f82011682018060405250810190610ab89190612a89565b505092915050565b610ac86117d0565b600c805460ff19166001179055565b610adf6117d0565b61093d6000611c88565b60006108aa826104c5846113a8565b610b03823383611830565b610b0d8282611b22565b5050565b6000600f6000610b2060065490565b8152602001908152602001600020604051806060016040529081600082015481526020016001820154815260200160028201548152505090506000600b54118015610b7a57506011546040820151610b789042612aab565b115b1561097a57610b8d600680546001019055565b6040518060600160405280600a60009054906101000a90046001600160a01b03166001600160a01b0316639358928b6040518163ffffffff1660e01b8152600401602060405180830381865afa158015610beb573d6000803e3d6000fd5b505050506040513d601f19601f82011682018060405250810190610c0f9190612ac2565b8152602001610c1d60035490565b815260200142815250600f6000610c3360065490565b815260200190815260200160002060008201518160000155602082015181600101556040820151816002015590505050565b610c6d6117d0565b61093d611cf8565b610c7d6117d0565b600b5415610cd25760405162461bcd60e51b815260206004820152601060248201527f416c72656164792073746172746564210000000000000000000000000000000060448201526064015b60405180910390fd5b80600b81905550604051806060016040528060008152602001610cf460035490565b8152602001829052600f6000610c3360065490565b60606005805461081390612a05565b3360008181526002602090815260408083206001600160a01b038716845290915281205490919083811015610db55760405162461bcd60e51b815260206004820152602560248201527f45524332303a2064656372656173656420616c6c6f77616e63652062656c6f7760448201527f207a65726f0000000000000000000000000000000000000000000000000000006064820152608401610cc9565b6108e382868684036116ac565b600080610dce83611d35565b6001600160a01b0384166000908152600e602052604081206003015482519293509091610dfb9190612aab565b949350505050565b6000610e0d61205d565b610e183384846118c2565b50600192915050565b6000600b5411610e735760405162461bcd60e51b815260206004820152601a60248201527f57616974696e6720666f72206f776e657220746f2073746172740000000000006044820152606401610cc9565b600c5460ff16151560011415610f0d57336000908152600d602052604090205460ff161515600114610f0d5760405162461bcd60e51b815260206004820152603160248201527f496e766573746f72206d7573742062652077686974656c697374656420746f2060448201527f75736520746869732066756e6374696f6e0000000000000000000000000000006064820152608401610cc9565b610f1561205d565b610f1e336120b0565b600954600090610f37906001600160a01b03168361076e565b336000908152600e6020526040902060038101546002909101549192508391610f609190612aab565b1015610fae5760405162461bcd60e51b815260206004820152601e60248201527f436c61696d206d6f7265207468616e206d6178696d756d20616d6f756e7400006044820152606401610cc9565b600954604051636eb1769f60e11b815233600482015230602482015282916001600160a01b03169063dd62ed3e90604401602060405180830381865afa158015610ffc573d6000803e3d6000fd5b505050506040513d601f19601f820116820180604052508101906110209190612ac2565b10156110945760405162461bcd60e51b815260206004820152603e60248201527f4d75737420617070726f7665207468697320636f6e747261637420746f20737060448201527f656e64206d6f7265207468616e2077697468647261776c20616d6f756e7400006064820152608401610cc9565b6009546040516370a0823160e01b815233600482015283916001600160a01b0316906370a0823190602401602060405180830381865afa1580156110dc573d6000803e3d6000fd5b505050506040513d601f19601f820116820180604052508101906111009190612ac2565b101561114e5760405162461bcd60e51b815260206004820152601a60248201527f425553442062616c616e6365206973206e6f7420656e6f7567680000000000006044820152606401610cc9565b336000818152600e60205260409020805460ff1916905561116f9083611b22565b336000908152600e602052604081206003018054849290611191908490612a40565b90915550506008546009546111b5916001600160a01b039182169133911684612130565b336000908152601060205260409081902081516060810190925260125490919081906111e19042612a40565b8152600060208083018290526040928301879052845460018082018755958352918190208451600390930201918255830151938101939093559081015160029092019190915560085490516340c10f1960e01b8152306004820152602481018490526001600160a01b03909116906340c10f1990604401600060405180830381600087803b15801561127257600080fd5b505af1158015611286573d6000803e3d6000fd5b50506040518481523392507f5a20425ee28c08dfaf53c051ce9fb1fdfedad2949379924d3313a74c2c61a2a5915060200160405180910390a25050565b6001600160a01b0382166000908152601060205260408120805482918291859081106112f1576112f1612a58565b60009182526020918290206040805160608101825260039093029091018054835260018101549383018490526002015490820181905294509150158015611339575080514210155b80156113485750604081015115155b9150509250929050565b61135a6117d0565b600c805460ff19169055565b6010602052816000526040600020818154811061138257600080fd5b600091825260209091206003909102018054600182015460029092015490935090915083565b6001600160a01b0381166000908152601060209081526040808320805482518185028101850190935280835260609493849084015b8282101561142d57838290600052602060002090600302016040518060600160405290816000820154815260200160018201548152602001600282015481525050815260200190600101906113dd565b505050509050600080600090505b82518110156114b45782818151811061145657611456612a58565b602002602001015160200151600014801561148f575082818151811061147e5761147e612a58565b602002602001015160400151600014155b156114a2578161149e81612a6e565b9250505b806114ac81612a6e565b91505061143b565b5060008167ffffffffffffffff8111156114d0576114d06126d6565b6040519080825280602002602001820160405280156114f9578160200160208202803683370190505b5090506000805b84518110156115975784818151811061151b5761151b612a58565b6020026020010151602001516000148015611554575084818151811061154357611543612a58565b602002602001015160400151600014155b15611585578083838151811061156c5761156c612a58565b60209081029190910101528161158181612a6e565b9250505b8061158f81612a6e565b915050611500565b509095945050505050565b6115aa6117d0565b6001600160a01b0381166116265760405162461bcd60e51b815260206004820152602660248201527f4f776e61626c653a206e6577206f776e657220697320746865207a65726f206160448201527f64647265737300000000000000000000000000000000000000000000000000006064820152608401610cc9565b61097a81611c88565b6116376117d0565b600780546001600160a01b039586167fffffffffffffffffffffffff00000000000000000000000000000000000000009182161790915560088054948616948216949094179093556009805492851692841692909217909155600a8054919093169116179055565b5490565b80546001019055565b6001600160a01b03831661170e5760405162461bcd60e51b8152602060048201526024808201527f45524332303a20617070726f76652066726f6d20746865207a65726f206164646044820152637265737360e01b6064820152608401610cc9565b6001600160a01b03821661176f5760405162461bcd60e51b815260206004820152602260248201527f45524332303a20617070726f766520746f20746865207a65726f206164647265604482015261737360f01b6064820152608401610cc9565b6001600160a01b0383811660008181526002602090815260408083209487168084529482529182902085905590518481527f8c5be1e5ebec7d5bd14f71427d1e84f3dd0314c0f7b2291e5b200ac8c7c3b925910160405180910390a3505050565b6000546001600160a01b0361010090910416331461093d5760405162461bcd60e51b815260206004820181905260248201527f4f776e61626c653a2063616c6c6572206973206e6f7420746865206f776e65726044820152606401610cc9565b6001600160a01b0383811660009081526002602090815260408083209386168352929052205460001981146118bc57818110156118af5760405162461bcd60e51b815260206004820152601d60248201527f45524332303a20696e73756666696369656e7420616c6c6f77616e63650000006044820152606401610cc9565b6118bc84848484036116ac565b50505050565b6001600160a01b03831661193e5760405162461bcd60e51b815260206004820152602560248201527f45524332303a207472616e736665722066726f6d20746865207a65726f20616460448201527f64726573730000000000000000000000000000000000000000000000000000006064820152608401610cc9565b6001600160a01b0382166119a05760405162461bcd60e51b815260206004820152602360248201527f45524332303a207472616e7366657220746f20746865207a65726f206164647260448201526265737360e81b6064820152608401610cc9565b6119ab83838361219f565b6001600160a01b03831660009081526001602052604090205481811015611a3a5760405162461bcd60e51b815260206004820152602660248201527f45524332303a207472616e7366657220616d6f756e742065786365656473206260448201527f616c616e636500000000000000000000000000000000000000000000000000006064820152608401610cc9565b6001600160a01b03808516600090815260016020526040808220858503905591851681529081208054849290611a71908490612a40565b92505081905550826001600160a01b0316846001600160a01b03167fddf252ad1be2c89b69c2b068fc378daa952ba7f163c4a11628f55a4df523b3ef84604051611abd91815260200190565b60405180910390a36118bc84848461226c565b611ad8612374565b6000805460ff191690557f5db9ee0a495bf2e6ff9c91a7834c1ba4fdd244a5e8aa4e537bd38aeae4b073aa335b6040516001600160a01b03909116815260200160405180910390a1565b6001600160a01b038216611b825760405162461bcd60e51b815260206004820152602160248201527f45524332303a206275726e2066726f6d20746865207a65726f206164647265736044820152607360f81b6064820152608401610cc9565b611b8e8260008361219f565b6001600160a01b03821660009081526001602052604090205481811015611c025760405162461bcd60e51b815260206004820152602260248201527f45524332303a206275726e20616d6f756e7420657863656564732062616c616e604482015261636560f01b6064820152608401610cc9565b6001600160a01b0383166000908152600160205260408120838303905560038054849290611c31908490612aab565b90915550506040518281526000906001600160a01b038516907fddf252ad1be2c89b69c2b068fc378daa952ba7f163c4a11628f55a4df523b3ef9060200160405180910390a3611c838360008461226c565b505050565b600080546001600160a01b038381166101008181027fffffffffffffffffffffff0000000000000000000000000000000000000000ff851617855560405193049190911692909183917f8be0079c531659141344cd1fd0a4f28419497f9722a3daafe3b4186f6b6457e091a35050565b611d0061205d565b6000805460ff191660011790557f62e78cea01bee320cd4e420270b5ea74000d11b0c9f74754ebdbfc544b05a258611b053390565b611d5960405180606001604052806000815260200160008152602001600081525090565b600b541580611d685750600354155b15611d92576040518060600160405280600081526020016000815260200160008152509050919050565b6000611d9d60065490565b6000818152600f6020908152604080832081516060810183528154815260018083015482860152600290920154818401526001600160a01b0389168552600e90935290832060048101549101549394509092841115611ee7576001600160a01b0386166000908152600e60205260409020600101545b84811015611ee557600f6000611e2a836001612a40565b815260200190815260200160002060010154611e5b886001600160a01b031660009081526001602052604090205490565b6000838152600f60208190526040822054620f42409261c3509290611e81886001612a40565b815260200190815260200160002060000154611e9d9190612aab565b611ea791906129c4565b611eb191906129e3565b611ebb91906129c4565b611ec591906129e3565b9150611ed18284612a40565b925080611edd81612a6e565b915050611e13565b505b6011546040840151611ef99042612aab565b1115612010576040805160608101808352600a54639358928b60e01b909152915160009282916001600160a01b0390911690639358928b906064808501916020918187030181865afa158015611f53573d6000803e3d6000fd5b505050506040513d601f19601f82011682018060405250810190611f779190612ac2565b8152602001611f8560035490565b81526020014281525090508060200151611fb4886001600160a01b031660009081526001602052604090205490565b6000878152600f60205260409020548351620f42409161c35091611fd89190612aab565b611fe291906129c4565b611fec91906129e3565b611ff691906129c4565b61200091906129e3565b915061200c8284612a40565b9250505b604080516060810182526001600160a01b0388166000908152600e60205291909120600201548190612043908590612a40565b815260200182815260200185815250945050505050919050565b60005460ff161561093d5760405162461bcd60e51b815260206004820152601060248201527f5061757361626c653a20706175736564000000000000000000000000000000006044820152606401610cc9565b6120b8610b11565b6006546001600160a01b0382166000908152600e6020526040902060010154101561097a5760006120e882611d35565b6020808201516001600160a01b0385166000908152600e909252604091829020600481019190915582516002820155910151600180830191909155815460ff19161790555050565b604080516001600160a01b0385811660248301528416604482015260648082018490528251808303909101815260849091019091526020810180517bffffffffffffffffffffffffffffffffffffffffffffffffffffffff166323b872dd60e01b1790526118bc9085906123c6565b600b54158015906121b857506001600160a01b03831615155b80156121cc57506001600160a01b03821615155b15611c83576121da836120b0565b6121e3826120b0565b6001600160a01b0383166000908152600e602052604090206001015415611c83576001600160a01b0383166000908152600e602052604090205460ff16611c835760405162461bcd60e51b815260206004820152601e60248201527f43616e6e6f74207472616e7366657220616674657220657865726369736500006044820152606401610cc9565b600b541580159061228557506001600160a01b03831615155b801561229957506001600160a01b03821615155b15611c83576001600160a01b0383166000908152600160205260408120546122c2908390612a40565b6001600160a01b0385166000908152600e60205260409020600401546122e890846129c4565b6122f291906129e3565b6001600160a01b0385166000908152600e602052604090206002015490915061231c908290612aab565b6001600160a01b038086166000908152600e60205260408082206002908101949094559186168152200154612352908290612a40565b6001600160a01b0384166000908152600e602052604090206002015550505050565b60005460ff1661093d5760405162461bcd60e51b815260206004820152601460248201527f5061757361626c653a206e6f74207061757365640000000000000000000000006044820152606401610cc9565b600061241b826040518060400160405280602081526020017f5361666545524332303a206c6f772d6c6576656c2063616c6c206661696c6564815250856001600160a01b03166124ab9092919063ffffffff16565b805190915015611c8357808060200190518101906124399190612a89565b611c835760405162461bcd60e51b815260206004820152602a60248201527f5361666545524332303a204552433230206f7065726174696f6e20646964206e60448201527f6f742073756363656564000000000000000000000000000000000000000000006064820152608401610cc9565b6060610dfb8484600085856001600160a01b0385163b61250d5760405162461bcd60e51b815260206004820152601d60248201527f416464726573733a2063616c6c20746f206e6f6e2d636f6e74726163740000006044820152606401610cc9565b600080866001600160a01b031685876040516125299190612adb565b60006040518083038185875af1925050503d8060008114612566576040519150601f19603f3d011682016040523d82523d6000602084013e61256b565b606091505b509150915061257b828286612586565b979650505050505050565b606083156125955750816107fd565b8251156125a55782518084602001fd5b8160405162461bcd60e51b8152600401610cc9919061262c565b6001600160a01b038116811461097a57600080fd5b600080604083850312156125e757600080fd5b82356125f2816125bf565b946020939093013593505050565b60005b8381101561261b578181015183820152602001612603565b838111156118bc5750506000910152565b602081526000825180602084015261264b816040850160208701612600565b601f01601f19169190910160400192915050565b60006020828403121561267157600080fd5b81356107fd816125bf565b60006020828403121561268e57600080fd5b5035919050565b6000806000606084860312156126aa57600080fd5b83356126b5816125bf565b925060208401356126c5816125bf565b929592945050506040919091013590565b634e487b7160e01b600052604160045260246000fd5b600080604083850312156126ff57600080fd5b823561270a816125bf565b915060208381013567ffffffffffffffff8082111561272857600080fd5b818601915086601f83011261273c57600080fd5b81358181111561274e5761274e6126d6565b8060051b604051601f19603f83011681018181108582111715612773576127736126d6565b60405291825284820192508381018501918983111561279157600080fd5b938501935b828510156127af57843584529385019392850192612796565b8096505050505050509250929050565b600080604083850312156127d257600080fd5b82356127dd816125bf565b915060208301356127ed816125bf565b809150509250929050565b6020808252825182820181905260009190848201906040850190845b8181101561283057835183529284019291840191600101612814565b50909695505050505050565b6000806000806080858703121561285257600080fd5b843561285d816125bf565b9350602085013561286d816125bf565b9250604085013561287d816125bf565b9150606085013561288d816125bf565b939692955090935050565b634e487b7160e01b600052601160045260246000fd5b600181815b808511156128e95781600019048211156128cf576128cf612898565b808516156128dc57918102915b93841c93908002906128b3565b509250929050565b600082612900575060016108aa565b8161290d575060006108aa565b8160018114612923576002811461292d57612949565b60019150506108aa565b60ff84111561293e5761293e612898565b50506001821b6108aa565b5060208310610133831016604e8410600b841016171561296c575081810a6108aa565b61297683836128ae565b806000190482111561298a5761298a612898565b029392505050565b60006107fd60ff8416836128f1565b6000602082840312156129b357600080fd5b815160ff811681146107fd57600080fd5b60008160001904831182151516156129de576129de612898565b500290565b600082612a0057634e487b7160e01b600052601260045260246000fd5b500490565b600181811c90821680612a1957607f821691505b60208210811415612a3a57634e487b7160e01b600052602260045260246000fd5b50919050565b60008219821115612a5357612a53612898565b500190565b634e487b7160e01b600052603260045260246000fd5b6000600019821415612a8257612a82612898565b5060010190565b600060208284031215612a9b57600080fd5b815180151581146107fd57600080fd5b600082821015612abd57612abd612898565b500390565b600060208284031215612ad457600080fd5b5051919050565b60008251612aed818460208701612600565b919091019291505056fea164736f6c634300080a000a",
  "devdoc": {
    "kind": "dev",
    "methods": {
      "allowance(address,address)": {
        "details": "See {IERC20-allowance}."
      },
      "approve(address,uint256)": {
        "details": "See {IERC20-approve}. NOTE: If `amount` is the maximum `uint256`, the allowance is not updated on `transferFrom`. This is semantically equivalent to an infinite approval. Requirements: - `spender` cannot be the zero address."
      },
      "balanceOf(address)": {
        "details": "See {IERC20-balanceOf}."
      },
      "burn(uint256)": {
        "details": "Destroys `amount` tokens from the caller. See {ERC20-_burn}."
      },
      "burnFrom(address,uint256)": {
        "details": "Destroys `amount` tokens from `account`, deducting from the caller's allowance. See {ERC20-_burn} and {ERC20-allowance}. Requirements: - the caller must have allowance for ``accounts``'s tokens of at least `amount`."
      },
      "claim(address,uint256[])": {
        "params": {
          "_indexes": "the note indexes to claim",
          "_user": "the user to claim for"
        },
        "returns": {
          "amount_": "    sum of amount sent, in HECTA"
        }
      },
      "claimAll(address)": {
        "details": "if possible, query indexesFor() off-chain and input in claim() to save gas",
        "params": {
          "_user": "user to claim all notes for"
        },
        "returns": {
          "_0": "sum of amount sent, in HECTA"
        }
      },
      "decimals()": {
        "details": "Returns the number of decimals used to get its user representation. For example, if `decimals` equals `2`, a balance of `505` tokens should be displayed to a user as `5.05` (`505 / 10 ** 2`). Tokens usually opt for a value of 18, imitating the relationship between Ether and Wei. This is the value {ERC20} uses, unless this function is overridden; NOTE: This information is only used for _display_ purposes: it in no way affects any of the arithmetic of the contract, including {IERC20-balanceOf} and {IERC20-transfer}."
      },
      "decreaseAllowance(address,uint256)": {
        "details": "Atomically decreases the allowance granted to `spender` by the caller. This is an alternative to {approve} that can be used as a mitigation for problems described in {IERC20-approve}. Emits an {Approval} event indicating the updated allowance. Requirements: - `spender` cannot be the zero address. - `spender` must have allowance for the caller of at least `subtractedValue`."
      },
      "increaseAllowance(address,uint256)": {
        "details": "Atomically increases the allowance granted to `spender` by the caller. This is an alternative to {approve} that can be used as a mitigation for problems described in {IERC20-approve}. Emits an {Approval} event indicating the updated allowance. Requirements: - `spender` cannot be the zero address."
      },
      "name()": {
        "details": "Returns the name of the token."
      },
      "owner()": {
        "details": "Returns the address of the current owner."
      },
      "paused()": {
        "details": "Returns true if the contract is paused, and false otherwise."
      },
      "renounceOwnership()": {
        "details": "Leaves the contract without owner. It will not be possible to call `onlyOwner` functions anymore. Can only be called by the current owner. NOTE: Renouncing ownership will leave the contract without an owner, thereby removing any functionality that is only available to the owner."
      },
      "symbol()": {
        "details": "Returns the symbol of the token, usually a shorter version of the name."
      },
      "toTokenAmount(address,uint256)": {
        "params": {
          "amount_": "uint256"
        },
        "returns": {
          "value_": "uint256"
        }
      },
      "totalSupply()": {
        "details": "See {IERC20-totalSupply}."
      },
      "transferFrom(address,address,uint256)": {
        "details": "See {IERC20-transferFrom}. Emits an {Approval} event indicating the updated allowance. This is not required by the EIP. See the note at the beginning of {ERC20}. NOTE: Does not update the allowance if the current allowance is the maximum `uint256`. Requirements: - `from` and `to` cannot be the zero address. - `from` must have a balance of at least `amount`. - the caller must have allowance for ``from``'s tokens of at least `amount`."
      },
      "transferOwnership(address)": {
        "details": "Transfers ownership of the contract to a new account (`newOwner`). Can only be called by the current owner."
      }
    },
    "version": 1
  },
  "userdoc": {
    "events": {
      "Exercise(address,uint256)": {
        "notice": "Event "
      }
    },
    "kind": "user",
    "methods": {
      "RATE_DENOMINATOR()": {
        "notice": "Constant "
      },
      "claim(address,uint256[])": {
        "notice": "claim notes for user"
      },
      "claimAll(address)": {
        "notice": "claim all claimable markets for user"
      },
      "spaceCounter()": {
        "notice": "Variables "
      },
      "toTokenAmount(address,uint256)": {
        "notice": "convert pHecta to busd"
      }
    },
    "version": 1
  },
  "storageLayout": {
    "storage": [
      {
        "astId": 298,
        "contract": "contracts/preHecta/tHecta.sol:THecta",
        "label": "_paused",
        "offset": 0,
        "slot": "0",
        "type": "t_bool"
      },
      {
        "astId": 7,
        "contract": "contracts/preHecta/tHecta.sol:THecta",
        "label": "_owner",
        "offset": 1,
        "slot": "0",
        "type": "t_address"
      },
      {
        "astId": 404,
        "contract": "contracts/preHecta/tHecta.sol:THecta",
        "label": "_balances",
        "offset": 0,
        "slot": "1",
        "type": "t_mapping(t_address,t_uint256)"
      },
      {
        "astId": 410,
        "contract": "contracts/preHecta/tHecta.sol:THecta",
        "label": "_allowances",
        "offset": 0,
        "slot": "2",
        "type": "t_mapping(t_address,t_mapping(t_address,t_uint256))"
      },
      {
        "astId": 412,
        "contract": "contracts/preHecta/tHecta.sol:THecta",
        "label": "_totalSupply",
        "offset": 0,
        "slot": "3",
        "type": "t_uint256"
      },
      {
        "astId": 414,
        "contract": "contracts/preHecta/tHecta.sol:THecta",
        "label": "_name",
        "offset": 0,
        "slot": "4",
        "type": "t_string_storage"
      },
      {
        "astId": 416,
        "contract": "contracts/preHecta/tHecta.sol:THecta",
        "label": "_symbol",
        "offset": 0,
        "slot": "5",
        "type": "t_string_storage"
      },
      {
        "astId": 10522,
        "contract": "contracts/preHecta/tHecta.sol:THecta",
        "label": "spaceCounter",
        "offset": 0,
        "slot": "6",
        "type": "t_struct(Counter)2507_storage"
      },
      {
        "astId": 10524,
        "contract": "contracts/preHecta/tHecta.sol:THecta",
        "label": "hectaAddress",
        "offset": 0,
        "slot": "7",
        "type": "t_address"
      },
      {
        "astId": 10526,
        "contract": "contracts/preHecta/tHecta.sol:THecta",
        "label": "treasuryAddress",
        "offset": 0,
        "slot": "8",
        "type": "t_address"
      },
      {
        "astId": 10528,
        "contract": "contracts/preHecta/tHecta.sol:THecta",
        "label": "busdAddress",
        "offset": 0,
        "slot": "9",
        "type": "t_address"
      },
      {
        "astId": 10531,
        "contract": "contracts/preHecta/tHecta.sol:THecta",
        "label": "circulatingHectaContract",
        "offset": 0,
        "slot": "10",
        "type": "t_contract(IHectaCirculatingSupply)8634"
      },
      {
        "astId": 10533,
        "contract": "contracts/preHecta/tHecta.sol:THecta",
        "label": "startTimestamp",
        "offset": 0,
        "slot": "11",
        "type": "t_uint256"
      },
      {
        "astId": 10535,
        "contract": "contracts/preHecta/tHecta.sol:THecta",
        "label": "useWhiteList",
        "offset": 0,
        "slot": "12",
        "type": "t_bool"
      },
      {
        "astId": 10539,
        "contract": "contracts/preHecta/tHecta.sol:THecta",
        "label": "investors",
        "offset": 0,
        "slot": "13",
        "type": "t_mapping(t_address,t_bool)"
      },
      {
        "astId": 10544,
        "contract": "contracts/preHecta/tHecta.sol:THecta",
        "label": "holders",
        "offset": 0,
        "slot": "14",
        "type": "t_mapping(t_address,t_struct(Holder)10586_storage)"
      },
      {
        "astId": 10549,
        "contract": "contracts/preHecta/tHecta.sol:THecta",
        "label": "spaces",
        "offset": 0,
        "slot": "15",
        "type": "t_mapping(t_uint256,t_struct(Space)10600_storage)"
      },
      {
        "astId": 10555,
        "contract": "contracts/preHecta/tHecta.sol:THecta",
        "label": "notes",
        "offset": 0,
        "slot": "16",
        "type": "t_mapping(t_address,t_array(t_struct(Note)10593_storage)dyn_storage)"
      },
      {
        "astId": 10558,
        "contract": "contracts/preHecta/tHecta.sol:THecta",
        "label": "spaceLength",
        "offset": 0,
        "slot": "17",
        "type": "t_uint256"
      },
      {
        "astId": 10561,
        "contract": "contracts/preHecta/tHecta.sol:THecta",
        "label": "vestingLength",
        "offset": 0,
        "slot": "18",
        "type": "t_uint256"
      }
    ],
    "types": {
      "t_address": {
        "encoding": "inplace",
        "label": "address",
        "numberOfBytes": "20"
      },
      "t_array(t_struct(Note)10593_storage)dyn_storage": {
        "base": "t_struct(Note)10593_storage",
        "encoding": "dynamic_array",
        "label": "struct THecta.Note[]",
        "numberOfBytes": "32"
      },
      "t_bool": {
        "encoding": "inplace",
        "label": "bool",
        "numberOfBytes": "1"
      },
      "t_contract(IHectaCirculatingSupply)8634": {
        "encoding": "inplace",
        "label": "contract IHectaCirculatingSupply",
        "numberOfBytes": "20"
      },
      "t_mapping(t_address,t_array(t_struct(Note)10593_storage)dyn_storage)": {
        "encoding": "mapping",
        "key": "t_address",
        "label": "mapping(address => struct THecta.Note[])",
        "numberOfBytes": "32",
        "value": "t_array(t_struct(Note)10593_storage)dyn_storage"
      },
      "t_mapping(t_address,t_bool)": {
        "encoding": "mapping",
        "key": "t_address",
        "label": "mapping(address => bool)",
        "numberOfBytes": "32",
        "value": "t_bool"
      },
      "t_mapping(t_address,t_mapping(t_address,t_uint256))": {
        "encoding": "mapping",
        "key": "t_address",
        "label": "mapping(address => mapping(address => uint256))",
        "numberOfBytes": "32",
        "value": "t_mapping(t_address,t_uint256)"
      },
      "t_mapping(t_address,t_struct(Holder)10586_storage)": {
        "encoding": "mapping",
        "key": "t_address",
        "label": "mapping(address => struct THecta.Holder)",
        "numberOfBytes": "32",
        "value": "t_struct(Holder)10586_storage"
      },
      "t_mapping(t_address,t_uint256)": {
        "encoding": "mapping",
        "key": "t_address",
        "label": "mapping(address => uint256)",
        "numberOfBytes": "32",
        "value": "t_uint256"
      },
      "t_mapping(t_uint256,t_struct(Space)10600_storage)": {
        "encoding": "mapping",
        "key": "t_uint256",
        "label": "mapping(uint256 => struct THecta.Space)",
        "numberOfBytes": "32",
        "value": "t_struct(Space)10600_storage"
      },
      "t_string_storage": {
        "encoding": "bytes",
        "label": "string",
        "numberOfBytes": "32"
      },
      "t_struct(Counter)2507_storage": {
        "encoding": "inplace",
        "label": "struct Counters.Counter",
        "members": [
          {
            "astId": 2506,
            "contract": "contracts/preHecta/tHecta.sol:THecta",
            "label": "_value",
            "offset": 0,
            "slot": "0",
            "type": "t_uint256"
          }
        ],
        "numberOfBytes": "32"
      },
      "t_struct(Holder)10586_storage": {
        "encoding": "inplace",
        "label": "struct THecta.Holder",
        "members": [
          {
            "astId": 10577,
            "contract": "contracts/preHecta/tHecta.sol:THecta",
            "label": "isTransferable",
            "offset": 0,
            "slot": "0",
            "type": "t_bool"
          },
          {
            "astId": 10579,
            "contract": "contracts/preHecta/tHecta.sol:THecta",
            "label": "lastRebaseSpaceIndex",
            "offset": 0,
            "slot": "1",
            "type": "t_uint256"
          },
          {
            "astId": 10581,
            "contract": "contracts/preHecta/tHecta.sol:THecta",
            "label": "maxClaim",
            "offset": 0,
            "slot": "2",
            "type": "t_uint256"
          },
          {
            "astId": 10583,
            "contract": "contracts/preHecta/tHecta.sol:THecta",
            "label": "claimed",
            "offset": 0,
            "slot": "3",
            "type": "t_uint256"
          },
          {
            "astId": 10585,
            "contract": "contracts/preHecta/tHecta.sol:THecta",
            "label": "currentSpaceProfit",
            "offset": 0,
            "slot": "4",
            "type": "t_uint256"
          }
        ],
        "numberOfBytes": "160"
      },
      "t_struct(Note)10593_storage": {
        "encoding": "inplace",
        "label": "struct THecta.Note",
        "members": [
          {
            "astId": 10588,
            "contract": "contracts/preHecta/tHecta.sol:THecta",
            "label": "claimableAt",
            "offset": 0,
            "slot": "0",
            "type": "t_uint256"
          },
          {
            "astId": 10590,
            "contract": "contracts/preHecta/tHecta.sol:THecta",
            "label": "claimedAt",
            "offset": 0,
            "slot": "1",
            "type": "t_uint256"
          },
          {
            "astId": 10592,
            "contract": "contracts/preHecta/tHecta.sol:THecta",
            "label": "amount",
            "offset": 0,
            "slot": "2",
            "type": "t_uint256"
          }
        ],
        "numberOfBytes": "96"
      },
      "t_struct(Space)10600_storage": {
        "encoding": "inplace",
        "label": "struct THecta.Space",
        "members": [
          {
            "astId": 10595,
            "contract": "contracts/preHecta/tHecta.sol:THecta",
            "label": "totalHecta",
            "offset": 0,
            "slot": "0",
            "type": "t_uint256"
          },
          {
            "astId": 10597,
            "contract": "contracts/preHecta/tHecta.sol:THecta",
            "label": "totalPHecta",
            "offset": 0,
            "slot": "1",
            "type": "t_uint256"
          },
          {
            "astId": 10599,
            "contract": "contracts/preHecta/tHecta.sol:THecta",
            "label": "startedTime",
            "offset": 0,
            "slot": "2",
            "type": "t_uint256"
          }
        ],
        "numberOfBytes": "96"
      },
      "t_uint256": {
        "encoding": "inplace",
        "label": "uint256",
        "numberOfBytes": "32"
      }
    }
  }
}