{
  "address": "0x52FED7aa5C4062127462d99B285bBd2E51c11b5c",
  "abi": [
    {
      "anonymous": false,
      "inputs": [
        {
          "indexed": true,
          "internalType": "address",
          "name": "previousOwner",
          "type": "address"
        },
        {
          "indexed": true,
          "internalType": "address",
          "name": "newOwner",
          "type": "address"
        }
      ],
      "name": "OwnershipTransferred",
      "type": "event"
    },
    {
      "anonymous": false,
      "inputs": [
        {
          "indexed": false,
          "internalType": "address",
          "name": "account",
          "type": "address"
        }
      ],
      "name": "Paused",
      "type": "event"
    },
    {
      "anonymous": false,
      "inputs": [
        {
          "indexed": true,
          "internalType": "address",
          "name": "sender",
          "type": "address"
        },
        {
          "indexed": true,
          "internalType": "address",
          "name": "token",
          "type": "address"
        },
        {
          "indexed": false,
          "internalType": "uint256",
          "name": "tokensRec",
          "type": "uint256"
        },
        {
          "indexed": false,
          "internalType": "address",
          "name": "referral",
          "type": "address"
        }
      ],
      "name": "QuickBond",
      "type": "event"
    },
    {
      "anonymous": false,
      "inputs": [
        {
          "indexed": false,
          "internalType": "address",
          "name": "account",
          "type": "address"
        }
      ],
      "name": "Unpaused",
      "type": "event"
    },
    {
      "inputs": [],
      "name": "depo",
      "outputs": [
        {
          "internalType": "address",
          "name": "",
          "type": "address"
        }
      ],
      "stateMutability": "view",
      "type": "function"
    },
    {
      "inputs": [],
      "name": "owner",
      "outputs": [
        {
          "internalType": "address",
          "name": "",
          "type": "address"
        }
      ],
      "stateMutability": "view",
      "type": "function"
    },
    {
      "inputs": [],
      "name": "pause",
      "outputs": [],
      "stateMutability": "nonpayable",
      "type": "function"
    },
    {
      "inputs": [],
      "name": "paused",
      "outputs": [
        {
          "internalType": "bool",
          "name": "",
          "type": "bool"
        }
      ],
      "stateMutability": "view",
      "type": "function"
    },
    {
      "inputs": [
        {
          "internalType": "address",
          "name": "_fromTokenAddress",
          "type": "address"
        },
        {
          "internalType": "address",
          "name": "_pairAddress",
          "type": "address"
        },
        {
          "internalType": "address[]",
          "name": "_path",
          "type": "address[]"
        },
        {
          "internalType": "uint256",
          "name": "_amount",
          "type": "uint256"
        },
        {
          "internalType": "uint256",
          "name": "_minTokenReceive",
          "type": "uint256"
        },
        {
          "internalType": "bool",
          "name": "_transferResidual",
          "type": "bool"
        },
        {
          "internalType": "bool",
          "name": "_shouldSellEntireBalance",
          "type": "bool"
        },
        {
          "internalType": "address",
          "name": "_referral",
          "type": "address"
        },
        {
          "internalType": "uint256",
          "name": "_maxPrice",
          "type": "uint256"
        },
        {
          "internalType": "uint256",
          "name": "_bondId",
          "type": "uint256"
        }
      ],
      "name": "quickLPBond",
      "outputs": [
        {
          "internalType": "uint256",
          "name": "",
          "type": "uint256"
        }
      ],
      "stateMutability": "payable",
      "type": "function"
    },
    {
      "inputs": [
        {
          "internalType": "address",
          "name": "_fromTokenAddress",
          "type": "address"
        },
        {
          "internalType": "address",
          "name": "_principal",
          "type": "address"
        },
        {
          "internalType": "address[]",
          "name": "_path",
          "type": "address[]"
        },
        {
          "internalType": "uint256",
          "name": "_amount",
          "type": "uint256"
        },
        {
          "internalType": "bool",
          "name": "_shouldSellEntireBalance",
          "type": "bool"
        },
        {
          "internalType": "address",
          "name": "_referral",
          "type": "address"
        },
        {
          "internalType": "uint256",
          "name": "_maxPrice",
          "type": "uint256"
        },
        {
          "internalType": "uint256",
          "name": "_bondId",
          "type": "uint256"
        }
      ],
      "name": "quickStableBond",
      "outputs": [
        {
          "internalType": "uint256",
          "name": "",
          "type": "uint256"
        }
      ],
      "stateMutability": "payable",
      "type": "function"
    },
    {
      "inputs": [],
      "name": "renounceOwnership",
      "outputs": [],
      "stateMutability": "nonpayable",
      "type": "function"
    },
    {
      "inputs": [],
      "name": "stopped",
      "outputs": [
        {
          "internalType": "bool",
          "name": "",
          "type": "bool"
        }
      ],
      "stateMutability": "view",
      "type": "function"
    },
    {
      "inputs": [
        {
          "internalType": "address",
          "name": "newOwner",
          "type": "address"
        }
      ],
      "name": "transferOwnership",
      "outputs": [],
      "stateMutability": "nonpayable",
      "type": "function"
    },
    {
      "inputs": [],
      "name": "unpause",
      "outputs": [],
      "stateMutability": "nonpayable",
      "type": "function"
    },
    {
      "inputs": [
        {
          "internalType": "address",
          "name": "_depo",
          "type": "address"
        }
      ],
      "name": "updateDepo",
      "outputs": [],
      "stateMutability": "nonpayable",
      "type": "function"
    },
    {
      "inputs": [
        {
          "internalType": "address",
          "name": "_token",
          "type": "address"
        },
        {
          "internalType": "uint256",
          "name": "_amount",
          "type": "uint256"
        }
      ],
      "name": "withdraw",
      "outputs": [],
      "stateMutability": "nonpayable",
      "type": "function"
    },
    {
      "stateMutability": "payable",
      "type": "receive"
    }
  ],
  "transactionHash": "0x6b7a22184448f15967150076d7e46142491b7ed01b6d68a1ebcee21e94cace76",
  "args": [],
  "solcInputHash": "324cd8bf7a6832202abf9a0d2c64407f",
  "bytecode": "0x60806040526001805460ff60a01b19169055600280546001600160a01b0319167310ed43c718714eb63d5aa57b78b54704e256024e17905534801561004357600080fd5b5061004d3361005f565b6000805460ff60a01b191690556100af565b600080546001600160a01b038381166001600160a01b0319831681178455604051919092169283917f8be0079c531659141344cd1fd0a4f28419497f9722a3daafe3b4186f6b6457e09190a35050565b61239e806100be6000396000f3fe6080604052600436106100cb5760003560e01c80638456cb5911610074578063e122e2071161004e578063e122e20714610253578063f2fde38b14610266578063f3fef3a31461028657600080fd5b80638456cb59146102005780638da5cb5b14610215578063c28083b31461023357600080fd5b806362823dda116100a557806362823dda146101a9578063715018a6146101ca57806375f12b21146101df57600080fd5b806320740e9a1461012c5780633f4ba83a146101695780635c975abb1461017e57600080fd5b3661012757333214156101255760405162461bcd60e51b815260206004820152601860248201527f446f206e6f742073656e6420424e42206469726563746c79000000000000000060448201526064015b60405180910390fd5b005b600080fd5b34801561013857600080fd5b5060015461014c906001600160a01b031681565b6040516001600160a01b0390911681526020015b60405180910390f35b34801561017557600080fd5b506101256102a6565b34801561018a57600080fd5b50600054600160a01b900460ff165b6040519015158152602001610160565b6101bc6101b7366004611e85565b6102b8565b604051908152602001610160565b3480156101d657600080fd5b50610125610438565b3480156101eb57600080fd5b5060015461019990600160a01b900460ff1681565b34801561020c57600080fd5b5061012561044a565b34801561022157600080fd5b506000546001600160a01b031661014c565b34801561023f57600080fd5b5061012561024e366004611f4a565b61045a565b6101bc610261366004611f67565b610491565b34801561027257600080fd5b50610125610281366004611f4a565b6105bb565b34801561029257600080fd5b506101256102a136600461200c565b61064b565b6102ae6106c9565b6102b6610723565b565b60006102c2610778565b60006102cf8c8a886107d2565b905060006102e08d8d848b8f6109e1565b6001549091506102fb908d906001600160a01b031683610a7c565b600154604051633e3b855760e11b81526004810186905260248101839052604481018790523360648201526001600160a01b0388811660848301526000921690637c770aae9060a4016060604051808303816000875af1158015610363573d6000803e3d6000fd5b505050506040513d601f19601f820116820180604052508101906103879190612038565b905089816000015110156103dd5760405162461bcd60e51b815260206004820152600d60248201527f4869676820536c69707061676500000000000000000000000000000000000000604482015260640161011c565b8051604080519182526001600160a01b0389811660208401528f169133917fb3cfe798a3d4ba15a66c461fdde35fa00e946f2177bd2f068a39c966558df6ff910160405180910390a3519d9c50505050505050505050505050565b6104406106c9565b6102b66000610aa5565b6104526106c9565b6102b6610b02565b6104626106c9565b6001805473ffffffffffffffffffffffffffffffffffffffff19166001600160a01b0392909216919091179055565b600061049b610778565b60006104a88a88886107d2565b905060006104b78b838b610b45565b6001549091506104d2908b906001600160a01b031683610a7c565b600154604051633e3b855760e11b81526004810186905260248101839052604481018790523360648201526001600160a01b0388811660848301526000921690637c770aae9060a4016060604051808303816000875af115801561053a573d6000803e3d6000fd5b505050506040513d601f19601f8201168201806040525081019061055e9190612038565b8051604080519182526001600160a01b038a81166020840152929350918d169133917fb3cfe798a3d4ba15a66c461fdde35fa00e946f2177bd2f068a39c966558df6ff910160405180910390a3519b9a5050505050505050505050565b6105c36106c9565b6001600160a01b03811661063f5760405162461bcd60e51b815260206004820152602660248201527f4f776e61626c653a206e6577206f776e657220697320746865207a65726f206160448201527f6464726573730000000000000000000000000000000000000000000000000000606482015260840161011c565b61064881610aa5565b50565b6106536106c9565b60405163a9059cbb60e01b8152336004820152602481018290526001600160a01b0383169063a9059cbb906044016020604051808303816000875af11580156106a0573d6000803e3d6000fd5b505050506040513d601f19601f820116820180604052508101906106c49190612094565b505050565b6000546001600160a01b031633146102b65760405162461bcd60e51b815260206004820181905260248201527f4f776e61626c653a2063616c6c6572206973206e6f7420746865206f776e6572604482015260640161011c565b61072b610d20565b6000805460ff60a01b191690557f5db9ee0a495bf2e6ff9c91a7834c1ba4fdd244a5e8aa4e537bd38aeae4b073aa335b6040516001600160a01b03909116815260200160405180910390a1565b600054600160a01b900460ff16156102b65760405162461bcd60e51b815260206004820152601060248201527f5061757361626c653a2070617573656400000000000000000000000000000000604482015260640161011c565b60006001600160a01b03841661083957600034116108325760405162461bcd60e51b815260206004820152600b60248201527f4e6f20424e422073656e74000000000000000000000000000000000000000000604482015260640161011c565b50346109da565b600083116108895760405162461bcd60e51b815260206004820152601460248201527f496e76616c696420746f6b656e20616d6f756e74000000000000000000000000604482015260640161011c565b34156108d75760405162461bcd60e51b815260206004820152601360248201527f424e422073656e74207769746820746f6b656e00000000000000000000000000604482015260640161011c565b81156109c257333b6109515760405162461bcd60e51b815260206004820152602c60248201527f4552523a2073686f756c6453656c6c456e7469726542616c616e63652069732060448201527f7472756520666f7220454f410000000000000000000000000000000000000000606482015260840161011c565b604051636eb1769f60e11b81523360048201523060248201526001600160a01b0385169063dd62ed3e90604401602060405180830381865afa15801561099b573d6000803e3d6000fd5b505050506040513d601f19601f820116820180604052508101906109bf91906120b1565b92505b6109d76001600160a01b038516333086610d79565b50815b9392505050565b60008060008060006109f289610e17565b91509150816001600160a01b03168a6001600160a01b031614158015610a2a5750806001600160a01b03168a6001600160a01b031614155b15610a4557610a3b8a8a8a89610eed565b9094509250610a4c565b8992508793505b600080610a5b85858589611341565b91509150610a6c848484848d611500565b9c9b505050505050505050505050565b610a916001600160a01b038416836000611658565b6106c46001600160a01b0384168383611658565b600080546001600160a01b0383811673ffffffffffffffffffffffffffffffffffffffff19831681178455604051919092169283917f8be0079c531659141344cd1fd0a4f28419497f9722a3daafe3b4186f6b6457e09190a35050565b610b0a610778565b6000805460ff60a01b1916600160a01b1790557f62e78cea01bee320cd4e420270b5ea74000d11b0c9f74754ebdbfc544b05a25861075b3390565b6000806001600160a01b038516610bda5773bb4cdb9cbd36b01bd1cbaebf2de08d9173bc095c6001600160a01b031663d0e30db0856040518263ffffffff1660e01b81526004016000604051808303818588803b158015610ba557600080fd5b505af1158015610bb9573d6000803e3d6000fd5b505050505073bb4cdb9cbd36b01bd1cbaebf2de08d9173bc095c9050610bdd565b50835b600254610bf59082906001600160a01b031686610a7c565b8083600081518110610c0957610c096120ca565b6001600160a01b0392831660209182029290920101526002546040516338ed173960e01b815260009291909116906338ed173990610c5890889060019089903090600f60fc1b906004016120e0565b6000604051808303816000875af1158015610c77573d6000803e3d6000fd5b505050506040513d6000823e601f3d908101601f19168201604052610c9f9190810190612151565b60018551610cad91906121ed565b81518110610cbd57610cbd6120ca565b6020026020010151905060008111610d175760405162461bcd60e51b815260206004820152601760248201527f4572726f72205377617070696e6720546f6b656e732031000000000000000000604482015260640161011c565b95945050505050565b600054600160a01b900460ff166102b65760405162461bcd60e51b815260206004820152601460248201527f5061757361626c653a206e6f7420706175736564000000000000000000000000604482015260640161011c565b6040516001600160a01b0380851660248301528316604482015260648101829052610e119085906323b872dd60e01b906084015b60408051601f198184030181529190526020810180517bffffffffffffffffffffffffffffffffffffffffffffffffffffffff167fffffffff0000000000000000000000000000000000000000000000000000000090931692909217909152611774565b50505050565b6000806000839050806001600160a01b0316630dfe16816040518163ffffffff1660e01b8152600401602060405180830381865afa158015610e5d573d6000803e3d6000fd5b505050506040513d601f19601f82011682018060405250810190610e819190612204565b9250806001600160a01b031663d21220a76040518163ffffffff1660e01b8152600401602060405180830381865afa158015610ec1573d6000803e3d6000fd5b505050506040513d601f19601f82011682018060405250810190610ee59190612204565b915050915091565b600080806001600160a01b038716610f835773bb4cdb9cbd36b01bd1cbaebf2de08d9173bc095c6001600160a01b031663d0e30db0866040518263ffffffff1660e01b81526004016000604051808303818588803b158015610f4e57600080fd5b505af1158015610f62573d6000803e3d6000fd5b505050505073bb4cdb9cbd36b01bd1cbaebf2de08d9173bc095c9050610f86565b50855b600254610f9e9082906001600160a01b031687610a7c565b600080610faa88610e17565b6040516370a0823160e01b81523060048201529193509150829082906000906001600160a01b038416906370a0823190602401602060405180830381865afa158015610ffa573d6000803e3d6000fd5b505050506040513d601f19601f8201168201806040525081019061101e91906120b1565b6040516370a0823160e01b81523060048201529091506000906001600160a01b038416906370a0823190602401602060405180830381865afa158015611068573d6000803e3d6000fd5b505050506040513d601f19601f8201168201806040525081019061108c91906120b1565b9050868a6000815181106110a2576110a26120ca565b60200260200101906001600160a01b031690816001600160a01b0316815250506000600260009054906101000a90046001600160a01b03166001600160a01b03166338ed17398d60018e30600f60fc1b6040518663ffffffff1660e01b81526004016111129594939291906120e0565b6000604051808303816000875af1158015611131573d6000803e3d6000fd5b505050506040513d6000823e601f3d908101601f191682016040526111599190810190612151565b60018c5161116791906121ed565b81518110611177576111776120ca565b60200260200101519050600081116111d15760405162461bcd60e51b815260206004820152601760248201527f4572726f72205377617070696e6720546f6b656e732031000000000000000000604482015260640161011c565b6040516370a0823160e01b815230600482015260009084906001600160a01b038816906370a0823190602401602060405180830381865afa15801561121a573d6000803e3d6000fd5b505050506040513d601f19601f8201168201806040525081019061123e91906120b1565b61124891906121ed565b6040516370a0823160e01b815230600482015290915060009084906001600160a01b038816906370a0823190602401602060405180830381865afa158015611294573d6000803e3d6000fd5b505050506040513d601f19601f820116820180604052508101906112b891906120b1565b6112c291906121ed565b9050808211156112d757819b50889a506112de565b809b50879a505b60008c1161132e5760405162461bcd60e51b815260206004820152601f60248201527f5377617070656420746f20496e76616c696420496e7465726d65646961746500604482015260640161011c565b5050505050505050505094509492505050565b60405163e6a4390560e01b81526001600160a01b038085166004830152831660248201526000908190819073ca143ce32fe78f1f7019d7d551a6402fc5350c739063e6a4390590604401602060405180830381865afa1580156113a8573d6000803e3d6000fd5b505050506040513d601f19601f820116820180604052508101906113cc9190612204565b9050600080826001600160a01b0316630902f1ac6040518163ffffffff1660e01b8152600401606060405180830381865afa15801561140f573d6000803e3d6000fd5b505050506040513d601f19601f82011682018060405250810190611433919061223f565b506dffffffffffffffffffffffffffff1691506dffffffffffffffffffffffffffff169150876001600160a01b0316896001600160a01b031614156114b557600061147e8388611859565b9050600081116114965761149360028861228f565b90505b6114a18a89836118b6565b94506114ad81886121ed565b9550506114f4565b60006114c18288611859565b9050600081116114d9576114d660028861228f565b90505b6114e48a8a836118b6565b95506114f081886121ed565b9450505b50505094509492505050565b60025460009061151b9087906001600160a01b031686610a7c565b6002546115339086906001600160a01b031685610a7c565b60025460405162e8e33760e81b81526001600160a01b0388811660048301528781166024830152604482018790526064820186905260016084830181905260a48301523060c4830152600f60fc1b60e4830152600092839283929091169063e8e3370090610104016060604051808303816000875af11580156115ba573d6000803e3d6000fd5b505050506040513d601f19601f820116820180604052508101906115de91906122b1565b925092509250841561164c5760006115f684896121ed565b111561161b5761161b3361160a858a6121ed565b6001600160a01b038c169190611b4b565b600061162783886121ed565b111561164c5761164c3361163b84896121ed565b6001600160a01b038b169190611b4b565b98975050505050505050565b8015806116d25750604051636eb1769f60e11b81523060048201526001600160a01b03838116602483015284169063dd62ed3e90604401602060405180830381865afa1580156116ac573d6000803e3d6000fd5b505050506040513d601f19601f820116820180604052508101906116d091906120b1565b155b6117445760405162461bcd60e51b815260206004820152603660248201527f5361666545524332303a20617070726f76652066726f6d206e6f6e2d7a65726f60448201527f20746f206e6f6e2d7a65726f20616c6c6f77616e636500000000000000000000606482015260840161011c565b6040516001600160a01b0383166024820152604481018290526106c490849063095ea7b360e01b90606401610dad565b60006117c9826040518060400160405280602081526020017f5361666545524332303a206c6f772d6c6576656c2063616c6c206661696c6564815250856001600160a01b0316611b7b9092919063ffffffff16565b8051909150156106c457808060200190518101906117e79190612094565b6106c45760405162461bcd60e51b815260206004820152602a60248201527f5361666545524332303a204552433230206f7065726174696f6e20646964206e60448201527f6f74207375636365656400000000000000000000000000000000000000000000606482015260840161011c565b6000614dee61186a84614e076122df565b6118a261187b866317c844316122df565b611889866317c841c06122df565b61189391906122fe565b61189d90876122df565b611b92565b6118ac91906121ed565b6109da919061228f565b6000826001600160a01b0316846001600160a01b031614156118d95750806109da565b6002546118f19085906001600160a01b031684610a7c565b60405163e6a4390560e01b81526001600160a01b0380861660048301528416602482015260009073ca143ce32fe78f1f7019d7d551a6402fc5350c739063e6a4390590604401602060405180830381865afa158015611954573d6000803e3d6000fd5b505050506040513d601f19601f820116820180604052508101906119789190612204565b90506001600160a01b0381166119d05760405162461bcd60e51b815260206004820152601160248201527f4e6f205377617020417661696c61626c65000000000000000000000000000000604482015260640161011c565b6040805160028082526060820183526000926020830190803683370190505090508581600081518110611a0557611a056120ca565b60200260200101906001600160a01b031690816001600160a01b0316815250508481600181518110611a3957611a396120ca565b6001600160a01b0392831660209182029290920101526002546040516338ed173960e01b81529116906338ed173990611a8390879060019086903090600f60fc1b906004016120e0565b6000604051808303816000875af1158015611aa2573d6000803e3d6000fd5b505050506040513d6000823e601f3d908101601f19168201604052611aca9190810190612151565b60018251611ad891906121ed565b81518110611ae857611ae86120ca565b6020026020010151925060008311611b425760405162461bcd60e51b815260206004820152601760248201527f4572726f72205377617070696e6720546f6b656e732032000000000000000000604482015260640161011c565b50509392505050565b6040516001600160a01b0383166024820152604481018290526106c490849063a9059cbb60e01b90606401610dad565b6060611b8a8484600085611c02565b949350505050565b60006003821115611bf35750806000611bac60028361228f565b611bb79060016122fe565b90505b81811015611bed57905080600281611bd2818661228f565b611bdc91906122fe565b611be6919061228f565b9050611bba565b50919050565b8115611bfd575060015b919050565b606082471015611c7a5760405162461bcd60e51b815260206004820152602660248201527f416464726573733a20696e73756666696369656e742062616c616e636520666f60448201527f722063616c6c0000000000000000000000000000000000000000000000000000606482015260840161011c565b6001600160a01b0385163b611cd15760405162461bcd60e51b815260206004820152601d60248201527f416464726573733a2063616c6c20746f206e6f6e2d636f6e7472616374000000604482015260640161011c565b600080866001600160a01b03168587604051611ced9190612342565b60006040518083038185875af1925050503d8060008114611d2a576040519150601f19603f3d011682016040523d82523d6000602084013e611d2f565b606091505b5091509150611d3f828286611d4a565b979650505050505050565b60608315611d595750816109da565b825115611d695782518084602001fd5b8160405162461bcd60e51b815260040161011c919061235e565b6001600160a01b038116811461064857600080fd5b634e487b7160e01b600052604160045260246000fd5b604051601f8201601f1916810167ffffffffffffffff81118282101715611dd757611dd7611d98565b604052919050565b600067ffffffffffffffff821115611df957611df9611d98565b5060051b60200190565b600082601f830112611e1457600080fd5b81356020611e29611e2483611ddf565b611dae565b82815260059290921b84018101918181019086841115611e4857600080fd5b8286015b84811015611e6c578035611e5f81611d83565b8352918301918301611e4c565b509695505050505050565b801515811461064857600080fd5b6000806000806000806000806000806101408b8d031215611ea557600080fd5b8a35611eb081611d83565b995060208b0135611ec081611d83565b985060408b013567ffffffffffffffff811115611edc57600080fd5b611ee88d828e01611e03565b98505060608b0135965060808b0135955060a08b0135611f0781611e77565b945060c08b0135611f1781611e77565b935060e08b0135611f2781611d83565b809350506101008b013591506101208b013590509295989b9194979a5092959850565b600060208284031215611f5c57600080fd5b81356109da81611d83565b600080600080600080600080610100898b031215611f8457600080fd5b8835611f8f81611d83565b97506020890135611f9f81611d83565b9650604089013567ffffffffffffffff811115611fbb57600080fd5b611fc78b828c01611e03565b965050606089013594506080890135611fdf81611e77565b935060a0890135611fef81611d83565b979a969950949793969295929450505060c08201359160e0013590565b6000806040838503121561201f57600080fd5b823561202a81611d83565b946020939093013593505050565b60006060828403121561204a57600080fd5b6040516060810181811067ffffffffffffffff8211171561206d5761206d611d98565b80604052508251815260208301516020820152604083015160408201528091505092915050565b6000602082840312156120a657600080fd5b81516109da81611e77565b6000602082840312156120c357600080fd5b5051919050565b634e487b7160e01b600052603260045260246000fd5b600060a082018783526020878185015260a0604085015281875180845260c086019150828901935060005b818110156121305784516001600160a01b03168352938301939183019160010161210b565b50506001600160a01b03969096166060850152505050608001529392505050565b6000602080838503121561216457600080fd5b825167ffffffffffffffff81111561217b57600080fd5b8301601f8101851361218c57600080fd5b805161219a611e2482611ddf565b81815260059190911b820183019083810190878311156121b957600080fd5b928401925b82841015611d3f578351825292840192908401906121be565b634e487b7160e01b600052601160045260246000fd5b6000828210156121ff576121ff6121d7565b500390565b60006020828403121561221657600080fd5b81516109da81611d83565b80516dffffffffffffffffffffffffffff81168114611bfd57600080fd5b60008060006060848603121561225457600080fd5b61225d84612221565b925061226b60208501612221565b9150604084015163ffffffff8116811461228457600080fd5b809150509250925092565b6000826122ac57634e487b7160e01b600052601260045260246000fd5b500490565b6000806000606084860312156122c657600080fd5b8351925060208401519150604084015190509250925092565b60008160001904831182151516156122f9576122f96121d7565b500290565b60008219821115612311576123116121d7565b500190565b60005b83811015612331578181015183820152602001612319565b83811115610e115750506000910152565b60008251612354818460208701612316565b9190910192915050565b602081526000825180602084015261237d816040850160208701612316565b601f01601f1916919091016040019291505056fea164736f6c634300080a000a",
  "devdoc": {
    "kind": "dev",
    "methods": {
      "owner()": {
        "details": "Returns the address of the current owner."
      },
      "paused()": {
        "details": "Returns true if the contract is paused, and false otherwise."
      },
      "renounceOwnership()": {
        "details": "Leaves the contract without owner. It will not be possible to call `onlyOwner` functions anymore. Can only be called by the current owner. NOTE: Renouncing ownership will leave the contract without an owner, thereby removing any functionality that is only available to the owner."
      },
      "transferOwnership(address)": {
        "details": "Transfers ownership of the contract to a new account (`newOwner`). Can only be called by the current owner."
      }
    },
    "version": 1
  },
  "userdoc": {
    "kind": "user",
    "methods": {
      "updateDepo(address)": {
        "notice": "update state for depo"
      }
    },
    "version": 1
  },
  "storageLayout": {
    "storage": [
      {
        "astId": 7,
        "contract": "contracts/HectagonQuickBond.sol:HectagonQuickBond",
        "label": "_owner",
        "offset": 0,
        "slot": "0",
        "type": "t_address"
      },
      {
        "astId": 298,
        "contract": "contracts/HectagonQuickBond.sol:HectagonQuickBond",
        "label": "_paused",
        "offset": 20,
        "slot": "0",
        "type": "t_bool"
      },
      {
        "astId": 6766,
        "contract": "contracts/HectagonQuickBond.sol:HectagonQuickBond",
        "label": "depo",
        "offset": 0,
        "slot": "1",
        "type": "t_address"
      },
      {
        "astId": 6769,
        "contract": "contracts/HectagonQuickBond.sol:HectagonQuickBond",
        "label": "stopped",
        "offset": 20,
        "slot": "1",
        "type": "t_bool"
      },
      {
        "astId": 6781,
        "contract": "contracts/HectagonQuickBond.sol:HectagonQuickBond",
        "label": "pancakeswapRouter",
        "offset": 0,
        "slot": "2",
        "type": "t_contract(IUniswapV2Router)9006"
      }
    ],
    "types": {
      "t_address": {
        "encoding": "inplace",
        "label": "address",
        "numberOfBytes": "20"
      },
      "t_bool": {
        "encoding": "inplace",
        "label": "bool",
        "numberOfBytes": "1"
      },
      "t_contract(IUniswapV2Router)9006": {
        "encoding": "inplace",
        "label": "contract IUniswapV2Router",
        "numberOfBytes": "20"
      }
    }
  }
}