{
  "address": "0x2cD3351a19AeB6D997c4Ff123BDB7eCE537a265e",
  "abi": [
    {
      "inputs": [
        {
          "internalType": "address",
          "name": "_sHECTA",
          "type": "address"
        }
      ],
      "stateMutability": "nonpayable",
      "type": "constructor"
    },
    {
      "anonymous": false,
      "inputs": [
        {
          "indexed": true,
          "internalType": "address",
          "name": "owner",
          "type": "address"
        },
        {
          "indexed": true,
          "internalType": "address",
          "name": "spender",
          "type": "address"
        },
        {
          "indexed": false,
          "internalType": "uint256",
          "name": "value",
          "type": "uint256"
        }
      ],
      "name": "Approval",
      "type": "event"
    },
    {
      "anonymous": false,
      "inputs": [
        {
          "indexed": true,
          "internalType": "address",
          "name": "delegator",
          "type": "address"
        },
        {
          "indexed": true,
          "internalType": "address",
          "name": "fromDelegate",
          "type": "address"
        },
        {
          "indexed": true,
          "internalType": "address",
          "name": "toDelegate",
          "type": "address"
        }
      ],
      "name": "DelegateChanged",
      "type": "event"
    },
    {
      "anonymous": false,
      "inputs": [
        {
          "indexed": true,
          "internalType": "address",
          "name": "delegate",
          "type": "address"
        },
        {
          "indexed": false,
          "internalType": "uint256",
          "name": "previousBalance",
          "type": "uint256"
        },
        {
          "indexed": false,
          "internalType": "uint256",
          "name": "newBalance",
          "type": "uint256"
        }
      ],
      "name": "DelegateVotesChanged",
      "type": "event"
    },
    {
      "anonymous": false,
      "inputs": [
        {
          "indexed": true,
          "internalType": "address",
          "name": "from",
          "type": "address"
        },
        {
          "indexed": true,
          "internalType": "address",
          "name": "to",
          "type": "address"
        },
        {
          "indexed": false,
          "internalType": "uint256",
          "name": "value",
          "type": "uint256"
        }
      ],
      "name": "Transfer",
      "type": "event"
    },
    {
      "inputs": [
        {
          "internalType": "address",
          "name": "owner",
          "type": "address"
        },
        {
          "internalType": "address",
          "name": "spender",
          "type": "address"
        }
      ],
      "name": "allowance",
      "outputs": [
        {
          "internalType": "uint256",
          "name": "",
          "type": "uint256"
        }
      ],
      "stateMutability": "view",
      "type": "function"
    },
    {
      "inputs": [
        {
          "internalType": "address",
          "name": "spender",
          "type": "address"
        },
        {
          "internalType": "uint256",
          "name": "amount",
          "type": "uint256"
        }
      ],
      "name": "approve",
      "outputs": [
        {
          "internalType": "bool",
          "name": "",
          "type": "bool"
        }
      ],
      "stateMutability": "nonpayable",
      "type": "function"
    },
    {
      "inputs": [],
      "name": "approved",
      "outputs": [
        {
          "internalType": "address",
          "name": "",
          "type": "address"
        }
      ],
      "stateMutability": "view",
      "type": "function"
    },
    {
      "inputs": [
        {
          "internalType": "uint256",
          "name": "_amount",
          "type": "uint256"
        }
      ],
      "name": "balanceFrom",
      "outputs": [
        {
          "internalType": "uint256",
          "name": "",
          "type": "uint256"
        }
      ],
      "stateMutability": "view",
      "type": "function"
    },
    {
      "inputs": [
        {
          "internalType": "address",
          "name": "account",
          "type": "address"
        }
      ],
      "name": "balanceOf",
      "outputs": [
        {
          "internalType": "uint256",
          "name": "",
          "type": "uint256"
        }
      ],
      "stateMutability": "view",
      "type": "function"
    },
    {
      "inputs": [
        {
          "internalType": "uint256",
          "name": "_amount",
          "type": "uint256"
        }
      ],
      "name": "balanceTo",
      "outputs": [
        {
          "internalType": "uint256",
          "name": "",
          "type": "uint256"
        }
      ],
      "stateMutability": "view",
      "type": "function"
    },
    {
      "inputs": [
        {
          "internalType": "address",
          "name": "_from",
          "type": "address"
        },
        {
          "internalType": "uint256",
          "name": "_amount",
          "type": "uint256"
        }
      ],
      "name": "burn",
      "outputs": [],
      "stateMutability": "nonpayable",
      "type": "function"
    },
    {
      "inputs": [
        {
          "internalType": "address",
          "name": "",
          "type": "address"
        },
        {
          "internalType": "uint256",
          "name": "",
          "type": "uint256"
        }
      ],
      "name": "checkpoints",
      "outputs": [
        {
          "internalType": "uint256",
          "name": "fromBlock",
          "type": "uint256"
        },
        {
          "internalType": "uint256",
          "name": "votes",
          "type": "uint256"
        }
      ],
      "stateMutability": "view",
      "type": "function"
    },
    {
      "inputs": [],
      "name": "decimals",
      "outputs": [
        {
          "internalType": "uint8",
          "name": "",
          "type": "uint8"
        }
      ],
      "stateMutability": "view",
      "type": "function"
    },
    {
      "inputs": [
        {
          "internalType": "address",
          "name": "spender",
          "type": "address"
        },
        {
          "internalType": "uint256",
          "name": "subtractedValue",
          "type": "uint256"
        }
      ],
      "name": "decreaseAllowance",
      "outputs": [
        {
          "internalType": "bool",
          "name": "",
          "type": "bool"
        }
      ],
      "stateMutability": "nonpayable",
      "type": "function"
    },
    {
      "inputs": [
        {
          "internalType": "address",
          "name": "delegatee",
          "type": "address"
        }
      ],
      "name": "delegate",
      "outputs": [],
      "stateMutability": "nonpayable",
      "type": "function"
    },
    {
      "inputs": [
        {
          "internalType": "address",
          "name": "",
          "type": "address"
        }
      ],
      "name": "delegates",
      "outputs": [
        {
          "internalType": "address",
          "name": "",
          "type": "address"
        }
      ],
      "stateMutability": "view",
      "type": "function"
    },
    {
      "inputs": [
        {
          "internalType": "address",
          "name": "account",
          "type": "address"
        }
      ],
      "name": "getCurrentVotes",
      "outputs": [
        {
          "internalType": "uint256",
          "name": "",
          "type": "uint256"
        }
      ],
      "stateMutability": "view",
      "type": "function"
    },
    {
      "inputs": [
        {
          "internalType": "address",
          "name": "account",
          "type": "address"
        },
        {
          "internalType": "uint256",
          "name": "blockNumber",
          "type": "uint256"
        }
      ],
      "name": "getPriorVotes",
      "outputs": [
        {
          "internalType": "uint256",
          "name": "",
          "type": "uint256"
        }
      ],
      "stateMutability": "view",
      "type": "function"
    },
    {
      "inputs": [
        {
          "internalType": "address",
          "name": "spender",
          "type": "address"
        },
        {
          "internalType": "uint256",
          "name": "addedValue",
          "type": "uint256"
        }
      ],
      "name": "increaseAllowance",
      "outputs": [
        {
          "internalType": "bool",
          "name": "",
          "type": "bool"
        }
      ],
      "stateMutability": "nonpayable",
      "type": "function"
    },
    {
      "inputs": [],
      "name": "index",
      "outputs": [
        {
          "internalType": "uint256",
          "name": "",
          "type": "uint256"
        }
      ],
      "stateMutability": "view",
      "type": "function"
    },
    {
      "inputs": [],
      "name": "migrated",
      "outputs": [
        {
          "internalType": "bool",
          "name": "",
          "type": "bool"
        }
      ],
      "stateMutability": "view",
      "type": "function"
    },
    {
      "inputs": [
        {
          "internalType": "address",
          "name": "_to",
          "type": "address"
        },
        {
          "internalType": "uint256",
          "name": "_amount",
          "type": "uint256"
        }
      ],
      "name": "mint",
      "outputs": [],
      "stateMutability": "nonpayable",
      "type": "function"
    },
    {
      "inputs": [],
      "name": "name",
      "outputs": [
        {
          "internalType": "string",
          "name": "",
          "type": "string"
        }
      ],
      "stateMutability": "view",
      "type": "function"
    },
    {
      "inputs": [
        {
          "internalType": "address",
          "name": "",
          "type": "address"
        }
      ],
      "name": "numCheckpoints",
      "outputs": [
        {
          "internalType": "uint256",
          "name": "",
          "type": "uint256"
        }
      ],
      "stateMutability": "view",
      "type": "function"
    },
    {
      "inputs": [],
      "name": "sHECTA",
      "outputs": [
        {
          "internalType": "contract IsHECTA",
          "name": "",
          "type": "address"
        }
      ],
      "stateMutability": "view",
      "type": "function"
    },
    {
      "inputs": [
        {
          "internalType": "address",
          "name": "_staking",
          "type": "address"
        }
      ],
      "name": "setStaking",
      "outputs": [],
      "stateMutability": "nonpayable",
      "type": "function"
    },
    {
      "inputs": [],
      "name": "symbol",
      "outputs": [
        {
          "internalType": "string",
          "name": "",
          "type": "string"
        }
      ],
      "stateMutability": "view",
      "type": "function"
    },
    {
      "inputs": [],
      "name": "totalSupply",
      "outputs": [
        {
          "internalType": "uint256",
          "name": "",
          "type": "uint256"
        }
      ],
      "stateMutability": "view",
      "type": "function"
    },
    {
      "inputs": [
        {
          "internalType": "address",
          "name": "recipient",
          "type": "address"
        },
        {
          "internalType": "uint256",
          "name": "amount",
          "type": "uint256"
        }
      ],
      "name": "transfer",
      "outputs": [
        {
          "internalType": "bool",
          "name": "",
          "type": "bool"
        }
      ],
      "stateMutability": "nonpayable",
      "type": "function"
    },
    {
      "inputs": [
        {
          "internalType": "address",
          "name": "sender",
          "type": "address"
        },
        {
          "internalType": "address",
          "name": "recipient",
          "type": "address"
        },
        {
          "internalType": "uint256",
          "name": "amount",
          "type": "uint256"
        }
      ],
      "name": "transferFrom",
      "outputs": [
        {
          "internalType": "bool",
          "name": "",
          "type": "bool"
        }
      ],
      "stateMutability": "nonpayable",
      "type": "function"
    }
  ],
  "transactionHash": "0x63cdb9f1f55ea87f609b0a90c16fdbf4f582aaf8b5426963e43d7b8a5fdf86ab",
  "args": [
    "0xD45Ec360673aaA5e0efA286B193cf0f595F794Bf"
  ],
  "solcInputHash": "af0988b3e7447ab5c03a65cbe9c46091",
  "bytecode": "0x60806040523480156200001157600080fd5b5060405162001a8738038062001a878339810160408190526200003491620001d3565b604080518082018252601081526f476f7665726e616e636520484543544160801b60208083019182528351808501909452600684526567484543544160d01b9084015281519192916200008a916003916200012d565b508051620000a09060049060208401906200012d565b5050506001600160a01b038116620000fe5760405162461bcd60e51b815260206004820152601460248201527f5a65726f20616464726573733a20734845435441000000000000000000000000604482015260640160405180910390fd5b600580546001600160a01b039092166001600160a01b0319928316179055600680549091163317905562000242565b8280546200013b9062000205565b90600052602060002090601f0160209004810192826200015f5760008555620001aa565b82601f106200017a57805160ff1916838001178555620001aa565b82800160010185558215620001aa579182015b82811115620001aa5782518255916020019190600101906200018d565b50620001b8929150620001bc565b5090565b5b80821115620001b85760008155600101620001bd565b600060208284031215620001e657600080fd5b81516001600160a01b0381168114620001fe57600080fd5b9392505050565b600181811c908216806200021a57607f821691505b602082108114156200023c57634e487b7160e01b600052602260045260246000fd5b50919050565b61183580620002526000396000f3fe608060405234801561001057600080fd5b50600436106101ae5760003560e01c80635c19a95c116100ee57806395d89b4111610097578063a824876811610071578063a8248768146103dd578063a9059cbb146103f0578063b4b5ea5714610403578063dd62ed3e1461041657600080fd5b806395d89b41146103af5780639dc29fac146103b7578063a457c2d7146103ca57600080fd5b806370a08231116100c857806370a0823114610360578063782d6fe1146103895780638ff390991461039c57600080fd5b80635c19a95c1461031a57806366a5236c1461032d5780636fcfff451461034057600080fd5b80632986c0e51161015b578063395093511161013557806339509351146102b65780633be1606e146102c957806340c10f19146102dc578063587cde1e146102f157600080fd5b80632986c0e51461028b5780632c678c6414610293578063313ce567146102a757600080fd5b806318160ddd1161018c57806318160ddd1461023b57806319d40b081461024d57806323b872dd1461027857600080fd5b806306fdde03146101b3578063095ea7b3146101d15780630cdfebfa146101f4575b600080fd5b6101bb61044f565b6040516101c8919061151d565b60405180910390f35b6101e46101df36600461158e565b6104e1565b60405190151581526020016101c8565b61022661020236600461158e565b60076020908152600092835260408084209091529082529020805460019091015482565b604080519283526020830191909152016101c8565b6002545b6040519081526020016101c8565b600654610260906001600160a01b031681565b6040516001600160a01b0390911681526020016101c8565b6101e46102863660046115b8565b6104f8565b61023f6105bc565b6006546101e490600160a01b900460ff1681565b604051601281526020016101c8565b6101e46102c436600461158e565b61062f565b600554610260906001600160a01b031681565b6102ef6102ea36600461158e565b61066b565b005b6102606102ff3660046115f4565b6009602052600090815260409020546001600160a01b031681565b6102ef6103283660046115f4565b6106c3565b61023f61033b36600461160f565b6106d0565b61023f61034e3660046115f4565b60086020526000908152604090205481565b61023f61036e3660046115f4565b6001600160a01b031660009081526020819052604090205490565b61023f61039736600461158e565b6106fa565b6102ef6103aa3660046115f4565b610932565b6101bb610ae6565b6102ef6103c536600461158e565b610af5565b6101e46103d836600461158e565b610b49565b61023f6103eb36600461160f565b610bfa565b6101e46103fe36600461158e565b610c10565b61023f6104113660046115f4565b610c1d565b61023f610424366004611628565b6001600160a01b03918216600090815260016020908152604080832093909416825291909152205490565b60606003805461045e9061165b565b80601f016020809104026020016040519081016040528092919081815260200182805461048a9061165b565b80156104d75780601f106104ac576101008083540402835291602001916104d7565b820191906000526020600020905b8154815290600101906020018083116104ba57829003601f168201915b5050505050905090565b60006104ee338484610c80565b5060015b92915050565b6000610505848484610da5565b6001600160a01b0384166000908152600160209081526040808320338452909152902054828110156105a45760405162461bcd60e51b815260206004820152602860248201527f45524332303a207472616e7366657220616d6f756e742065786365656473206160448201527f6c6c6f77616e636500000000000000000000000000000000000000000000000060648201526084015b60405180910390fd5b6105b18533858403610c80565b506001949350505050565b60055460408051632986c0e560e01b815290516000926001600160a01b031691632986c0e59160048083019260209291908290030181865afa158015610606573d6000803e3d6000fd5b505050506040513d601f19601f8201168201806040525081019061062a9190611696565b905090565b3360008181526001602090815260408083206001600160a01b038716845290915281205490916104ee9185906106669086906116c5565b610c80565b6006546001600160a01b031633146106b55760405162461bcd60e51b815260206004820152600d60248201526c13db9b1e48185c1c1c9bdd9959609a1b604482015260640161059b565b6106bf8282610faf565b5050565b6106cd338261109a565b50565b60006106da6105bc565b6106e66012600a6117c1565b6106f090846117d0565b6104f291906117ef565b60004382106107715760405162461bcd60e51b815260206004820152602960248201527f6748454354413a3a6765745072696f72566f7465733a206e6f7420796574206460448201527f657465726d696e65640000000000000000000000000000000000000000000000606482015260840161059b565b6001600160a01b038316600090815260086020526040902054806107995760009150506104f2565b6001600160a01b038416600090815260076020526040812084916107be600185611811565b81526020019081526020016000206000015411610813576001600160a01b0384166000908152600760205260408120906107f9600184611811565b8152602001908152602001600020600101549150506104f2565b6001600160a01b03841660009081526007602090815260408083208380529091529020548310156108485760009150506104f2565b600080610856600184611811565b90505b81811115610902576000600261086f8484611811565b61087991906117ef565b6108839083611811565b6001600160a01b03881660009081526007602090815260408083208484528252918290208251808401909352805480845260019091015491830191909152919250908714156108dc576020015194506104f29350505050565b80518711156108ed578193506108fb565b6108f8600183611811565b92505b5050610859565b506001600160a01b0385166000908152600760209081526040808320938352929052206001015491505092915050565b6006546001600160a01b0316331461097c5760405162461bcd60e51b815260206004820152600d60248201526c13db9b1e48185c1c1c9bdd9959609a1b604482015260640161059b565b600654600160a01b900460ff16156109d65760405162461bcd60e51b815260206004820152600860248201527f4d69677261746564000000000000000000000000000000000000000000000000604482015260640161059b565b600680547fffffffffffffffffffffff00ffffffffffffffffffffffffffffffffffffffff8116600160a01b179091556001600160a01b0382811691161415610a615760405162461bcd60e51b815260206004820152601060248201527f496e76616c696420617267756d656e7400000000000000000000000000000000604482015260640161059b565b6001600160a01b038116610ab75760405162461bcd60e51b815260206004820152601260248201527f5a65726f206164647265737320666f756e640000000000000000000000000000604482015260640161059b565b6006805473ffffffffffffffffffffffffffffffffffffffff19166001600160a01b0392909216919091179055565b60606004805461045e9061165b565b6006546001600160a01b03163314610b3f5760405162461bcd60e51b815260206004820152600d60248201526c13db9b1e48185c1c1c9bdd9959609a1b604482015260640161059b565b6106bf8282611120565b3360009081526001602090815260408083206001600160a01b038616845290915281205482811015610be35760405162461bcd60e51b815260206004820152602560248201527f45524332303a2064656372656173656420616c6c6f77616e63652062656c6f7760448201527f207a65726f000000000000000000000000000000000000000000000000000000606482015260840161059b565b610bf03385858403610c80565b5060019392505050565b6000610c086012600a6117c1565b6106e66105bc565b60006104ee338484610da5565b6001600160a01b03811660009081526008602052604081205480610c42576000610c79565b6001600160a01b038316600090815260076020526040812090610c66600184611811565b8152602001908152602001600020600101545b9392505050565b6001600160a01b038316610ce25760405162461bcd60e51b8152602060048201526024808201527f45524332303a20617070726f76652066726f6d20746865207a65726f206164646044820152637265737360e01b606482015260840161059b565b6001600160a01b038216610d435760405162461bcd60e51b815260206004820152602260248201527f45524332303a20617070726f766520746f20746865207a65726f206164647265604482015261737360f01b606482015260840161059b565b6001600160a01b0383811660008181526001602090815260408083209487168084529482529182902085905590518481527f8c5be1e5ebec7d5bd14f71427d1e84f3dd0314c0f7b2291e5b200ac8c7c3b92591015b60405180910390a3505050565b6001600160a01b038316610e215760405162461bcd60e51b815260206004820152602560248201527f45524332303a207472616e736665722066726f6d20746865207a65726f20616460448201527f6472657373000000000000000000000000000000000000000000000000000000606482015260840161059b565b6001600160a01b038216610e835760405162461bcd60e51b815260206004820152602360248201527f45524332303a207472616e7366657220746f20746865207a65726f206164647260448201526265737360e81b606482015260840161059b565b610e8e838383611277565b6001600160a01b03831660009081526020819052604090205481811015610f1d5760405162461bcd60e51b815260206004820152602660248201527f45524332303a207472616e7366657220616d6f756e742065786365656473206260448201527f616c616e63650000000000000000000000000000000000000000000000000000606482015260840161059b565b6001600160a01b03808516600090815260208190526040808220858503905591851681529081208054849290610f549084906116c5565b92505081905550826001600160a01b0316846001600160a01b03167fddf252ad1be2c89b69c2b068fc378daa952ba7f163c4a11628f55a4df523b3ef84604051610fa091815260200190565b60405180910390a35b50505050565b6001600160a01b0382166110055760405162461bcd60e51b815260206004820152601f60248201527f45524332303a206d696e7420746f20746865207a65726f206164647265737300604482015260640161059b565b61101160008383611277565b806002600082825461102391906116c5565b90915550506001600160a01b038216600090815260208190526040812080548392906110509084906116c5565b90915550506040518181526001600160a01b038316906000907fddf252ad1be2c89b69c2b068fc378daa952ba7f163c4a11628f55a4df523b3ef9060200160405180910390a35050565b6001600160a01b0382811660008181526009602081815260408084208054858452828620549490935287871673ffffffffffffffffffffffffffffffffffffffff198416811790915590519190951694919391928592917f3134e8a2e6d97e929a7e54011ea5485d7d196dd5f0ba4d4ef95803e8e3fc257f9190a4610fa98284836112a5565b6001600160a01b0382166111805760405162461bcd60e51b815260206004820152602160248201527f45524332303a206275726e2066726f6d20746865207a65726f206164647265736044820152607360f81b606482015260840161059b565b61118c82600083611277565b6001600160a01b038216600090815260208190526040902054818110156112005760405162461bcd60e51b815260206004820152602260248201527f45524332303a206275726e20616d6f756e7420657863656564732062616c616e604482015261636560f01b606482015260840161059b565b6001600160a01b038316600090815260208190526040812083830390556002805484929061122f908490611811565b90915550506040518281526000906001600160a01b038516907fddf252ad1be2c89b69c2b068fc378daa952ba7f163c4a11628f55a4df523b3ef90602001610d98565b505050565b6001600160a01b03808416600090815260096020526040808220548584168352912054611272929182169116835b816001600160a01b0316836001600160a01b0316141580156112c75750600081115b15611272576001600160a01b03831615611358576001600160a01b0383166000908152600860205260408120549081611301576000611338565b6001600160a01b038516600090815260076020526040812090611325600185611811565b8152602001908152602001600020600101545b905060006113468483611811565b9050611354868484846113e8565b5050505b6001600160a01b03821615611272576001600160a01b038216600090815260086020526040812054908161138d5760006113c4565b6001600160a01b0384166000908152600760205260408120906113b1600185611811565b8152602001908152602001600020600101545b905060006113d284836116c5565b90506113e0858484846113e8565b505050505050565b60008311801561142c57506001600160a01b03841660009081526007602052604081204391611418600187611811565b815260200190815260200160002060000154145b1561146f576001600160a01b03841660009081526007602052604081208291611456600187611811565b81526020810191909152604001600020600101556114d3565b60408051808201825243815260208082018481526001600160a01b0388166000908152600783528481208882529092529290209051815590516001918201556114b99084906116c5565b6001600160a01b0385166000908152600860205260409020555b60408051838152602081018390526001600160a01b038616917fdec2bacdd2f05b59de34da9b523dff8be42e5e38e818c82fdb0bae774387a724910160405180910390a250505050565b600060208083528351808285015260005b8181101561154a5785810183015185820160400152820161152e565b8181111561155c576000604083870101525b50601f01601f1916929092016040019392505050565b80356001600160a01b038116811461158957600080fd5b919050565b600080604083850312156115a157600080fd5b6115aa83611572565b946020939093013593505050565b6000806000606084860312156115cd57600080fd5b6115d684611572565b92506115e460208501611572565b9150604084013590509250925092565b60006020828403121561160657600080fd5b610c7982611572565b60006020828403121561162157600080fd5b5035919050565b6000806040838503121561163b57600080fd5b61164483611572565b915061165260208401611572565b90509250929050565b600181811c9082168061166f57607f821691505b6020821081141561169057634e487b7160e01b600052602260045260246000fd5b50919050565b6000602082840312156116a857600080fd5b5051919050565b634e487b7160e01b600052601160045260246000fd5b600082198211156116d8576116d86116af565b500190565b600181815b808511156117185781600019048211156116fe576116fe6116af565b8085161561170b57918102915b93841c93908002906116e2565b509250929050565b60008261172f575060016104f2565b8161173c575060006104f2565b8160018114611752576002811461175c57611778565b60019150506104f2565b60ff84111561176d5761176d6116af565b50506001821b6104f2565b5060208310610133831016604e8410600b841016171561179b575081810a6104f2565b6117a583836116dd565b80600019048211156117b9576117b96116af565b029392505050565b6000610c7960ff841683611720565b60008160001904831182151516156117ea576117ea6116af565b500290565b60008261180c57634e487b7160e01b600052601260045260246000fd5b500490565b600082821015611823576118236116af565b50039056fea164736f6c634300080a000a",
  "devdoc": {
    "kind": "dev",
    "methods": {
      "allowance(address,address)": {
        "details": "See {IERC20-allowance}."
      },
      "approve(address,uint256)": {
        "details": "See {IERC20-approve}. Requirements: - `spender` cannot be the zero address."
      },
      "balanceFrom(uint256)": {
        "params": {
          "_amount": "uint"
        },
        "returns": {
          "_0": "uint"
        }
      },
      "balanceOf(address)": {
        "details": "See {IERC20-balanceOf}."
      },
      "balanceTo(uint256)": {
        "params": {
          "_amount": "uint"
        },
        "returns": {
          "_0": "uint"
        }
      },
      "burn(address,uint256)": {
        "params": {
          "_amount": "uint",
          "_from": "address"
        }
      },
      "decimals()": {
        "details": "Returns the number of decimals used to get its user representation. For example, if `decimals` equals `2`, a balance of `505` tokens should be displayed to a user as `5.05` (`505 / 10 ** 2`). Tokens usually opt for a value of 18, imitating the relationship between Ether and Wei. This is the value {ERC20} uses, unless this function is overridden; NOTE: This information is only used for _display_ purposes: it in no way affects any of the arithmetic of the contract, including {IERC20-balanceOf} and {IERC20-transfer}."
      },
      "decreaseAllowance(address,uint256)": {
        "details": "Atomically decreases the allowance granted to `spender` by the caller. This is an alternative to {approve} that can be used as a mitigation for problems described in {IERC20-approve}. Emits an {Approval} event indicating the updated allowance. Requirements: - `spender` cannot be the zero address. - `spender` must have allowance for the caller of at least `subtractedValue`."
      },
      "delegate(address)": {
        "params": {
          "delegatee": "The address to delegate votes to"
        }
      },
      "getCurrentVotes(address)": {
        "params": {
          "account": "The address to get votes balance"
        },
        "returns": {
          "_0": "The number of current votes for `account`"
        }
      },
      "getPriorVotes(address,uint256)": {
        "details": "Block number must be a finalized block or else this function will revert to prevent misinformation.",
        "params": {
          "account": "The address of the account to check",
          "blockNumber": "The block number to get the vote balance at"
        },
        "returns": {
          "_0": "The number of votes the account had as of the given block"
        }
      },
      "increaseAllowance(address,uint256)": {
        "details": "Atomically increases the allowance granted to `spender` by the caller. This is an alternative to {approve} that can be used as a mitigation for problems described in {IERC20-approve}. Emits an {Approval} event indicating the updated allowance. Requirements: - `spender` cannot be the zero address."
      },
      "mint(address,uint256)": {
        "params": {
          "_amount": "uint",
          "_to": "address"
        }
      },
      "name()": {
        "details": "Returns the name of the token."
      },
      "setStaking(address)": {
        "params": {
          "_staking": "address"
        }
      },
      "symbol()": {
        "details": "Returns the symbol of the token, usually a shorter version of the name."
      },
      "totalSupply()": {
        "details": "See {IERC20-totalSupply}."
      },
      "transfer(address,uint256)": {
        "details": "See {IERC20-transfer}. Requirements: - `recipient` cannot be the zero address. - the caller must have a balance of at least `amount`."
      },
      "transferFrom(address,address,uint256)": {
        "details": "See {IERC20-transferFrom}. Emits an {Approval} event indicating the updated allowance. This is not required by the EIP. See the note at the beginning of {ERC20}. Requirements: - `sender` and `recipient` cannot be the zero address. - `sender` must have a balance of at least `amount`. - the caller must have allowance for ``sender``'s tokens of at least `amount`."
      }
    },
    "version": 1
  },
  "userdoc": {
    "kind": "user",
    "methods": {
      "balanceFrom(uint256)": {
        "notice": "converts gHECTA amount to HECTA"
      },
      "balanceTo(uint256)": {
        "notice": "converts HECTA amount to gHECTA"
      },
      "burn(address,uint256)": {
        "notice": "burn gHECTA"
      },
      "delegate(address)": {
        "notice": "Delegate votes from `msg.sender` to `delegatee`"
      },
      "getCurrentVotes(address)": {
        "notice": "Gets the current votes balance for `account`"
      },
      "getPriorVotes(address,uint256)": {
        "notice": "Determine the prior number of votes for an account as of a block number"
      },
      "index()": {
        "notice": "pull index from sHECTA token"
      },
      "mint(address,uint256)": {
        "notice": "mint gHECTA"
      },
      "setStaking(address)": {
        "notice": "transfer mint rights from deployer to stakingcan only be done once, at the time of contract migration"
      }
    },
    "version": 1
  },
  "storageLayout": {
    "storage": [
      {
        "astId": 212,
        "contract": "contracts/gHECTA.sol:gHECTA",
        "label": "_balances",
        "offset": 0,
        "slot": "0",
        "type": "t_mapping(t_address,t_uint256)"
      },
      {
        "astId": 218,
        "contract": "contracts/gHECTA.sol:gHECTA",
        "label": "_allowances",
        "offset": 0,
        "slot": "1",
        "type": "t_mapping(t_address,t_mapping(t_address,t_uint256))"
      },
      {
        "astId": 220,
        "contract": "contracts/gHECTA.sol:gHECTA",
        "label": "_totalSupply",
        "offset": 0,
        "slot": "2",
        "type": "t_uint256"
      },
      {
        "astId": 222,
        "contract": "contracts/gHECTA.sol:gHECTA",
        "label": "_name",
        "offset": 0,
        "slot": "3",
        "type": "t_string_storage"
      },
      {
        "astId": 224,
        "contract": "contracts/gHECTA.sol:gHECTA",
        "label": "_symbol",
        "offset": 0,
        "slot": "4",
        "type": "t_string_storage"
      },
      {
        "astId": 7193,
        "contract": "contracts/gHECTA.sol:gHECTA",
        "label": "sHECTA",
        "offset": 0,
        "slot": "5",
        "type": "t_contract(IsHECTA)8723"
      },
      {
        "astId": 7195,
        "contract": "contracts/gHECTA.sol:gHECTA",
        "label": "approved",
        "offset": 0,
        "slot": "6",
        "type": "t_address"
      },
      {
        "astId": 7197,
        "contract": "contracts/gHECTA.sol:gHECTA",
        "label": "migrated",
        "offset": 20,
        "slot": "6",
        "type": "t_bool"
      },
      {
        "astId": 7204,
        "contract": "contracts/gHECTA.sol:gHECTA",
        "label": "checkpoints",
        "offset": 0,
        "slot": "7",
        "type": "t_mapping(t_address,t_mapping(t_uint256,t_struct(Checkpoint)7190_storage))"
      },
      {
        "astId": 7208,
        "contract": "contracts/gHECTA.sol:gHECTA",
        "label": "numCheckpoints",
        "offset": 0,
        "slot": "8",
        "type": "t_mapping(t_address,t_uint256)"
      },
      {
        "astId": 7212,
        "contract": "contracts/gHECTA.sol:gHECTA",
        "label": "delegates",
        "offset": 0,
        "slot": "9",
        "type": "t_mapping(t_address,t_address)"
      }
    ],
    "types": {
      "t_address": {
        "encoding": "inplace",
        "label": "address",
        "numberOfBytes": "20"
      },
      "t_bool": {
        "encoding": "inplace",
        "label": "bool",
        "numberOfBytes": "1"
      },
      "t_contract(IsHECTA)8723": {
        "encoding": "inplace",
        "label": "contract IsHECTA",
        "numberOfBytes": "20"
      },
      "t_mapping(t_address,t_address)": {
        "encoding": "mapping",
        "key": "t_address",
        "label": "mapping(address => address)",
        "numberOfBytes": "32",
        "value": "t_address"
      },
      "t_mapping(t_address,t_mapping(t_address,t_uint256))": {
        "encoding": "mapping",
        "key": "t_address",
        "label": "mapping(address => mapping(address => uint256))",
        "numberOfBytes": "32",
        "value": "t_mapping(t_address,t_uint256)"
      },
      "t_mapping(t_address,t_mapping(t_uint256,t_struct(Checkpoint)7190_storage))": {
        "encoding": "mapping",
        "key": "t_address",
        "label": "mapping(address => mapping(uint256 => struct gHECTA.Checkpoint))",
        "numberOfBytes": "32",
        "value": "t_mapping(t_uint256,t_struct(Checkpoint)7190_storage)"
      },
      "t_mapping(t_address,t_uint256)": {
        "encoding": "mapping",
        "key": "t_address",
        "label": "mapping(address => uint256)",
        "numberOfBytes": "32",
        "value": "t_uint256"
      },
      "t_mapping(t_uint256,t_struct(Checkpoint)7190_storage)": {
        "encoding": "mapping",
        "key": "t_uint256",
        "label": "mapping(uint256 => struct gHECTA.Checkpoint)",
        "numberOfBytes": "32",
        "value": "t_struct(Checkpoint)7190_storage"
      },
      "t_string_storage": {
        "encoding": "bytes",
        "label": "string",
        "numberOfBytes": "32"
      },
      "t_struct(Checkpoint)7190_storage": {
        "encoding": "inplace",
        "label": "struct gHECTA.Checkpoint",
        "members": [
          {
            "astId": 7187,
            "contract": "contracts/gHECTA.sol:gHECTA",
            "label": "fromBlock",
            "offset": 0,
            "slot": "0",
            "type": "t_uint256"
          },
          {
            "astId": 7189,
            "contract": "contracts/gHECTA.sol:gHECTA",
            "label": "votes",
            "offset": 0,
            "slot": "1",
            "type": "t_uint256"
          }
        ],
        "numberOfBytes": "64"
      },
      "t_uint256": {
        "encoding": "inplace",
        "label": "uint256",
        "numberOfBytes": "32"
      }
    }
  }
}