{
  "address": "0x4a527d6d4E8Bb82d2c3BB066e07929ab9b3968a8",
  "abi": [
    {
      "inputs": [
        {
          "internalType": "address",
          "name": "_hecta",
          "type": "address"
        },
        {
          "internalType": "address",
          "name": "_sHECTA",
          "type": "address"
        },
        {
          "internalType": "address",
          "name": "_gHECTA",
          "type": "address"
        },
        {
          "internalType": "uint256",
          "name": "_epochLength",
          "type": "uint256"
        },
        {
          "internalType": "uint256",
          "name": "_firstEpochNumber",
          "type": "uint256"
        },
        {
          "internalType": "uint256",
          "name": "_firstEpochTime",
          "type": "uint256"
        },
        {
          "internalType": "address",
          "name": "_authority",
          "type": "address"
        }
      ],
      "stateMutability": "nonpayable",
      "type": "constructor"
    },
    {
      "anonymous": false,
      "inputs": [
        {
          "indexed": true,
          "internalType": "contract IHectagonAuthority",
          "name": "authority",
          "type": "address"
        }
      ],
      "name": "AuthorityUpdated",
      "type": "event"
    },
    {
      "anonymous": false,
      "inputs": [
        {
          "indexed": false,
          "internalType": "address",
          "name": "distributor",
          "type": "address"
        }
      ],
      "name": "DistributorSet",
      "type": "event"
    },
    {
      "anonymous": false,
      "inputs": [
        {
          "indexed": false,
          "internalType": "uint256",
          "name": "warmup",
          "type": "uint256"
        }
      ],
      "name": "WarmupSet",
      "type": "event"
    },
    {
      "inputs": [],
      "name": "HECTA",
      "outputs": [
        {
          "internalType": "contract IERC20",
          "name": "",
          "type": "address"
        }
      ],
      "stateMutability": "view",
      "type": "function"
    },
    {
      "inputs": [],
      "name": "authority",
      "outputs": [
        {
          "internalType": "contract IHectagonAuthority",
          "name": "",
          "type": "address"
        }
      ],
      "stateMutability": "view",
      "type": "function"
    },
    {
      "inputs": [
        {
          "internalType": "address",
          "name": "_to",
          "type": "address"
        }
      ],
      "name": "claim",
      "outputs": [
        {
          "internalType": "uint256",
          "name": "",
          "type": "uint256"
        }
      ],
      "stateMutability": "nonpayable",
      "type": "function"
    },
    {
      "inputs": [],
      "name": "distributor",
      "outputs": [
        {
          "internalType": "contract IDistributor",
          "name": "",
          "type": "address"
        }
      ],
      "stateMutability": "view",
      "type": "function"
    },
    {
      "inputs": [],
      "name": "epoch",
      "outputs": [
        {
          "internalType": "uint256",
          "name": "length",
          "type": "uint256"
        },
        {
          "internalType": "uint256",
          "name": "number",
          "type": "uint256"
        },
        {
          "internalType": "uint256",
          "name": "end",
          "type": "uint256"
        },
        {
          "internalType": "uint256",
          "name": "distribute",
          "type": "uint256"
        }
      ],
      "stateMutability": "view",
      "type": "function"
    },
    {
      "inputs": [],
      "name": "forfeit",
      "outputs": [
        {
          "internalType": "uint256",
          "name": "",
          "type": "uint256"
        }
      ],
      "stateMutability": "nonpayable",
      "type": "function"
    },
    {
      "inputs": [],
      "name": "gHECTA",
      "outputs": [
        {
          "internalType": "contract IgHECTA",
          "name": "",
          "type": "address"
        }
      ],
      "stateMutability": "view",
      "type": "function"
    },
    {
      "inputs": [],
      "name": "index",
      "outputs": [
        {
          "internalType": "uint256",
          "name": "",
          "type": "uint256"
        }
      ],
      "stateMutability": "view",
      "type": "function"
    },
    {
      "inputs": [],
      "name": "rebase",
      "outputs": [
        {
          "internalType": "uint256",
          "name": "",
          "type": "uint256"
        }
      ],
      "stateMutability": "nonpayable",
      "type": "function"
    },
    {
      "inputs": [],
      "name": "sHECTA",
      "outputs": [
        {
          "internalType": "contract IsHECTA",
          "name": "",
          "type": "address"
        }
      ],
      "stateMutability": "view",
      "type": "function"
    },
    {
      "inputs": [],
      "name": "secondsToNextEpoch",
      "outputs": [
        {
          "internalType": "uint256",
          "name": "",
          "type": "uint256"
        }
      ],
      "stateMutability": "view",
      "type": "function"
    },
    {
      "inputs": [
        {
          "internalType": "contract IHectagonAuthority",
          "name": "_newAuthority",
          "type": "address"
        }
      ],
      "name": "setAuthority",
      "outputs": [],
      "stateMutability": "nonpayable",
      "type": "function"
    },
    {
      "inputs": [
        {
          "internalType": "address",
          "name": "_distributor",
          "type": "address"
        }
      ],
      "name": "setDistributor",
      "outputs": [],
      "stateMutability": "nonpayable",
      "type": "function"
    },
    {
      "inputs": [
        {
          "internalType": "uint256",
          "name": "_warmupPeriod",
          "type": "uint256"
        }
      ],
      "name": "setWarmupLength",
      "outputs": [],
      "stateMutability": "nonpayable",
      "type": "function"
    },
    {
      "inputs": [
        {
          "internalType": "address",
          "name": "_to",
          "type": "address"
        },
        {
          "internalType": "uint256",
          "name": "_amount",
          "type": "uint256"
        },
        {
          "internalType": "bool",
          "name": "_claim",
          "type": "bool"
        }
      ],
      "name": "stake",
      "outputs": [
        {
          "internalType": "uint256",
          "name": "",
          "type": "uint256"
        }
      ],
      "stateMutability": "nonpayable",
      "type": "function"
    },
    {
      "inputs": [],
      "name": "supplyInWarmup",
      "outputs": [
        {
          "internalType": "uint256",
          "name": "",
          "type": "uint256"
        }
      ],
      "stateMutability": "view",
      "type": "function"
    },
    {
      "inputs": [],
      "name": "toggleLock",
      "outputs": [],
      "stateMutability": "nonpayable",
      "type": "function"
    },
    {
      "inputs": [
        {
          "internalType": "address",
          "name": "_to",
          "type": "address"
        },
        {
          "internalType": "uint256",
          "name": "_amount",
          "type": "uint256"
        },
        {
          "internalType": "bool",
          "name": "_trigger",
          "type": "bool"
        }
      ],
      "name": "unstake",
      "outputs": [
        {
          "internalType": "uint256",
          "name": "amount_",
          "type": "uint256"
        }
      ],
      "stateMutability": "nonpayable",
      "type": "function"
    },
    {
      "inputs": [
        {
          "internalType": "address",
          "name": "",
          "type": "address"
        }
      ],
      "name": "warmupInfo",
      "outputs": [
        {
          "internalType": "uint256",
          "name": "deposit",
          "type": "uint256"
        },
        {
          "internalType": "uint256",
          "name": "gons",
          "type": "uint256"
        },
        {
          "internalType": "uint256",
          "name": "expiry",
          "type": "uint256"
        },
        {
          "internalType": "bool",
          "name": "lock",
          "type": "bool"
        }
      ],
      "stateMutability": "view",
      "type": "function"
    },
    {
      "inputs": [],
      "name": "warmupPeriod",
      "outputs": [
        {
          "internalType": "uint256",
          "name": "",
          "type": "uint256"
        }
      ],
      "stateMutability": "view",
      "type": "function"
    }
  ],
  "transactionHash": "0xcb039fcbfc010268cc1e127d2cce8678aa22b30cb0cb4faa793573e8c7e6ff1f",
  "args": [
    "0xF38020ADeFF94EA83102E050DbA86011e3b588a1",
    "0xD45Ec360673aaA5e0efA286B193cf0f595F794Bf",
    "0x2cD3351a19AeB6D997c4Ff123BDB7eCE537a265e",
    "28800",
    "0",
    "1658291421",
    "0x2b04648FFBc816D587ed60574ab6ec323eF56fBE"
  ],
  "solcInputHash": "af0988b3e7447ab5c03a65cbe9c46091",
  "bytecode": "0x610120604052600c60e08190526b15539055551213d49256915160a21b61010090815262000031916000919062000213565b503480156200003f57600080fd5b5060405162001e4238038062001e428339810160408190526200006291620002d6565b600180546001600160a01b0319166001600160a01b0383169081179091556040518291907f2f658b440c35314f52658ea8a740e05b284cdc84dc9ae01e891f21b8933e7cad90600090a2506001600160a01b038716620001095760405162461bcd60e51b815260206004820152601360248201527f5a65726f20616464726573733a2048454354410000000000000000000000000060448201526064015b60405180910390fd5b6001600160a01b038088166080528616620001675760405162461bcd60e51b815260206004820152601460248201527f5a65726f20616464726573733a20734845435441000000000000000000000000604482015260640162000100565b6001600160a01b0380871660a0528516620001c55760405162461bcd60e51b815260206004820152601460248201527f5a65726f20616464726573733a20674845435441000000000000000000000000604482015260640162000100565b506001600160a01b0390931660c052604080516080810182528381526020810183905290810184905260006060909101819052600292909255600355600491909155600555506200038d9050565b828054620002219062000350565b90600052602060002090601f01602090048101928262000245576000855562000290565b82601f106200026057805160ff191683800117855562000290565b8280016001018555821562000290579182015b828111156200029057825182559160200191906001019062000273565b506200029e929150620002a2565b5090565b5b808211156200029e5760008155600101620002a3565b80516001600160a01b0381168114620002d157600080fd5b919050565b600080600080600080600060e0888a031215620002f257600080fd5b620002fd88620002b9565b96506200030d60208901620002b9565b95506200031d60408901620002b9565b9450606088015193506080880151925060a088015191506200034260c08901620002b9565b905092959891949750929550565b600181811c908216806200036557607f821691505b602082108114156200038757634e487b7160e01b600052602260045260246000fd5b50919050565b60805160a05160c051611a156200042d600039600081816102a701528181610647015281816106c2015281816112d901526113d80152600081816101fe015281816104f50152818161059a0152818161088001528181610d4301528181610e6601528181610f1701526111450152600081816101bf015281816107580152818161084d01528181610bee015281816110cc015261128a0152611a156000f3fe608060405234801561001057600080fd5b506004361061016c5760003560e01c8063900cf0cf116100cd578063bf7e214f11610081578063deac361a11610066578063deac361a1461035b578063f3d86e4a14610364578063ff9413d81461036c57600080fd5b8063bf7e214f14610335578063bfe109281461034857600080fd5b80639483c1d7116100b25780639483c1d714610312578063995846bd1461031a578063af14052c1461032d57600080fd5b8063900cf0cf146102c95780639238d592146102ff57600080fd5b80633be1606e1161012457806375619ab51161010957806375619ab51461027a5780637a9e5e4b1461028f57806386d51e4e146102a257600080fd5b80633be1606e146101f95780636746f4c21461022057600080fd5b806321d0af341161015557806321d0af341461019f5780632986c0e5146101b25780633bdbaa50146101ba57600080fd5b80631e83409a146101715780632013864114610197575b600080fd5b61018461017f3660046117ac565b610393565b6040519081526020015b60405180910390f35b61018461057d565b6101846101ad3660046117d7565b610617565b61018461087c565b6101e17f000000000000000000000000000000000000000000000000000000000000000081565b6040516001600160a01b03909116815260200161018e565b6101e17f000000000000000000000000000000000000000000000000000000000000000081565b61025861022e3660046117ac565b60076020526000908152604090208054600182015460028301546003909301549192909160ff1684565b604080519485526020850193909352918301521515606082015260800161018e565b61028d6102883660046117ac565b6108dc565b005b61028d61029d3660046117ac565b6109ea565b6101e17f000000000000000000000000000000000000000000000000000000000000000081565b6002546003546004546005546102df9392919084565b60408051948552602085019390935291830152606082015260800161018e565b61028d61030d366004611819565b610aed565b610184610bce565b6101846103283660046117d7565b610bdf565b610184610eec565b6001546101e1906001600160a01b031681565b6006546101e1906001600160a01b031681565b61018460085481565b610184611202565b61028d336000908152600760205260409020600301805460ff19811660ff90911615179055565b6001600160a01b03811660009081526007602090815260408083208151608081018352815481526001820154938101939093526002810154918301919091526003015460ff16151560608201819052610469576001600160a01b03831633146104695760405162461bcd60e51b815260206004820152602660248201527f45787465726e616c20636c61696d7320666f72206163636f756e74206172652060448201527f6c6f636b6564000000000000000000000000000000000000000000000000000060648201526084015b60405180910390fd5b6040810151600354108015906104825750604081015115155b15610574576001600160a01b038316600090815260076020908152604082208281556001810183905560028101929092556003909101805460ff191690558101516009546104d09190611848565b6009556020810151604051637965d56d60e01b8152600481019190915261056d9084907f00000000000000000000000000000000000000000000000000000000000000006001600160a01b031690637965d56d90602401602060405180830381865afa158015610544573d6000803e3d6000fd5b505050506040513d601f19601f82011682018060405250810190610568919061185f565b6112b8565b9392505050565b50600092915050565b600954604051637965d56d60e01b81526000916001600160a01b037f00000000000000000000000000000000000000000000000000000000000000001691637965d56d916105d19160040190815260200190565b602060405180830381865afa1580156105ee573d6000803e3d6000fd5b505050506040513d601f19601f82011682018060405250810190610612919061185f565b905090565b816000821561062b57610628610eec565b90505b604051632770a7eb60e21b8152336004820152602481018590527f00000000000000000000000000000000000000000000000000000000000000006001600160a01b031690639dc29fac90604401600060405180830381600087803b15801561069357600080fd5b505af11580156106a7573d6000803e3d6000fd5b505060405163150490ed60e31b8152600481018590528392507f00000000000000000000000000000000000000000000000000000000000000006001600160a01b0316915063a824876890602401602060405180830381865afa158015610712573d6000803e3d6000fd5b505050506040513d601f19601f82011682018060405250810190610736919061185f565b6107409190611878565b6040516370a0823160e01b81523060048201529092507f00000000000000000000000000000000000000000000000000000000000000006001600160a01b0316906370a0823190602401602060405180830381865afa1580156107a7573d6000803e3d6000fd5b505050506040513d601f19601f820116820180604052508101906107cb919061185f565b8211156108405760405162461bcd60e51b815260206004820152602660248201527f496e73756666696369656e742048454354412062616c616e636520696e20636f60448201527f6e747261637400000000000000000000000000000000000000000000000000006064820152608401610460565b6108746001600160a01b037f000000000000000000000000000000000000000000000000000000000000000016868461144d565b509392505050565b60007f00000000000000000000000000000000000000000000000000000000000000006001600160a01b0316632986c0e56040518163ffffffff1660e01b8152600401602060405180830381865afa1580156105ee573d6000803e3d6000fd5b600160009054906101000a90046001600160a01b03166001600160a01b0316630c340a246040518163ffffffff1660e01b8152600401602060405180830381865afa15801561092f573d6000803e3d6000fd5b505050506040513d601f19601f820116820180604052508101906109539190611890565b6001600160a01b0316336001600160a01b0316146000906109875760405162461bcd60e51b815260040161046091906118ad565b506006805473ffffffffffffffffffffffffffffffffffffffff19166001600160a01b0383169081179091556040519081527f86719c518c7d99ac94b3d405d462ea876ba5cd0a978461dc9a7c9862a9485886906020015b60405180910390a150565b600160009054906101000a90046001600160a01b03166001600160a01b0316630c340a246040518163ffffffff1660e01b8152600401602060405180830381865afa158015610a3d573d6000803e3d6000fd5b505050506040513d601f19601f82011682018060405250810190610a619190611890565b6001600160a01b0316336001600160a01b031614600090610a955760405162461bcd60e51b815260040161046091906118ad565b506001805473ffffffffffffffffffffffffffffffffffffffff19166001600160a01b0383169081179091556040517f2f658b440c35314f52658ea8a740e05b284cdc84dc9ae01e891f21b8933e7cad90600090a250565b600160009054906101000a90046001600160a01b03166001600160a01b0316630c340a246040518163ffffffff1660e01b8152600401602060405180830381865afa158015610b40573d6000803e3d6000fd5b505050506040513d601f19601f82011682018060405250810190610b649190611890565b6001600160a01b0316336001600160a01b031614600090610b985760405162461bcd60e51b815260040161046091906118ad565b5060088190556040518181527fac17d51c35ac71d3eddc155985908430e88946d51e2f6093e93c1c0aba08f6c4906020016109df565b600454600090610612904290611848565b6000610c166001600160a01b037f0000000000000000000000000000000000000000000000000000000000000000163330866114e2565b610c1e610eec565b610c289084611878565b9250818015610c375750600854155b15610c4d57610c4684846112b8565b905061056d565b6001600160a01b03841660009081526007602090815260409182902082516080810184528154815260018201549281019290925260028101549282019290925260039091015460ff16151560608201819052610d21576001600160a01b0385163314610d215760405162461bcd60e51b815260206004820152602860248201527f45787465726e616c206465706f7369747320666f72206163636f756e7420617260448201527f65206c6f636b65640000000000000000000000000000000000000000000000006064820152608401610460565b6040518060800160405280858360000151610d3c9190611878565b81526020017f00000000000000000000000000000000000000000000000000000000000000006001600160a01b0316631bd39674876040518263ffffffff1660e01b8152600401610d8f91815260200190565b602060405180830381865afa158015610dac573d6000803e3d6000fd5b505050506040513d601f19601f82011682018060405250810190610dd0919061185f565b8360200151610ddf9190611878565b8152602001600854600260010154610df79190611878565b815260608381015115156020928301526001600160a01b038881166000908152600784526040908190208551815593850151600185015584810151600285015593909101516003909201805460ff19169215159290921790915590516306f4e59d60e21b8152600481018690527f000000000000000000000000000000000000000000000000000000000000000090911690631bd3967490602401602060405180830381865afa158015610eaf573d6000803e3d6000fd5b505050506040513d601f19601f82011682018060405250810190610ed3919061185f565b600954610ee09190611878565b60095550919392505050565b600080426002800154116111fd57600554600354604051630163b36d60e21b81526001600160a01b037f0000000000000000000000000000000000000000000000000000000000000000169263058ecdb492610f5392600401918252602082015260400190565b6020604051808303816000875af1158015610f72573d6000803e3d6000fd5b505050506040513d601f19601f82011682018060405250810190610f96919061185f565b50600254600454610fa79190611878565b60045560038054906000610fba83611955565b90915550506006546001600160a01b0316156110b457600660009054906101000a90046001600160a01b03166001600160a01b031663e4fc6b6d6040518163ffffffff1660e01b8152600401600060405180830381600087803b15801561102057600080fd5b505af1158015611034573d6000803e3d6000fd5b50505050600660009054906101000a90046001600160a01b03166001600160a01b031663e7187e8a6040518163ffffffff1660e01b81526004016020604051808303816000875af115801561108d573d6000803e3d6000fd5b505050506040513d601f19601f820116820180604052508101906110b1919061185f565b90505b6040516370a0823160e01b81523060048201526000907f00000000000000000000000000000000000000000000000000000000000000006001600160a01b0316906370a0823190602401602060405180830381865afa15801561111b573d6000803e3d6000fd5b505050506040513d601f19601f8201168201806040525081019061113f919061185f565b905060007f00000000000000000000000000000000000000000000000000000000000000006001600160a01b0316639358928b6040518163ffffffff1660e01b8152600401602060405180830381865afa1580156111a1573d6000803e3d6000fd5b505050506040513d601f19601f820116820180604052508101906111c5919061185f565b90506111d18382611878565b82116111e15760006005556111fa565b826111ec8284611848565b6111f69190611848565b6005555b50505b919050565b3360008181526007602081815260408084208151608081018352815481526001820180548286019081526002840180549584019590955260038401805460ff8116151560608601529989529690955291869055908590559084905560ff19909416909155516009549192916112779190611848565b60095580516112b2906001600160a01b037f00000000000000000000000000000000000000000000000000000000000000001690339061144d565b51919050565b6040516319a948db60e21b8152600481018290526000906001600160a01b037f000000000000000000000000000000000000000000000000000000000000000016906340c10f1990859083906366a5236c90602401602060405180830381865afa15801561132a573d6000803e3d6000fd5b505050506040513d601f19601f8201168201806040525081019061134e919061185f565b6040517fffffffff0000000000000000000000000000000000000000000000000000000060e085901b1681526001600160a01b0390921660048301526024820152604401600060405180830381600087803b1580156113ac57600080fd5b505af11580156113c0573d6000803e3d6000fd5b50506040516319a948db60e21b8152600481018590527f00000000000000000000000000000000000000000000000000000000000000006001600160a01b031692506366a5236c9150602401602060405180830381865afa158015611429573d6000803e3d6000fd5b505050506040513d601f19601f8201168201806040525081019061056d919061185f565b6040516001600160a01b0383166024820152604481018290526114dd90849063a9059cbb60e01b906064015b60408051601f198184030181529190526020810180517bffffffffffffffffffffffffffffffffffffffffffffffffffffffff167fffffffff0000000000000000000000000000000000000000000000000000000090931692909217909152611520565b505050565b6040516001600160a01b038085166024830152831660448201526064810182905261151a9085906323b872dd60e01b90608401611479565b50505050565b6000611575826040518060400160405280602081526020017f5361666545524332303a206c6f772d6c6576656c2063616c6c206661696c6564815250856001600160a01b03166116059092919063ffffffff16565b8051909150156114dd57808060200190518101906115939190611970565b6114dd5760405162461bcd60e51b815260206004820152602a60248201527f5361666545524332303a204552433230206f7065726174696f6e20646964206e60448201527f6f742073756363656564000000000000000000000000000000000000000000006064820152608401610460565b6060611614848460008561161c565b949350505050565b6060824710156116945760405162461bcd60e51b815260206004820152602660248201527f416464726573733a20696e73756666696369656e742062616c616e636520666f60448201527f722063616c6c00000000000000000000000000000000000000000000000000006064820152608401610460565b843b6116e25760405162461bcd60e51b815260206004820152601d60248201527f416464726573733a2063616c6c20746f206e6f6e2d636f6e74726163740000006044820152606401610460565b600080866001600160a01b031685876040516116fe91906119b9565b60006040518083038185875af1925050503d806000811461173b576040519150601f19603f3d011682016040523d82523d6000602084013e611740565b606091505b509150915061175082828661175b565b979650505050505050565b6060831561176a57508161056d565b82511561177a5782518084602001fd5b8160405162461bcd60e51b815260040161046091906119d5565b6001600160a01b03811681146117a957600080fd5b50565b6000602082840312156117be57600080fd5b813561056d81611794565b80151581146117a957600080fd5b6000806000606084860312156117ec57600080fd5b83356117f781611794565b925060208401359150604084013561180e816117c9565b809150509250925092565b60006020828403121561182b57600080fd5b5035919050565b634e487b7160e01b600052601160045260246000fd5b60008282101561185a5761185a611832565b500390565b60006020828403121561187157600080fd5b5051919050565b6000821982111561188b5761188b611832565b500190565b6000602082840312156118a257600080fd5b815161056d81611794565b600060208083526000845481600182811c9150808316806118cf57607f831692505b8583108114156118ed57634e487b7160e01b85526022600452602485fd5b87860183815260200181801561190a576001811461191b57611946565b60ff19861682528782019650611946565b60008b81526020902060005b8681101561194057815484820152908501908901611927565b83019750505b50949998505050505050505050565b600060001982141561196957611969611832565b5060010190565b60006020828403121561198257600080fd5b815161056d816117c9565b60005b838110156119a8578181015183820152602001611990565b8381111561151a5750506000910152565b600082516119cb81846020870161198d565b9190910192915050565b60208152600082518060208401526119f481604085016020870161198d565b601f01601f1916919091016040019291505056fea164736f6c634300080a000a",
  "devdoc": {
    "kind": "dev",
    "methods": {
      "claim(address)": {
        "params": {
          "_to": "address"
        },
        "returns": {
          "_0": "uint"
        }
      },
      "forfeit()": {
        "returns": {
          "_0": "uint"
        }
      },
      "index()": {
        "returns": {
          "_0": "uint"
        }
      },
      "rebase()": {
        "returns": {
          "_0": "uint256"
        }
      },
      "setDistributor(address)": {
        "params": {
          "_distributor": "address"
        }
      },
      "setWarmupLength(uint256)": {
        "params": {
          "_warmupPeriod": "uint"
        }
      },
      "stake(address,uint256,bool)": {
        "params": {
          "_amount": "uint",
          "_claim": "bool",
          "_to": "address"
        },
        "returns": {
          "_0": "uint"
        }
      },
      "unstake(address,uint256,bool)": {
        "params": {
          "_amount": "uint",
          "_to": "address",
          "_trigger": "bool"
        },
        "returns": {
          "amount_": "uint"
        }
      }
    },
    "version": 1
  },
  "userdoc": {
    "kind": "user",
    "methods": {
      "claim(address)": {
        "notice": "retrieve stake from warmup"
      },
      "forfeit()": {
        "notice": "forfeit stake and retrieve HECTA"
      },
      "index()": {
        "notice": "returns the sHECTA index, which tracks rebase growth"
      },
      "rebase()": {
        "notice": "trigger rebase if epoch over"
      },
      "secondsToNextEpoch()": {
        "notice": "seconds until the next epoch begins"
      },
      "setDistributor(address)": {
        "notice": "sets the contract address for LP staking"
      },
      "setWarmupLength(uint256)": {
        "notice": "set warmup period for new stakers"
      },
      "stake(address,uint256,bool)": {
        "notice": "stake HECTA to enter warmup"
      },
      "supplyInWarmup()": {
        "notice": "total supply in warmup"
      },
      "toggleLock()": {
        "notice": "prevent new deposits or claims from ext. address (protection from malicious activity)"
      },
      "unstake(address,uint256,bool)": {
        "notice": "redeem sHECTA for HECTAs"
      }
    },
    "version": 1
  },
  "storageLayout": {
    "storage": [
      {
        "astId": 11647,
        "contract": "contracts/Staking.sol:HectagonStaking",
        "label": "UNAUTHORIZED",
        "offset": 0,
        "slot": "0",
        "type": "t_string_storage"
      },
      {
        "astId": 11650,
        "contract": "contracts/Staking.sol:HectagonStaking",
        "label": "authority",
        "offset": 0,
        "slot": "1",
        "type": "t_contract(IHectagonAuthority)8121"
      },
      {
        "astId": 5714,
        "contract": "contracts/Staking.sol:HectagonStaking",
        "label": "epoch",
        "offset": 0,
        "slot": "2",
        "type": "t_struct(Epoch)5693_storage"
      },
      {
        "astId": 5717,
        "contract": "contracts/Staking.sol:HectagonStaking",
        "label": "distributor",
        "offset": 0,
        "slot": "6",
        "type": "t_contract(IDistributor)8009"
      },
      {
        "astId": 5722,
        "contract": "contracts/Staking.sol:HectagonStaking",
        "label": "warmupInfo",
        "offset": 0,
        "slot": "7",
        "type": "t_mapping(t_address,t_struct(Claim)5702_storage)"
      },
      {
        "astId": 5724,
        "contract": "contracts/Staking.sol:HectagonStaking",
        "label": "warmupPeriod",
        "offset": 0,
        "slot": "8",
        "type": "t_uint256"
      },
      {
        "astId": 5726,
        "contract": "contracts/Staking.sol:HectagonStaking",
        "label": "gonsInWarmup",
        "offset": 0,
        "slot": "9",
        "type": "t_uint256"
      }
    ],
    "types": {
      "t_address": {
        "encoding": "inplace",
        "label": "address",
        "numberOfBytes": "20"
      },
      "t_bool": {
        "encoding": "inplace",
        "label": "bool",
        "numberOfBytes": "1"
      },
      "t_contract(IDistributor)8009": {
        "encoding": "inplace",
        "label": "contract IDistributor",
        "numberOfBytes": "20"
      },
      "t_contract(IHectagonAuthority)8121": {
        "encoding": "inplace",
        "label": "contract IHectagonAuthority",
        "numberOfBytes": "20"
      },
      "t_mapping(t_address,t_struct(Claim)5702_storage)": {
        "encoding": "mapping",
        "key": "t_address",
        "label": "mapping(address => struct HectagonStaking.Claim)",
        "numberOfBytes": "32",
        "value": "t_struct(Claim)5702_storage"
      },
      "t_string_storage": {
        "encoding": "bytes",
        "label": "string",
        "numberOfBytes": "32"
      },
      "t_struct(Claim)5702_storage": {
        "encoding": "inplace",
        "label": "struct HectagonStaking.Claim",
        "members": [
          {
            "astId": 5695,
            "contract": "contracts/Staking.sol:HectagonStaking",
            "label": "deposit",
            "offset": 0,
            "slot": "0",
            "type": "t_uint256"
          },
          {
            "astId": 5697,
            "contract": "contracts/Staking.sol:HectagonStaking",
            "label": "gons",
            "offset": 0,
            "slot": "1",
            "type": "t_uint256"
          },
          {
            "astId": 5699,
            "contract": "contracts/Staking.sol:HectagonStaking",
            "label": "expiry",
            "offset": 0,
            "slot": "2",
            "type": "t_uint256"
          },
          {
            "astId": 5701,
            "contract": "contracts/Staking.sol:HectagonStaking",
            "label": "lock",
            "offset": 0,
            "slot": "3",
            "type": "t_bool"
          }
        ],
        "numberOfBytes": "128"
      },
      "t_struct(Epoch)5693_storage": {
        "encoding": "inplace",
        "label": "struct HectagonStaking.Epoch",
        "members": [
          {
            "astId": 5686,
            "contract": "contracts/Staking.sol:HectagonStaking",
            "label": "length",
            "offset": 0,
            "slot": "0",
            "type": "t_uint256"
          },
          {
            "astId": 5688,
            "contract": "contracts/Staking.sol:HectagonStaking",
            "label": "number",
            "offset": 0,
            "slot": "1",
            "type": "t_uint256"
          },
          {
            "astId": 5690,
            "contract": "contracts/Staking.sol:HectagonStaking",
            "label": "end",
            "offset": 0,
            "slot": "2",
            "type": "t_uint256"
          },
          {
            "astId": 5692,
            "contract": "contracts/Staking.sol:HectagonStaking",
            "label": "distribute",
            "offset": 0,
            "slot": "3",
            "type": "t_uint256"
          }
        ],
        "numberOfBytes": "128"
      },
      "t_uint256": {
        "encoding": "inplace",
        "label": "uint256",
        "numberOfBytes": "32"
      }
    }
  }
}