{
  "address": "0xAB68495c9dDc4bE872f6e93ee2cd94183827F117",
  "abi": [
    {
      "inputs": [
        {
          "internalType": "address",
          "name": "_hecta",
          "type": "address"
        },
        {
          "internalType": "address",
          "name": "_authority",
          "type": "address"
        }
      ],
      "stateMutability": "nonpayable",
      "type": "constructor"
    },
    {
      "anonymous": false,
      "inputs": [
        {
          "indexed": true,
          "internalType": "contract IHectagonAuthority",
          "name": "authority",
          "type": "address"
        }
      ],
      "name": "AuthorityUpdated",
      "type": "event"
    },
    {
      "anonymous": false,
      "inputs": [
        {
          "indexed": true,
          "internalType": "address",
          "name": "caller",
          "type": "address"
        },
        {
          "indexed": true,
          "internalType": "address",
          "name": "recipient",
          "type": "address"
        },
        {
          "indexed": false,
          "internalType": "uint256",
          "name": "amount",
          "type": "uint256"
        }
      ],
      "name": "Minted",
      "type": "event"
    },
    {
      "anonymous": false,
      "inputs": [
        {
          "indexed": false,
          "internalType": "address",
          "name": "addr",
          "type": "address"
        },
        {
          "indexed": true,
          "internalType": "enum HectagonTreasury.STATUS",
          "name": "status",
          "type": "uint8"
        },
        {
          "indexed": false,
          "internalType": "bool",
          "name": "result",
          "type": "bool"
        }
      ],
      "name": "Permissioned",
      "type": "event"
    },
    {
      "anonymous": false,
      "inputs": [
        {
          "indexed": true,
          "internalType": "address",
          "name": "token",
          "type": "address"
        },
        {
          "indexed": false,
          "internalType": "uint256",
          "name": "amount",
          "type": "uint256"
        }
      ],
      "name": "Withdrawal",
      "type": "event"
    },
    {
      "inputs": [],
      "name": "HECTA",
      "outputs": [
        {
          "internalType": "contract IHECTA",
          "name": "",
          "type": "address"
        }
      ],
      "stateMutability": "view",
      "type": "function"
    },
    {
      "inputs": [],
      "name": "authority",
      "outputs": [
        {
          "internalType": "contract IHectagonAuthority",
          "name": "",
          "type": "address"
        }
      ],
      "stateMutability": "view",
      "type": "function"
    },
    {
      "inputs": [
        {
          "internalType": "enum HectagonTreasury.STATUS",
          "name": "_status",
          "type": "uint8"
        },
        {
          "internalType": "address",
          "name": "_address",
          "type": "address"
        }
      ],
      "name": "disable",
      "outputs": [],
      "stateMutability": "nonpayable",
      "type": "function"
    },
    {
      "inputs": [
        {
          "internalType": "enum HectagonTreasury.STATUS",
          "name": "_status",
          "type": "uint8"
        },
        {
          "internalType": "address",
          "name": "_address",
          "type": "address"
        }
      ],
      "name": "enable",
      "outputs": [],
      "stateMutability": "nonpayable",
      "type": "function"
    },
    {
      "inputs": [
        {
          "internalType": "address",
          "name": "_recipient",
          "type": "address"
        },
        {
          "internalType": "uint256",
          "name": "_amount",
          "type": "uint256"
        }
      ],
      "name": "initialize",
      "outputs": [],
      "stateMutability": "nonpayable",
      "type": "function"
    },
    {
      "inputs": [],
      "name": "initialized",
      "outputs": [
        {
          "internalType": "bool",
          "name": "",
          "type": "bool"
        }
      ],
      "stateMutability": "view",
      "type": "function"
    },
    {
      "inputs": [
        {
          "internalType": "address",
          "name": "_recipient",
          "type": "address"
        },
        {
          "internalType": "uint256",
          "name": "_amount",
          "type": "uint256"
        }
      ],
      "name": "mint",
      "outputs": [],
      "stateMutability": "nonpayable",
      "type": "function"
    },
    {
      "inputs": [
        {
          "internalType": "enum HectagonTreasury.STATUS",
          "name": "",
          "type": "uint8"
        },
        {
          "internalType": "address",
          "name": "",
          "type": "address"
        }
      ],
      "name": "permissions",
      "outputs": [
        {
          "internalType": "bool",
          "name": "",
          "type": "bool"
        }
      ],
      "stateMutability": "view",
      "type": "function"
    },
    {
      "inputs": [
        {
          "internalType": "contract IHectagonAuthority",
          "name": "_newAuthority",
          "type": "address"
        }
      ],
      "name": "setAuthority",
      "outputs": [],
      "stateMutability": "nonpayable",
      "type": "function"
    },
    {
      "inputs": [
        {
          "internalType": "address",
          "name": "_token",
          "type": "address"
        },
        {
          "internalType": "uint256",
          "name": "_amount",
          "type": "uint256"
        }
      ],
      "name": "withdraw",
      "outputs": [],
      "stateMutability": "nonpayable",
      "type": "function"
    }
  ],
  "transactionHash": "0x6521a59a10113825c617ee002fdb608b43506886ae15404259501e91b32ccc0e",
  "args": [
    "0xF38020ADeFF94EA83102E050DbA86011e3b588a1",
    "0x2b04648FFBc816D587ed60574ab6ec323eF56fBE"
  ],
  "solcInputHash": "af0988b3e7447ab5c03a65cbe9c46091",
  "bytecode": "0x60e0604052600c60a08190526b15539055551213d49256915160a21b60c09081526200002f916000919062000160565b506040805180820190915260168082527f54726561737572793a206e6f7420617070726f766564000000000000000000006020909201918252620000769160049162000160565b503480156200008457600080fd5b506040516200115338038062001153833981016040819052620000a79162000223565b600180546001600160a01b0319166001600160a01b0383169081179091556040518291907f2f658b440c35314f52658ea8a740e05b284cdc84dc9ae01e891f21b8933e7cad90600090a2506001600160a01b0382166200014d5760405162461bcd60e51b815260206004820152601360248201527f5a65726f20616464726573733a20484543544100000000000000000000000000604482015260640160405180910390fd5b506001600160a01b031660805262000298565b8280546200016e906200025b565b90600052602060002090601f016020900481019282620001925760008555620001dd565b82601f10620001ad57805160ff1916838001178555620001dd565b82800160010185558215620001dd579182015b82811115620001dd578251825591602001919060010190620001c0565b50620001eb929150620001ef565b5090565b5b80821115620001eb5760008155600101620001f0565b80516001600160a01b03811681146200021e57600080fd5b919050565b600080604083850312156200023757600080fd5b620002428362000206565b9150620002526020840162000206565b90509250929050565b600181811c908216806200027057607f821691505b602082108114156200029257634e487b7160e01b600052602260045260246000fd5b50919050565b608051610e91620002c2600039600081816101180152818161025b015261075c0152610e916000f3fe608060405234801561001057600080fd5b50600436106100be5760003560e01c80637a9e5e4b11610076578063cd6dc6871161005b578063cd6dc687146101a0578063dd908373146101b3578063f3fef3a3146101c657600080fd5b80637a9e5e4b1461017a578063bf7e214f1461018d57600080fd5b80633bdbaa50116100a75780633bdbaa501461011357806340c10f1914610152578063529918311461016757600080fd5b8063158ef93e146100c3578063330dd345146100e5575b600080fd5b6003546100d09060ff1681565b60405190151581526020015b60405180910390f35b6100d06100f3366004610c82565b600260209081526000928352604080842090915290825290205460ff1681565b61013a7f000000000000000000000000000000000000000000000000000000000000000081565b6040516001600160a01b0390911681526020016100dc565b610165610160366004610cbf565b6101d9565b005b610165610175366004610c82565b6102fc565b610165610188366004610ceb565b61051c565b60015461013a906001600160a01b031681565b6101656101ae366004610cbf565b61062a565b6101656101c1366004610c82565b61078b565b6101656101d4366004610cbf565b6108e6565b3360009081527fe90b7bceb6e7df5418fb78d8ee546e97c83a08bbccc01a0644d599ccd2a7c2e0602052604090205460049060ff166102345760405162461bcd60e51b815260040161022b9190610d1e565b60405180910390fd5b506040516340c10f1960e01b81526001600160a01b038381166004830152602482018390527f000000000000000000000000000000000000000000000000000000000000000016906340c10f19906044015b600060405180830381600087803b1580156102a057600080fd5b505af11580156102b4573d6000803e3d6000fd5b50506040518381526001600160a01b03851692503391507f9d228d69b5fdb8d273a2336f8fb8612d039631024ea9bf09c424a9503aa078f09060200160405180910390a35050565b600160009054906101000a90046001600160a01b03166001600160a01b0316630c340a246040518163ffffffff1660e01b8152600401602060405180830381865afa15801561034f573d6000803e3d6000fd5b505050506040513d601f19601f820116820180604052508101906103739190610dc6565b6001600160a01b0316336001600160a01b031614806104195750600160009054906101000a90046001600160a01b03166001600160a01b031663452a93206040518163ffffffff1660e01b8152600401602060405180830381865afa1580156103e0573d6000803e3d6000fd5b505050506040513d601f19601f820116820180604052508101906104049190610dc6565b6001600160a01b0316336001600160a01b0316145b6104655760405162461bcd60e51b815260206004820152601960248201527f4f6e6c7920676f7665726e6f72206f7220677561726469616e00000000000000604482015260640161022b565b60006002600084600181111561047d5761047d610d08565b600181111561048e5761048e610d08565b8152602080820192909252604090810160009081206001600160a01b03861682529092529020805460ff19169115159190911790558160018111156104d5576104d5610d08565b604080516001600160a01b0384168152600060208201527f7531a7aefe3985500c4dec2dcb6049a708f14c6a8a9022b435b8841bdb8e171391015b60405180910390a25050565b600160009054906101000a90046001600160a01b03166001600160a01b0316630c340a246040518163ffffffff1660e01b8152600401602060405180830381865afa15801561056f573d6000803e3d6000fd5b505050506040513d601f19601f820116820180604052508101906105939190610dc6565b6001600160a01b0316336001600160a01b0316146000906105c75760405162461bcd60e51b815260040161022b9190610d1e565b50600180547fffffffffffffffffffffffff0000000000000000000000000000000000000000166001600160a01b0383169081179091556040517f2f658b440c35314f52658ea8a740e05b284cdc84dc9ae01e891f21b8933e7cad90600090a250565b600160009054906101000a90046001600160a01b03166001600160a01b0316630c340a246040518163ffffffff1660e01b8152600401602060405180830381865afa15801561067d573d6000803e3d6000fd5b505050506040513d601f19601f820116820180604052508101906106a19190610dc6565b6001600160a01b0316336001600160a01b0316146000906106d55760405162461bcd60e51b815260040161022b9190610d1e565b5060035460ff16156107295760405162461bcd60e51b815260206004820152601360248201527f416c726561647920696e697469616c697a656400000000000000000000000000604482015260640161022b565b6003805460ff191660011790556040516340c10f1960e01b81526001600160a01b038381166004830152602482018390527f000000000000000000000000000000000000000000000000000000000000000016906340c10f1990604401610286565b600160009054906101000a90046001600160a01b03166001600160a01b0316630c340a246040518163ffffffff1660e01b8152600401602060405180830381865afa1580156107de573d6000803e3d6000fd5b505050506040513d601f19601f820116820180604052508101906108029190610dc6565b6001600160a01b0316336001600160a01b0316146000906108365760405162461bcd60e51b815260040161022b9190610d1e565b5060016002600084600181111561084f5761084f610d08565b600181111561086057610860610d08565b8152602080820192909252604090810160009081206001600160a01b03861682529092529020805460ff19169115159190911790558160018111156108a7576108a7610d08565b604080516001600160a01b0384168152600160208201527f7531a7aefe3985500c4dec2dcb6049a708f14c6a8a9022b435b8841bdb8e17139101610510565b3360009081527fac33ff75c19e70fe83507db0d683fd3465c996598dc972688b7ace676c89077b602052604090205460049060ff166109385760405162461bcd60e51b815260040161022b9190610d1e565b5061094d6001600160a01b0383163383610988565b816001600160a01b03167f7fcf532c15f0a6db0bd6d0e038bea71d30d808c7d98cb3bf7268a95bf5081b658260405161051091815260200190565b604080516001600160a01b038416602482015260448082018490528251808303909101815260649091019091526020810180517bffffffffffffffffffffffffffffffffffffffffffffffffffffffff1663a9059cbb60e01b1790526109ef9084906109f4565b505050565b6000610a49826040518060400160405280602081526020017f5361666545524332303a206c6f772d6c6576656c2063616c6c206661696c6564815250856001600160a01b0316610ad99092919063ffffffff16565b8051909150156109ef5780806020019051810190610a679190610de3565b6109ef5760405162461bcd60e51b815260206004820152602a60248201527f5361666545524332303a204552433230206f7065726174696f6e20646964206e60448201527f6f74207375636365656400000000000000000000000000000000000000000000606482015260840161022b565b6060610ae88484600085610af2565b90505b9392505050565b606082471015610b6a5760405162461bcd60e51b815260206004820152602660248201527f416464726573733a20696e73756666696369656e742062616c616e636520666f60448201527f722063616c6c0000000000000000000000000000000000000000000000000000606482015260840161022b565b843b610bb85760405162461bcd60e51b815260206004820152601d60248201527f416464726573733a2063616c6c20746f206e6f6e2d636f6e7472616374000000604482015260640161022b565b600080866001600160a01b03168587604051610bd49190610e35565b60006040518083038185875af1925050503d8060008114610c11576040519150601f19603f3d011682016040523d82523d6000602084013e610c16565b606091505b5091509150610c26828286610c31565b979650505050505050565b60608315610c40575081610aeb565b825115610c505782518084602001fd5b8160405162461bcd60e51b815260040161022b9190610e51565b6001600160a01b0381168114610c7f57600080fd5b50565b60008060408385031215610c9557600080fd5b823560028110610ca457600080fd5b91506020830135610cb481610c6a565b809150509250929050565b60008060408385031215610cd257600080fd5b8235610cdd81610c6a565b946020939093013593505050565b600060208284031215610cfd57600080fd5b8135610aeb81610c6a565b634e487b7160e01b600052602160045260246000fd5b600060208083526000845481600182811c915080831680610d4057607f831692505b858310811415610d5e57634e487b7160e01b85526022600452602485fd5b878601838152602001818015610d7b5760018114610d8c57610db7565b60ff19861682528782019650610db7565b60008b81526020902060005b86811015610db157815484820152908501908901610d98565b83019750505b50949998505050505050505050565b600060208284031215610dd857600080fd5b8151610aeb81610c6a565b600060208284031215610df557600080fd5b81518015158114610aeb57600080fd5b60005b83811015610e20578181015183820152602001610e08565b83811115610e2f576000848401525b50505050565b60008251610e47818460208701610e05565b9190910192915050565b6020815260008251806020840152610e70816040850160208701610e05565b601f01601f1916919091016040019291505056fea164736f6c634300080a000a",
  "devdoc": {
    "kind": "dev",
    "methods": {
      "disable(uint8,address)": {
        "params": {
          "_address": "address",
          "_status": "STATUS"
        }
      },
      "enable(uint8,address)": {
        "params": {
          "_address": "address",
          "_status": "STATUS"
        }
      },
      "initialize(address,uint256)": {
        "params": {
          "_amount": "uint256",
          "_recipient": "address"
        }
      },
      "mint(address,uint256)": {
        "params": {
          "_amount": "uint256",
          "_recipient": "address"
        }
      },
      "withdraw(address,uint256)": {
        "params": {
          "_amount": "uint256",
          "_token": "address"
        }
      }
    },
    "version": 1
  },
  "userdoc": {
    "kind": "user",
    "methods": {
      "disable(uint8,address)": {
        "notice": "disable permission from address"
      },
      "enable(uint8,address)": {
        "notice": "enable permission"
      },
      "initialize(address,uint256)": {
        "notice": "pre mint Hecta for initilization of protocol"
      },
      "mint(address,uint256)": {
        "notice": "mint new HECTA"
      },
      "withdraw(address,uint256)": {
        "notice": "allow approved address to withdraw assets"
      }
    },
    "version": 1
  },
  "storageLayout": {
    "storage": [
      {
        "astId": 11647,
        "contract": "contracts/Treasury.sol:HectagonTreasury",
        "label": "UNAUTHORIZED",
        "offset": 0,
        "slot": "0",
        "type": "t_string_storage"
      },
      {
        "astId": 11650,
        "contract": "contracts/Treasury.sol:HectagonTreasury",
        "label": "authority",
        "offset": 0,
        "slot": "1",
        "type": "t_contract(IHectagonAuthority)8121"
      },
      {
        "astId": 6936,
        "contract": "contracts/Treasury.sol:HectagonTreasury",
        "label": "permissions",
        "offset": 0,
        "slot": "2",
        "type": "t_mapping(t_enum(STATUS)6926,t_mapping(t_address,t_bool))"
      },
      {
        "astId": 6938,
        "contract": "contracts/Treasury.sol:HectagonTreasury",
        "label": "initialized",
        "offset": 0,
        "slot": "3",
        "type": "t_bool"
      },
      {
        "astId": 6941,
        "contract": "contracts/Treasury.sol:HectagonTreasury",
        "label": "notApproved",
        "offset": 0,
        "slot": "4",
        "type": "t_string_storage"
      }
    ],
    "types": {
      "t_address": {
        "encoding": "inplace",
        "label": "address",
        "numberOfBytes": "20"
      },
      "t_bool": {
        "encoding": "inplace",
        "label": "bool",
        "numberOfBytes": "1"
      },
      "t_contract(IHectagonAuthority)8121": {
        "encoding": "inplace",
        "label": "contract IHectagonAuthority",
        "numberOfBytes": "20"
      },
      "t_enum(STATUS)6926": {
        "encoding": "inplace",
        "label": "enum HectagonTreasury.STATUS",
        "numberOfBytes": "1"
      },
      "t_mapping(t_address,t_bool)": {
        "encoding": "mapping",
        "key": "t_address",
        "label": "mapping(address => bool)",
        "numberOfBytes": "32",
        "value": "t_bool"
      },
      "t_mapping(t_enum(STATUS)6926,t_mapping(t_address,t_bool))": {
        "encoding": "mapping",
        "key": "t_enum(STATUS)6926",
        "label": "mapping(enum HectagonTreasury.STATUS => mapping(address => bool))",
        "numberOfBytes": "32",
        "value": "t_mapping(t_address,t_bool)"
      },
      "t_string_storage": {
        "encoding": "bytes",
        "label": "string",
        "numberOfBytes": "32"
      }
    }
  }
}