{
  "address": "0x3cAadD907b1AdD7725C595693ceefA625A9edBf2",
  "abi": [
    {
      "inputs": [
        {
          "internalType": "contract IERC20",
          "name": "_hecta",
          "type": "address"
        }
      ],
      "stateMutability": "nonpayable",
      "type": "constructor"
    },
    {
      "anonymous": false,
      "inputs": [
        {
          "indexed": true,
          "internalType": "address",
          "name": "previousOwner",
          "type": "address"
        },
        {
          "indexed": true,
          "internalType": "address",
          "name": "newOwner",
          "type": "address"
        }
      ],
      "name": "OwnershipTransferred",
      "type": "event"
    },
    {
      "inputs": [],
      "name": "circulatingSupply",
      "outputs": [
        {
          "internalType": "uint256",
          "name": "",
          "type": "uint256"
        }
      ],
      "stateMutability": "view",
      "type": "function"
    },
    {
      "inputs": [],
      "name": "getNonCirculating",
      "outputs": [
        {
          "internalType": "uint256",
          "name": "",
          "type": "uint256"
        }
      ],
      "stateMutability": "view",
      "type": "function"
    },
    {
      "inputs": [],
      "name": "hecta",
      "outputs": [
        {
          "internalType": "contract IERC20",
          "name": "",
          "type": "address"
        }
      ],
      "stateMutability": "view",
      "type": "function"
    },
    {
      "inputs": [
        {
          "internalType": "uint256",
          "name": "",
          "type": "uint256"
        }
      ],
      "name": "nonCirculatingAddresses",
      "outputs": [
        {
          "internalType": "address",
          "name": "",
          "type": "address"
        }
      ],
      "stateMutability": "view",
      "type": "function"
    },
    {
      "inputs": [],
      "name": "owner",
      "outputs": [
        {
          "internalType": "address",
          "name": "",
          "type": "address"
        }
      ],
      "stateMutability": "view",
      "type": "function"
    },
    {
      "inputs": [],
      "name": "renounceOwnership",
      "outputs": [],
      "stateMutability": "nonpayable",
      "type": "function"
    },
    {
      "inputs": [
        {
          "internalType": "address[]",
          "name": "_nonCirculatingAddresses",
          "type": "address[]"
        }
      ],
      "name": "setNonCirculatingAddresses",
      "outputs": [],
      "stateMutability": "nonpayable",
      "type": "function"
    },
    {
      "inputs": [
        {
          "internalType": "address",
          "name": "newOwner",
          "type": "address"
        }
      ],
      "name": "transferOwnership",
      "outputs": [],
      "stateMutability": "nonpayable",
      "type": "function"
    }
  ],
  "transactionHash": "0xcd2e930b97d5b284f9d8fb554da54e7700e6998566ef9493b2743422ee39ddfe",
  "args": [
    "0xF38020ADeFF94EA83102E050DbA86011e3b588a1"
  ],
  "solcInputHash": "af0988b3e7447ab5c03a65cbe9c46091",
  "bytecode": "0x608060405234801561001057600080fd5b506040516107b33803806107b383398101604081905261002f916100ad565b6100383361005d565b600180546001600160a01b0319166001600160a01b03929092169190911790556100dd565b600080546001600160a01b038381166001600160a01b0319831681178455604051919092169283917f8be0079c531659141344cd1fd0a4f28419497f9722a3daafe3b4186f6b6457e09190a35050565b6000602082840312156100bf57600080fd5b81516001600160a01b03811681146100d657600080fd5b9392505050565b6106c7806100ec6000396000f3fe608060405234801561001057600080fd5b50600436106100885760003560e01c80638da5cb5b1161005b5780638da5cb5b146100f05780639358928b14610101578063cf7ed41e14610109578063f2fde38b1461011c57600080fd5b806350ffe7ef1461008d57806359ff4afd146100a2578063715018a6146100d25780637ad6e6a3146100da575b600080fd5b6100a061009b366004610574565b61012f565b005b6001546100b5906001600160a01b031681565b6040516001600160a01b0390911681526020015b60405180910390f35b6100a061019f565b6100e2610205565b6040519081526020016100c9565b6000546001600160a01b03166100b5565b6100e26102ef565b6100b56101173660046105e9565b610386565b6100a061012a366004610602565b6103b0565b6000546001600160a01b0316331461018e5760405162461bcd60e51b815260206004820181905260248201527f4f776e61626c653a2063616c6c6572206973206e6f7420746865206f776e657260448201526064015b60405180910390fd5b61019a600283836104ef565b505050565b6000546001600160a01b031633146101f95760405162461bcd60e51b815260206004820181905260248201527f4f776e61626c653a2063616c6c6572206973206e6f7420746865206f776e65726044820152606401610185565b6102036000610492565b565b60008060005b6002548110156102e957600154600280546001600160a01b03909216916370a0823191908490811061023f5761023f61062b565b60009182526020909120015460405160e083901b7fffffffff000000000000000000000000000000000000000000000000000000001681526001600160a01b039091166004820152602401602060405180830381865afa1580156102a7573d6000803e3d6000fd5b505050506040513d601f19601f820116820180604052508101906102cb9190610641565b6102d59083610670565b9150806102e181610688565b91505061020b565b50919050565b600080600160009054906101000a90046001600160a01b03166001600160a01b03166318160ddd6040518163ffffffff1660e01b8152600401602060405180830381865afa158015610345573d6000803e3d6000fd5b505050506040513d601f19601f820116820180604052508101906103699190610641565b90506000610375610205565b61037f90836106a3565b9392505050565b6002818154811061039657600080fd5b6000918252602090912001546001600160a01b0316905081565b6000546001600160a01b0316331461040a5760405162461bcd60e51b815260206004820181905260248201527f4f776e61626c653a2063616c6c6572206973206e6f7420746865206f776e65726044820152606401610185565b6001600160a01b0381166104865760405162461bcd60e51b815260206004820152602660248201527f4f776e61626c653a206e6577206f776e657220697320746865207a65726f206160448201527f64647265737300000000000000000000000000000000000000000000000000006064820152608401610185565b61048f81610492565b50565b600080546001600160a01b0383811673ffffffffffffffffffffffffffffffffffffffff19831681178455604051919092169283917f8be0079c531659141344cd1fd0a4f28419497f9722a3daafe3b4186f6b6457e09190a35050565b82805482825590600052602060002090810192821561054f579160200282015b8281111561054f57815473ffffffffffffffffffffffffffffffffffffffff19166001600160a01b0384351617825560209092019160019091019061050f565b5061055b92915061055f565b5090565b5b8082111561055b5760008155600101610560565b6000806020838503121561058757600080fd5b823567ffffffffffffffff8082111561059f57600080fd5b818501915085601f8301126105b357600080fd5b8135818111156105c257600080fd5b8660208260051b85010111156105d757600080fd5b60209290920196919550909350505050565b6000602082840312156105fb57600080fd5b5035919050565b60006020828403121561061457600080fd5b81356001600160a01b038116811461037f57600080fd5b634e487b7160e01b600052603260045260246000fd5b60006020828403121561065357600080fd5b5051919050565b634e487b7160e01b600052601160045260246000fd5b600082198211156106835761068361065a565b500190565b600060001982141561069c5761069c61065a565b5060010190565b6000828210156106b5576106b561065a565b50039056fea164736f6c634300080a000a",
  "devdoc": {
    "kind": "dev",
    "methods": {
      "owner()": {
        "details": "Returns the address of the current owner."
      },
      "renounceOwnership()": {
        "details": "Leaves the contract without owner. It will not be possible to call `onlyOwner` functions anymore. Can only be called by the current owner. NOTE: Renouncing ownership will leave the contract without an owner, thereby removing any functionality that is only available to the owner."
      },
      "transferOwnership(address)": {
        "details": "Transfers ownership of the contract to a new account (`newOwner`). Can only be called by the current owner."
      }
    },
    "version": 1
  },
  "userdoc": {
    "kind": "user",
    "methods": {},
    "version": 1
  },
  "storageLayout": {
    "storage": [
      {
        "astId": 7,
        "contract": "contracts/HectaCirculatingSupply.sol:HectaCirculatingSupply",
        "label": "_owner",
        "offset": 0,
        "slot": "0",
        "type": "t_address"
      },
      {
        "astId": 3859,
        "contract": "contracts/HectaCirculatingSupply.sol:HectaCirculatingSupply",
        "label": "hecta",
        "offset": 0,
        "slot": "1",
        "type": "t_contract(IERC20)820"
      },
      {
        "astId": 3862,
        "contract": "contracts/HectaCirculatingSupply.sol:HectaCirculatingSupply",
        "label": "nonCirculatingAddresses",
        "offset": 0,
        "slot": "2",
        "type": "t_array(t_address)dyn_storage"
      }
    ],
    "types": {
      "t_address": {
        "encoding": "inplace",
        "label": "address",
        "numberOfBytes": "20"
      },
      "t_array(t_address)dyn_storage": {
        "base": "t_address",
        "encoding": "dynamic_array",
        "label": "address[]",
        "numberOfBytes": "32"
      },
      "t_contract(IERC20)820": {
        "encoding": "inplace",
        "label": "contract IERC20",
        "numberOfBytes": "20"
      }
    }
  }
}