{
  "address": "0x66FCf5592EEa3e0cD27F53af6C8F0D7B82d85d20",
  "abi": [
    {
      "inputs": [
        {
          "internalType": "contract IHectagonAuthority",
          "name": "_authority",
          "type": "address"
        },
        {
          "internalType": "contract IERC20",
          "name": "_hecta",
          "type": "address"
        },
        {
          "internalType": "contract IgHECTA",
          "name": "_ghecta",
          "type": "address"
        },
        {
          "internalType": "contract IStaking",
          "name": "_staking",
          "type": "address"
        },
        {
          "internalType": "contract ITreasury",
          "name": "_treasury",
          "type": "address"
        }
      ],
      "stateMutability": "nonpayable",
      "type": "constructor"
    },
    {
      "anonymous": false,
      "inputs": [
        {
          "indexed": true,
          "internalType": "contract IHectagonAuthority",
          "name": "authority",
          "type": "address"
        }
      ],
      "name": "AuthorityUpdated",
      "type": "event"
    },
    {
      "anonymous": false,
      "inputs": [
        {
          "indexed": true,
          "internalType": "uint256",
          "name": "id",
          "type": "uint256"
        },
        {
          "indexed": false,
          "internalType": "uint256",
          "name": "amount",
          "type": "uint256"
        },
        {
          "indexed": false,
          "internalType": "uint256",
          "name": "price",
          "type": "uint256"
        },
        {
          "indexed": false,
          "internalType": "uint256",
          "name": "noteId",
          "type": "uint256"
        },
        {
          "indexed": true,
          "internalType": "address",
          "name": "buyer",
          "type": "address"
        },
        {
          "indexed": true,
          "internalType": "address",
          "name": "referral",
          "type": "address"
        },
        {
          "indexed": false,
          "internalType": "uint256",
          "name": "commission",
          "type": "uint256"
        },
        {
          "indexed": false,
          "internalType": "uint256",
          "name": "toBuyer",
          "type": "uint256"
        },
        {
          "indexed": false,
          "internalType": "uint256",
          "name": "toDaoCommunity",
          "type": "uint256"
        },
        {
          "indexed": false,
          "internalType": "uint256",
          "name": "toDaoInvestment",
          "type": "uint256"
        }
      ],
      "name": "Bond",
      "type": "event"
    },
    {
      "anonymous": false,
      "inputs": [
        {
          "indexed": true,
          "internalType": "uint256",
          "name": "id",
          "type": "uint256"
        }
      ],
      "name": "CloseMarket",
      "type": "event"
    },
    {
      "anonymous": false,
      "inputs": [
        {
          "indexed": true,
          "internalType": "uint256",
          "name": "id",
          "type": "uint256"
        },
        {
          "indexed": true,
          "internalType": "address",
          "name": "baseToken",
          "type": "address"
        },
        {
          "indexed": true,
          "internalType": "address",
          "name": "quoteToken",
          "type": "address"
        },
        {
          "indexed": false,
          "internalType": "uint256",
          "name": "initialPrice",
          "type": "uint256"
        }
      ],
      "name": "CreateMarket",
      "type": "event"
    },
    {
      "anonymous": false,
      "inputs": [
        {
          "indexed": true,
          "internalType": "uint256",
          "name": "id",
          "type": "uint256"
        },
        {
          "indexed": false,
          "internalType": "uint64",
          "name": "oldControlVariable",
          "type": "uint64"
        },
        {
          "indexed": false,
          "internalType": "uint64",
          "name": "newControlVariable",
          "type": "uint64"
        }
      ],
      "name": "Tuned",
      "type": "event"
    },
    {
      "inputs": [
        {
          "internalType": "uint256",
          "name": "",
          "type": "uint256"
        }
      ],
      "name": "adjustments",
      "outputs": [
        {
          "internalType": "uint64",
          "name": "change",
          "type": "uint64"
        },
        {
          "internalType": "uint48",
          "name": "lastAdjustment",
          "type": "uint48"
        },
        {
          "internalType": "uint48",
          "name": "timeToAdjusted",
          "type": "uint48"
        },
        {
          "internalType": "bool",
          "name": "active",
          "type": "bool"
        }
      ],
      "stateMutability": "view",
      "type": "function"
    },
    {
      "inputs": [],
      "name": "authority",
      "outputs": [
        {
          "internalType": "contract IHectagonAuthority",
          "name": "",
          "type": "address"
        }
      ],
      "stateMutability": "view",
      "type": "function"
    },
    {
      "inputs": [
        {
          "internalType": "uint256",
          "name": "_id",
          "type": "uint256"
        }
      ],
      "name": "close",
      "outputs": [],
      "stateMutability": "nonpayable",
      "type": "function"
    },
    {
      "inputs": [
        {
          "internalType": "contract IERC20",
          "name": "_quoteToken",
          "type": "address"
        },
        {
          "internalType": "uint256[3]",
          "name": "_market",
          "type": "uint256[3]"
        },
        {
          "internalType": "bool[2]",
          "name": "_booleans",
          "type": "bool[2]"
        },
        {
          "internalType": "uint256[2]",
          "name": "_terms",
          "type": "uint256[2]"
        },
        {
          "internalType": "uint32[2]",
          "name": "_intervals",
          "type": "uint32[2]"
        }
      ],
      "name": "create",
      "outputs": [
        {
          "internalType": "uint256",
          "name": "id_",
          "type": "uint256"
        }
      ],
      "stateMutability": "nonpayable",
      "type": "function"
    },
    {
      "inputs": [
        {
          "internalType": "uint256",
          "name": "_id",
          "type": "uint256"
        }
      ],
      "name": "currentControlVariable",
      "outputs": [
        {
          "internalType": "uint256",
          "name": "",
          "type": "uint256"
        }
      ],
      "stateMutability": "view",
      "type": "function"
    },
    {
      "inputs": [
        {
          "internalType": "uint256",
          "name": "_id",
          "type": "uint256"
        }
      ],
      "name": "currentDebt",
      "outputs": [
        {
          "internalType": "uint256",
          "name": "",
          "type": "uint256"
        }
      ],
      "stateMutability": "view",
      "type": "function"
    },
    {
      "inputs": [],
      "name": "daoCommunityPercent",
      "outputs": [
        {
          "internalType": "uint256",
          "name": "",
          "type": "uint256"
        }
      ],
      "stateMutability": "view",
      "type": "function"
    },
    {
      "inputs": [],
      "name": "daoInvestmentPercent",
      "outputs": [
        {
          "internalType": "uint256",
          "name": "",
          "type": "uint256"
        }
      ],
      "stateMutability": "view",
      "type": "function"
    },
    {
      "inputs": [
        {
          "internalType": "uint256",
          "name": "_id",
          "type": "uint256"
        }
      ],
      "name": "debtDecay",
      "outputs": [
        {
          "internalType": "uint64",
          "name": "",
          "type": "uint64"
        }
      ],
      "stateMutability": "view",
      "type": "function"
    },
    {
      "inputs": [
        {
          "internalType": "uint256",
          "name": "_id",
          "type": "uint256"
        }
      ],
      "name": "debtRatio",
      "outputs": [
        {
          "internalType": "uint256",
          "name": "",
          "type": "uint256"
        }
      ],
      "stateMutability": "view",
      "type": "function"
    },
    {
      "inputs": [
        {
          "internalType": "uint256",
          "name": "_id",
          "type": "uint256"
        },
        {
          "internalType": "uint256",
          "name": "_amount",
          "type": "uint256"
        },
        {
          "internalType": "uint256",
          "name": "_maxPrice",
          "type": "uint256"
        },
        {
          "internalType": "address",
          "name": "_user",
          "type": "address"
        },
        {
          "internalType": "address",
          "name": "_referral",
          "type": "address"
        }
      ],
      "name": "deposit",
      "outputs": [
        {
          "components": [
            {
              "internalType": "uint256",
              "name": "finalPayout",
              "type": "uint256"
            },
            {
              "internalType": "uint256",
              "name": "expiry",
              "type": "uint256"
            },
            {
              "internalType": "uint256",
              "name": "index",
              "type": "uint256"
            }
          ],
          "internalType": "struct IBondDepository.UserBond",
          "name": "userBond_",
          "type": "tuple"
        }
      ],
      "stateMutability": "nonpayable",
      "type": "function"
    },
    {
      "inputs": [],
      "name": "getReward",
      "outputs": [],
      "stateMutability": "nonpayable",
      "type": "function"
    },
    {
      "inputs": [
        {
          "internalType": "address",
          "name": "_user",
          "type": "address"
        }
      ],
      "name": "indexesFor",
      "outputs": [
        {
          "internalType": "uint256[]",
          "name": "",
          "type": "uint256[]"
        }
      ],
      "stateMutability": "view",
      "type": "function"
    },
    {
      "inputs": [
        {
          "internalType": "uint256",
          "name": "_id",
          "type": "uint256"
        }
      ],
      "name": "isLive",
      "outputs": [
        {
          "internalType": "bool",
          "name": "",
          "type": "bool"
        }
      ],
      "stateMutability": "view",
      "type": "function"
    },
    {
      "inputs": [],
      "name": "liveMarkets",
      "outputs": [
        {
          "internalType": "uint256[]",
          "name": "",
          "type": "uint256[]"
        }
      ],
      "stateMutability": "view",
      "type": "function"
    },
    {
      "inputs": [
        {
          "internalType": "address",
          "name": "_token",
          "type": "address"
        }
      ],
      "name": "liveMarketsFor",
      "outputs": [
        {
          "internalType": "uint256[]",
          "name": "",
          "type": "uint256[]"
        }
      ],
      "stateMutability": "view",
      "type": "function"
    },
    {
      "inputs": [
        {
          "internalType": "uint256",
          "name": "_id",
          "type": "uint256"
        }
      ],
      "name": "marketPrice",
      "outputs": [
        {
          "internalType": "uint256",
          "name": "",
          "type": "uint256"
        }
      ],
      "stateMutability": "view",
      "type": "function"
    },
    {
      "inputs": [
        {
          "internalType": "uint256",
          "name": "",
          "type": "uint256"
        }
      ],
      "name": "markets",
      "outputs": [
        {
          "internalType": "uint256",
          "name": "capacity",
          "type": "uint256"
        },
        {
          "internalType": "contract IERC20",
          "name": "quoteToken",
          "type": "address"
        },
        {
          "internalType": "bool",
          "name": "capacityInQuote",
          "type": "bool"
        },
        {
          "internalType": "uint64",
          "name": "totalDebt",
          "type": "uint64"
        },
        {
          "internalType": "uint64",
          "name": "maxPayout",
          "type": "uint64"
        },
        {
          "internalType": "uint64",
          "name": "sold",
          "type": "uint64"
        },
        {
          "internalType": "uint256",
          "name": "purchased",
          "type": "uint256"
        }
      ],
      "stateMutability": "view",
      "type": "function"
    },
    {
      "inputs": [
        {
          "internalType": "address",
          "name": "",
          "type": "address"
        },
        {
          "internalType": "uint256",
          "name": "",
          "type": "uint256"
        }
      ],
      "name": "marketsForQuote",
      "outputs": [
        {
          "internalType": "uint256",
          "name": "",
          "type": "uint256"
        }
      ],
      "stateMutability": "view",
      "type": "function"
    },
    {
      "inputs": [
        {
          "internalType": "uint256",
          "name": "",
          "type": "uint256"
        }
      ],
      "name": "metadata",
      "outputs": [
        {
          "internalType": "uint48",
          "name": "lastTune",
          "type": "uint48"
        },
        {
          "internalType": "uint48",
          "name": "lastDecay",
          "type": "uint48"
        },
        {
          "internalType": "uint48",
          "name": "length",
          "type": "uint48"
        },
        {
          "internalType": "uint48",
          "name": "depositInterval",
          "type": "uint48"
        },
        {
          "internalType": "uint48",
          "name": "tuneInterval",
          "type": "uint48"
        },
        {
          "internalType": "uint8",
          "name": "quoteDecimals",
          "type": "uint8"
        }
      ],
      "stateMutability": "view",
      "type": "function"
    },
    {
      "inputs": [
        {
          "internalType": "address",
          "name": "",
          "type": "address"
        },
        {
          "internalType": "uint256",
          "name": "",
          "type": "uint256"
        }
      ],
      "name": "notes",
      "outputs": [
        {
          "internalType": "uint256",
          "name": "payout",
          "type": "uint256"
        },
        {
          "internalType": "uint48",
          "name": "created",
          "type": "uint48"
        },
        {
          "internalType": "uint48",
          "name": "matured",
          "type": "uint48"
        },
        {
          "internalType": "uint48",
          "name": "redeemed",
          "type": "uint48"
        },
        {
          "internalType": "uint48",
          "name": "marketID",
          "type": "uint48"
        }
      ],
      "stateMutability": "view",
      "type": "function"
    },
    {
      "inputs": [],
      "name": "partnerTermCap",
      "outputs": [
        {
          "internalType": "uint256",
          "name": "",
          "type": "uint256"
        }
      ],
      "stateMutability": "view",
      "type": "function"
    },
    {
      "inputs": [
        {
          "internalType": "address",
          "name": "",
          "type": "address"
        }
      ],
      "name": "partnerTerms",
      "outputs": [
        {
          "internalType": "uint256",
          "name": "amount",
          "type": "uint256"
        },
        {
          "internalType": "uint256",
          "name": "percent",
          "type": "uint256"
        }
      ],
      "stateMutability": "view",
      "type": "function"
    },
    {
      "inputs": [],
      "name": "payoutCap",
      "outputs": [
        {
          "internalType": "uint256",
          "name": "",
          "type": "uint256"
        }
      ],
      "stateMutability": "view",
      "type": "function"
    },
    {
      "inputs": [
        {
          "internalType": "uint256",
          "name": "_amount",
          "type": "uint256"
        },
        {
          "internalType": "uint256",
          "name": "_id",
          "type": "uint256"
        }
      ],
      "name": "payoutFor",
      "outputs": [
        {
          "internalType": "uint256",
          "name": "",
          "type": "uint256"
        }
      ],
      "stateMutability": "view",
      "type": "function"
    },
    {
      "inputs": [
        {
          "internalType": "address",
          "name": "_user",
          "type": "address"
        },
        {
          "internalType": "uint256",
          "name": "_index",
          "type": "uint256"
        }
      ],
      "name": "pendingFor",
      "outputs": [
        {
          "internalType": "uint256",
          "name": "payout_",
          "type": "uint256"
        },
        {
          "internalType": "bool",
          "name": "matured_",
          "type": "bool"
        }
      ],
      "stateMutability": "view",
      "type": "function"
    },
    {
      "inputs": [
        {
          "internalType": "address",
          "name": "_from",
          "type": "address"
        },
        {
          "internalType": "uint256",
          "name": "_index",
          "type": "uint256"
        }
      ],
      "name": "pullNote",
      "outputs": [
        {
          "internalType": "uint256",
          "name": "newIndex_",
          "type": "uint256"
        }
      ],
      "stateMutability": "nonpayable",
      "type": "function"
    },
    {
      "inputs": [
        {
          "internalType": "address",
          "name": "_to",
          "type": "address"
        },
        {
          "internalType": "uint256",
          "name": "_index",
          "type": "uint256"
        }
      ],
      "name": "pushNote",
      "outputs": [],
      "stateMutability": "nonpayable",
      "type": "function"
    },
    {
      "inputs": [
        {
          "internalType": "address",
          "name": "_user",
          "type": "address"
        },
        {
          "internalType": "uint256[]",
          "name": "_indexes",
          "type": "uint256[]"
        }
      ],
      "name": "redeem",
      "outputs": [
        {
          "internalType": "uint256",
          "name": "payout_",
          "type": "uint256"
        }
      ],
      "stateMutability": "nonpayable",
      "type": "function"
    },
    {
      "inputs": [
        {
          "internalType": "address",
          "name": "_user",
          "type": "address"
        }
      ],
      "name": "redeemAll",
      "outputs": [
        {
          "internalType": "uint256",
          "name": "",
          "type": "uint256"
        }
      ],
      "stateMutability": "nonpayable",
      "type": "function"
    },
    {
      "inputs": [],
      "name": "referTermCap",
      "outputs": [
        {
          "internalType": "uint256",
          "name": "",
          "type": "uint256"
        }
      ],
      "stateMutability": "view",
      "type": "function"
    },
    {
      "inputs": [
        {
          "internalType": "address",
          "name": "",
          "type": "address"
        }
      ],
      "name": "referTerms",
      "outputs": [
        {
          "internalType": "uint256",
          "name": "referrerPercent",
          "type": "uint256"
        },
        {
          "internalType": "uint256",
          "name": "buyerPercent",
          "type": "uint256"
        }
      ],
      "stateMutability": "view",
      "type": "function"
    },
    {
      "inputs": [
        {
          "internalType": "address",
          "name": "",
          "type": "address"
        }
      ],
      "name": "rewards",
      "outputs": [
        {
          "internalType": "uint256",
          "name": "",
          "type": "uint256"
        }
      ],
      "stateMutability": "view",
      "type": "function"
    },
    {
      "inputs": [
        {
          "internalType": "contract IHectagonAuthority",
          "name": "_newAuthority",
          "type": "address"
        }
      ],
      "name": "setAuthority",
      "outputs": [],
      "stateMutability": "nonpayable",
      "type": "function"
    },
    {
      "inputs": [
        {
          "internalType": "uint256",
          "name": "daoInvestmentPercent_",
          "type": "uint256"
        },
        {
          "internalType": "uint256",
          "name": "daoCommunityPercent_",
          "type": "uint256"
        }
      ],
      "name": "setDaoRewards",
      "outputs": [],
      "stateMutability": "nonpayable",
      "type": "function"
    },
    {
      "inputs": [
        {
          "internalType": "address",
          "name": "_partner",
          "type": "address"
        },
        {
          "internalType": "uint256",
          "name": "_amount",
          "type": "uint256"
        },
        {
          "internalType": "uint256",
          "name": "_percent",
          "type": "uint256"
        }
      ],
      "name": "setPartnerTerm",
      "outputs": [],
      "stateMutability": "nonpayable",
      "type": "function"
    },
    {
      "inputs": [
        {
          "internalType": "uint256",
          "name": "_cap",
          "type": "uint256"
        }
      ],
      "name": "setPartnerTermCap",
      "outputs": [],
      "stateMutability": "nonpayable",
      "type": "function"
    },
    {
      "inputs": [
        {
          "internalType": "uint256",
          "name": "payoutCap_",
          "type": "uint256"
        }
      ],
      "name": "setPayoutCap",
      "outputs": [],
      "stateMutability": "nonpayable",
      "type": "function"
    },
    {
      "inputs": [
        {
          "internalType": "address",
          "name": "_referrer",
          "type": "address"
        },
        {
          "internalType": "uint256",
          "name": "_referrerPercent",
          "type": "uint256"
        },
        {
          "internalType": "uint256",
          "name": "_buyerPercent",
          "type": "uint256"
        }
      ],
      "name": "setReferTerm",
      "outputs": [],
      "stateMutability": "nonpayable",
      "type": "function"
    },
    {
      "inputs": [
        {
          "internalType": "uint256",
          "name": "_cap",
          "type": "uint256"
        }
      ],
      "name": "setReferTermCap",
      "outputs": [],
      "stateMutability": "nonpayable",
      "type": "function"
    },
    {
      "inputs": [
        {
          "internalType": "uint256",
          "name": "",
          "type": "uint256"
        }
      ],
      "name": "terms",
      "outputs": [
        {
          "internalType": "bool",
          "name": "fixedTerm",
          "type": "bool"
        },
        {
          "internalType": "uint64",
          "name": "controlVariable",
          "type": "uint64"
        },
        {
          "internalType": "uint48",
          "name": "vesting",
          "type": "uint48"
        },
        {
          "internalType": "uint48",
          "name": "conclusion",
          "type": "uint48"
        },
        {
          "internalType": "uint64",
          "name": "maxDebt",
          "type": "uint64"
        }
      ],
      "stateMutability": "view",
      "type": "function"
    },
    {
      "inputs": [],
      "name": "totalPayout",
      "outputs": [
        {
          "internalType": "uint256",
          "name": "",
          "type": "uint256"
        }
      ],
      "stateMutability": "view",
      "type": "function"
    },
    {
      "inputs": [],
      "name": "updateTreasury",
      "outputs": [],
      "stateMutability": "nonpayable",
      "type": "function"
    }
  ],
  "transactionHash": "0x926cce6a98e089f78bebe91a21719de10ef1e6fc7bbbb571829ca978bea86261",
  "args": [
    "0x2b04648FFBc816D587ed60574ab6ec323eF56fBE",
    "0xF38020ADeFF94EA83102E050DbA86011e3b588a1",
    "0x2cD3351a19AeB6D997c4Ff123BDB7eCE537a265e",
    "0x4a527d6d4E8Bb82d2c3BB066e07929ab9b3968a8",
    "0xAB68495c9dDc4bE872f6e93ee2cd94183827F117"
  ],
  "solcInputHash": "af0988b3e7447ab5c03a65cbe9c46091",
  "bytecode": "0x610140604052600c6101008190526b15539055551213d49256915160a21b610120908152620000329160009190620001a3565b506107d06005556127106006819055600781905561afc860085560805266071afd498d00006011553480156200006757600080fd5b5060405162005036380380620050368339810160408190526200008a9162000262565b600180546001600160a01b0319166001600160a01b038716908117909155604051869186918691869186918691869183917f2f658b440c35314f52658ea8a740e05b284cdc84dc9ae01e891f21b8933e7cad90600090a2506001600160a01b0390811660a05293841660c0525090821660e052600b80546001600160a01b03191691831691909117905560405163095ea7b360e01b81528582166004820152722cd76fe086b93ce2f768a00b22a000000000006024820152908716925063095ea7b391506044016020604051808303816000875af115801562000171573d6000803e3d6000fd5b505050506040513d601f19601f82011682018060405250810190620001979190620002e2565b5050505050506200034a565b828054620001b1906200030d565b90600052602060002090601f016020900481019282620001d5576000855562000220565b82601f10620001f057805160ff191683800117855562000220565b8280016001018555821562000220579182015b828111156200022057825182559160200191906001019062000203565b506200022e92915062000232565b5090565b5b808211156200022e576000815560010162000233565b6001600160a01b03811681146200025f57600080fd5b50565b600080600080600060a086880312156200027b57600080fd5b8551620002888162000249565b60208701519095506200029b8162000249565b6040870151909450620002ae8162000249565b6060870151909350620002c18162000249565b6080870151909250620002d48162000249565b809150509295509295909350565b600060208284031215620002f557600080fd5b815180151581146200030657600080fd5b9392505050565b600181811c908216806200032257607f821691505b602082108114156200034457634e487b7160e01b600052602260045260246000fd5b50919050565b60805160a05160c05160e051614c6c620003ca6000396000613745015260008181612a5e0152613553015260008181610bb8015281816110df0152818161131701528181612f3c01528181613b230152613e28015260008181613f4a01528181613f9a015281816140210152818161411a015261418b0152614c6c6000f3fe608060405234801561001057600080fd5b50600436106102e95760003560e01c8063a422061011610191578063c0aa0e8a116100e3578063e0b117ff11610097578063e481b26511610071578063e481b265146107f0578063f1b7dc7814610803578063ff43a1bf1461081657600080fd5b8063e0b117ff1461073e578063e364360014610786578063e3684e391461079957600080fd5b8063c9b67af5116100c8578063c9b67af514610710578063d2390aa214610718578063d6db4df81461072b57600080fd5b8063c0aa0e8a14610699578063c3e0fb1c146106e857600080fd5b8063bc24cea911610145578063be399be51161011f578063be399be514610648578063bf7e214f1461065b578063c0680e201461068657600080fd5b8063bc24cea91461058d578063bc3b2b12146105a0578063bcb296671461063557600080fd5b8063abbf4b1711610176578063abbf4b17146104db578063b1283e7714610506578063b15780461461056657600080fd5b8063a4220610146104b5578063a5874627146104c857600080fd5b80633d18b9121161024a5780636f6ff0ad116101fe57806386ff8b84116101d857806386ff8b841461049b578063953db4a4146104a45780639c769787146104ad57600080fd5b80636f6ff0ad146104405780637a9e5e4b146104535780637c770aae1461046657600080fd5b8063649144391161022f57806364914439146104045780636a6c575d146104245780636f345cae1461043757600080fd5b80633d18b912146103f3578063454f7b8f146103fb57600080fd5b806327507458116102a15780633a3d63ba116102865780633a3d63ba146103915780633adec5a7146103a45780633c4290e1146103b757600080fd5b80632750745814610365578063282c89ce1461038857600080fd5b80630a9d85eb116102d25780630a9d85eb1461032a5780630aebeb4e1461033d57806321a7d29b1461035257600080fd5b806306d008db146102ee5780630700037d1461030a575b600080fd5b6102f760085481565b6040519081526020015b60405180910390f35b6102f76103183660046143db565b60026020526000908152604090205481565b6102f76103383660046143f8565b610829565b61035061034b3660046143f8565b610883565b005b6102f7610360366004614588565b6109ce565b6103786103733660046143f8565b611167565b6040519015158152602001610301565b6102f760115481565b61035061039f3660046143f8565b6111d0565b6102f76103b23660046143f8565b611281565b6103de6103c53660046143db565b6004602052600090815260409020805460019091015482565b60408051928352602083019190915201610301565b6103506112dd565b6102f760105481565b6104176104123660046143db565b611388565b6040516103019190614649565b6102f761043236600461468d565b611516565b6102f760065481565b61035061044e36600461468d565b6115e6565b6103506104613660046143db565b61169d565b6104796104743660046146af565b6117a0565b6040805182518152602080840151908201529181015190820152606001610301565b6102f760075481565b6102f760055481565b610350611d1e565b6102f76104c3366004614705565b611fbf565b6103506104d6366004614731565b612252565b6104ee6104e93660046143f8565b6123d2565b6040516001600160401b039091168152602001610301565b6105196105143660046143f8565b6124b6565b604080519788526001600160a01b039096166020880152931515948601949094526001600160401b0391821660608601528116608085015290911660a083015260c082015260e001610301565b6103de6105743660046143db565b6003602052600090815260409020805460019091015482565b61035061059b366004614731565b612524565b6105fd6105ae3660046143f8565b600f602052600090815260409020546001600160401b0381169065ffffffffffff600160401b82048116916e01000000000000000000000000000081049091169060ff600160a01b9091041684565b604080516001600160401b0395909516855265ffffffffffff9384166020860152919092169083015215156060820152608001610301565b6102f76106433660046143f8565b6126ad565b6102f76106563660046143db565b612709565b60015461066e906001600160a01b031681565b6040516001600160a01b039091168152602001610301565b6102f7610694366004614705565b612718565b6106ac6106a73660046143f8565b612749565b6040805195151586526001600160401b03948516602087015265ffffffffffff938416908601529116606084015216608082015260a001610301565b6106fb6106f6366004614705565b6127a8565b60408051928352901515602083015201610301565b610417612873565b6102f7610726366004614766565b61295b565b610350610739366004614705565b612ad3565b61075161074c366004614705565b612ba2565b6040805195865265ffffffffffff9485166020870152928416928501929092528216606084015216608082015260a001610301565b6103506107943660046143f8565b612c05565b6107ac6107a73660046143f8565b612cb6565b6040805165ffffffffffff97881681529587166020870152938616938501939093529084166060840152909216608082015260ff90911660a082015260c001610301565b6104176107fe3660046143db565b612d14565b6102f76108113660046143f8565b612f38565b6103506108243660046143f8565b612ff9565b600080610835836130aa565b90508060000151600d848154811061084f5761084f614820565b600091825260209091200154610873919061010090046001600160401b031661484c565b6001600160401b03169392505050565b600160009054906101000a90046001600160a01b03166001600160a01b0316630505c8c96040518163ffffffff1660e01b8152600401602060405180830381865afa1580156108d6573d6000803e3d6000fd5b505050506040513d601f19601f820116820180604052508101906108fa9190614874565b6001600160a01b0316336001600160a01b0316146000906109375760405162461bcd60e51b815260040161092e9190614891565b60405180910390fd5b5042600d828154811061094c5761094c614820565b90600052602060002001600001600f6101000a81548165ffffffffffff021916908365ffffffffffff1602179055506000600c828154811061099057610990614820565b6000918252602082206004909102019190915560405182917f8401d05adbea6548a6999cc1540766e6d2ff919292142862893d0e62ec79fbe591a250565b60015460408051630505c8c960e01b815290516000926001600160a01b031691630505c8c99160048083019260209291908290030181865afa158015610a18573d6000803e3d6000fd5b505050506040513d601f19601f82011682018060405250810190610a3c9190614874565b6001600160a01b0316336001600160a01b031614600090610a705760405162461bcd60e51b815260040161092e9190614891565b506020830151600090610a84904290614939565b90506000876001600160a01b031663313ce5676040518163ffffffff1660e01b8152600401602060405180830381865afa158015610ac6573d6000803e3d6000fd5b505050506040513d601f19601f82011682018060405250810190610aea9190614950565b60ff169050600086816020020151610b03578751610b3b565b610b0e82600a614a57565b60208901518951610b2790670de0b6b3a7640000614a63565b610b319190614a98565b610b3b9190614a98565b85519091506000908490610b559063ffffffff1684614aac565b6001600160401b0316610b689190614a98565b90506000620186a08a60026020020151610b8b906001600160401b038616614a63565b610b959190614a98565b610ba8906001600160401b038516614adb565b90506000836001600160401b03167f00000000000000000000000000000000000000000000000000000000000000006001600160a01b03166318160ddd6040518163ffffffff1660e01b8152600401602060405180830381865afa158015610c14573d6000803e3d6000fd5b505050506040513d601f19601f82011682018060405250810190610c389190614af3565b60208d0151610c479190614a63565b610c519190614a98565b600c80546040805160e0810190915290995091925090808d6000602002015181526020018e6001600160a01b031681526020018c600060028110610c9757610c97614820565b60209081029190910151151582526001600160401b0380891683830152878116604080850191909152600060608086018290526080958601829052875460018181018a5598835291859020875160049093020191825593860151818801805488850151968901518616600160a81b0267ffffffffffffffff60a81b19971515600160a01b027fffffffffffffffffffffff0000000000000000000000000000000000000000009092166001600160a01b03909416939093171795909516179093559284015160028301805460a0808801518516600160401b026fffffffffffffffffffffffffffffffff19909216939094169290921791909117905560c09093015160039091015580519182019052600d9181908d90602002015115158152602001836001600160401b031681526020018b600060028110610ddb57610ddb614820565b602002015165ffffffffffff1681526020018b600160028110610e0057610e00614820565b6020908102919091015165ffffffffffff90811683526001600160401b038088169383019390935284546001810186556000958652828620855191018054868501516040808901516060808b01516080909b01518a16600160a81b0267ffffffffffffffff60a81b199b8916600160781b027fffffffffffffffffffffff000000000000ffffffffffffffffffffffffffffff938a16690100000000000000000002939093167fffffffffffffffffffffff000000000000000000000000ffffffffffffffffff95909b166101000268ffffffffffffffff00199815159890981668ffffffffffffffffff1990961695909517969096179290921697909717179690961695909517909455825160c081018452428216808252928101929092528a1691810191909152600e9290918201908b906020908102919091015163ffffffff168252018a6001602002015163ffffffff1665ffffffffffff1681526020018760ff168152509080600181540180825580915050600190039060005260206000200160009091909190915060008201518160000160006101000a81548165ffffffffffff021916908365ffffffffffff16021790555060208201518160000160066101000a81548165ffffffffffff021916908365ffffffffffff160217905550604082015181600001600c6101000a81548165ffffffffffff021916908365ffffffffffff16021790555060608201518160000160126101000a81548165ffffffffffff021916908365ffffffffffff16021790555060808201518160000160186101000a81548165ffffffffffff021916908365ffffffffffff16021790555060a082015181600001601e6101000a81548160ff021916908360ff1602179055505050601260008d6001600160a01b03166001600160a01b031681526020019081526020016000208790806001815401808255809150506001900390600052602060002001600090919091909150558b6001600160a01b03167f00000000000000000000000000000000000000000000000000000000000000006001600160a01b0316887f2f6ff727bd580b1d1b8332e28aa93ed4ec9d8b08d6e30d6b4c9f7aa63ca17f638e60016003811061113c5761113c614820565b602002015160405161115091815260200190565b60405180910390a450505050505095945050505050565b6000600c828154811061117c5761117c614820565b9060005260206000209060040201600001546000141580156111ca575042600d83815481106111ad576111ad614820565b600091825260209091200154600160781b900465ffffffffffff16115b92915050565b600160009054906101000a90046001600160a01b03166001600160a01b0316630c340a246040518163ffffffff1660e01b8152600401602060405180830381865afa158015611223573d6000803e3d6000fd5b505050506040513d601f19601f820116820180604052508101906112479190614874565b6001600160a01b0316336001600160a01b03161460009061127b5760405162461bcd60e51b815260040161092e9190614891565b50600655565b6000600e828154811061129657611296614820565b6000918252602090912001546112b790600160f01b900460ff16600a614b0c565b6112c083612f38565b6112c984610829565b6112d39190614a63565b6111ca9190614a98565b3360008181526002602052604080822080549290555163a9059cbb60e01b8152600481019290925260248201819052906001600160a01b037f0000000000000000000000000000000000000000000000000000000000000000169063a9059cbb906044016020604051808303816000875af1158015611360573d6000803e3d6000fd5b505050506040513d601f19601f820116820180604052508101906113849190614b1b565b5050565b6001600160a01b03811660009081526012602090815260408083208054825181850281018501909352808352606094938301828280156113e757602002820191906000526020600020905b8154815260200190600101908083116113d3575b50505050509050600080600090505b82518110156114465761142183828151811061141457611414614820565b6020026020010151611167565b15611434578161143081614b38565b9250505b8061143e81614b38565b9150506113f6565b506000816001600160401b0381111561146157611461614411565b60405190808252806020026020018201604052801561148a578160200160208202803683370190505b5090506000805b845181101561150b576114af85828151811061141457611414614820565b156114f9578481815181106114c6576114c6614820565b60200260200101518383815181106114e0576114e0614820565b6020908102919091010152816114f581614b38565b9250505b8061150381614b38565b915050611491565b509095945050505050565b600080600e838154811061152c5761152c614820565b60009182526020918290206040805160c081018252919092015465ffffffffffff8082168352600160301b8204811694830194909452600160601b8104841692820192909252600160901b820483166060820152600160c01b8204909216608083015260ff600160f01b9091041660a082018190529091506115af90600a614b0c565b6115b884611281565b6115ca86670de0b6b3a7640000614a63565b6115d49190614a98565b6115de9190614a98565b949350505050565b600160009054906101000a90046001600160a01b03166001600160a01b0316630c340a246040518163ffffffff1660e01b8152600401602060405180830381865afa158015611639573d6000803e3d6000fd5b505050506040513d601f19601f8201168201806040525081019061165d9190614874565b6001600160a01b0316336001600160a01b0316146000906116915760405162461bcd60e51b815260040161092e9190614891565b50600791909155600855565b600160009054906101000a90046001600160a01b03166001600160a01b0316630c340a246040518163ffffffff1660e01b8152600401602060405180830381865afa1580156116f0573d6000803e3d6000fd5b505050506040513d601f19601f820116820180604052508101906117149190614874565b6001600160a01b0316336001600160a01b0316146000906117485760405162461bcd60e51b815260040161092e9190614891565b506001805473ffffffffffffffffffffffffffffffffffffffff19166001600160a01b0383169081179091556040517f2f658b440c35314f52658ea8a740e05b284cdc84dc9ae01e891f21b8933e7cad90600090a250565b6117c460405180606001604052806000815260200160008152602001600081525090565b6117ef6040518060800160405280600081526020016000815260200160008152602001600081525090565b6000600c888154811061180457611804614820565b906000526020600020906004020190506000600d898154811061182957611829614820565b60009182526020918290206040805160a081018252919092015460ff8116151582526001600160401b03610100820481169483019490945265ffffffffffff69010000000000000000008204811693830193909352600160781b8104831660608301819052600160a81b909104909316608082015292504291908216106118f25760405162461bcd60e51b815260206004820152601c60248201527f4465706f7369746f72793a206d61726b657420636f6e636c7564656400000000604482015260640161092e565b6118fc8a826131bf565b60006119078b613401565b9050888111156119595760405162461bcd60e51b815260206004820152601f60248201527f4465706f7369746f72793a206d6f7265207468616e206d617820707269636500604482015260640161092e565b6000600e8c8154811061196e5761196e614820565b60009182526020909120015461198f90600160f01b900460ff16600a614b0c565b826119a28d670de0b6b3a7640000614a63565b6119ac9190614a98565b6119b69190614a98565b60028601549091506001600160401b0316811115611a165760405162461bcd60e51b815260206004820152601d60248201527f4465706f7369746f72793a206d61782073697a65206578636565646564000000604482015260640161092e565b60115481601054611a279190614adb565b1115611a9b5760405162461bcd60e51b815260206004820152602760248201527f4465706f7369746f72793a20746f74616c207061796f7574206869742070617960448201527f6f75742063617000000000000000000000000000000000000000000000000000606482015260840161092e565b6001850154600160a01b900460ff16611ab45780611ab6565b8a5b856000016000828254611ac99190614939565b90915550508351611ade578360400151611aee565b828460400151611aee9190614b53565b65ffffffffffff1660208801526003850180548c9190600090611b12908490614adb565b9091555050600285018054829190600890611b3e908490600160401b90046001600160401b0316614b7d565b92506101000a8154816001600160401b0302191690836001600160401b03160217905550808560010160158282829054906101000a90046001600160401b0316611b889190614b7d565b92506101000a8154816001600160401b0302191690836001600160401b03160217905550611bbd898289602001518f8c613477565b60408901919091526060810151909650611bd79082614adb565b876000018181525050876001600160a01b0316896001600160a01b03168d7f4f0ed72ede64d6052fad7cbe06ab6234ec2c0cc3255a8566e9fecff3958142388e868c604001518c600001518d606001518e604001518f60200151604051611c6f9796959493929190968752602087019590955260408601939093526060850191909152608084015260a083015260c082015260e00190565b60405180910390a4600b546001860154611c98916001600160a01b03918216913391168e613833565b8060106000828254611caa9190614adb565b9091555050600185015460808501516001600160401b03600160a81b909204821691161015611d055760008086556040518d917f8401d05adbea6548a6999cc1540766e6d2ff919292142862893d0e62ec79fbe591a2611d0f565b611d0f8c846138a2565b50505050505095945050505050565b600160009054906101000a90046001600160a01b03166001600160a01b0316630c340a246040518163ffffffff1660e01b8152600401602060405180830381865afa158015611d71573d6000803e3d6000fd5b505050506040513d601f19601f82011682018060405250810190611d959190614874565b6001600160a01b0316336001600160a01b03161480611e3b5750600160009054906101000a90046001600160a01b03166001600160a01b031663452a93206040518163ffffffff1660e01b8152600401602060405180830381865afa158015611e02573d6000803e3d6000fd5b505050506040513d601f19601f82011682018060405250810190611e269190614874565b6001600160a01b0316336001600160a01b0316145b80611ecd5750600160009054906101000a90046001600160a01b03166001600160a01b0316630505c8c96040518163ffffffff1660e01b8152600401602060405180830381865afa158015611e94573d6000803e3d6000fd5b505050506040513d601f19601f82011682018060405250810190611eb89190614874565b6001600160a01b0316336001600160a01b0316145b611f195760405162461bcd60e51b815260206004820152600f60248201527f4f6e6c7920617574686f72697a65640000000000000000000000000000000000604482015260640161092e565b600160009054906101000a90046001600160a01b03166001600160a01b031663fbfa77cf6040518163ffffffff1660e01b8152600401602060405180830381865afa158015611f6c573d6000803e3d6000fd5b505050506040513d601f19601f82011682018060405250810190611f909190614874565b600b805473ffffffffffffffffffffffffffffffffffffffff19166001600160a01b0392909216919091179055565b6001600160a01b038281166000908152600a6020908152604080832085845290915281205490911633146120355760405162461bcd60e51b815260206004820152601e60248201527f4465706f7369746f72793a207472616e73666572206e6f7420666f756e640000604482015260640161092e565b6001600160a01b038316600090815260096020526040902080548390811061205f5761205f614820565b6000918252602090912060029091020160010154600160601b900465ffffffffffff16156120cf5760405162461bcd60e51b815260206004820152601960248201527f4465706f7369746f72793a206e6f74652072656465656d656400000000000000604482015260640161092e565b503360009081526009602052604080822080546001600160a01b03861684529190922080549192918490811061210757612107614820565b600091825260208083208454600181810187559585528285206002948502909201805491909402909101908155918401805492909401805465ffffffffffff19811665ffffffffffff94851690811783558654600160301b908190048616026bffffffffffffffffffffffff1990921617178082558554600160601b9081900485160271ffffffffffff000000000000000000000000198216811783559554600160901b9081900490941690930265ffffffffffff60901b1990951677ffffffffffffffffffffffff00000000000000000000000019909316929092179390931790556001600160a01b038516815260099091526040902080548390811061221157612211614820565b60009182526020822060029091020190815560010180547fffffffffffffffff00000000000000000000000000000000000000000000000016905592915050565b600160009054906101000a90046001600160a01b03166001600160a01b0316630505c8c96040518163ffffffff1660e01b8152600401602060405180830381865afa1580156122a5573d6000803e3d6000fd5b505050506040513d601f19601f820116820180604052508101906122c99190614874565b6001600160a01b0316336001600160a01b0316146000906122fd5760405162461bcd60e51b815260040161092e9190614891565b506001600160a01b0383166123545760405162461bcd60e51b815260206004820152601560248201527f5a65726f20616464726573733a20506172746e65720000000000000000000000604482015260640161092e565b6006548111156123985760405162461bcd60e51b815260206004820152600f60248201526e0e4caeec2e4c840e8dede40d0d2ced608b1b604482015260640161092e565b60408051808201825292835260208084019283526001600160a01b0390941660009081526003909452909220905181559051600190910155565b600080600e83815481106123e8576123e8614820565b600091825260208083206040805160c081018252939091015465ffffffffffff8082168552600160301b82048116938501849052600160601b8204811692850192909252600160901b810482166060850152600160c01b81049091166080840152600160f01b900460ff1660a08301529092506124659042614939565b9050816040015165ffffffffffff1681600c868154811061248857612488614820565b60009182526020909120600490910201600101546115d49190600160a81b90046001600160401b0316614a63565b600c81815481106124c657600080fd5b600091825260209091206004909102018054600182015460028301546003909301549193506001600160a01b0381169260ff600160a01b830416926001600160401b03600160a81b90930483169282811692600160401b9004169087565b600160009054906101000a90046001600160a01b03166001600160a01b0316630505c8c96040518163ffffffff1660e01b8152600401602060405180830381865afa158015612577573d6000803e3d6000fd5b505050506040513d601f19601f8201168201806040525081019061259b9190614874565b6001600160a01b0316336001600160a01b0316146000906125cf5760405162461bcd60e51b815260040161092e9190614891565b506001600160a01b0383166126265760405162461bcd60e51b815260206004820152601660248201527f5a65726f20616464726573733a20526566657272657200000000000000000000604482015260640161092e565b6005546126338284614adb565b11156126735760405162461bcd60e51b815260206004820152600f60248201526e0e4caeec2e4c840e8dede40d0d2ced608b1b604482015260640161092e565b60408051808201825292835260208084019283526001600160a01b0390941660009081526004909452909220905181559051600190910155565b60006126b8826123d2565b600c83815481106126cb576126cb614820565b906000526020600020906004020160010160159054906101000a90046001600160401b03166126fa919061484c565b6001600160401b031692915050565b60006111ca8261072684612d14565b6012602052816000526040600020818154811061273457600080fd5b90600052602060002001600091509150505481565b600d818154811061275957600080fd5b60009182526020909120015460ff811691506001600160401b03610100820481169165ffffffffffff69010000000000000000008204811692600160781b830490911691600160a81b90041685565b6001600160a01b0382166000908152600960205260408120805482918291859081106127d6576127d6614820565b60009182526020918290206040805160a0810182526002909302909101805480845260019091015465ffffffffffff80821695850195909552600160301b8104851692840192909252600160601b8204841660608401819052600160901b9092049093166080830152919450915015801561285d575042816040015165ffffffffffff1611155b80156128695750805115155b9150509250929050565b60606000805b600c548110156128b15761288c81611167565b1561289f578161289b81614b38565b9250505b806128a981614b38565b915050612879565b506000816001600160401b038111156128cc576128cc614411565b6040519080825280602002602001820160405280156128f5578160200160208202803683370190505b5090506000805b600c548110156129525761290f81611167565b15612940578083838151811061292757612927614820565b60209081029190910101528161293c81614b38565b9250505b8061294a81614b38565b9150506128fc565b50909392505050565b600042815b8351811015612a375760008061298f8787858151811061298257612982614820565b60200260200101516127a8565b915091508015612a22576001600160a01b038716600090815260096020526040902086518591908890869081106129c8576129c8614820565b6020026020010151815481106129e0576129e0614820565b9060005260206000209060020201600101600c6101000a81548165ffffffffffff021916908365ffffffffffff1602179055508185612a1f9190614adb565b94505b50508080612a2f90614b38565b915050612960565b5060405163a9059cbb60e01b81526001600160a01b038581166004830152602482018490527f0000000000000000000000000000000000000000000000000000000000000000169063a9059cbb906044016020604051808303816000875af1158015612aa7573d6000803e3d6000fd5b505050506040513d601f19601f82011682018060405250810190612acb9190614b1b565b505092915050565b336000908152600960205260409020805482908110612af457612af4614820565b600091825260209091206001600290920201015465ffffffffffff16612b5c5760405162461bcd60e51b815260206004820152601a60248201527f4465706f7369746f72793a206e6f7465206e6f7420666f756e64000000000000604482015260640161092e565b336000908152600a6020908152604080832093835292905220805473ffffffffffffffffffffffffffffffffffffffff19166001600160a01b0392909216919091179055565b60096020528160005260406000208181548110612bbe57600080fd5b60009182526020909120600290910201805460019091015490925065ffffffffffff8082169250600160301b8204811691600160601b8104821691600160901b9091041685565b600160009054906101000a90046001600160a01b03166001600160a01b0316630c340a246040518163ffffffff1660e01b8152600401602060405180830381865afa158015612c58573d6000803e3d6000fd5b505050506040513d601f19601f82011682018060405250810190612c7c9190614874565b6001600160a01b0316336001600160a01b031614600090612cb05760405162461bcd60e51b815260040161092e9190614891565b50601155565b600e8181548110612cc657600080fd5b60009182526020909120015465ffffffffffff8082169250600160301b8204811691600160601b8104821691600160901b8204811691600160c01b810490911690600160f01b900460ff1686565b6001600160a01b0381166000908152600960209081526040808320805482518185028101850190935280835260609493849084015b82821015612dbf5760008481526020908190206040805160a081018252600286029092018054835260019081015465ffffffffffff80821685870152600160301b8204811693850193909352600160601b810483166060850152600160901b900490911660808301529083529092019101612d49565b505050509050600080600090505b8251811015612e4e57828181518110612de857612de8614820565b60200260200101516060015165ffffffffffff166000148015612e295750828181518110612e1857612e18614820565b602002602001015160000151600014155b15612e3c5781612e3881614b38565b9250505b80612e4681614b38565b915050612dcd565b506000816001600160401b03811115612e6957612e69614411565b604051908082528060200260200182016040528015612e92578160200160208202803683370190505b5090506000805b845181101561150b57848181518110612eb457612eb4614820565b60200260200101516060015165ffffffffffff166000148015612ef55750848181518110612ee457612ee4614820565b602002602001015160000151600014155b15612f265780838381518110612f0d57612f0d614820565b602090810291909101015281612f2281614b38565b9250505b80612f3081614b38565b915050612e99565b60007f00000000000000000000000000000000000000000000000000000000000000006001600160a01b03166318160ddd6040518163ffffffff1660e01b8152600401602060405180830381865afa158015612f98573d6000803e3d6000fd5b505050506040513d601f19601f82011682018060405250810190612fbc9190614af3565b600e8381548110612fcf57612fcf614820565b600091825260209091200154612ff090600160f01b900460ff16600a614b0c565b6112c9846126ad565b600160009054906101000a90046001600160a01b03166001600160a01b0316630c340a246040518163ffffffff1660e01b8152600401602060405180830381865afa15801561304c573d6000803e3d6000fd5b505050506040513d601f19601f820116820180604052508101906130709190614874565b6001600160a01b0316336001600160a01b0316146000906130a45760405162461bcd60e51b815260040161092e9190614891565b50600555565b60408051606081018252600080825260208201819052918101919091526000828152600f6020908152604091829020825160808101845290546001600160401b038116825265ffffffffffff600160401b82048116938301939093526e01000000000000000000000000000081049092169281019290925260ff600160a01b909104161515606082018190526131405750919050565b602081015161314f9042614b9f565b65ffffffffffff908116602084018190526040808401519092161190830181905261317b5780516131ae565b806040015165ffffffffffff16826020015165ffffffffffff1682600001516131a49190614aac565b6131ae9190614bbe565b6001600160401b0316825250919050565b6131c8826123d2565b600c83815481106131db576131db614820565b906000526020600020906004020160010160158282829054906101000a90046001600160401b031661320d919061484c565b92506101000a8154816001600160401b0302191690836001600160401b0316021790555080600e838154811061324557613245614820565b60009182526020808320909101805465ffffffffffff94909416600160301b026bffffffffffff0000000000001990941693909317909255838152600f909152604090205460ff600160a01b9091041615611384576000828152600f60205260408120906132b2846130aa565b90508060000151600d85815481106132cc576132cc614820565b600091825260209091200180546001906132f590849061010090046001600160401b031661484c565b92506101000a8154816001600160401b0302191690836001600160401b031602179055508060400151156133d4578051825483906000906133409084906001600160401b031661484c565b92506101000a8154816001600160401b0302191690836001600160401b03160217905550806020015182600001600e8282829054906101000a900465ffffffffffff1661338d9190614b9f565b82546101009290920a65ffffffffffff81810219909316918316021790915583546dffffffffffff00000000000000001916600160401b91861691909102178355506133fb565b81547fffffffffffffffffffffff00ffffffffffffffffffffffffffffffffffffffff1682555b50505050565b6000600e828154811061341657613416614820565b60009182526020909120015461343790600160f01b900460ff16600a614b0c565b61344083613e24565b600d848154811061345357613453614820565b6000918252602090912001546112d3919061010090046001600160401b0316614a63565b60006134a46040518060800160405280600081526020016000815260200160008152602001600081525090565b60006134b187858a613f1d565b6001600160a01b0389166000908152600960205260408120546060830151929350916134de908a90614adb565b9050600083600001518460600151856020015186604001516135009190614adb565b61350a9190614939565b6135149190614939565b6001600160a01b038c811660009081526009602052604090819020815160a08101928390526319a948db60e21b90925260a482018690529293509081907f0000000000000000000000000000000000000000000000000000000000000000166366a5236c60c48301602060405180830381865afa158015613599573d6000803e3d6000fd5b505050506040513d601f19601f820116820180604052508101906135bd9190614af3565b81524265ffffffffffff9081166020808401919091528d8216604080850191909152600060608086018290528f8516608096870152875460018082018a559883529184902087516002909302019182559286015196018054918601519286015195909401519583166bffffffffffffffffffffffff1990911617600160301b918316919091021777ffffffffffffffffffffffff0000000000000000000000001916600160601b9382169390930265ffffffffffff60901b191692909217600160901b9390921692909202179055600b5484516001600160a01b03909116906340c10f199030906136ae9086614adb565b6040517fffffffff0000000000000000000000000000000000000000000000000000000060e085901b1681526001600160a01b0390921660048301526024820152604401600060405180830381600087803b15801561370c57600080fd5b505af1158015613720573d6000803e3d6000fd5b505060405163995846bd60e01b815230600482015260248101859052600160448201527f00000000000000000000000000000000000000000000000000000000000000006001600160a01b0316925063995846bd91506064016020604051808303816000875af1158015613798573d6000803e3d6000fd5b505050506040513d601f19601f820116820180604052508101906137bc9190614af3565b50600b546040516340c10f1960e01b81526001600160a01b039091166004820181905260248201839052906340c10f1990604401600060405180830381600087803b15801561380a57600080fd5b505af115801561381e573d6000803e3d6000fd5b50949d959c50949a5050505050505050505050565b604080516001600160a01b0385811660248301528416604482015260648082018490528251808303909101815260849091019091526020810180517bffffffffffffffffffffffffffffffffffffffffffffffffffffffff166323b872dd60e01b1790526133fb9085906141d3565b6000600e83815481106138b7576138b7614820565b60009182526020918290206040805160c081018252929091015465ffffffffffff808216808552600160301b8304821695850195909552600160601b8204811692840192909252600160901b810482166060840152600160c01b810490911660808301819052600160f01b90910460ff1660a083015290925061393991614b53565b65ffffffffffff168265ffffffffffff1610613e1f576000600c848154811061396457613964614820565b600091825260208083206040805160e08101825260049094029091018054845260018101546001600160a01b0381169385019390935260ff600160a01b8404161515918401919091526001600160401b03600160a81b9092048216606084015260028101548083166080850152600160401b900490911660a08301526003015460c0820152600d8054919350859187908110613a0257613a02614820565b600091825260209091200154613a279190600160781b900465ffffffffffff16614b9f565b65ffffffffffff1690506000613a3c86613401565b905060008360400151613a50578351613a8a565b60a0850151613a6090600a614b0c565b84518390613a7690670de0b6b3a7640000614a63565b613a809190614a98565b613a8a9190614a98565b905082856060015165ffffffffffff1682613aa59190614a63565b613aaf9190614a98565b600c8881548110613ac257613ac2614820565b906000526020600020906004020160020160006101000a8154816001600160401b0302191690836001600160401b03160217905550600083866040015165ffffffffffff1683613b129190614a63565b613b1c9190614a98565b90506000817f00000000000000000000000000000000000000000000000000000000000000006001600160a01b03166318160ddd6040518163ffffffff1660e01b8152600401602060405180830381865afa158015613b7f573d6000803e3d6000fd5b505050506040513d601f19601f82011682018060405250810190613ba39190614af3565b613bad9086614a63565b613bb79190614a98565b9050887f3070b0e3e52b8713c7489d32604ea4b0970024f74c6e05319269a19bc1e3a9d9600d8b81548110613bee57613bee614820565b60009182526020918290200154604080516101009092046001600160401b0390811683528616928201929092520160405180910390a2600d8981548110613c3757613c37614820565b6000918252602090912001546001600160401b03610100909104811690821610613ca55780600d8a81548110613c6f57613c6f614820565b9060005260206000200160000160016101000a8154816001600160401b0302191690836001600160401b03160217905550613ddd565b600081600d8b81548110613cbb57613cbb614820565b600091825260209091200154613cdf919061010090046001600160401b031661484c565b90506040518060800160405280826001600160401b031681526020018a65ffffffffffff168152602001896080015165ffffffffffff16815260200160011515815250600f60008c815260200190815260200160002060008201518160000160006101000a8154816001600160401b0302191690836001600160401b0316021790555060208201518160000160086101000a81548165ffffffffffff021916908365ffffffffffff160217905550604082015181600001600e6101000a81548165ffffffffffff021916908365ffffffffffff16021790555060608201518160000160146101000a81548160ff021916908315150217905550905050505b87600e8a81548110613df157613df1614820565b6000918252602090912001805465ffffffffffff191665ffffffffffff929092169190911790555050505050505b505050565b60007f00000000000000000000000000000000000000000000000000000000000000006001600160a01b03166318160ddd6040518163ffffffff1660e01b8152600401602060405180830381865afa158015613e84573d6000803e3d6000fd5b505050506040513d601f19601f82011682018060405250810190613ea89190614af3565b600e8381548110613ebb57613ebb614820565b600091825260209091200154613edc90600160f01b900460ff16600a614b0c565b600c8481548110613eef57613eef614820565b60009182526020909120600490910201600101546112d39190600160a81b90046001600160401b0316614a63565b613f486040518060800160405280600081526020016000815260200160008152602001600081525090565b7f000000000000000000000000000000000000000000000000000000000000000060075485613f779190614a63565b613f819190614a98565b81602001818151613f929190614adb565b9052506008547f000000000000000000000000000000000000000000000000000000000000000090613fc49086614a63565b613fce9190614a98565b81604001818151613fdf9190614adb565b9052506001600160a01b038216600090815260036020526040902060010154156140db576001600160a01b0382166000908152600360205260408120600101547f00000000000000000000000000000000000000000000000000000000000000009061404b9087614a63565b6140559190614a98565b6001600160a01b038416600090815260036020526040902054909150811061409a576001600160a01b03831660009081526003602052604090205460608301526140a2565b606082018190525b60608201516001600160a01b038416600090815260036020526040812080549091906140cf908490614939565b909155506141cc915050565b6001600160a01b03831660009081526004602090815260409182902082518084019093528054808452600190910154918301919091521561417f5780517f0000000000000000000000000000000000000000000000000000000000000000906141449087614a63565b61414e9190614a98565b8083526001600160a01b03851660009081526002602052604081208054909190614179908490614adb565b90915550505b6020810151156141ca577f00000000000000000000000000000000000000000000000000000000000000008160200151866141ba9190614a63565b6141c49190614a98565b60608301525b505b9392505050565b6000614228826040518060400160405280602081526020017f5361666545524332303a206c6f772d6c6576656c2063616c6c206661696c6564815250856001600160a01b03166142b89092919063ffffffff16565b805190915015613e1f57808060200190518101906142469190614b1b565b613e1f5760405162461bcd60e51b815260206004820152602a60248201527f5361666545524332303a204552433230206f7065726174696f6e20646964206e60448201527f6f74207375636365656400000000000000000000000000000000000000000000606482015260840161092e565b60606115de848460008585843b6143115760405162461bcd60e51b815260206004820152601d60248201527f416464726573733a2063616c6c20746f206e6f6e2d636f6e7472616374000000604482015260640161092e565b600080866001600160a01b0316858760405161432d9190614c10565b60006040518083038185875af1925050503d806000811461436a576040519150601f19603f3d011682016040523d82523d6000602084013e61436f565b606091505b509150915061437f82828661438a565b979650505050505050565b606083156143995750816141cc565b8251156143a95782518084602001fd5b8160405162461bcd60e51b815260040161092e9190614c2c565b6001600160a01b03811681146143d857600080fd5b50565b6000602082840312156143ed57600080fd5b81356141cc816143c3565b60006020828403121561440a57600080fd5b5035919050565b634e487b7160e01b600052604160045260246000fd5b604080519081016001600160401b038111828210171561444957614449614411565b60405290565b604051601f8201601f191681016001600160401b038111828210171561447757614477614411565b604052919050565b6000604051606081018181106001600160401b03821117156144a3576144a3614411565b60405290508060608301848111156144ba57600080fd5b835b818110156144d45780358352602092830192016144bc565b50505092915050565b80151581146143d857600080fd5b600082601f8301126144fc57600080fd5b614504614427565b80604084018581111561451657600080fd5b845b8181101561150b578035845260209384019301614518565b600082601f83011261454157600080fd5b614549614427565b80604084018581111561455b57600080fd5b845b8181101561150b57803563ffffffff8116811461457a5760008081fd5b84526020938401930161455d565b600080600080600061014086880312156145a157600080fd5b85356145ac816143c3565b94506020603f870188136145bf57600080fd5b6145cb8882890161447f565b945087609f8801126145dc57600080fd5b6145e4614427565b8060c089018a8111156145f657600080fd5b60808a015b8181101561461b57803561460e816144dd565b84529284019284016145fb565b508196506146298b826144eb565b95505050505061463d876101008801614530565b90509295509295909350565b6020808252825182820181905260009190848201906040850190845b8181101561468157835183529284019291840191600101614665565b50909695505050505050565b600080604083850312156146a057600080fd5b50508035926020909101359150565b600080600080600060a086880312156146c757600080fd5b85359450602086013593506040860135925060608601356146e7816143c3565b915060808601356146f7816143c3565b809150509295509295909350565b6000806040838503121561471857600080fd5b8235614723816143c3565b946020939093013593505050565b60008060006060848603121561474657600080fd5b8335614751816143c3565b95602085013595506040909401359392505050565b6000806040838503121561477957600080fd5b8235614784816143c3565b91506020838101356001600160401b03808211156147a157600080fd5b818601915086601f8301126147b557600080fd5b8135818111156147c7576147c7614411565b8060051b91506147d884830161444f565b81815291830184019184810190898411156147f257600080fd5b938501935b83851015614810578435825293850193908501906147f7565b8096505050505050509250929050565b634e487b7160e01b600052603260045260246000fd5b634e487b7160e01b600052601160045260246000fd5b60006001600160401b038381169083168181101561486c5761486c614836565b039392505050565b60006020828403121561488657600080fd5b81516141cc816143c3565b600060208083526000845481600182811c9150808316806148b357607f831692505b8583108114156148d157634e487b7160e01b85526022600452602485fd5b8786018381526020018180156148ee57600181146148ff5761492a565b60ff1986168252878201965061492a565b60008b81526020902060005b868110156149245781548482015290850190890161490b565b83019750505b50949998505050505050505050565b60008282101561494b5761494b614836565b500390565b60006020828403121561496257600080fd5b815160ff811681146141cc57600080fd5b600181815b808511156149ae57816000190482111561499457614994614836565b808516156149a157918102915b93841c9390800290614978565b509250929050565b6000826149c5575060016111ca565b816149d2575060006111ca565b81600181146149e857600281146149f257614a0e565b60019150506111ca565b60ff841115614a0357614a03614836565b50506001821b6111ca565b5060208310610133831016604e8410600b8410161715614a31575081810a6111ca565b614a3b8383614973565b8060001904821115614a4f57614a4f614836565b029392505050565b60006141cc83836149b6565b6000816000190483118215151615614a7d57614a7d614836565b500290565b634e487b7160e01b600052601260045260246000fd5b600082614aa757614aa7614a82565b500490565b60006001600160401b0380831681851681830481118215151615614ad257614ad2614836565b02949350505050565b60008219821115614aee57614aee614836565b500190565b600060208284031215614b0557600080fd5b5051919050565b60006141cc60ff8416836149b6565b600060208284031215614b2d57600080fd5b81516141cc816144dd565b6000600019821415614b4c57614b4c614836565b5060010190565b600065ffffffffffff808316818516808303821115614b7457614b74614836565b01949350505050565b60006001600160401b03808316818516808303821115614b7457614b74614836565b600065ffffffffffff8381169083168181101561486c5761486c614836565b60006001600160401b0380841680614bd857614bd8614a82565b92169190910492915050565b60005b83811015614bff578181015183820152602001614be7565b838111156133fb5750506000910152565b60008251614c22818460208701614be4565b9190910192915050565b6020815260008251806020840152614c4b816040850160208701614be4565b601f01601f1916919091016040019291505056fea164736f6c634300080a000a",
  "devdoc": {
    "kind": "dev",
    "methods": {
      "close(uint256)": {
        "params": {
          "_id": "ID of market to close"
        }
      },
      "create(address,uint256[3],bool[2],uint256[2],uint32[2])": {
        "details": "current price should be in 9 decimals.",
        "params": {
          "_booleans": "[capacity in quote, fixed term]",
          "_intervals": "[deposit interval (seconds), tune interval (seconds)]",
          "_market": "[capacity (in HECTA or quote), initial price / HECTA (9 decimals), debt buffer (3 decimals)]",
          "_quoteToken": "token used to deposit",
          "_terms": "[vesting length (if fixed term) or vested timestamp, conclusion timestamp]"
        },
        "returns": {
          "id_": "        ID of new bond market"
        }
      },
      "currentControlVariable(uint256)": {
        "details": "accounts for control variable adjustment",
        "params": {
          "_id": "ID of market"
        },
        "returns": {
          "_0": "control variable for market in HECTA decimals"
        }
      },
      "currentDebt(uint256)": {
        "details": "accounts for debt decay since last deposit",
        "params": {
          "_id": "ID of market"
        },
        "returns": {
          "_0": "current debt for market in HECTA decimals"
        }
      },
      "debtDecay(uint256)": {
        "params": {
          "_id": "ID of market"
        },
        "returns": {
          "_0": "amount of debt to decay"
        }
      },
      "debtRatio(uint256)": {
        "details": "uses current debt, which accounts for debt decay since last deposit (vs _debtRatio())",
        "params": {
          "_id": "ID of market"
        },
        "returns": {
          "_0": "debt ratio for market in quote decimals"
        }
      },
      "deposit(uint256,uint256,uint256,address,address)": {
        "params": {
          "_amount": "the amount of quote token to spend",
          "_id": "the ID of the market",
          "_maxPrice": "the maximum price at which to buy",
          "_referral": "the front end operator address",
          "_user": "the recipient of the payout"
        }
      },
      "indexesFor(address)": {
        "params": {
          "_user": "the user to query notes for"
        },
        "returns": {
          "_0": "the pending notes for the user"
        }
      },
      "isLive(uint256)": {
        "params": {
          "_id": "ID of market"
        }
      },
      "liveMarketsFor(address)": {
        "params": {
          "_token": "quote token to check for"
        }
      },
      "marketPrice(uint256)": {
        "details": "accounts for debt and control variable decay since last deposit (vs _marketPrice())",
        "params": {
          "_id": "ID of market"
        },
        "returns": {
          "_0": "price for market in HECTA decimals price is derived from the equation p = cv * dr where p = price cv = control variable dr = debt ratio dr = d / s where d = debt s = supply of token at market creation d -= ( d * (dt / l) ) where dt = change in time l = length of program"
        }
      },
      "payoutFor(uint256,uint256)": {
        "details": "accounts for debt and control variable decay so it is up to date1e18 = hecta decimals (9) + market price decimals (9)",
        "params": {
          "_amount": "amount of quote tokens to spend",
          "_id": "ID of market"
        },
        "returns": {
          "_0": "amount of HECTA to be paid in HECTA decimals"
        }
      },
      "pendingFor(address,uint256)": {
        "params": {
          "_index": "the index of the note in the user's array",
          "_user": "the user that the note belongs to"
        },
        "returns": {
          "matured_": "   if the payout can be redeemed",
          "payout_": "    the payout due, in gHECTA"
        }
      },
      "pullNote(address,uint256)": {
        "params": {
          "_from": "the address that approved the note transfer",
          "_index": "the index of the note to transfer (in the sender's array)"
        }
      },
      "pushNote(address,uint256)": {
        "params": {
          "_index": "index of note to approve transfer for",
          "_to": "address to approve note transfer for"
        }
      },
      "redeem(address,uint256[])": {
        "params": {
          "_indexes": "the note indexes to redeem",
          "_user": "the user to redeem for"
        },
        "returns": {
          "payout_": "    sum of payout sent, in gHECTA"
        }
      },
      "redeemAll(address)": {
        "details": "if possible, query indexesFor() off-chain and input in redeem() to save gas",
        "params": {
          "_user": "user to redeem all notes for"
        },
        "returns": {
          "_0": "sum of payout sent, in gHECTA"
        }
      },
      "setPayoutCap(uint256)": {
        "params": {
          "payoutCap_": "ID of market to close"
        }
      }
    },
    "title": "Hectagon Bond Depository V2",
    "version": 1
  },
  "userdoc": {
    "kind": "user",
    "methods": {
      "close(uint256)": {
        "notice": "disable existing market"
      },
      "create(address,uint256[3],bool[2],uint256[2],uint32[2])": {
        "notice": "creates a new market type"
      },
      "currentControlVariable(uint256)": {
        "notice": "up to date control variable"
      },
      "currentDebt(uint256)": {
        "notice": "calculate debt factoring in decay"
      },
      "debtDecay(uint256)": {
        "notice": "amount of debt to decay from total debt for market ID"
      },
      "debtRatio(uint256)": {
        "notice": "calculate current ratio of debt to supply"
      },
      "deposit(uint256,uint256,uint256,address,address)": {
        "notice": "deposit quote tokens in exchange for a bond from a specified market"
      },
      "indexesFor(address)": {
        "notice": "all pending notes for user"
      },
      "isLive(uint256)": {
        "notice": "is a given market accepting deposits"
      },
      "liveMarkets()": {
        "notice": "returns an array of all active market IDs"
      },
      "liveMarketsFor(address)": {
        "notice": "returns an array of all active market IDs for a given quote token"
      },
      "marketPrice(uint256)": {
        "notice": "calculate current market price of quote token in base token"
      },
      "payoutFor(uint256,uint256)": {
        "notice": "payout due for amount of quote tokens"
      },
      "pendingFor(address,uint256)": {
        "notice": "calculate amount available for claim for a single note"
      },
      "pullNote(address,uint256)": {
        "notice": "transfer a note that has been approved by an address"
      },
      "pushNote(address,uint256)": {
        "notice": "approve an address to transfer a note"
      },
      "redeem(address,uint256[])": {
        "notice": "redeem notes for user"
      },
      "redeemAll(address)": {
        "notice": "redeem all redeemable markets for user"
      },
      "setPartnerTerm(address,uint256,uint256)": {
        "notice": "set partner term"
      },
      "setPartnerTermCap(uint256)": {
        "notice": "set Cap for referrer % reward"
      },
      "setPayoutCap(uint256)": {
        "notice": "set totalPayoutCap"
      },
      "setReferTerm(address,uint256,uint256)": {
        "notice": "set referrer term"
      },
      "setReferTermCap(uint256)": {
        "notice": "set Cap for referrer % reward"
      }
    },
    "version": 1
  },
  "storageLayout": {
    "storage": [
      {
        "astId": 11647,
        "contract": "contracts/BondDepository.sol:HectagonBondDepositoryV2",
        "label": "UNAUTHORIZED",
        "offset": 0,
        "slot": "0",
        "type": "t_string_storage"
      },
      {
        "astId": 11650,
        "contract": "contracts/BondDepository.sol:HectagonBondDepositoryV2",
        "label": "authority",
        "offset": 0,
        "slot": "1",
        "type": "t_contract(IHectagonAuthority)8121"
      },
      {
        "astId": 11298,
        "contract": "contracts/BondDepository.sol:HectagonBondDepositoryV2",
        "label": "rewards",
        "offset": 0,
        "slot": "2",
        "type": "t_mapping(t_address,t_uint256)"
      },
      {
        "astId": 11303,
        "contract": "contracts/BondDepository.sol:HectagonBondDepositoryV2",
        "label": "partnerTerms",
        "offset": 0,
        "slot": "3",
        "type": "t_mapping(t_address,t_struct(PartnerTerm)11294_storage)"
      },
      {
        "astId": 11308,
        "contract": "contracts/BondDepository.sol:HectagonBondDepositoryV2",
        "label": "referTerms",
        "offset": 0,
        "slot": "4",
        "type": "t_mapping(t_address,t_struct(ReferTerm)11289_storage)"
      },
      {
        "astId": 11311,
        "contract": "contracts/BondDepository.sol:HectagonBondDepositoryV2",
        "label": "referTermCap",
        "offset": 0,
        "slot": "5",
        "type": "t_uint256"
      },
      {
        "astId": 11314,
        "contract": "contracts/BondDepository.sol:HectagonBondDepositoryV2",
        "label": "partnerTermCap",
        "offset": 0,
        "slot": "6",
        "type": "t_uint256"
      },
      {
        "astId": 11317,
        "contract": "contracts/BondDepository.sol:HectagonBondDepositoryV2",
        "label": "daoInvestmentPercent",
        "offset": 0,
        "slot": "7",
        "type": "t_uint256"
      },
      {
        "astId": 11320,
        "contract": "contracts/BondDepository.sol:HectagonBondDepositoryV2",
        "label": "daoCommunityPercent",
        "offset": 0,
        "slot": "8",
        "type": "t_uint256"
      },
      {
        "astId": 11756,
        "contract": "contracts/BondDepository.sol:HectagonBondDepositoryV2",
        "label": "notes",
        "offset": 0,
        "slot": "9",
        "type": "t_mapping(t_address,t_array(t_struct(Note)8134_storage)dyn_storage)"
      },
      {
        "astId": 11762,
        "contract": "contracts/BondDepository.sol:HectagonBondDepositoryV2",
        "label": "noteTransfers",
        "offset": 0,
        "slot": "10",
        "type": "t_mapping(t_address,t_mapping(t_uint256,t_address))"
      },
      {
        "astId": 11771,
        "contract": "contracts/BondDepository.sol:HectagonBondDepositoryV2",
        "label": "treasury",
        "offset": 0,
        "slot": "11",
        "type": "t_contract(ITreasury)8285"
      },
      {
        "astId": 2539,
        "contract": "contracts/BondDepository.sol:HectagonBondDepositoryV2",
        "label": "markets",
        "offset": 0,
        "slot": "12",
        "type": "t_array(t_struct(Market)7799_storage)dyn_storage"
      },
      {
        "astId": 2543,
        "contract": "contracts/BondDepository.sol:HectagonBondDepositoryV2",
        "label": "terms",
        "offset": 0,
        "slot": "13",
        "type": "t_array(t_struct(Terms)7810_storage)dyn_storage"
      },
      {
        "astId": 2547,
        "contract": "contracts/BondDepository.sol:HectagonBondDepositoryV2",
        "label": "metadata",
        "offset": 0,
        "slot": "14",
        "type": "t_array(t_struct(Metadata)7823_storage)dyn_storage"
      },
      {
        "astId": 2552,
        "contract": "contracts/BondDepository.sol:HectagonBondDepositoryV2",
        "label": "adjustments",
        "offset": 0,
        "slot": "15",
        "type": "t_mapping(t_uint256,t_struct(Adjustment)7832_storage)"
      },
      {
        "astId": 2554,
        "contract": "contracts/BondDepository.sol:HectagonBondDepositoryV2",
        "label": "totalPayout",
        "offset": 0,
        "slot": "16",
        "type": "t_uint256"
      },
      {
        "astId": 2559,
        "contract": "contracts/BondDepository.sol:HectagonBondDepositoryV2",
        "label": "payoutCap",
        "offset": 0,
        "slot": "17",
        "type": "t_uint256"
      },
      {
        "astId": 2564,
        "contract": "contracts/BondDepository.sol:HectagonBondDepositoryV2",
        "label": "marketsForQuote",
        "offset": 0,
        "slot": "18",
        "type": "t_mapping(t_address,t_array(t_uint256)dyn_storage)"
      }
    ],
    "types": {
      "t_address": {
        "encoding": "inplace",
        "label": "address",
        "numberOfBytes": "20"
      },
      "t_array(t_struct(Market)7799_storage)dyn_storage": {
        "base": "t_struct(Market)7799_storage",
        "encoding": "dynamic_array",
        "label": "struct IBondDepository.Market[]",
        "numberOfBytes": "32"
      },
      "t_array(t_struct(Metadata)7823_storage)dyn_storage": {
        "base": "t_struct(Metadata)7823_storage",
        "encoding": "dynamic_array",
        "label": "struct IBondDepository.Metadata[]",
        "numberOfBytes": "32"
      },
      "t_array(t_struct(Note)8134_storage)dyn_storage": {
        "base": "t_struct(Note)8134_storage",
        "encoding": "dynamic_array",
        "label": "struct INoteKeeper.Note[]",
        "numberOfBytes": "32"
      },
      "t_array(t_struct(Terms)7810_storage)dyn_storage": {
        "base": "t_struct(Terms)7810_storage",
        "encoding": "dynamic_array",
        "label": "struct IBondDepository.Terms[]",
        "numberOfBytes": "32"
      },
      "t_array(t_uint256)dyn_storage": {
        "base": "t_uint256",
        "encoding": "dynamic_array",
        "label": "uint256[]",
        "numberOfBytes": "32"
      },
      "t_bool": {
        "encoding": "inplace",
        "label": "bool",
        "numberOfBytes": "1"
      },
      "t_contract(IERC20)820": {
        "encoding": "inplace",
        "label": "contract IERC20",
        "numberOfBytes": "20"
      },
      "t_contract(IHectagonAuthority)8121": {
        "encoding": "inplace",
        "label": "contract IHectagonAuthority",
        "numberOfBytes": "20"
      },
      "t_contract(ITreasury)8285": {
        "encoding": "inplace",
        "label": "contract ITreasury",
        "numberOfBytes": "20"
      },
      "t_mapping(t_address,t_array(t_struct(Note)8134_storage)dyn_storage)": {
        "encoding": "mapping",
        "key": "t_address",
        "label": "mapping(address => struct INoteKeeper.Note[])",
        "numberOfBytes": "32",
        "value": "t_array(t_struct(Note)8134_storage)dyn_storage"
      },
      "t_mapping(t_address,t_array(t_uint256)dyn_storage)": {
        "encoding": "mapping",
        "key": "t_address",
        "label": "mapping(address => uint256[])",
        "numberOfBytes": "32",
        "value": "t_array(t_uint256)dyn_storage"
      },
      "t_mapping(t_address,t_mapping(t_uint256,t_address))": {
        "encoding": "mapping",
        "key": "t_address",
        "label": "mapping(address => mapping(uint256 => address))",
        "numberOfBytes": "32",
        "value": "t_mapping(t_uint256,t_address)"
      },
      "t_mapping(t_address,t_struct(PartnerTerm)11294_storage)": {
        "encoding": "mapping",
        "key": "t_address",
        "label": "mapping(address => struct FrontEndRewarder.PartnerTerm)",
        "numberOfBytes": "32",
        "value": "t_struct(PartnerTerm)11294_storage"
      },
      "t_mapping(t_address,t_struct(ReferTerm)11289_storage)": {
        "encoding": "mapping",
        "key": "t_address",
        "label": "mapping(address => struct FrontEndRewarder.ReferTerm)",
        "numberOfBytes": "32",
        "value": "t_struct(ReferTerm)11289_storage"
      },
      "t_mapping(t_address,t_uint256)": {
        "encoding": "mapping",
        "key": "t_address",
        "label": "mapping(address => uint256)",
        "numberOfBytes": "32",
        "value": "t_uint256"
      },
      "t_mapping(t_uint256,t_address)": {
        "encoding": "mapping",
        "key": "t_uint256",
        "label": "mapping(uint256 => address)",
        "numberOfBytes": "32",
        "value": "t_address"
      },
      "t_mapping(t_uint256,t_struct(Adjustment)7832_storage)": {
        "encoding": "mapping",
        "key": "t_uint256",
        "label": "mapping(uint256 => struct IBondDepository.Adjustment)",
        "numberOfBytes": "32",
        "value": "t_struct(Adjustment)7832_storage"
      },
      "t_string_storage": {
        "encoding": "bytes",
        "label": "string",
        "numberOfBytes": "32"
      },
      "t_struct(Adjustment)7832_storage": {
        "encoding": "inplace",
        "label": "struct IBondDepository.Adjustment",
        "members": [
          {
            "astId": 7825,
            "contract": "contracts/BondDepository.sol:HectagonBondDepositoryV2",
            "label": "change",
            "offset": 0,
            "slot": "0",
            "type": "t_uint64"
          },
          {
            "astId": 7827,
            "contract": "contracts/BondDepository.sol:HectagonBondDepositoryV2",
            "label": "lastAdjustment",
            "offset": 8,
            "slot": "0",
            "type": "t_uint48"
          },
          {
            "astId": 7829,
            "contract": "contracts/BondDepository.sol:HectagonBondDepositoryV2",
            "label": "timeToAdjusted",
            "offset": 14,
            "slot": "0",
            "type": "t_uint48"
          },
          {
            "astId": 7831,
            "contract": "contracts/BondDepository.sol:HectagonBondDepositoryV2",
            "label": "active",
            "offset": 20,
            "slot": "0",
            "type": "t_bool"
          }
        ],
        "numberOfBytes": "32"
      },
      "t_struct(Market)7799_storage": {
        "encoding": "inplace",
        "label": "struct IBondDepository.Market",
        "members": [
          {
            "astId": 7785,
            "contract": "contracts/BondDepository.sol:HectagonBondDepositoryV2",
            "label": "capacity",
            "offset": 0,
            "slot": "0",
            "type": "t_uint256"
          },
          {
            "astId": 7788,
            "contract": "contracts/BondDepository.sol:HectagonBondDepositoryV2",
            "label": "quoteToken",
            "offset": 0,
            "slot": "1",
            "type": "t_contract(IERC20)820"
          },
          {
            "astId": 7790,
            "contract": "contracts/BondDepository.sol:HectagonBondDepositoryV2",
            "label": "capacityInQuote",
            "offset": 20,
            "slot": "1",
            "type": "t_bool"
          },
          {
            "astId": 7792,
            "contract": "contracts/BondDepository.sol:HectagonBondDepositoryV2",
            "label": "totalDebt",
            "offset": 21,
            "slot": "1",
            "type": "t_uint64"
          },
          {
            "astId": 7794,
            "contract": "contracts/BondDepository.sol:HectagonBondDepositoryV2",
            "label": "maxPayout",
            "offset": 0,
            "slot": "2",
            "type": "t_uint64"
          },
          {
            "astId": 7796,
            "contract": "contracts/BondDepository.sol:HectagonBondDepositoryV2",
            "label": "sold",
            "offset": 8,
            "slot": "2",
            "type": "t_uint64"
          },
          {
            "astId": 7798,
            "contract": "contracts/BondDepository.sol:HectagonBondDepositoryV2",
            "label": "purchased",
            "offset": 0,
            "slot": "3",
            "type": "t_uint256"
          }
        ],
        "numberOfBytes": "128"
      },
      "t_struct(Metadata)7823_storage": {
        "encoding": "inplace",
        "label": "struct IBondDepository.Metadata",
        "members": [
          {
            "astId": 7812,
            "contract": "contracts/BondDepository.sol:HectagonBondDepositoryV2",
            "label": "lastTune",
            "offset": 0,
            "slot": "0",
            "type": "t_uint48"
          },
          {
            "astId": 7814,
            "contract": "contracts/BondDepository.sol:HectagonBondDepositoryV2",
            "label": "lastDecay",
            "offset": 6,
            "slot": "0",
            "type": "t_uint48"
          },
          {
            "astId": 7816,
            "contract": "contracts/BondDepository.sol:HectagonBondDepositoryV2",
            "label": "length",
            "offset": 12,
            "slot": "0",
            "type": "t_uint48"
          },
          {
            "astId": 7818,
            "contract": "contracts/BondDepository.sol:HectagonBondDepositoryV2",
            "label": "depositInterval",
            "offset": 18,
            "slot": "0",
            "type": "t_uint48"
          },
          {
            "astId": 7820,
            "contract": "contracts/BondDepository.sol:HectagonBondDepositoryV2",
            "label": "tuneInterval",
            "offset": 24,
            "slot": "0",
            "type": "t_uint48"
          },
          {
            "astId": 7822,
            "contract": "contracts/BondDepository.sol:HectagonBondDepositoryV2",
            "label": "quoteDecimals",
            "offset": 30,
            "slot": "0",
            "type": "t_uint8"
          }
        ],
        "numberOfBytes": "32"
      },
      "t_struct(Note)8134_storage": {
        "encoding": "inplace",
        "label": "struct INoteKeeper.Note",
        "members": [
          {
            "astId": 8125,
            "contract": "contracts/BondDepository.sol:HectagonBondDepositoryV2",
            "label": "payout",
            "offset": 0,
            "slot": "0",
            "type": "t_uint256"
          },
          {
            "astId": 8127,
            "contract": "contracts/BondDepository.sol:HectagonBondDepositoryV2",
            "label": "created",
            "offset": 0,
            "slot": "1",
            "type": "t_uint48"
          },
          {
            "astId": 8129,
            "contract": "contracts/BondDepository.sol:HectagonBondDepositoryV2",
            "label": "matured",
            "offset": 6,
            "slot": "1",
            "type": "t_uint48"
          },
          {
            "astId": 8131,
            "contract": "contracts/BondDepository.sol:HectagonBondDepositoryV2",
            "label": "redeemed",
            "offset": 12,
            "slot": "1",
            "type": "t_uint48"
          },
          {
            "astId": 8133,
            "contract": "contracts/BondDepository.sol:HectagonBondDepositoryV2",
            "label": "marketID",
            "offset": 18,
            "slot": "1",
            "type": "t_uint48"
          }
        ],
        "numberOfBytes": "64"
      },
      "t_struct(PartnerTerm)11294_storage": {
        "encoding": "inplace",
        "label": "struct FrontEndRewarder.PartnerTerm",
        "members": [
          {
            "astId": 11291,
            "contract": "contracts/BondDepository.sol:HectagonBondDepositoryV2",
            "label": "amount",
            "offset": 0,
            "slot": "0",
            "type": "t_uint256"
          },
          {
            "astId": 11293,
            "contract": "contracts/BondDepository.sol:HectagonBondDepositoryV2",
            "label": "percent",
            "offset": 0,
            "slot": "1",
            "type": "t_uint256"
          }
        ],
        "numberOfBytes": "64"
      },
      "t_struct(ReferTerm)11289_storage": {
        "encoding": "inplace",
        "label": "struct FrontEndRewarder.ReferTerm",
        "members": [
          {
            "astId": 11286,
            "contract": "contracts/BondDepository.sol:HectagonBondDepositoryV2",
            "label": "referrerPercent",
            "offset": 0,
            "slot": "0",
            "type": "t_uint256"
          },
          {
            "astId": 11288,
            "contract": "contracts/BondDepository.sol:HectagonBondDepositoryV2",
            "label": "buyerPercent",
            "offset": 0,
            "slot": "1",
            "type": "t_uint256"
          }
        ],
        "numberOfBytes": "64"
      },
      "t_struct(Terms)7810_storage": {
        "encoding": "inplace",
        "label": "struct IBondDepository.Terms",
        "members": [
          {
            "astId": 7801,
            "contract": "contracts/BondDepository.sol:HectagonBondDepositoryV2",
            "label": "fixedTerm",
            "offset": 0,
            "slot": "0",
            "type": "t_bool"
          },
          {
            "astId": 7803,
            "contract": "contracts/BondDepository.sol:HectagonBondDepositoryV2",
            "label": "controlVariable",
            "offset": 1,
            "slot": "0",
            "type": "t_uint64"
          },
          {
            "astId": 7805,
            "contract": "contracts/BondDepository.sol:HectagonBondDepositoryV2",
            "label": "vesting",
            "offset": 9,
            "slot": "0",
            "type": "t_uint48"
          },
          {
            "astId": 7807,
            "contract": "contracts/BondDepository.sol:HectagonBondDepositoryV2",
            "label": "conclusion",
            "offset": 15,
            "slot": "0",
            "type": "t_uint48"
          },
          {
            "astId": 7809,
            "contract": "contracts/BondDepository.sol:HectagonBondDepositoryV2",
            "label": "maxDebt",
            "offset": 21,
            "slot": "0",
            "type": "t_uint64"
          }
        ],
        "numberOfBytes": "32"
      },
      "t_uint256": {
        "encoding": "inplace",
        "label": "uint256",
        "numberOfBytes": "32"
      },
      "t_uint48": {
        "encoding": "inplace",
        "label": "uint48",
        "numberOfBytes": "6"
      },
      "t_uint64": {
        "encoding": "inplace",
        "label": "uint64",
        "numberOfBytes": "8"
      },
      "t_uint8": {
        "encoding": "inplace",
        "label": "uint8",
        "numberOfBytes": "1"
      }
    }
  }
}