{
  "address": "0xD45Ec360673aaA5e0efA286B193cf0f595F794Bf",
  "abi": [
    {
      "inputs": [],
      "stateMutability": "nonpayable",
      "type": "constructor"
    },
    {
      "anonymous": false,
      "inputs": [
        {
          "indexed": true,
          "internalType": "address",
          "name": "owner",
          "type": "address"
        },
        {
          "indexed": true,
          "internalType": "address",
          "name": "spender",
          "type": "address"
        },
        {
          "indexed": false,
          "internalType": "uint256",
          "name": "value",
          "type": "uint256"
        }
      ],
      "name": "Approval",
      "type": "event"
    },
    {
      "anonymous": false,
      "inputs": [
        {
          "indexed": true,
          "internalType": "uint256",
          "name": "epoch",
          "type": "uint256"
        },
        {
          "indexed": false,
          "internalType": "uint256",
          "name": "rebase",
          "type": "uint256"
        },
        {
          "indexed": false,
          "internalType": "uint256",
          "name": "index",
          "type": "uint256"
        }
      ],
      "name": "LogRebase",
      "type": "event"
    },
    {
      "anonymous": false,
      "inputs": [
        {
          "indexed": false,
          "internalType": "address",
          "name": "stakingContract",
          "type": "address"
        }
      ],
      "name": "LogStakingContractUpdated",
      "type": "event"
    },
    {
      "anonymous": false,
      "inputs": [
        {
          "indexed": true,
          "internalType": "uint256",
          "name": "epoch",
          "type": "uint256"
        },
        {
          "indexed": false,
          "internalType": "uint256",
          "name": "totalSupply",
          "type": "uint256"
        }
      ],
      "name": "LogSupply",
      "type": "event"
    },
    {
      "anonymous": false,
      "inputs": [
        {
          "indexed": true,
          "internalType": "address",
          "name": "from",
          "type": "address"
        },
        {
          "indexed": true,
          "internalType": "address",
          "name": "to",
          "type": "address"
        },
        {
          "indexed": false,
          "internalType": "uint256",
          "name": "value",
          "type": "uint256"
        }
      ],
      "name": "Transfer",
      "type": "event"
    },
    {
      "inputs": [],
      "name": "DOMAIN_SEPARATOR",
      "outputs": [
        {
          "internalType": "bytes32",
          "name": "",
          "type": "bytes32"
        }
      ],
      "stateMutability": "view",
      "type": "function"
    },
    {
      "inputs": [
        {
          "internalType": "address",
          "name": "owner_",
          "type": "address"
        },
        {
          "internalType": "address",
          "name": "spender",
          "type": "address"
        }
      ],
      "name": "allowance",
      "outputs": [
        {
          "internalType": "uint256",
          "name": "",
          "type": "uint256"
        }
      ],
      "stateMutability": "view",
      "type": "function"
    },
    {
      "inputs": [
        {
          "internalType": "address",
          "name": "spender",
          "type": "address"
        },
        {
          "internalType": "uint256",
          "name": "value",
          "type": "uint256"
        }
      ],
      "name": "approve",
      "outputs": [
        {
          "internalType": "bool",
          "name": "",
          "type": "bool"
        }
      ],
      "stateMutability": "nonpayable",
      "type": "function"
    },
    {
      "inputs": [
        {
          "internalType": "uint256",
          "name": "gons",
          "type": "uint256"
        }
      ],
      "name": "balanceForGons",
      "outputs": [
        {
          "internalType": "uint256",
          "name": "",
          "type": "uint256"
        }
      ],
      "stateMutability": "view",
      "type": "function"
    },
    {
      "inputs": [
        {
          "internalType": "address",
          "name": "who",
          "type": "address"
        }
      ],
      "name": "balanceOf",
      "outputs": [
        {
          "internalType": "uint256",
          "name": "",
          "type": "uint256"
        }
      ],
      "stateMutability": "view",
      "type": "function"
    },
    {
      "inputs": [],
      "name": "circulatingSupply",
      "outputs": [
        {
          "internalType": "uint256",
          "name": "",
          "type": "uint256"
        }
      ],
      "stateMutability": "view",
      "type": "function"
    },
    {
      "inputs": [],
      "name": "decimals",
      "outputs": [
        {
          "internalType": "uint8",
          "name": "",
          "type": "uint8"
        }
      ],
      "stateMutability": "view",
      "type": "function"
    },
    {
      "inputs": [
        {
          "internalType": "address",
          "name": "spender",
          "type": "address"
        },
        {
          "internalType": "uint256",
          "name": "subtractedValue",
          "type": "uint256"
        }
      ],
      "name": "decreaseAllowance",
      "outputs": [
        {
          "internalType": "bool",
          "name": "",
          "type": "bool"
        }
      ],
      "stateMutability": "nonpayable",
      "type": "function"
    },
    {
      "inputs": [
        {
          "internalType": "uint256",
          "name": "amount",
          "type": "uint256"
        }
      ],
      "name": "fromG",
      "outputs": [
        {
          "internalType": "uint256",
          "name": "",
          "type": "uint256"
        }
      ],
      "stateMutability": "view",
      "type": "function"
    },
    {
      "inputs": [],
      "name": "gHECTA",
      "outputs": [
        {
          "internalType": "contract IgHECTA",
          "name": "",
          "type": "address"
        }
      ],
      "stateMutability": "view",
      "type": "function"
    },
    {
      "inputs": [
        {
          "internalType": "uint256",
          "name": "amount",
          "type": "uint256"
        }
      ],
      "name": "gonsForBalance",
      "outputs": [
        {
          "internalType": "uint256",
          "name": "",
          "type": "uint256"
        }
      ],
      "stateMutability": "view",
      "type": "function"
    },
    {
      "inputs": [
        {
          "internalType": "address",
          "name": "spender",
          "type": "address"
        },
        {
          "internalType": "uint256",
          "name": "addedValue",
          "type": "uint256"
        }
      ],
      "name": "increaseAllowance",
      "outputs": [
        {
          "internalType": "bool",
          "name": "",
          "type": "bool"
        }
      ],
      "stateMutability": "nonpayable",
      "type": "function"
    },
    {
      "inputs": [],
      "name": "index",
      "outputs": [
        {
          "internalType": "uint256",
          "name": "",
          "type": "uint256"
        }
      ],
      "stateMutability": "view",
      "type": "function"
    },
    {
      "inputs": [
        {
          "internalType": "address",
          "name": "_stakingContract",
          "type": "address"
        },
        {
          "internalType": "address",
          "name": "_treasury",
          "type": "address"
        }
      ],
      "name": "initialize",
      "outputs": [],
      "stateMutability": "nonpayable",
      "type": "function"
    },
    {
      "inputs": [],
      "name": "name",
      "outputs": [
        {
          "internalType": "string",
          "name": "",
          "type": "string"
        }
      ],
      "stateMutability": "view",
      "type": "function"
    },
    {
      "inputs": [
        {
          "internalType": "address",
          "name": "owner",
          "type": "address"
        }
      ],
      "name": "nonces",
      "outputs": [
        {
          "internalType": "uint256",
          "name": "",
          "type": "uint256"
        }
      ],
      "stateMutability": "view",
      "type": "function"
    },
    {
      "inputs": [
        {
          "internalType": "address",
          "name": "owner",
          "type": "address"
        },
        {
          "internalType": "address",
          "name": "spender",
          "type": "address"
        },
        {
          "internalType": "uint256",
          "name": "value",
          "type": "uint256"
        },
        {
          "internalType": "uint256",
          "name": "deadline",
          "type": "uint256"
        },
        {
          "internalType": "uint8",
          "name": "v",
          "type": "uint8"
        },
        {
          "internalType": "bytes32",
          "name": "r",
          "type": "bytes32"
        },
        {
          "internalType": "bytes32",
          "name": "s",
          "type": "bytes32"
        }
      ],
      "name": "permit",
      "outputs": [],
      "stateMutability": "nonpayable",
      "type": "function"
    },
    {
      "inputs": [
        {
          "internalType": "uint256",
          "name": "profit_",
          "type": "uint256"
        },
        {
          "internalType": "uint256",
          "name": "epoch_",
          "type": "uint256"
        }
      ],
      "name": "rebase",
      "outputs": [
        {
          "internalType": "uint256",
          "name": "",
          "type": "uint256"
        }
      ],
      "stateMutability": "nonpayable",
      "type": "function"
    },
    {
      "inputs": [
        {
          "internalType": "uint256",
          "name": "",
          "type": "uint256"
        }
      ],
      "name": "rebases",
      "outputs": [
        {
          "internalType": "uint256",
          "name": "epoch",
          "type": "uint256"
        },
        {
          "internalType": "uint256",
          "name": "rebase",
          "type": "uint256"
        },
        {
          "internalType": "uint256",
          "name": "totalStakedBefore",
          "type": "uint256"
        },
        {
          "internalType": "uint256",
          "name": "totalStakedAfter",
          "type": "uint256"
        },
        {
          "internalType": "uint256",
          "name": "amountRebased",
          "type": "uint256"
        },
        {
          "internalType": "uint256",
          "name": "index",
          "type": "uint256"
        },
        {
          "internalType": "uint256",
          "name": "blockNumberOccured",
          "type": "uint256"
        }
      ],
      "stateMutability": "view",
      "type": "function"
    },
    {
      "inputs": [
        {
          "internalType": "uint256",
          "name": "_index",
          "type": "uint256"
        }
      ],
      "name": "setIndex",
      "outputs": [],
      "stateMutability": "nonpayable",
      "type": "function"
    },
    {
      "inputs": [
        {
          "internalType": "address",
          "name": "_gHECTA",
          "type": "address"
        }
      ],
      "name": "setgHECTA",
      "outputs": [],
      "stateMutability": "nonpayable",
      "type": "function"
    },
    {
      "inputs": [],
      "name": "stakingContract",
      "outputs": [
        {
          "internalType": "address",
          "name": "",
          "type": "address"
        }
      ],
      "stateMutability": "view",
      "type": "function"
    },
    {
      "inputs": [],
      "name": "symbol",
      "outputs": [
        {
          "internalType": "string",
          "name": "",
          "type": "string"
        }
      ],
      "stateMutability": "view",
      "type": "function"
    },
    {
      "inputs": [
        {
          "internalType": "uint256",
          "name": "amount",
          "type": "uint256"
        }
      ],
      "name": "toG",
      "outputs": [
        {
          "internalType": "uint256",
          "name": "",
          "type": "uint256"
        }
      ],
      "stateMutability": "view",
      "type": "function"
    },
    {
      "inputs": [],
      "name": "totalSupply",
      "outputs": [
        {
          "internalType": "uint256",
          "name": "",
          "type": "uint256"
        }
      ],
      "stateMutability": "view",
      "type": "function"
    },
    {
      "inputs": [
        {
          "internalType": "address",
          "name": "to",
          "type": "address"
        },
        {
          "internalType": "uint256",
          "name": "value",
          "type": "uint256"
        }
      ],
      "name": "transfer",
      "outputs": [
        {
          "internalType": "bool",
          "name": "",
          "type": "bool"
        }
      ],
      "stateMutability": "nonpayable",
      "type": "function"
    },
    {
      "inputs": [
        {
          "internalType": "address",
          "name": "from",
          "type": "address"
        },
        {
          "internalType": "address",
          "name": "to",
          "type": "address"
        },
        {
          "internalType": "uint256",
          "name": "value",
          "type": "uint256"
        }
      ],
      "name": "transferFrom",
      "outputs": [
        {
          "internalType": "bool",
          "name": "",
          "type": "bool"
        }
      ],
      "stateMutability": "nonpayable",
      "type": "function"
    },
    {
      "inputs": [],
      "name": "treasury",
      "outputs": [
        {
          "internalType": "address",
          "name": "",
          "type": "address"
        }
      ],
      "stateMutability": "view",
      "type": "function"
    }
  ],
  "transactionHash": "0xaa8a5063203c1077aa2cb0d883a909fda2f0a949837be274f4c62b8727bdfdf9",
  "args": [],
  "solcInputHash": "af0988b3e7447ab5c03a65cbe9c46091",
  "bytecode": "0x6101606040527f6e71edae12b1b97f4d1f60370fef10105fa2faae0126114a169c64845d6126c9610140523480156200003757600080fd5b506040518060400160405280600c81526020016b5374616b656420484543544160a01b81525080604051806040016040528060018152602001603160f81b8152506040518060400160405280600c81526020016b5374616b656420484543544160a01b8152506040518060400160405280600681526020016573484543544160d01b8152508160039080519060200190620000d4929190620001d0565b508051620000ea906004906020840190620001d0565b5050825160208085019190912083518483012060e08290526101008190524660a0818152604080517f8b73c3c69bb8fe3d512ecc4cf759cc79239f7b179b0ffacaa9a75d522b39400f81880181905281830187905260608201869052608082019490945230818401528151808203909301835260c0019052805194019390932091935091906080523060c052610120525050600780546001600160a01b0319163317905550506611c37937e0800060068190559050620001ad816000196200028c565b620001bb90600019620002a3565b620001c79190620002c9565b600c556200031d565b828054620001de90620002e0565b90600052602060002090601f0160209004810192826200020257600085556200024d565b82601f106200021d57805160ff19168380011785556200024d565b828001600101855582156200024d579182015b828111156200024d57825182559160200191906001019062000230565b506200025b9291506200025f565b5090565b5b808211156200025b576000815560010162000260565b634e487b7160e01b600052601260045260246000fd5b6000826200029e576200029e62000276565b500690565b600082821015620002c457634e487b7160e01b600052601160045260246000fd5b500390565b600082620002db57620002db62000276565b500490565b600181811c90821680620002f557607f821691505b602082108114156200031757634e487b7160e01b600052602260045260246000fd5b50919050565b60805160a05160c05160e051610100516101205161014051611afe620003786000396000610f910152600061142b0152600061147a01526000611455015260006113ae015260006113d8015260006114020152611afe6000f3fe608060405234801561001057600080fd5b50600436106101c45760003560e01c806370a08231116100f9578063a457c2d711610097578063d505accf11610071578063d505accf146103ca578063dd62ed3e146103dd578063ee99205c14610416578063f86b50051461042957600080fd5b8063a457c2d714610391578063a9059cbb146103a4578063b8fbd533146103b757600080fd5b80637ecebe00116100d35780637ecebe001461035b57806386d51e4e1461036e5780639358928b1461038157806395d89b411461038957600080fd5b806370a08231146102ed57806373c69eb7146103005780637965d56d1461034857600080fd5b80632986c0e5116101665780633950935111610140578063395093511461028757806340a5737f1461029a578063485cc955146102af57806361d027b3146102c257600080fd5b80632986c0e514610268578063313ce567146102705780633644e5151461027f57600080fd5b8063095ea7b3116101a2578063095ea7b31461021757806318160ddd1461023a5780631bd396741461024257806323b872dd1461025557600080fd5b8063058ecdb4146101c957806306fdde03146101ef578063095be81814610204575b600080fd5b6101dc6101d7366004611811565b61043c565b6040519081526020015b60405180910390f35b6101f7610613565b6040516101e69190611833565b6101dc610212366004611888565b6106a5565b61022a6102253660046118bd565b610714565b60405190151581526020016101e6565b6002546101dc565b6101dc610250366004611888565b61072a565b61022a6102633660046118e7565b61073a565b6101dc61088c565b604051600981526020016101e6565b6101dc61089e565b61022a6102953660046118bd565b6108a8565b6102ad6102a8366004611888565b6108e4565b005b6102ad6102bd366004611923565b6109ad565b600f546102d5906001600160a01b031681565b6040516001600160a01b0390911681526020016101e6565b6101dc6102fb366004611956565b610bc8565b61031361030e366004611888565b610bef565b604080519788526020880196909652948601939093526060850191909152608084015260a083015260c082015260e0016101e6565b6101dc610356366004611888565b610c41565b6101dc610369366004611956565b610c51565b600a546102d5906001600160a01b031681565b6101dc610c6f565b6101f7610de8565b61022a61039f3660046118bd565b610df7565b61022a6103b23660046118bd565b610e4c565b6101dc6103c5366004611888565b610f0b565b6102ad6103d8366004611978565b610f3d565b6101dc6103eb366004611923565b6001600160a01b039182166000908152600e6020908152604080832093909416825291909152205490565b6009546102d5906001600160a01b031681565b6102ad610437366004611956565b6110a1565b6009546000906001600160a01b031633146104c45760405162461bcd60e51b815260206004820152602e60248201527f5374616b696e67436f6e74726163743a202063616c6c206973206e6f7420737460448201527f616b696e6720636f6e747261637400000000000000000000000000000000000060648201526084015b60405180910390fd5b6000806104cf610c6f565b90508461056257837f0417b340e646d4be71f9b2da63b5c3c69bc9cfa069f0e0db4756271886130bf460065460405161050a91815260200190565b60405180910390a2837f6012dbce857565c4a40974aa5de8373a761fc429077ef0c8c8611d1e20d63fb2600061053e61088c565b6040805192835260208301919091520160405180910390a26006549250505061060d565b80156105885780600654866105779190611a01565b6105819190611a36565b915061058c565b8491505b8160065461059a9190611a4a565b60068190556fffffffffffffffffffffffffffffffff10156105cb576fffffffffffffffffffffffffffffffff6006555b6006546105e16611c37937e08000600019611a62565b6105ed90600019611a76565b6105f79190611a36565b600c55610605818686611202565b600654925050505b92915050565b60606003805461062290611a8d565b80601f016020809104026020016040519081016040528092919081815260200182805461064e90611a8d565b801561069b5780601f106106705761010080835404028352916020019161069b565b820191906000526020600020905b81548152906001019060200180831161067e57829003601f168201915b5050505050905090565b600a546040516319a948db60e21b8152600481018390526000916001600160a01b0316906366a5236c906024015b602060405180830381865afa1580156106f0573d6000803e3d6000fd5b505050506040513d601f19601f8201168201806040525081019061060d9190611ac2565b6000610721338484611340565b50600192915050565b6000600c548261060d9190611a01565b6001600160a01b0383166000908152600e60209081526040808320338452909152812054610769908390611a76565b6001600160a01b0385166000818152600e6020908152604080832033808552908352928190208590555193845290927f8c5be1e5ebec7d5bd14f71427d1e84f3dd0314c0f7b2291e5b200ac8c7c3b925910160405180910390a360006107ce8361072a565b6001600160a01b0386166000908152600d60205260409020549091506107f5908290611a76565b6001600160a01b038087166000908152600d60205260408082209390935590861681522054610825908290611a4a565b6001600160a01b038086166000818152600d602052604090819020939093559151908716907fddf252ad1be2c89b69c2b068fc378daa952ba7f163c4a11628f55a4df523b3ef906108799087815260200190565b60405180910390a3506001949350505050565b6000610899600854610c41565b905090565b60006108996113a1565b336000818152600e602090815260408083206001600160a01b038716845290915281205490916107219185906108df908690611a4a565b611340565b6007546001600160a01b0316331461094e5760405162461bcd60e51b815260206004820152602760248201527f496e697469616c697a65723a202063616c6c6572206973206e6f7420696e697460448201526634b0b634bd32b960c91b60648201526084016104bb565b6008541561099e5760405162461bcd60e51b815260206004820152601660248201527f43616e6e6f742073657420494e44455820616761696e0000000000000000000060448201526064016104bb565b6109a78161072a565b60085550565b6007546001600160a01b03163314610a175760405162461bcd60e51b815260206004820152602760248201527f496e697469616c697a65723a202063616c6c6572206973206e6f7420696e697460448201526634b0b634bd32b960c91b60648201526084016104bb565b6001600160a01b038216610a6d5760405162461bcd60e51b815260206004820152600760248201527f5374616b696e670000000000000000000000000000000000000000000000000060448201526064016104bb565b600980546001600160a01b0319166001600160a01b038416179055610a9b6611c37937e08000600019611a62565b610aa790600019611a76565b6009546001600160a01b039081166000908152600d60205260409020919091558116610b155760405162461bcd60e51b815260206004820152601660248201527f5a65726f20616464726573733a2054726561737572790000000000000000000060448201526064016104bb565b600f80546001600160a01b0319166001600160a01b03838116919091179091556009546006546040519081529116906000907fddf252ad1be2c89b69c2b068fc378daa952ba7f163c4a11628f55a4df523b3ef9060200160405180910390a36009546040516001600160a01b0390911681527f817c653428858ed536dc085c5d8273734c517b55de44b55f5c5877a75e3373a19060200160405180910390a15050600780546001600160a01b0319169055565b600c546001600160a01b0382166000908152600d6020526040812054909161060d91611a36565b600b8181548110610bff57600080fd5b90600052602060002090600702016000915090508060000154908060010154908060020154908060030154908060040154908060050154908060060154905087565b6000600c548261060d9190611a36565b6001600160a01b03811660009081526005602052604081205461060d565b60095460408051632013864160e01b815290516000926001600160a01b03169163201386419160048083019260209291908290030181865afa158015610cb9573d6000803e3d6000fd5b505050506040513d601f19601f82011682018060405250810190610cdd9190611ac2565b600a54604080516318160ddd60e01b815290516001600160a01b039092169163a82487689183916318160ddd916004808201926020929091908290030181865afa158015610d2f573d6000803e3d6000fd5b505050506040513d601f19601f82011682018060405250810190610d539190611ac2565b6040518263ffffffff1660e01b8152600401610d7191815260200190565b602060405180830381865afa158015610d8e573d6000803e3d6000fd5b505050506040513d601f19601f82011682018060405250810190610db29190611ac2565b600954610dc7906001600160a01b0316610bc8565b600654610dd49190611a76565b610dde9190611a4a565b6108999190611a4a565b60606004805461062290611a8d565b336000908152600e602090815260408083206001600160a01b0386168452909152812054808310610e3357610e2e33856000611340565b610e42565b610e4233856108df8685611a76565b5060019392505050565b600080600c5483610e5d9190611a01565b336000908152600d6020526040902054909150610e7b908290611a76565b336000908152600d6020526040808220929092556001600160a01b03861681522054610ea8908290611a4a565b6001600160a01b0385166000818152600d60205260409081902092909255905133907fddf252ad1be2c89b69c2b068fc378daa952ba7f163c4a11628f55a4df523b3ef90610ef99087815260200190565b60405180910390a35060019392505050565b600a5460405163150490ed60e31b8152600481018390526000916001600160a01b03169063a8248768906024016106d3565b83421115610f8d5760405162461bcd60e51b815260206004820152601d60248201527f45524332305065726d69743a206578706972656420646561646c696e6500000060448201526064016104bb565b60007f0000000000000000000000000000000000000000000000000000000000000000888888610fbc8c6114c8565b6040805160208101969096526001600160a01b0394851690860152929091166060840152608083015260a082015260c0810186905260e0016040516020818303038152906040528051906020012090506000611017826114f0565b905060006110278287878761153e565b9050896001600160a01b0316816001600160a01b03161461108a5760405162461bcd60e51b815260206004820152601e60248201527f45524332305065726d69743a20696e76616c6964207369676e6174757265000060448201526064016104bb565b6110958a8a8a611340565b50505050505050505050565b6007546001600160a01b0316331461110b5760405162461bcd60e51b815260206004820152602760248201527f496e697469616c697a65723a202063616c6c6572206973206e6f7420696e697460448201526634b0b634bd32b960c91b60648201526084016104bb565b600a546001600160a01b0316156111645760405162461bcd60e51b815260206004820152601b60248201527f6748454354413a202067484543544120616c726561647920736574000000000060448201526064016104bb565b6001600160a01b0381166111e05760405162461bcd60e51b815260206004820152602760248201527f6748454354413a2020674845435441206973206e6f7420612076616c6964206360448201527f6f6e74726163740000000000000000000000000000000000000000000000000060648201526084016104bb565b600a80546001600160a01b0319166001600160a01b0392909216919091179055565b60008361121784670de0b6b3a7640000611a01565b6112219190611a36565b9050600b6040518060e0016040528084815260200183815260200186815260200161124a610c6f565b815260200185815260200161125d61088c565b815243602091820152825460018082018555600094855293829020835160079092020190815582820151938101939093556040808301516002850155606083015160038501556080830151600485015560a0830151600585015560c0909201516006938401559154905190815283917f0417b340e646d4be71f9b2da63b5c3c69bc9cfa069f0e0db4756271886130bf4910160405180910390a2817f6012dbce857565c4a40974aa5de8373a761fc429077ef0c8c8611d1e20d63fb28261132261088c565b6040805192835260208301919091520160405180910390a250505050565b6001600160a01b038381166000818152600e602090815260408083209487168084529482529182902085905590518481527f8c5be1e5ebec7d5bd14f71427d1e84f3dd0314c0f7b2291e5b200ac8c7c3b925910160405180910390a3505050565b6000306001600160a01b037f0000000000000000000000000000000000000000000000000000000000000000161480156113fa57507f000000000000000000000000000000000000000000000000000000000000000046145b1561142457507f000000000000000000000000000000000000000000000000000000000000000090565b50604080517f00000000000000000000000000000000000000000000000000000000000000006020808301919091527f0000000000000000000000000000000000000000000000000000000000000000828401527f000000000000000000000000000000000000000000000000000000000000000060608301524660808301523060a0808401919091528351808403909101815260c0909201909252805191012090565b6001600160a01b03811660009081526005602052604090208054600181018255905b50919050565b600061060d6114fd6113a1565b8360405161190160f01b6020820152602281018390526042810182905260009060620160405160208183030381529060405280519060200120905092915050565b600080600061154f87878787611566565b9150915061155c81611653565b5095945050505050565b6000807f7fffffffffffffffffffffffffffffff5d576e7357a4501ddfe92f46681b20a083111561159d575060009050600361164a565b8460ff16601b141580156115b557508460ff16601c14155b156115c6575060009050600461164a565b6040805160008082526020820180845289905260ff881692820192909252606081018690526080810185905260019060a0016020604051602081039080840390855afa15801561161a573d6000803e3d6000fd5b5050604051601f1901519150506001600160a01b0381166116435760006001925092505061164a565b9150600090505b94509492505050565b600081600481111561166757611667611adb565b14156116705750565b600181600481111561168457611684611adb565b14156116d25760405162461bcd60e51b815260206004820152601860248201527f45434453413a20696e76616c6964207369676e6174757265000000000000000060448201526064016104bb565b60028160048111156116e6576116e6611adb565b14156117345760405162461bcd60e51b815260206004820152601f60248201527f45434453413a20696e76616c6964207369676e6174757265206c656e6774680060448201526064016104bb565b600381600481111561174857611748611adb565b14156117a15760405162461bcd60e51b815260206004820152602260248201527f45434453413a20696e76616c6964207369676e6174757265202773272076616c604482015261756560f01b60648201526084016104bb565b60048160048111156117b5576117b5611adb565b141561180e5760405162461bcd60e51b815260206004820152602260248201527f45434453413a20696e76616c6964207369676e6174757265202776272076616c604482015261756560f01b60648201526084016104bb565b50565b6000806040838503121561182457600080fd5b50508035926020909101359150565b600060208083528351808285015260005b8181101561186057858101830151858201604001528201611844565b81811115611872576000604083870101525b50601f01601f1916929092016040019392505050565b60006020828403121561189a57600080fd5b5035919050565b80356001600160a01b03811681146118b857600080fd5b919050565b600080604083850312156118d057600080fd5b6118d9836118a1565b946020939093013593505050565b6000806000606084860312156118fc57600080fd5b611905846118a1565b9250611913602085016118a1565b9150604084013590509250925092565b6000806040838503121561193657600080fd5b61193f836118a1565b915061194d602084016118a1565b90509250929050565b60006020828403121561196857600080fd5b611971826118a1565b9392505050565b600080600080600080600060e0888a03121561199357600080fd5b61199c886118a1565b96506119aa602089016118a1565b95506040880135945060608801359350608088013560ff811681146119ce57600080fd5b9699959850939692959460a0840135945060c09093013592915050565b634e487b7160e01b600052601160045260246000fd5b6000816000190483118215151615611a1b57611a1b6119eb565b500290565b634e487b7160e01b600052601260045260246000fd5b600082611a4557611a45611a20565b500490565b60008219821115611a5d57611a5d6119eb565b500190565b600082611a7157611a71611a20565b500690565b600082821015611a8857611a886119eb565b500390565b600181811c90821680611aa157607f821691505b602082108114156114ea57634e487b7160e01b600052602260045260246000fd5b600060208284031215611ad457600080fd5b5051919050565b634e487b7160e01b600052602160045260246000fdfea164736f6c634300080a000a",
  "devdoc": {
    "kind": "dev",
    "methods": {
      "DOMAIN_SEPARATOR()": {
        "details": "See {IERC20Permit-DOMAIN_SEPARATOR}."
      },
      "decimals()": {
        "details": "Returns the number of decimals used to get its user representation. For example, if `decimals` equals `2`, a balance of `505` tokens should be displayed to a user as `5.05` (`505 / 10 ** 2`). Tokens usually opt for a value of 18, imitating the relationship between Ether and Wei. This is the value {ERC20} uses, unless this function is overridden; NOTE: This information is only used for _display_ purposes: it in no way affects any of the arithmetic of the contract, including {IERC20-balanceOf} and {IERC20-transfer}."
      },
      "decreaseAllowance(address,uint256)": {
        "details": "Atomically decreases the allowance granted to `spender` by the caller. This is an alternative to {approve} that can be used as a mitigation for problems described in {IERC20-approve}. Emits an {Approval} event indicating the updated allowance. Requirements: - `spender` cannot be the zero address. - `spender` must have allowance for the caller of at least `subtractedValue`."
      },
      "increaseAllowance(address,uint256)": {
        "details": "Atomically increases the allowance granted to `spender` by the caller. This is an alternative to {approve} that can be used as a mitigation for problems described in {IERC20-approve}. Emits an {Approval} event indicating the updated allowance. Requirements: - `spender` cannot be the zero address."
      },
      "name()": {
        "details": "Returns the name of the token."
      },
      "nonces(address)": {
        "details": "See {IERC20Permit-nonces}."
      },
      "permit(address,address,uint256,uint256,uint8,bytes32,bytes32)": {
        "details": "See {IERC20Permit-permit}."
      },
      "rebase(uint256,uint256)": {
        "params": {
          "profit_": "uint256"
        },
        "returns": {
          "_0": "uint256"
        }
      },
      "symbol()": {
        "details": "Returns the symbol of the token, usually a shorter version of the name."
      },
      "totalSupply()": {
        "details": "See {IERC20-totalSupply}."
      }
    },
    "version": 1
  },
  "userdoc": {
    "kind": "user",
    "methods": {
      "rebase(uint256,uint256)": {
        "notice": "increases rHECTA supply to increase staking balances relative to profit_"
      }
    },
    "version": 1
  },
  "storageLayout": {
    "storage": [
      {
        "astId": 212,
        "contract": "contracts/sHectagonERC20.sol:sHectagon",
        "label": "_balances",
        "offset": 0,
        "slot": "0",
        "type": "t_mapping(t_address,t_uint256)"
      },
      {
        "astId": 218,
        "contract": "contracts/sHectagonERC20.sol:sHectagon",
        "label": "_allowances",
        "offset": 0,
        "slot": "1",
        "type": "t_mapping(t_address,t_mapping(t_address,t_uint256))"
      },
      {
        "astId": 220,
        "contract": "contracts/sHectagonERC20.sol:sHectagon",
        "label": "_totalSupply",
        "offset": 0,
        "slot": "2",
        "type": "t_uint256"
      },
      {
        "astId": 222,
        "contract": "contracts/sHectagonERC20.sol:sHectagon",
        "label": "_name",
        "offset": 0,
        "slot": "3",
        "type": "t_string_storage"
      },
      {
        "astId": 224,
        "contract": "contracts/sHectagonERC20.sol:sHectagon",
        "label": "_symbol",
        "offset": 0,
        "slot": "4",
        "type": "t_string_storage"
      },
      {
        "astId": 930,
        "contract": "contracts/sHectagonERC20.sol:sHectagon",
        "label": "_nonces",
        "offset": 0,
        "slot": "5",
        "type": "t_mapping(t_address,t_struct(Counter)1661_storage)"
      },
      {
        "astId": 10474,
        "contract": "contracts/sHectagonERC20.sol:sHectagon",
        "label": "_totalSupply",
        "offset": 0,
        "slot": "6",
        "type": "t_uint256"
      },
      {
        "astId": 10476,
        "contract": "contracts/sHectagonERC20.sol:sHectagon",
        "label": "initializer",
        "offset": 0,
        "slot": "7",
        "type": "t_address"
      },
      {
        "astId": 10478,
        "contract": "contracts/sHectagonERC20.sol:sHectagon",
        "label": "INDEX",
        "offset": 0,
        "slot": "8",
        "type": "t_uint256"
      },
      {
        "astId": 10480,
        "contract": "contracts/sHectagonERC20.sol:sHectagon",
        "label": "stakingContract",
        "offset": 0,
        "slot": "9",
        "type": "t_address"
      },
      {
        "astId": 10483,
        "contract": "contracts/sHectagonERC20.sol:sHectagon",
        "label": "gHECTA",
        "offset": 0,
        "slot": "10",
        "type": "t_contract(IgHECTA)8670"
      },
      {
        "astId": 10487,
        "contract": "contracts/sHectagonERC20.sol:sHectagon",
        "label": "rebases",
        "offset": 0,
        "slot": "11",
        "type": "t_array(t_struct(Rebase)10472_storage)dyn_storage"
      },
      {
        "astId": 10518,
        "contract": "contracts/sHectagonERC20.sol:sHectagon",
        "label": "_gonsPerFragment",
        "offset": 0,
        "slot": "12",
        "type": "t_uint256"
      },
      {
        "astId": 10522,
        "contract": "contracts/sHectagonERC20.sol:sHectagon",
        "label": "_gonBalances",
        "offset": 0,
        "slot": "13",
        "type": "t_mapping(t_address,t_uint256)"
      },
      {
        "astId": 10528,
        "contract": "contracts/sHectagonERC20.sol:sHectagon",
        "label": "_allowedValue",
        "offset": 0,
        "slot": "14",
        "type": "t_mapping(t_address,t_mapping(t_address,t_uint256))"
      },
      {
        "astId": 10530,
        "contract": "contracts/sHectagonERC20.sol:sHectagon",
        "label": "treasury",
        "offset": 0,
        "slot": "15",
        "type": "t_address"
      }
    ],
    "types": {
      "t_address": {
        "encoding": "inplace",
        "label": "address",
        "numberOfBytes": "20"
      },
      "t_array(t_struct(Rebase)10472_storage)dyn_storage": {
        "base": "t_struct(Rebase)10472_storage",
        "encoding": "dynamic_array",
        "label": "struct sHectagon.Rebase[]",
        "numberOfBytes": "32"
      },
      "t_contract(IgHECTA)8670": {
        "encoding": "inplace",
        "label": "contract IgHECTA",
        "numberOfBytes": "20"
      },
      "t_mapping(t_address,t_mapping(t_address,t_uint256))": {
        "encoding": "mapping",
        "key": "t_address",
        "label": "mapping(address => mapping(address => uint256))",
        "numberOfBytes": "32",
        "value": "t_mapping(t_address,t_uint256)"
      },
      "t_mapping(t_address,t_struct(Counter)1661_storage)": {
        "encoding": "mapping",
        "key": "t_address",
        "label": "mapping(address => struct Counters.Counter)",
        "numberOfBytes": "32",
        "value": "t_struct(Counter)1661_storage"
      },
      "t_mapping(t_address,t_uint256)": {
        "encoding": "mapping",
        "key": "t_address",
        "label": "mapping(address => uint256)",
        "numberOfBytes": "32",
        "value": "t_uint256"
      },
      "t_string_storage": {
        "encoding": "bytes",
        "label": "string",
        "numberOfBytes": "32"
      },
      "t_struct(Counter)1661_storage": {
        "encoding": "inplace",
        "label": "struct Counters.Counter",
        "members": [
          {
            "astId": 1660,
            "contract": "contracts/sHectagonERC20.sol:sHectagon",
            "label": "_value",
            "offset": 0,
            "slot": "0",
            "type": "t_uint256"
          }
        ],
        "numberOfBytes": "32"
      },
      "t_struct(Rebase)10472_storage": {
        "encoding": "inplace",
        "label": "struct sHectagon.Rebase",
        "members": [
          {
            "astId": 10459,
            "contract": "contracts/sHectagonERC20.sol:sHectagon",
            "label": "epoch",
            "offset": 0,
            "slot": "0",
            "type": "t_uint256"
          },
          {
            "astId": 10461,
            "contract": "contracts/sHectagonERC20.sol:sHectagon",
            "label": "rebase",
            "offset": 0,
            "slot": "1",
            "type": "t_uint256"
          },
          {
            "astId": 10463,
            "contract": "contracts/sHectagonERC20.sol:sHectagon",
            "label": "totalStakedBefore",
            "offset": 0,
            "slot": "2",
            "type": "t_uint256"
          },
          {
            "astId": 10465,
            "contract": "contracts/sHectagonERC20.sol:sHectagon",
            "label": "totalStakedAfter",
            "offset": 0,
            "slot": "3",
            "type": "t_uint256"
          },
          {
            "astId": 10467,
            "contract": "contracts/sHectagonERC20.sol:sHectagon",
            "label": "amountRebased",
            "offset": 0,
            "slot": "4",
            "type": "t_uint256"
          },
          {
            "astId": 10469,
            "contract": "contracts/sHectagonERC20.sol:sHectagon",
            "label": "index",
            "offset": 0,
            "slot": "5",
            "type": "t_uint256"
          },
          {
            "astId": 10471,
            "contract": "contracts/sHectagonERC20.sol:sHectagon",
            "label": "blockNumberOccured",
            "offset": 0,
            "slot": "6",
            "type": "t_uint256"
          }
        ],
        "numberOfBytes": "224"
      },
      "t_uint256": {
        "encoding": "inplace",
        "label": "uint256",
        "numberOfBytes": "32"
      }
    }
  }
}