{
  "address": "0x6D6216690574E59EaFBbe315d2f98504404f980A",
  "abi": [
    {
      "inputs": [
        {
          "internalType": "address",
          "name": "hectaAddress_",
          "type": "address"
        },
        {
          "internalType": "address",
          "name": "treasuryAddress_",
          "type": "address"
        }
      ],
      "stateMutability": "nonpayable",
      "type": "constructor"
    },
    {
      "anonymous": false,
      "inputs": [
        {
          "indexed": true,
          "internalType": "address",
          "name": "owner",
          "type": "address"
        },
        {
          "indexed": true,
          "internalType": "address",
          "name": "spender",
          "type": "address"
        },
        {
          "indexed": false,
          "internalType": "uint256",
          "name": "value",
          "type": "uint256"
        }
      ],
      "name": "Approval",
      "type": "event"
    },
    {
      "anonymous": false,
      "inputs": [
        {
          "indexed": false,
          "internalType": "address",
          "name": "from",
          "type": "address"
        },
        {
          "indexed": false,
          "internalType": "address",
          "name": "to",
          "type": "address"
        },
        {
          "indexed": false,
          "internalType": "uint256",
          "name": "amount",
          "type": "uint256"
        }
      ],
      "name": "ClaimableTransfer",
      "type": "event"
    },
    {
      "anonymous": false,
      "inputs": [
        {
          "indexed": true,
          "internalType": "address",
          "name": "previousOwner",
          "type": "address"
        },
        {
          "indexed": true,
          "internalType": "address",
          "name": "newOwner",
          "type": "address"
        }
      ],
      "name": "OwnershipTransferred",
      "type": "event"
    },
    {
      "anonymous": false,
      "inputs": [
        {
          "indexed": false,
          "internalType": "address",
          "name": "account",
          "type": "address"
        }
      ],
      "name": "Paused",
      "type": "event"
    },
    {
      "anonymous": false,
      "inputs": [
        {
          "indexed": true,
          "internalType": "address",
          "name": "from",
          "type": "address"
        },
        {
          "indexed": true,
          "internalType": "address",
          "name": "to",
          "type": "address"
        },
        {
          "indexed": false,
          "internalType": "uint256",
          "name": "value",
          "type": "uint256"
        }
      ],
      "name": "Transfer",
      "type": "event"
    },
    {
      "anonymous": false,
      "inputs": [
        {
          "indexed": false,
          "internalType": "address",
          "name": "account",
          "type": "address"
        }
      ],
      "name": "Unpaused",
      "type": "event"
    },
    {
      "inputs": [],
      "name": "MaxPHectaToExercise",
      "outputs": [
        {
          "internalType": "uint256",
          "name": "",
          "type": "uint256"
        }
      ],
      "stateMutability": "view",
      "type": "function"
    },
    {
      "inputs": [],
      "name": "RateDenominator",
      "outputs": [
        {
          "internalType": "uint256",
          "name": "",
          "type": "uint256"
        }
      ],
      "stateMutability": "view",
      "type": "function"
    },
    {
      "inputs": [
        {
          "internalType": "address",
          "name": "owner",
          "type": "address"
        },
        {
          "internalType": "address",
          "name": "spender",
          "type": "address"
        }
      ],
      "name": "allowance",
      "outputs": [
        {
          "internalType": "uint256",
          "name": "",
          "type": "uint256"
        }
      ],
      "stateMutability": "view",
      "type": "function"
    },
    {
      "inputs": [
        {
          "internalType": "address",
          "name": "spender",
          "type": "address"
        },
        {
          "internalType": "uint256",
          "name": "amount",
          "type": "uint256"
        }
      ],
      "name": "approve",
      "outputs": [
        {
          "internalType": "bool",
          "name": "",
          "type": "bool"
        }
      ],
      "stateMutability": "nonpayable",
      "type": "function"
    },
    {
      "inputs": [
        {
          "internalType": "address",
          "name": "account",
          "type": "address"
        }
      ],
      "name": "balanceOf",
      "outputs": [
        {
          "internalType": "uint256",
          "name": "",
          "type": "uint256"
        }
      ],
      "stateMutability": "view",
      "type": "function"
    },
    {
      "inputs": [],
      "name": "beat",
      "outputs": [],
      "stateMutability": "nonpayable",
      "type": "function"
    },
    {
      "inputs": [],
      "name": "busdAddress",
      "outputs": [
        {
          "internalType": "address",
          "name": "",
          "type": "address"
        }
      ],
      "stateMutability": "view",
      "type": "function"
    },
    {
      "inputs": [],
      "name": "decimals",
      "outputs": [
        {
          "internalType": "uint8",
          "name": "",
          "type": "uint8"
        }
      ],
      "stateMutability": "view",
      "type": "function"
    },
    {
      "inputs": [
        {
          "internalType": "address",
          "name": "spender",
          "type": "address"
        },
        {
          "internalType": "uint256",
          "name": "subtractedValue",
          "type": "uint256"
        }
      ],
      "name": "decreaseAllowance",
      "outputs": [
        {
          "internalType": "bool",
          "name": "",
          "type": "bool"
        }
      ],
      "stateMutability": "nonpayable",
      "type": "function"
    },
    {
      "inputs": [],
      "name": "disableWhiteList",
      "outputs": [],
      "stateMutability": "nonpayable",
      "type": "function"
    },
    {
      "inputs": [],
      "name": "enableWhiteList",
      "outputs": [],
      "stateMutability": "nonpayable",
      "type": "function"
    },
    {
      "inputs": [
        {
          "internalType": "uint256",
          "name": "amount_",
          "type": "uint256"
        }
      ],
      "name": "exercise",
      "outputs": [],
      "stateMutability": "nonpayable",
      "type": "function"
    },
    {
      "inputs": [],
      "name": "hectaAddress",
      "outputs": [
        {
          "internalType": "address",
          "name": "",
          "type": "address"
        }
      ],
      "stateMutability": "view",
      "type": "function"
    },
    {
      "inputs": [
        {
          "internalType": "address",
          "name": "spender",
          "type": "address"
        },
        {
          "internalType": "uint256",
          "name": "addedValue",
          "type": "uint256"
        }
      ],
      "name": "increaseAllowance",
      "outputs": [
        {
          "internalType": "bool",
          "name": "",
          "type": "bool"
        }
      ],
      "stateMutability": "nonpayable",
      "type": "function"
    },
    {
      "inputs": [
        {
          "internalType": "address",
          "name": "",
          "type": "address"
        }
      ],
      "name": "infos",
      "outputs": [
        {
          "internalType": "bool",
          "name": "isTransferable",
          "type": "bool"
        },
        {
          "internalType": "uint256",
          "name": "lastRebaseSpaceCount",
          "type": "uint256"
        },
        {
          "internalType": "uint256",
          "name": "maxClaim",
          "type": "uint256"
        },
        {
          "internalType": "uint256",
          "name": "claimed",
          "type": "uint256"
        },
        {
          "internalType": "uint256",
          "name": "currentSpaceProfit",
          "type": "uint256"
        }
      ],
      "stateMutability": "view",
      "type": "function"
    },
    {
      "inputs": [
        {
          "internalType": "address",
          "name": "",
          "type": "address"
        }
      ],
      "name": "investors",
      "outputs": [
        {
          "internalType": "bool",
          "name": "",
          "type": "bool"
        }
      ],
      "stateMutability": "view",
      "type": "function"
    },
    {
      "inputs": [],
      "name": "isMigrationDone",
      "outputs": [
        {
          "internalType": "bool",
          "name": "",
          "type": "bool"
        }
      ],
      "stateMutability": "view",
      "type": "function"
    },
    {
      "inputs": [],
      "name": "massApprove",
      "outputs": [],
      "stateMutability": "nonpayable",
      "type": "function"
    },
    {
      "inputs": [
        {
          "internalType": "address",
          "name": "account_",
          "type": "address"
        },
        {
          "internalType": "uint256",
          "name": "amount_",
          "type": "uint256"
        }
      ],
      "name": "mint",
      "outputs": [],
      "stateMutability": "nonpayable",
      "type": "function"
    },
    {
      "inputs": [],
      "name": "name",
      "outputs": [
        {
          "internalType": "string",
          "name": "",
          "type": "string"
        }
      ],
      "stateMutability": "view",
      "type": "function"
    },
    {
      "inputs": [],
      "name": "owner",
      "outputs": [
        {
          "internalType": "address",
          "name": "",
          "type": "address"
        }
      ],
      "stateMutability": "view",
      "type": "function"
    },
    {
      "inputs": [],
      "name": "pause",
      "outputs": [],
      "stateMutability": "nonpayable",
      "type": "function"
    },
    {
      "inputs": [],
      "name": "paused",
      "outputs": [
        {
          "internalType": "bool",
          "name": "",
          "type": "bool"
        }
      ],
      "stateMutability": "view",
      "type": "function"
    },
    {
      "inputs": [],
      "name": "renounceOwnership",
      "outputs": [],
      "stateMutability": "nonpayable",
      "type": "function"
    },
    {
      "inputs": [
        {
          "internalType": "address",
          "name": "busdAddress_",
          "type": "address"
        }
      ],
      "name": "setBusdAddress",
      "outputs": [],
      "stateMutability": "nonpayable",
      "type": "function"
    },
    {
      "inputs": [
        {
          "internalType": "uint256",
          "name": "spaceLength_",
          "type": "uint256"
        }
      ],
      "name": "setSpaceLength",
      "outputs": [],
      "stateMutability": "nonpayable",
      "type": "function"
    },
    {
      "inputs": [
        {
          "internalType": "address",
          "name": "addr",
          "type": "address"
        }
      ],
      "name": "showClaimable",
      "outputs": [
        {
          "internalType": "uint256",
          "name": "",
          "type": "uint256"
        }
      ],
      "stateMutability": "view",
      "type": "function"
    },
    {
      "inputs": [],
      "name": "spaceCount",
      "outputs": [
        {
          "internalType": "uint256",
          "name": "_value",
          "type": "uint256"
        }
      ],
      "stateMutability": "view",
      "type": "function"
    },
    {
      "inputs": [],
      "name": "spaceLength",
      "outputs": [
        {
          "internalType": "uint256",
          "name": "",
          "type": "uint256"
        }
      ],
      "stateMutability": "view",
      "type": "function"
    },
    {
      "inputs": [
        {
          "internalType": "uint256",
          "name": "",
          "type": "uint256"
        }
      ],
      "name": "spaces",
      "outputs": [
        {
          "internalType": "uint256",
          "name": "totalHecta",
          "type": "uint256"
        },
        {
          "internalType": "uint256",
          "name": "totalPHecta",
          "type": "uint256"
        },
        {
          "internalType": "uint256",
          "name": "timestamp",
          "type": "uint256"
        }
      ],
      "stateMutability": "view",
      "type": "function"
    },
    {
      "inputs": [],
      "name": "start",
      "outputs": [],
      "stateMutability": "nonpayable",
      "type": "function"
    },
    {
      "inputs": [],
      "name": "startTimestamp",
      "outputs": [
        {
          "internalType": "uint256",
          "name": "",
          "type": "uint256"
        }
      ],
      "stateMutability": "view",
      "type": "function"
    },
    {
      "inputs": [],
      "name": "stopMigration",
      "outputs": [],
      "stateMutability": "nonpayable",
      "type": "function"
    },
    {
      "inputs": [],
      "name": "symbol",
      "outputs": [
        {
          "internalType": "string",
          "name": "",
          "type": "string"
        }
      ],
      "stateMutability": "view",
      "type": "function"
    },
    {
      "inputs": [
        {
          "internalType": "address",
          "name": "token",
          "type": "address"
        },
        {
          "internalType": "uint256",
          "name": "_amount",
          "type": "uint256"
        }
      ],
      "name": "toTokenAmount",
      "outputs": [
        {
          "internalType": "uint256",
          "name": "value_",
          "type": "uint256"
        }
      ],
      "stateMutability": "view",
      "type": "function"
    },
    {
      "inputs": [],
      "name": "totalSupply",
      "outputs": [
        {
          "internalType": "uint256",
          "name": "",
          "type": "uint256"
        }
      ],
      "stateMutability": "view",
      "type": "function"
    },
    {
      "inputs": [
        {
          "internalType": "address",
          "name": "recipient",
          "type": "address"
        },
        {
          "internalType": "uint256",
          "name": "amount",
          "type": "uint256"
        }
      ],
      "name": "transfer",
      "outputs": [
        {
          "internalType": "bool",
          "name": "",
          "type": "bool"
        }
      ],
      "stateMutability": "nonpayable",
      "type": "function"
    },
    {
      "inputs": [
        {
          "internalType": "address",
          "name": "sender",
          "type": "address"
        },
        {
          "internalType": "address",
          "name": "recipient",
          "type": "address"
        },
        {
          "internalType": "uint256",
          "name": "amount",
          "type": "uint256"
        }
      ],
      "name": "transferFrom",
      "outputs": [
        {
          "internalType": "bool",
          "name": "",
          "type": "bool"
        }
      ],
      "stateMutability": "nonpayable",
      "type": "function"
    },
    {
      "inputs": [
        {
          "internalType": "address",
          "name": "newOwner",
          "type": "address"
        }
      ],
      "name": "transferOwnership",
      "outputs": [],
      "stateMutability": "nonpayable",
      "type": "function"
    },
    {
      "inputs": [],
      "name": "treasuryAddress",
      "outputs": [
        {
          "internalType": "address",
          "name": "",
          "type": "address"
        }
      ],
      "stateMutability": "view",
      "type": "function"
    },
    {
      "inputs": [],
      "name": "unpause",
      "outputs": [],
      "stateMutability": "nonpayable",
      "type": "function"
    },
    {
      "inputs": [],
      "name": "useWhiteList",
      "outputs": [
        {
          "internalType": "bool",
          "name": "",
          "type": "bool"
        }
      ],
      "stateMutability": "view",
      "type": "function"
    },
    {
      "inputs": [
        {
          "internalType": "address",
          "name": "investor",
          "type": "address"
        }
      ],
      "name": "whitelist",
      "outputs": [],
      "stateMutability": "nonpayable",
      "type": "function"
    }
  ],
  "transactionHash": "0xd4c143d47d5ad7371419c26393fd4148ce1daee64f795cbc88d747a858cd4ed8",
  "args": [
    "0x224687b86DFF59d406629738DB64cAef1F9CbE7d",
    "0x8335c8D5c40298868c1B161A5086559fcD1B5cB9"
  ],
  "solcInputHash": "615efb94f5392ac1ee77e31b845be314",
  "bytecode": "0x60c060405262093a80600d553480156200001857600080fd5b5060405162002dc138038062002dc18339810160408190526200003b91620001f7565b604080518082018252601081526f283934bb30ba32902432b1ba30b3b7b760811b6020808301919091528251808401909352600683526570486563746160d01b908301526000805460ff19169055906200009533620000db565b8151620000aa90600490602085019062000134565b508051620000c090600590602084019062000134565b5050506001600160a01b039182166080521660a0526200026c565b600080546001600160a01b03838116610100818102610100600160a81b0319851617855560405193049190911692909183917f8be0079c531659141344cd1fd0a4f28419497f9722a3daafe3b4186f6b6457e091a35050565b82805462000142906200022f565b90600052602060002090601f016020900481019282620001665760008555620001b1565b82601f106200018157805160ff1916838001178555620001b1565b82800160010185558215620001b1579182015b82811115620001b157825182559160200191906001019062000194565b50620001bf929150620001c3565b5090565b5b80821115620001bf5760008155600101620001c4565b80516001600160a01b0381168114620001f257600080fd5b919050565b600080604083850312156200020b57600080fd5b6200021683620001da565b91506200022660208401620001da565b90509250929050565b600181811c908216806200024457607f821691505b602082108114156200026657634e487b7160e01b600052602260045260246000fd5b50919050565b60805160a051612b05620002bc6000396000818161057b0152818161095a0152818161136d015261160d0152600081816104c901528181610c6d015281816113f901526119ee0152612b056000f3fe608060405234801561001057600080fd5b50600436106102e95760003560e01c8063795ab83e11610191578063c5f956af116100e3578063dcd8361611610097578063e19a7bc811610071578063e19a7bc814610685578063e6fd48bc1461068d578063f2fde38b1461069657600080fd5b8063dcd836161461063a578063dd62ed3e14610642578063e024805c1461067b57600080fd5b8063d48e6488116100c8578063d48e648814610608578063d99f86741461061b578063d9a655c71461062857600080fd5b8063c5f956af14610576578063c6ddb6421461059d57600080fd5b80639b19251a11610145578063a9e107491161011f578063a9e1074914610552578063b07f0a411461055b578063be9a65551461056e57600080fd5b80639b19251a14610519578063a457c2d71461052c578063a9059cbb1461053f57600080fd5b80638456cb59116101765780638456cb59146104f35780638da5cb5b146104fb57806395d89b411461051157600080fd5b8063795ab83e146104c45780637a259dba146104eb57600080fd5b8063382035091161024a5780635c975abb116101fe578063715018a6116101d8578063715018a6146104475780637586353b1461044f57806376a902311461049957600080fd5b80635c975abb146103f05780636f7bc9be146103fb57806370a082311461041e57600080fd5b80633f4ba83a1161022f5780633f4ba83a146103cd57806340c10f19146103d5578063539b2ba4146103e857600080fd5b806338203509146103b257806339509351146103ba57600080fd5b80631c837c3e116102a15780632e4ca2a2116102865780632e4ca2a21461038f578063313ce56714610399578063319ae4b2146103a857600080fd5b80631c837c3e1461036757806323b872dd1461037c57600080fd5b806306fdde03116102d257806306fdde0314610327578063095ea7b31461033c57806318160ddd1461035f57600080fd5b8063015623c7146102ee578063015c1c7a14610314575b600080fd5b6103016102fc366004612763565b6106a9565b6040519081526020015b60405180910390f35b61030161032236600461277e565b6106ea565b61032f610780565b60405161030b91906127d4565b61034f61034a36600461277e565b610812565b604051901515815260200161030b565b600354610301565b61037a610375366004612807565b610829565b005b61034f61038a366004612820565b610881565b610301620186a081565b6040516009815260200161030b565b6006546103019081565b61037a610940565b61034f6103c836600461277e565b6109e7565b61037a610a23565b61037a6103e336600461277e565b610a7b565b61037a610b2f565b60005460ff1661034f565b61034f610409366004612763565b600a6020526000908152604090205460ff1681565b61030161042c366004612763565b6001600160a01b031660009081526001602052604090205490565b61037a610b8c565b61047e61045d366004612807565b600c6020526000908152604090208054600182015460029092015490919083565b6040805193845260208401929092529082015260600161030b565b6007546104ac906001600160a01b031681565b6040516001600160a01b03909116815260200161030b565b6104ac7f000000000000000000000000000000000000000000000000000000000000000081565b61037a610be4565b61037a610d43565b60005461010090046001600160a01b03166104ac565b61032f610d99565b61037a610527366004612763565b610da8565b61034f61053a36600461277e565b610e1a565b61034f61054d36600461277e565b610ecb565b610301600d5481565b61037a610569366004612807565b610f6f565b61037a611474565b6104ac7f000000000000000000000000000000000000000000000000000000000000000081565b6105de6105ab366004612763565b600b602052600090815260409020805460018201546002830154600384015460049094015460ff90931693919290919085565b6040805195151586526020860194909452928401919091526060830152608082015260a00161030b565b61037a610616366004612763565b611579565b60095461034f9060ff1681565b60095461034f90610100900460ff1681565b61037a611695565b61030161065036600461285c565b6001600160a01b03918216600090815260026020908152604080832093909416825291909152205490565b610301620f424081565b61037a6116ef565b61030160085481565b61037a6106a4366004612763565b61174e565b6000806106b583611821565b6001600160a01b0384166000908152600b6020526040812060030154825192935090916106e291906128a5565b949350505050565b60006106f86009600a6129a0565b836001600160a01b031663313ce5676040518163ffffffff1660e01b8152600401602060405180830381865afa158015610736573d6000803e3d6000fd5b505050506040513d601f19601f8201168201806040525081019061075a91906129af565b61076590600a6129a0565b61076f90846129d2565b61077991906129f1565b9392505050565b60606004805461078f90612a13565b80601f01602080910402602001604051908101604052809291908181526020018280546107bb90612a13565b80156108085780601f106107dd57610100808354040283529160200191610808565b820191906000526020600020905b8154815290600101906020018083116107eb57829003601f168201915b5050505050905090565b600061081f338484611b55565b5060015b92915050565b6000546001600160a01b0361010090910416331461087c5760405162461bcd60e51b81526020600482018190526024820152600080516020612ad983398151915260448201526064015b60405180910390fd5b600d55565b600061088e848484611c79565b6001600160a01b0384166000908152600260209081526040808320338452909152902054828110156109285760405162461bcd60e51b815260206004820152602860248201527f45524332303a207472616e7366657220616d6f756e742065786365656473206160448201527f6c6c6f77616e63650000000000000000000000000000000000000000000000006064820152608401610873565b6109358533858403611b55565b506001949350505050565b60075460405163095ea7b360e01b81526001600160a01b037f0000000000000000000000000000000000000000000000000000000000000000811660048301526d314dc6448d9338c15b0a0000000060248301529091169063095ea7b3906044016020604051808303816000875af11580156109c0573d6000803e3d6000fd5b505050506040513d601f19601f820116820180604052508101906109e49190612a4e565b50565b3360008181526002602090815260408083206001600160a01b0387168452909152812054909161081f918590610a1e908690612a70565b611b55565b6000546001600160a01b03610100909104163314610a715760405162461bcd60e51b81526020600482018190526024820152600080516020612ad98339815191526044820152606401610873565b610a79611e87565b565b6000546001600160a01b03610100909104163314610ac95760405162461bcd60e51b81526020600482018190526024820152600080516020612ad98339815191526044820152606401610873565b600954610100900460ff1615610b215760405162461bcd60e51b815260206004820152601560248201527f4d6967726174696f6e2069732066696e697368656400000000000000000000006044820152606401610873565b610b2b8282611f23565b5050565b6000546001600160a01b03610100909104163314610b7d5760405162461bcd60e51b81526020600482018190526024820152600080516020612ad98339815191526044820152606401610873565b6009805460ff19166001179055565b6000546001600160a01b03610100909104163314610bda5760405162461bcd60e51b81526020600482018190526024820152600080516020612ad98339815191526044820152606401610873565b610a796000612016565b6000600c6000610bf360065490565b8152602001908152602001600020604051806060016040529081600082015481526020016001820154815260200160028201548152505090506000600854118015610c4d5750600d546040820151610c4b90426128a5565b115b156109e457610c60600680546001019055565b60405180606001604052807f00000000000000000000000000000000000000000000000000000000000000006001600160a01b03166318160ddd6040518163ffffffff1660e01b8152600401602060405180830381865afa158015610cc9573d6000803e3d6000fd5b505050506040513d601f19601f82011682018060405250810190610ced9190612a88565b8152602001610cfb60035490565b815260200142815250600c6000610d1160065490565b815260200190815260200160002060008201518160000155602082015181600101556040820151816002015590505050565b6000546001600160a01b03610100909104163314610d915760405162461bcd60e51b81526020600482018190526024820152600080516020612ad98339815191526044820152606401610873565b610a79612086565b60606005805461078f90612a13565b6000546001600160a01b03610100909104163314610df65760405162461bcd60e51b81526020600482018190526024820152600080516020612ad98339815191526044820152606401610873565b6001600160a01b03166000908152600a60205260409020805460ff19166001179055565b3360009081526002602090815260408083206001600160a01b038616845290915281205482811015610eb45760405162461bcd60e51b815260206004820152602560248201527f45524332303a2064656372656173656420616c6c6f77616e63652062656c6f7760448201527f207a65726f0000000000000000000000000000000000000000000000000000006064820152608401610873565b610ec13385858403611b55565b5060019392505050565b60008060085411610f1e5760405162461bcd60e51b815260206004820152601a60248201527f57616974696e6720666f72206f776e657220746f2073746172740000000000006044820152606401610873565b60005460ff1615610f645760405162461bcd60e51b815260206004820152601060248201526f14185d5cd8589b194e881c185d5cd95960821b6044820152606401610873565b61081f338484611c79565b600060085411610fc15760405162461bcd60e51b815260206004820152601a60248201527f57616974696e6720666f72206f776e657220746f2073746172740000000000006044820152606401610873565b60095460ff1615156001141561105b57336000908152600a602052604090205460ff16151560011461105b5760405162461bcd60e51b815260206004820152603160248201527f496e766573746f72206d7573742062652077686974656c697374656420746f2060448201527f75736520746869732066756e6374696f6e0000000000000000000000000000006064820152608401610873565b60005460ff16156110a15760405162461bcd60e51b815260206004820152601060248201526f14185d5cd8589b194e881c185d5cd95960821b6044820152606401610873565b6110aa33612101565b6007546000906110c3906001600160a01b0316836106ea565b336000908152600b60205260409020600381015460029091015491925083916110ec91906128a5565b101561113a5760405162461bcd60e51b815260206004820152601e60248201527f436c61696d206d6f7265207468616e206d6178696d756d20616d6f756e7400006044820152606401610873565b600754604051636eb1769f60e11b815233600482015230602482015282916001600160a01b03169063dd62ed3e90604401602060405180830381865afa158015611188573d6000803e3d6000fd5b505050506040513d601f19601f820116820180604052508101906111ac9190612a88565b10156112205760405162461bcd60e51b815260206004820152603e60248201527f4d75737420617070726f7665207468697320636f6e747261637420746f20737060448201527f656e64206d6f7265207468616e2077697468647261776c20616d6f756e7400006064820152608401610873565b6007546040516370a0823160e01b815233600482015283916001600160a01b0316906370a0823190602401602060405180830381865afa158015611268573d6000803e3d6000fd5b505050506040513d601f19601f8201168201806040525081019061128c9190612a88565b10156112da5760405162461bcd60e51b815260206004820152601a60248201527f425553442062616c616e6365206973206e6f7420656e6f7567680000000000006044820152606401610873565b336000818152600b60205260409020805460ff191690556112fb9083612181565b336000908152600b60205260408120600301805484929061131d908490612a70565b909155505060075461133a906001600160a01b03163330846122e7565b60075460405163bc157ac160e01b8152600481018390526001600160a01b039182166024820152600060448201819052917f0000000000000000000000000000000000000000000000000000000000000000169063bc157ac1906064016020604051808303816000875af11580156113b6573d6000803e3d6000fd5b505050506040513d601f19601f820116820180604052508101906113da9190612a88565b60405163a9059cbb60e01b8152336004820152602481018290529091507f00000000000000000000000000000000000000000000000000000000000000006001600160a01b03169063a9059cbb906044016020604051808303816000875af115801561144a573d6000803e3d6000fd5b505050506040513d601f19601f8201168201806040525081019061146e9190612a4e565b50505050565b6000546001600160a01b036101009091041633146114c25760405162461bcd60e51b81526020600482018190526024820152600080516020612ad98339815191526044820152606401610873565b600854156115125760405162461bcd60e51b815260206004820152601060248201527f416c7265616479207374617274656421000000000000000000000000000000006044820152606401610873565b426008556040805160608101909152600081526020810161153260035490565b815260200142815250600c600061154860065490565b8152602001908152602001600020600082015181600001556020820151816001015560408201518160020155905050565b6000546001600160a01b036101009091041633146115c75760405162461bcd60e51b81526020600482018190526024820152600080516020612ad98339815191526044820152606401610873565b600780547fffffffffffffffffffffffff0000000000000000000000000000000000000000166001600160a01b0383811691821790925560405163095ea7b360e01b81527f000000000000000000000000000000000000000000000000000000000000000090921660048301526d314dc6448d9338c15b0a0000000060248301529063095ea7b3906044016020604051808303816000875af1158015611671573d6000803e3d6000fd5b505050506040513d601f19601f82011682018060405250810190610b2b9190612a4e565b6000546001600160a01b036101009091041633146116e35760405162461bcd60e51b81526020600482018190526024820152600080516020612ad98339815191526044820152606401610873565b6009805460ff19169055565b6000546001600160a01b0361010090910416331461173d5760405162461bcd60e51b81526020600482018190526024820152600080516020612ad98339815191526044820152606401610873565b6009805461ff001916610100179055565b6000546001600160a01b0361010090910416331461179c5760405162461bcd60e51b81526020600482018190526024820152600080516020612ad98339815191526044820152606401610873565b6001600160a01b0381166118185760405162461bcd60e51b815260206004820152602660248201527f4f776e61626c653a206e6577206f776e657220697320746865207a65726f206160448201527f64647265737300000000000000000000000000000000000000000000000000006064820152608401610873565b6109e481612016565b61184560405180606001604052806000815260200160008152602001600081525090565b600854611871576040518060600160405280600081526020016000815260200160008152509050919050565b600061187c60065490565b6000818152600c6020908152604080832081516060810183528154815260018083015482860152600290920154818401526001600160a01b0389168552600b909352908320600481015491015493945090928411156119c7576001600160a01b0386166000908152600b60205260409020600101545b848110156119c557600c6000611909836001612a70565b81526020019081526020016000206001015461193a886001600160a01b031660009081526001602052604090205490565b6000838152600c60208190526040822054620f424092620186a09290611961886001612a70565b81526020019081526020016000206000015461197d91906128a5565b61198791906129d2565b61199191906129f1565b61199b91906129d2565b6119a591906129f1565b91506119b18284612a70565b9250806119bd81612aa1565b9150506118f2565b505b600d5460408401516119d990426128a5565b1115611b0857600060405180606001604052807f00000000000000000000000000000000000000000000000000000000000000006001600160a01b03166318160ddd6040518163ffffffff1660e01b8152600401602060405180830381865afa158015611a4a573d6000803e3d6000fd5b505050506040513d601f19601f82011682018060405250810190611a6e9190612a88565b8152602001611a7c60035490565b81526020014281525090508060200151611aab886001600160a01b031660009081526001602052604090205490565b6000878152600c60205260409020548351620f424091620186a091611ad091906128a5565b611ada91906129d2565b611ae491906129f1565b611aee91906129d2565b611af891906129f1565b9150611b048284612a70565b9250505b604080516060810182526001600160a01b0388166000908152600b60205291909120600201548190611b3b908590612a70565b815260200182815260200185815250945050505050919050565b6001600160a01b038316611bb75760405162461bcd60e51b8152602060048201526024808201527f45524332303a20617070726f76652066726f6d20746865207a65726f206164646044820152637265737360e01b6064820152608401610873565b6001600160a01b038216611c185760405162461bcd60e51b815260206004820152602260248201527f45524332303a20617070726f766520746f20746865207a65726f206164647265604482015261737360f01b6064820152608401610873565b6001600160a01b0383811660008181526002602090815260408083209487168084529482529182902085905590518481527f8c5be1e5ebec7d5bd14f71427d1e84f3dd0314c0f7b2291e5b200ac8c7c3b925910160405180910390a3505050565b6001600160a01b038316611cf55760405162461bcd60e51b815260206004820152602560248201527f45524332303a207472616e736665722066726f6d20746865207a65726f20616460448201527f64726573730000000000000000000000000000000000000000000000000000006064820152608401610873565b6001600160a01b038216611d575760405162461bcd60e51b815260206004820152602360248201527f45524332303a207472616e7366657220746f20746865207a65726f206164647260448201526265737360e81b6064820152608401610873565b611d62838383612356565b6001600160a01b03831660009081526001602052604090205481811015611df15760405162461bcd60e51b815260206004820152602660248201527f45524332303a207472616e7366657220616d6f756e742065786365656473206260448201527f616c616e636500000000000000000000000000000000000000000000000000006064820152608401610873565b6001600160a01b03808516600090815260016020526040808220858503905591851681529081208054849290611e28908490612a70565b92505081905550826001600160a01b0316846001600160a01b03167fddf252ad1be2c89b69c2b068fc378daa952ba7f163c4a11628f55a4df523b3ef84604051611e7491815260200190565b60405180910390a361146e848484612416565b60005460ff16611ed95760405162461bcd60e51b815260206004820152601460248201527f5061757361626c653a206e6f74207061757365640000000000000000000000006044820152606401610873565b6000805460ff191690557f5db9ee0a495bf2e6ff9c91a7834c1ba4fdd244a5e8aa4e537bd38aeae4b073aa335b6040516001600160a01b03909116815260200160405180910390a1565b6001600160a01b038216611f795760405162461bcd60e51b815260206004820152601f60248201527f45524332303a206d696e7420746f20746865207a65726f2061646472657373006044820152606401610873565b611f8560008383612356565b8060036000828254611f979190612a70565b90915550506001600160a01b03821660009081526001602052604081208054839290611fc4908490612a70565b90915550506040518181526001600160a01b038316906000907fddf252ad1be2c89b69c2b068fc378daa952ba7f163c4a11628f55a4df523b3ef9060200160405180910390a3610b2b60008383612416565b600080546001600160a01b038381166101008181027fffffffffffffffffffffff0000000000000000000000000000000000000000ff851617855560405193049190911692909183917f8be0079c531659141344cd1fd0a4f28419497f9722a3daafe3b4186f6b6457e091a35050565b60005460ff16156120cc5760405162461bcd60e51b815260206004820152601060248201526f14185d5cd8589b194e881c185d5cd95960821b6044820152606401610873565b6000805460ff191660011790557f62e78cea01bee320cd4e420270b5ea74000d11b0c9f74754ebdbfc544b05a258611f063390565b612109610be4565b6006546001600160a01b0382166000908152600b602052604090206001015410156109e457600061213982611821565b6020808201516001600160a01b0385166000908152600b909252604091829020600481019190915582516002820155910151600180830191909155815460ff19161790555050565b6001600160a01b0382166121e15760405162461bcd60e51b815260206004820152602160248201527f45524332303a206275726e2066726f6d20746865207a65726f206164647265736044820152607360f81b6064820152608401610873565b6121ed82600083612356565b6001600160a01b038216600090815260016020526040902054818110156122615760405162461bcd60e51b815260206004820152602260248201527f45524332303a206275726e20616d6f756e7420657863656564732062616c616e604482015261636560f01b6064820152608401610873565b6001600160a01b03831660009081526001602052604081208383039055600380548492906122909084906128a5565b90915550506040518281526000906001600160a01b038516907fddf252ad1be2c89b69c2b068fc378daa952ba7f163c4a11628f55a4df523b3ef9060200160405180910390a36122e283600084612416565b505050565b604080516001600160a01b0385811660248301528416604482015260648082018490528251808303909101815260849091019091526020810180517bffffffffffffffffffffffffffffffffffffffffffffffffffffffff166323b872dd60e01b17905261146e908590612557565b6001600160a01b0383161580159061237657506001600160a01b03821615155b156122e25761238483612101565b61238d82612101565b6001600160a01b0383166000908152600b6020526040902060010154156122e2576001600160a01b0383166000908152600b602052604090205460ff166122e25760405162461bcd60e51b815260206004820152601e60248201527f43616e6e6f74207472616e7366657220616674657220657865726369736500006044820152606401610873565b6001600160a01b0383161580159061243657506001600160a01b03821615155b156122e2576001600160a01b03831660009081526001602052604081205461245f908390612a70565b6001600160a01b0385166000908152600b602052604090206004015461248590846129d2565b61248f91906129f1565b6001600160a01b0385166000908152600b60205260409020600201549091506124b99082906128a5565b6001600160a01b038086166000908152600b602052604080822060029081019490945591861681522001546124ef908290612a70565b6001600160a01b038481166000818152600b60209081526040918290206002019490945580519288168352928201529081018290527fa5e7f28477710ffd7076262c099ba6ebe7599787e25f94ce5460a1320671cdbb9060600160405180910390a150505050565b60006125ac826040518060400160405280602081526020017f5361666545524332303a206c6f772d6c6576656c2063616c6c206661696c6564815250856001600160a01b031661263c9092919063ffffffff16565b8051909150156122e257808060200190518101906125ca9190612a4e565b6122e25760405162461bcd60e51b815260206004820152602a60248201527f5361666545524332303a204552433230206f7065726174696f6e20646964206e60448201527f6f742073756363656564000000000000000000000000000000000000000000006064820152608401610873565b60606106e2848460008585843b6126955760405162461bcd60e51b815260206004820152601d60248201527f416464726573733a2063616c6c20746f206e6f6e2d636f6e74726163740000006044820152606401610873565b600080866001600160a01b031685876040516126b19190612abc565b60006040518083038185875af1925050503d80600081146126ee576040519150601f19603f3d011682016040523d82523d6000602084013e6126f3565b606091505b509150915061270382828661270e565b979650505050505050565b6060831561271d575081610779565b82511561272d5782518084602001fd5b8160405162461bcd60e51b815260040161087391906127d4565b80356001600160a01b038116811461275e57600080fd5b919050565b60006020828403121561277557600080fd5b61077982612747565b6000806040838503121561279157600080fd5b61279a83612747565b946020939093013593505050565b60005b838110156127c35781810151838201526020016127ab565b8381111561146e5750506000910152565b60208152600082518060208401526127f38160408501602087016127a8565b601f01601f19169190910160400192915050565b60006020828403121561281957600080fd5b5035919050565b60008060006060848603121561283557600080fd5b61283e84612747565b925061284c60208501612747565b9150604084013590509250925092565b6000806040838503121561286f57600080fd5b61287883612747565b915061288660208401612747565b90509250929050565b634e487b7160e01b600052601160045260246000fd5b6000828210156128b7576128b761288f565b500390565b600181815b808511156128f75781600019048211156128dd576128dd61288f565b808516156128ea57918102915b93841c93908002906128c1565b509250929050565b60008261290e57506001610823565b8161291b57506000610823565b8160018114612931576002811461293b57612957565b6001915050610823565b60ff84111561294c5761294c61288f565b50506001821b610823565b5060208310610133831016604e8410600b841016171561297a575081810a610823565b61298483836128bc565b80600019048211156129985761299861288f565b029392505050565b600061077960ff8416836128ff565b6000602082840312156129c157600080fd5b815160ff8116811461077957600080fd5b60008160001904831182151516156129ec576129ec61288f565b500290565b600082612a0e57634e487b7160e01b600052601260045260246000fd5b500490565b600181811c90821680612a2757607f821691505b60208210811415612a4857634e487b7160e01b600052602260045260246000fd5b50919050565b600060208284031215612a6057600080fd5b8151801515811461077957600080fd5b60008219821115612a8357612a8361288f565b500190565b600060208284031215612a9a57600080fd5b5051919050565b6000600019821415612ab557612ab561288f565b5060010190565b60008251612ace8184602087016127a8565b919091019291505056fe4f776e61626c653a2063616c6c6572206973206e6f7420746865206f776e6572a164736f6c634300080a000a",
  "devdoc": {
    "kind": "dev",
    "methods": {
      "allowance(address,address)": {
        "details": "See {IERC20-allowance}."
      },
      "approve(address,uint256)": {
        "details": "See {IERC20-approve}. Requirements: - `spender` cannot be the zero address."
      },
      "balanceOf(address)": {
        "details": "See {IERC20-balanceOf}."
      },
      "decimals()": {
        "details": "Returns the number of decimals used to get its user representation. For example, if `decimals` equals `2`, a balance of `505` tokens should be displayed to a user as `5.05` (`505 / 10 ** 2`). Tokens usually opt for a value of 18, imitating the relationship between Ether and Wei. This is the value {ERC20} uses, unless this function is overridden; NOTE: This information is only used for _display_ purposes: it in no way affects any of the arithmetic of the contract, including {IERC20-balanceOf} and {IERC20-transfer}."
      },
      "decreaseAllowance(address,uint256)": {
        "details": "Atomically decreases the allowance granted to `spender` by the caller. This is an alternative to {approve} that can be used as a mitigation for problems described in {IERC20-approve}. Emits an {Approval} event indicating the updated allowance. Requirements: - `spender` cannot be the zero address. - `spender` must have allowance for the caller of at least `subtractedValue`."
      },
      "increaseAllowance(address,uint256)": {
        "details": "Atomically increases the allowance granted to `spender` by the caller. This is an alternative to {approve} that can be used as a mitigation for problems described in {IERC20-approve}. Emits an {Approval} event indicating the updated allowance. Requirements: - `spender` cannot be the zero address."
      },
      "name()": {
        "details": "Returns the name of the token."
      },
      "owner()": {
        "details": "Returns the address of the current owner."
      },
      "paused()": {
        "details": "Returns true if the contract is paused, and false otherwise."
      },
      "renounceOwnership()": {
        "details": "Leaves the contract without owner. It will not be possible to call `onlyOwner` functions anymore. Can only be called by the current owner. NOTE: Renouncing ownership will leave the contract without an owner, thereby removing any functionality that is only available to the owner."
      },
      "symbol()": {
        "details": "Returns the symbol of the token, usually a shorter version of the name."
      },
      "toTokenAmount(address,uint256)": {
        "params": {
          "_amount": "uint256"
        },
        "returns": {
          "value_": "uint256"
        }
      },
      "totalSupply()": {
        "details": "See {IERC20-totalSupply}."
      },
      "transfer(address,uint256)": {
        "details": "See {IERC20-transfer}. Requirements: - `recipient` cannot be the zero address. - the caller must have a balance of at least `amount`."
      },
      "transferFrom(address,address,uint256)": {
        "details": "See {IERC20-transferFrom}. Emits an {Approval} event indicating the updated allowance. This is not required by the EIP. See the note at the beginning of {ERC20}. Requirements: - `sender` and `recipient` cannot be the zero address. - `sender` must have a balance of at least `amount`. - the caller must have allowance for ``sender``'s tokens of at least `amount`."
      },
      "transferOwnership(address)": {
        "details": "Transfers ownership of the contract to a new account (`newOwner`). Can only be called by the current owner."
      }
    },
    "version": 1
  },
  "userdoc": {
    "events": {
      "ClaimableTransfer(address,address,uint256)": {
        "notice": "Event "
      }
    },
    "kind": "user",
    "methods": {
      "RateDenominator()": {
        "notice": "Constant "
      },
      "massApprove()": {
        "notice": "mass approval saves gas"
      },
      "spaceCount()": {
        "notice": "Variables "
      },
      "toTokenAmount(address,uint256)": {
        "notice": "convert pHecta to busd"
      }
    },
    "version": 1
  },
  "storageLayout": {
    "storage": [
      {
        "astId": 122,
        "contract": "contracts/preHecta/pHectagonERC20.sol:pHectagon",
        "label": "_paused",
        "offset": 0,
        "slot": "0",
        "type": "t_bool"
      },
      {
        "astId": 7,
        "contract": "contracts/preHecta/pHectagonERC20.sol:pHectagon",
        "label": "_owner",
        "offset": 1,
        "slot": "0",
        "type": "t_address"
      },
      {
        "astId": 212,
        "contract": "contracts/preHecta/pHectagonERC20.sol:pHectagon",
        "label": "_balances",
        "offset": 0,
        "slot": "1",
        "type": "t_mapping(t_address,t_uint256)"
      },
      {
        "astId": 218,
        "contract": "contracts/preHecta/pHectagonERC20.sol:pHectagon",
        "label": "_allowances",
        "offset": 0,
        "slot": "2",
        "type": "t_mapping(t_address,t_mapping(t_address,t_uint256))"
      },
      {
        "astId": 220,
        "contract": "contracts/preHecta/pHectagonERC20.sol:pHectagon",
        "label": "_totalSupply",
        "offset": 0,
        "slot": "3",
        "type": "t_uint256"
      },
      {
        "astId": 222,
        "contract": "contracts/preHecta/pHectagonERC20.sol:pHectagon",
        "label": "_name",
        "offset": 0,
        "slot": "4",
        "type": "t_string_storage"
      },
      {
        "astId": 224,
        "contract": "contracts/preHecta/pHectagonERC20.sol:pHectagon",
        "label": "_symbol",
        "offset": 0,
        "slot": "5",
        "type": "t_string_storage"
      },
      {
        "astId": 4954,
        "contract": "contracts/preHecta/pHectagonERC20.sol:pHectagon",
        "label": "spaceCount",
        "offset": 0,
        "slot": "6",
        "type": "t_struct(Counter)1394_storage"
      },
      {
        "astId": 4960,
        "contract": "contracts/preHecta/pHectagonERC20.sol:pHectagon",
        "label": "busdAddress",
        "offset": 0,
        "slot": "7",
        "type": "t_address"
      },
      {
        "astId": 4962,
        "contract": "contracts/preHecta/pHectagonERC20.sol:pHectagon",
        "label": "startTimestamp",
        "offset": 0,
        "slot": "8",
        "type": "t_uint256"
      },
      {
        "astId": 4964,
        "contract": "contracts/preHecta/pHectagonERC20.sol:pHectagon",
        "label": "useWhiteList",
        "offset": 0,
        "slot": "9",
        "type": "t_bool"
      },
      {
        "astId": 4966,
        "contract": "contracts/preHecta/pHectagonERC20.sol:pHectagon",
        "label": "isMigrationDone",
        "offset": 1,
        "slot": "9",
        "type": "t_bool"
      },
      {
        "astId": 4970,
        "contract": "contracts/preHecta/pHectagonERC20.sol:pHectagon",
        "label": "investors",
        "offset": 0,
        "slot": "10",
        "type": "t_mapping(t_address,t_bool)"
      },
      {
        "astId": 4975,
        "contract": "contracts/preHecta/pHectagonERC20.sol:pHectagon",
        "label": "infos",
        "offset": 0,
        "slot": "11",
        "type": "t_mapping(t_address,t_struct(Info)5010_storage)"
      },
      {
        "astId": 4980,
        "contract": "contracts/preHecta/pHectagonERC20.sol:pHectagon",
        "label": "spaces",
        "offset": 0,
        "slot": "12",
        "type": "t_mapping(t_uint256,t_struct(SpaceInfo)5017_storage)"
      },
      {
        "astId": 4983,
        "contract": "contracts/preHecta/pHectagonERC20.sol:pHectagon",
        "label": "spaceLength",
        "offset": 0,
        "slot": "13",
        "type": "t_uint256"
      }
    ],
    "types": {
      "t_address": {
        "encoding": "inplace",
        "label": "address",
        "numberOfBytes": "20"
      },
      "t_bool": {
        "encoding": "inplace",
        "label": "bool",
        "numberOfBytes": "1"
      },
      "t_mapping(t_address,t_bool)": {
        "encoding": "mapping",
        "key": "t_address",
        "label": "mapping(address => bool)",
        "numberOfBytes": "32",
        "value": "t_bool"
      },
      "t_mapping(t_address,t_mapping(t_address,t_uint256))": {
        "encoding": "mapping",
        "key": "t_address",
        "label": "mapping(address => mapping(address => uint256))",
        "numberOfBytes": "32",
        "value": "t_mapping(t_address,t_uint256)"
      },
      "t_mapping(t_address,t_struct(Info)5010_storage)": {
        "encoding": "mapping",
        "key": "t_address",
        "label": "mapping(address => struct pHectagon.Info)",
        "numberOfBytes": "32",
        "value": "t_struct(Info)5010_storage"
      },
      "t_mapping(t_address,t_uint256)": {
        "encoding": "mapping",
        "key": "t_address",
        "label": "mapping(address => uint256)",
        "numberOfBytes": "32",
        "value": "t_uint256"
      },
      "t_mapping(t_uint256,t_struct(SpaceInfo)5017_storage)": {
        "encoding": "mapping",
        "key": "t_uint256",
        "label": "mapping(uint256 => struct pHectagon.SpaceInfo)",
        "numberOfBytes": "32",
        "value": "t_struct(SpaceInfo)5017_storage"
      },
      "t_string_storage": {
        "encoding": "bytes",
        "label": "string",
        "numberOfBytes": "32"
      },
      "t_struct(Counter)1394_storage": {
        "encoding": "inplace",
        "label": "struct Counters.Counter",
        "members": [
          {
            "astId": 1393,
            "contract": "contracts/preHecta/pHectagonERC20.sol:pHectagon",
            "label": "_value",
            "offset": 0,
            "slot": "0",
            "type": "t_uint256"
          }
        ],
        "numberOfBytes": "32"
      },
      "t_struct(Info)5010_storage": {
        "encoding": "inplace",
        "label": "struct pHectagon.Info",
        "members": [
          {
            "astId": 5001,
            "contract": "contracts/preHecta/pHectagonERC20.sol:pHectagon",
            "label": "isTransferable",
            "offset": 0,
            "slot": "0",
            "type": "t_bool"
          },
          {
            "astId": 5003,
            "contract": "contracts/preHecta/pHectagonERC20.sol:pHectagon",
            "label": "lastRebaseSpaceCount",
            "offset": 0,
            "slot": "1",
            "type": "t_uint256"
          },
          {
            "astId": 5005,
            "contract": "contracts/preHecta/pHectagonERC20.sol:pHectagon",
            "label": "maxClaim",
            "offset": 0,
            "slot": "2",
            "type": "t_uint256"
          },
          {
            "astId": 5007,
            "contract": "contracts/preHecta/pHectagonERC20.sol:pHectagon",
            "label": "claimed",
            "offset": 0,
            "slot": "3",
            "type": "t_uint256"
          },
          {
            "astId": 5009,
            "contract": "contracts/preHecta/pHectagonERC20.sol:pHectagon",
            "label": "currentSpaceProfit",
            "offset": 0,
            "slot": "4",
            "type": "t_uint256"
          }
        ],
        "numberOfBytes": "160"
      },
      "t_struct(SpaceInfo)5017_storage": {
        "encoding": "inplace",
        "label": "struct pHectagon.SpaceInfo",
        "members": [
          {
            "astId": 5012,
            "contract": "contracts/preHecta/pHectagonERC20.sol:pHectagon",
            "label": "totalHecta",
            "offset": 0,
            "slot": "0",
            "type": "t_uint256"
          },
          {
            "astId": 5014,
            "contract": "contracts/preHecta/pHectagonERC20.sol:pHectagon",
            "label": "totalPHecta",
            "offset": 0,
            "slot": "1",
            "type": "t_uint256"
          },
          {
            "astId": 5016,
            "contract": "contracts/preHecta/pHectagonERC20.sol:pHectagon",
            "label": "timestamp",
            "offset": 0,
            "slot": "2",
            "type": "t_uint256"
          }
        ],
        "numberOfBytes": "96"
      },
      "t_uint256": {
        "encoding": "inplace",
        "label": "uint256",
        "numberOfBytes": "32"
      }
    }
  }
}