{
  "address": "0x542974f75cfDDb1d6ba676651c20134078ebE9D1",
  "abi": [
    {
      "inputs": [
        {
          "internalType": "address",
          "name": "hectaAddress_",
          "type": "address"
        },
        {
          "internalType": "address",
          "name": "treasuryAddress_",
          "type": "address"
        }
      ],
      "stateMutability": "nonpayable",
      "type": "constructor"
    },
    {
      "anonymous": false,
      "inputs": [
        {
          "indexed": true,
          "internalType": "address",
          "name": "owner",
          "type": "address"
        },
        {
          "indexed": true,
          "internalType": "address",
          "name": "spender",
          "type": "address"
        },
        {
          "indexed": false,
          "internalType": "uint256",
          "name": "value",
          "type": "uint256"
        }
      ],
      "name": "Approval",
      "type": "event"
    },
    {
      "anonymous": false,
      "inputs": [
        {
          "indexed": false,
          "internalType": "address",
          "name": "from",
          "type": "address"
        },
        {
          "indexed": false,
          "internalType": "address",
          "name": "to",
          "type": "address"
        },
        {
          "indexed": false,
          "internalType": "uint256",
          "name": "amount",
          "type": "uint256"
        }
      ],
      "name": "ClaimableTransfer",
      "type": "event"
    },
    {
      "anonymous": false,
      "inputs": [
        {
          "indexed": false,
          "internalType": "address",
          "name": "from",
          "type": "address"
        },
        {
          "indexed": false,
          "internalType": "uint256",
          "name": "amount",
          "type": "uint256"
        }
      ],
      "name": "Exercise",
      "type": "event"
    },
    {
      "anonymous": false,
      "inputs": [
        {
          "indexed": true,
          "internalType": "address",
          "name": "previousOwner",
          "type": "address"
        },
        {
          "indexed": true,
          "internalType": "address",
          "name": "newOwner",
          "type": "address"
        }
      ],
      "name": "OwnershipTransferred",
      "type": "event"
    },
    {
      "anonymous": false,
      "inputs": [
        {
          "indexed": false,
          "internalType": "address",
          "name": "account",
          "type": "address"
        }
      ],
      "name": "Paused",
      "type": "event"
    },
    {
      "anonymous": false,
      "inputs": [
        {
          "indexed": true,
          "internalType": "address",
          "name": "from",
          "type": "address"
        },
        {
          "indexed": true,
          "internalType": "address",
          "name": "to",
          "type": "address"
        },
        {
          "indexed": false,
          "internalType": "uint256",
          "name": "value",
          "type": "uint256"
        }
      ],
      "name": "Transfer",
      "type": "event"
    },
    {
      "anonymous": false,
      "inputs": [
        {
          "indexed": false,
          "internalType": "address",
          "name": "account",
          "type": "address"
        }
      ],
      "name": "Unpaused",
      "type": "event"
    },
    {
      "inputs": [],
      "name": "MAX_PHECTA_TO_EXCERCISE",
      "outputs": [
        {
          "internalType": "uint256",
          "name": "",
          "type": "uint256"
        }
      ],
      "stateMutability": "view",
      "type": "function"
    },
    {
      "inputs": [],
      "name": "RATE_DENOMINATOR",
      "outputs": [
        {
          "internalType": "uint256",
          "name": "",
          "type": "uint256"
        }
      ],
      "stateMutability": "view",
      "type": "function"
    },
    {
      "inputs": [
        {
          "internalType": "address",
          "name": "owner",
          "type": "address"
        },
        {
          "internalType": "address",
          "name": "spender",
          "type": "address"
        }
      ],
      "name": "allowance",
      "outputs": [
        {
          "internalType": "uint256",
          "name": "",
          "type": "uint256"
        }
      ],
      "stateMutability": "view",
      "type": "function"
    },
    {
      "inputs": [
        {
          "internalType": "address",
          "name": "spender",
          "type": "address"
        },
        {
          "internalType": "uint256",
          "name": "amount",
          "type": "uint256"
        }
      ],
      "name": "approve",
      "outputs": [
        {
          "internalType": "bool",
          "name": "",
          "type": "bool"
        }
      ],
      "stateMutability": "nonpayable",
      "type": "function"
    },
    {
      "inputs": [
        {
          "internalType": "address",
          "name": "account",
          "type": "address"
        }
      ],
      "name": "balanceOf",
      "outputs": [
        {
          "internalType": "uint256",
          "name": "",
          "type": "uint256"
        }
      ],
      "stateMutability": "view",
      "type": "function"
    },
    {
      "inputs": [],
      "name": "beat",
      "outputs": [],
      "stateMutability": "nonpayable",
      "type": "function"
    },
    {
      "inputs": [
        {
          "internalType": "uint256",
          "name": "amount",
          "type": "uint256"
        }
      ],
      "name": "burn",
      "outputs": [],
      "stateMutability": "nonpayable",
      "type": "function"
    },
    {
      "inputs": [
        {
          "internalType": "address",
          "name": "account",
          "type": "address"
        },
        {
          "internalType": "uint256",
          "name": "amount",
          "type": "uint256"
        }
      ],
      "name": "burnFrom",
      "outputs": [],
      "stateMutability": "nonpayable",
      "type": "function"
    },
    {
      "inputs": [],
      "name": "busdAddress",
      "outputs": [
        {
          "internalType": "address",
          "name": "",
          "type": "address"
        }
      ],
      "stateMutability": "view",
      "type": "function"
    },
    {
      "inputs": [],
      "name": "decimals",
      "outputs": [
        {
          "internalType": "uint8",
          "name": "",
          "type": "uint8"
        }
      ],
      "stateMutability": "view",
      "type": "function"
    },
    {
      "inputs": [
        {
          "internalType": "address",
          "name": "spender",
          "type": "address"
        },
        {
          "internalType": "uint256",
          "name": "subtractedValue",
          "type": "uint256"
        }
      ],
      "name": "decreaseAllowance",
      "outputs": [
        {
          "internalType": "bool",
          "name": "",
          "type": "bool"
        }
      ],
      "stateMutability": "nonpayable",
      "type": "function"
    },
    {
      "inputs": [],
      "name": "disableWhiteList",
      "outputs": [],
      "stateMutability": "nonpayable",
      "type": "function"
    },
    {
      "inputs": [],
      "name": "enableWhiteList",
      "outputs": [],
      "stateMutability": "nonpayable",
      "type": "function"
    },
    {
      "inputs": [
        {
          "internalType": "uint256",
          "name": "amount_",
          "type": "uint256"
        }
      ],
      "name": "exercise",
      "outputs": [],
      "stateMutability": "nonpayable",
      "type": "function"
    },
    {
      "inputs": [],
      "name": "hectaAddress",
      "outputs": [
        {
          "internalType": "address",
          "name": "",
          "type": "address"
        }
      ],
      "stateMutability": "view",
      "type": "function"
    },
    {
      "inputs": [
        {
          "internalType": "address",
          "name": "spender",
          "type": "address"
        },
        {
          "internalType": "uint256",
          "name": "addedValue",
          "type": "uint256"
        }
      ],
      "name": "increaseAllowance",
      "outputs": [
        {
          "internalType": "bool",
          "name": "",
          "type": "bool"
        }
      ],
      "stateMutability": "nonpayable",
      "type": "function"
    },
    {
      "inputs": [
        {
          "internalType": "address",
          "name": "",
          "type": "address"
        }
      ],
      "name": "infos",
      "outputs": [
        {
          "internalType": "bool",
          "name": "isTransferable",
          "type": "bool"
        },
        {
          "internalType": "uint256",
          "name": "lastRebaseSpaceCount",
          "type": "uint256"
        },
        {
          "internalType": "uint256",
          "name": "maxClaim",
          "type": "uint256"
        },
        {
          "internalType": "uint256",
          "name": "claimed",
          "type": "uint256"
        },
        {
          "internalType": "uint256",
          "name": "currentSpaceProfit",
          "type": "uint256"
        }
      ],
      "stateMutability": "view",
      "type": "function"
    },
    {
      "inputs": [
        {
          "internalType": "address",
          "name": "",
          "type": "address"
        }
      ],
      "name": "investors",
      "outputs": [
        {
          "internalType": "bool",
          "name": "",
          "type": "bool"
        }
      ],
      "stateMutability": "view",
      "type": "function"
    },
    {
      "inputs": [],
      "name": "massApprove",
      "outputs": [],
      "stateMutability": "nonpayable",
      "type": "function"
    },
    {
      "inputs": [],
      "name": "name",
      "outputs": [
        {
          "internalType": "string",
          "name": "",
          "type": "string"
        }
      ],
      "stateMutability": "view",
      "type": "function"
    },
    {
      "inputs": [],
      "name": "owner",
      "outputs": [
        {
          "internalType": "address",
          "name": "",
          "type": "address"
        }
      ],
      "stateMutability": "view",
      "type": "function"
    },
    {
      "inputs": [],
      "name": "pause",
      "outputs": [],
      "stateMutability": "nonpayable",
      "type": "function"
    },
    {
      "inputs": [],
      "name": "paused",
      "outputs": [
        {
          "internalType": "bool",
          "name": "",
          "type": "bool"
        }
      ],
      "stateMutability": "view",
      "type": "function"
    },
    {
      "inputs": [],
      "name": "renounceOwnership",
      "outputs": [],
      "stateMutability": "nonpayable",
      "type": "function"
    },
    {
      "inputs": [
        {
          "internalType": "address",
          "name": "busdAddress_",
          "type": "address"
        }
      ],
      "name": "setBusdAddress",
      "outputs": [],
      "stateMutability": "nonpayable",
      "type": "function"
    },
    {
      "inputs": [
        {
          "internalType": "uint256",
          "name": "spaceLength_",
          "type": "uint256"
        }
      ],
      "name": "setSpaceLength",
      "outputs": [],
      "stateMutability": "nonpayable",
      "type": "function"
    },
    {
      "inputs": [
        {
          "internalType": "address",
          "name": "addr",
          "type": "address"
        }
      ],
      "name": "showClaimable",
      "outputs": [
        {
          "internalType": "uint256",
          "name": "",
          "type": "uint256"
        }
      ],
      "stateMutability": "view",
      "type": "function"
    },
    {
      "inputs": [],
      "name": "spaceCount",
      "outputs": [
        {
          "internalType": "uint256",
          "name": "_value",
          "type": "uint256"
        }
      ],
      "stateMutability": "view",
      "type": "function"
    },
    {
      "inputs": [],
      "name": "spaceLength",
      "outputs": [
        {
          "internalType": "uint256",
          "name": "",
          "type": "uint256"
        }
      ],
      "stateMutability": "view",
      "type": "function"
    },
    {
      "inputs": [
        {
          "internalType": "uint256",
          "name": "",
          "type": "uint256"
        }
      ],
      "name": "spaces",
      "outputs": [
        {
          "internalType": "uint256",
          "name": "totalHecta",
          "type": "uint256"
        },
        {
          "internalType": "uint256",
          "name": "totalPHecta",
          "type": "uint256"
        },
        {
          "internalType": "uint256",
          "name": "startedTime",
          "type": "uint256"
        }
      ],
      "stateMutability": "view",
      "type": "function"
    },
    {
      "inputs": [],
      "name": "start",
      "outputs": [],
      "stateMutability": "nonpayable",
      "type": "function"
    },
    {
      "inputs": [],
      "name": "startTimestamp",
      "outputs": [
        {
          "internalType": "uint256",
          "name": "",
          "type": "uint256"
        }
      ],
      "stateMutability": "view",
      "type": "function"
    },
    {
      "inputs": [],
      "name": "symbol",
      "outputs": [
        {
          "internalType": "string",
          "name": "",
          "type": "string"
        }
      ],
      "stateMutability": "view",
      "type": "function"
    },
    {
      "inputs": [
        {
          "internalType": "address",
          "name": "token",
          "type": "address"
        },
        {
          "internalType": "uint256",
          "name": "amount_",
          "type": "uint256"
        }
      ],
      "name": "toTokenAmount",
      "outputs": [
        {
          "internalType": "uint256",
          "name": "value_",
          "type": "uint256"
        }
      ],
      "stateMutability": "view",
      "type": "function"
    },
    {
      "inputs": [
        {
          "internalType": "address",
          "name": "investor",
          "type": "address"
        }
      ],
      "name": "toggleInvestor",
      "outputs": [],
      "stateMutability": "nonpayable",
      "type": "function"
    },
    {
      "inputs": [],
      "name": "totalSupply",
      "outputs": [
        {
          "internalType": "uint256",
          "name": "",
          "type": "uint256"
        }
      ],
      "stateMutability": "view",
      "type": "function"
    },
    {
      "inputs": [
        {
          "internalType": "address",
          "name": "recipient",
          "type": "address"
        },
        {
          "internalType": "uint256",
          "name": "amount",
          "type": "uint256"
        }
      ],
      "name": "transfer",
      "outputs": [
        {
          "internalType": "bool",
          "name": "",
          "type": "bool"
        }
      ],
      "stateMutability": "nonpayable",
      "type": "function"
    },
    {
      "inputs": [
        {
          "internalType": "address",
          "name": "sender",
          "type": "address"
        },
        {
          "internalType": "address",
          "name": "recipient",
          "type": "address"
        },
        {
          "internalType": "uint256",
          "name": "amount",
          "type": "uint256"
        }
      ],
      "name": "transferFrom",
      "outputs": [
        {
          "internalType": "bool",
          "name": "",
          "type": "bool"
        }
      ],
      "stateMutability": "nonpayable",
      "type": "function"
    },
    {
      "inputs": [
        {
          "internalType": "address",
          "name": "newOwner",
          "type": "address"
        }
      ],
      "name": "transferOwnership",
      "outputs": [],
      "stateMutability": "nonpayable",
      "type": "function"
    },
    {
      "inputs": [],
      "name": "treasuryAddress",
      "outputs": [
        {
          "internalType": "address",
          "name": "",
          "type": "address"
        }
      ],
      "stateMutability": "view",
      "type": "function"
    },
    {
      "inputs": [],
      "name": "unpause",
      "outputs": [],
      "stateMutability": "nonpayable",
      "type": "function"
    },
    {
      "inputs": [],
      "name": "useWhiteList",
      "outputs": [
        {
          "internalType": "bool",
          "name": "",
          "type": "bool"
        }
      ],
      "stateMutability": "view",
      "type": "function"
    }
  ],
  "transactionHash": "0xbef1fea4631209ad12651f563291a480b1d2efadd67a8ac60388ec09aecb1b12",
  "args": [
    "0x224687b86DFF59d406629738DB64cAef1F9CbE7d",
    "0x8335c8D5c40298868c1B161A5086559fcD1B5cB9"
  ],
  "solcInputHash": "6df7be37e4cb3a007d7849863a13bbd5",
  "bytecode": "0x60c060405262093a80600d553480156200001857600080fd5b50604051620035f8380380620035f88339810160408190526200003b9162000ac9565b604080518082018252601081526f283934bb30ba32902432b1ba30b3b7b760811b6020808301919091528251808401909352600683526570486563746160d01b908301526000805460ff19169055906200009533620000f1565b8151620000aa90600490602085019062000a06565b508051620000c090600590602084019062000a06565b5050506001600160a01b03808316608052811660a052620000e93366b1a2bc2ec500006200014a565b505062000c06565b600080546001600160a01b03838116610100818102610100600160a81b0319851617855560405193049190911692909183917f8be0079c531659141344cd1fd0a4f28419497f9722a3daafe3b4186f6b6457e091a35050565b6001600160a01b038216620001a65760405162461bcd60e51b815260206004820152601f60248201527f45524332303a206d696e7420746f20746865207a65726f20616464726573730060448201526064015b60405180910390fd5b620001b4600083836200024f565b8060036000828254620001c8919062000b17565b90915550506001600160a01b03821660009081526001602052604081208054839290620001f790849062000b17565b90915550506040518181526001600160a01b038316906000907fddf252ad1be2c89b69c2b068fc378daa952ba7f163c4a11628f55a4df523b3ef9060200160405180910390a36200024b600083836200032b565b5050565b600854158015906200026957506001600160a01b03831615155b80156200027e57506001600160a01b03821615155b1562000326576200028f8362000486565b6200029a8262000486565b6001600160a01b0383166000908152600b60205260409020600101541562000326576001600160a01b0383166000908152600b602052604090205460ff16620003265760405162461bcd60e51b815260206004820152601e60248201527f43616e6e6f74207472616e73666572206166746572206578657263697365000060448201526064016200019d565b505050565b600854158015906200034557506001600160a01b03831615155b80156200035a57506001600160a01b03821615155b1562000326576001600160a01b0383166000908152600160205260408120546200038690839062000b17565b6001600160a01b0385166000908152600b6020526040902060040154620003ae908462000b32565b620003ba919062000b54565b6001600160a01b0385166000908152600b6020526040902060020154909150620003e690829062000b77565b6001600160a01b038086166000908152600b602052604080822060029081019490945591861681522001546200041e90829062000b17565b6001600160a01b038481166000818152600b60209081526040918290206002019490945580519288168352928201529081018290527fa5e7f28477710ffd7076262c099ba6ebe7599787e25f94ce5460a1320671cdbb9060600160405180910390a150505050565b620004906200053b565b620004a76006620006a960201b6200177c1760201c565b6001600160a01b0382166000908152600b602052604090206001015410156200051d576000620004d782620006ad565b6020808201516001600160a01b0385166000908152600b909252604091829020600481019190915582516002820155910151600180830191909155815460ff1916179055505b50565b6001600160a01b031660009081526001602052604090205490565b6000600c6000620005586006620006a960201b6200177c1760201c565b8152602001908152602001600020604051806060016040529081600082015481526020016001820154815260200160028201548152505090506000600854118015620005b55750600d546040820151620005b3904262000b77565b115b156200051d57620005d26006620009fd60201b620017801760201c565b60405180606001604052806080516001600160a01b03166318160ddd6040518163ffffffff1660e01b8152600401602060405180830381865afa1580156200061e573d6000803e3d6000fd5b505050506040513d601f19601f8201168201806040525081019062000644919062000b91565b81526020016200065360035490565b815260200142815250600c6000620006776006620006a960201b6200177c1760201c565b815260200190815260200160002060008201518160000155602082015181600101556040820151816002015590505050565b5490565b620006d260405180606001604052806000815260200160008152602001600081525090565b6008541580620006e25750600354155b156200070d576040518060600160405280600081526020016000815260200160008152509050919050565b6000620007266006620006a960201b6200177c1760201c565b6000818152600c6020908152604080832081516060810183528154815260018083015482860152600290920154818401526001600160a01b0389168552600b9093529083206004810154910154939450909284111562000878576001600160a01b0386166000908152600b60205260409020600101545b848110156200087657600c6000620007b783600162000b17565b815260200190815260200160002060010154620007da886200052060201b60201c565b6000838152600c60208190526040822054620f424092620186a092906200080388600162000b17565b81526020019081526020016000206000015462000821919062000b77565b6200082d919062000b32565b62000839919062000b54565b62000845919062000b32565b62000851919062000b54565b91506200085f828462000b17565b9250806200086d8162000bab565b9150506200079d565b505b600d5460408401516200088c904262000b77565b1115620009ae57600060405180606001604052806080516001600160a01b03166318160ddd6040518163ffffffff1660e01b8152600401602060405180830381865afa158015620008e1573d6000803e3d6000fd5b505050506040513d601f19601f8201168201806040525081019062000907919062000b91565b81526020016200091660035490565b81524260209182015281015190915062000945886001600160a01b031660009081526001602052604090205490565b6000878152600c60205260409020548351620f424091620186a0916200096c919062000b77565b62000978919062000b32565b62000984919062000b54565b62000990919062000b32565b6200099c919062000b54565b9150620009aa828462000b17565b9250505b604080516060810182526001600160a01b0388166000908152600b60205291909120600201548190620009e390859062000b17565b815260200182815260200185815250945050505050919050565b80546001019055565b82805462000a149062000bc9565b90600052602060002090601f01602090048101928262000a38576000855562000a83565b82601f1062000a5357805160ff191683800117855562000a83565b8280016001018555821562000a83579182015b8281111562000a8357825182559160200191906001019062000a66565b5062000a9192915062000a95565b5090565b5b8082111562000a91576000815560010162000a96565b80516001600160a01b038116811462000ac457600080fd5b919050565b6000806040838503121562000add57600080fd5b62000ae88362000aac565b915062000af86020840162000aac565b90509250929050565b634e487b7160e01b600052601160045260246000fd5b6000821982111562000b2d5762000b2d62000b01565b500190565b600081600019048311821515161562000b4f5762000b4f62000b01565b500290565b60008262000b7257634e487b7160e01b600052601260045260246000fd5b500490565b60008282101562000b8c5762000b8c62000b01565b500390565b60006020828403121562000ba457600080fd5b5051919050565b600060001982141562000bc25762000bc262000b01565b5060010190565b600181811c9082168062000bde57607f821691505b6020821081141562000c0057634e487b7160e01b600052602260045260246000fd5b50919050565b60805160a0516129a262000c566000396000818161058301528181610948015281816112ea01526115c30152600081816104c701528181610cae01528181611376015261196301526129a26000f3fe608060405234801561001057600080fd5b50600436106102de5760003560e01c8063795ab83e11610186578063b07f0a41116100e3578063d99f867411610097578063e6fd48bc11610071578063e6fd48bc14610671578063f2fde38b1461067a578063f96628911461068d57600080fd5b8063d99f867414610623578063dcd8361614610630578063dd62ed3e1461063857600080fd5b8063c5f956af116100c8578063c5f956af1461057e578063c6ddb642146105a5578063d48e64881461061057600080fd5b8063b07f0a4114610563578063be9a65551461057657600080fd5b80638da5cb5b1161013a578063a457c2d71161011f578063a457c2d714610534578063a9059cbb14610547578063a9e107491461055a57600080fd5b80638da5cb5b1461051657806395d89b411461052c57600080fd5b80637a259dba1161016b5780637a259dba146104fc5780637efad8e0146105045780638456cb591461050e57600080fd5b8063795ab83e146104c257806379cc6790146104e957600080fd5b8063395093511161023f5780635c975abb116101f3578063715018a6116101cd578063715018a6146104455780637586353b1461044d57806376a902311461049757600080fd5b80635c975abb146103ee5780636f7bc9be146103f957806370a082311461041c57600080fd5b8063418c852611610224578063418c8526146103c057806342966c68146103d3578063539b2ba4146103e657600080fd5b806339509351146103a55780633f4ba83a146103b857600080fd5b80631c837c3e11610296578063313ce5671161027b578063313ce56714610384578063319ae4b214610393578063382035091461039d57600080fd5b80631c837c3e1461035c57806323b872dd1461037157600080fd5b806306fdde03116102c757806306fdde031461031c578063095ea7b31461033157806318160ddd1461035457600080fd5b8063015623c7146102e3578063015c1c7a14610309575b600080fd5b6102f66102f1366004612600565b610697565b6040519081526020015b60405180910390f35b6102f661031736600461261b565b6106d8565b61032461076e565b6040516103009190612671565b61034461033f36600461261b565b610800565b6040519015158152602001610300565b6003546102f6565b61036f61036a3660046126a4565b610817565b005b61034461037f3660046126bd565b61086f565b60405160098152602001610300565b6006546102f69081565b61036f61092e565b6103446103b336600461261b565b6109d5565b61036f610a11565b61036f6103ce366004612600565b610a69565b61036f6103e13660046126a4565b610ae0565b61036f610aea565b60005460ff16610344565b610344610407366004612600565b600a6020526000908152604090205460ff1681565b6102f661042a366004612600565b6001600160a01b031660009081526001602052604090205490565b61036f610b47565b61047c61045b3660046126a4565b600c6020526000908152604090208054600182015460029092015490919083565b60408051938452602084019290925290820152606001610300565b6007546104aa906001600160a01b031681565b6040516001600160a01b039091168152602001610300565b6104aa7f000000000000000000000000000000000000000000000000000000000000000081565b61036f6104f736600461261b565b610b9f565b61036f610c25565b6102f6620f424081565b61036f610d84565b60005461010090046001600160a01b03166104aa565b610324610dda565b61034461054236600461261b565b610de9565b61034461055536600461261b565b610e9a565b6102f6600d5481565b61036f6105713660046126a4565b610eec565b61036f61142a565b6104aa7f000000000000000000000000000000000000000000000000000000000000000081565b6105e66105b3366004612600565b600b602052600090815260409020805460018201546002830154600384015460049094015460ff90931693919290919085565b6040805195151586526020860194909452928401919091526060830152608082015260a001610300565b61036f61061e366004612600565b61152f565b6009546103449060ff1681565b61036f61164f565b6102f66106463660046126f9565b6001600160a01b03918216600090815260026020908152604080832093909416825291909152205490565b6102f660085481565b61036f610688366004612600565b6116a9565b6102f6620186a081565b6000806106a383611789565b6001600160a01b0384166000908152600b6020526040812060030154825192935090916106d09190612742565b949350505050565b60006106e66009600a61283d565b836001600160a01b031663313ce5676040518163ffffffff1660e01b8152600401602060405180830381865afa158015610724573d6000803e3d6000fd5b505050506040513d601f19601f82011682018060405250810190610748919061284c565b61075390600a61283d565b61075d908461286f565b610767919061288e565b9392505050565b60606004805461077d906128b0565b80601f01602080910402602001604051908101604052809291908181526020018280546107a9906128b0565b80156107f65780601f106107cb576101008083540402835291602001916107f6565b820191906000526020600020905b8154815290600101906020018083116107d957829003601f168201915b5050505050905090565b600061080d338484611aca565b5060015b92915050565b6000546001600160a01b0361010090910416331461086a5760405162461bcd60e51b8152602060048201819052602482015260008051602061297683398151915260448201526064015b60405180910390fd5b600d55565b600061087c848484611bee565b6001600160a01b0384166000908152600260209081526040808320338452909152902054828110156109165760405162461bcd60e51b815260206004820152602860248201527f45524332303a207472616e7366657220616d6f756e742065786365656473206160448201527f6c6c6f77616e63650000000000000000000000000000000000000000000000006064820152608401610861565b6109238533858403611aca565b506001949350505050565b60075460405163095ea7b360e01b81526001600160a01b037f0000000000000000000000000000000000000000000000000000000000000000811660048301526d314dc6448d9338c15b0a0000000060248301529091169063095ea7b3906044016020604051808303816000875af11580156109ae573d6000803e3d6000fd5b505050506040513d601f19601f820116820180604052508101906109d291906128eb565b50565b3360008181526002602090815260408083206001600160a01b0387168452909152812054909161080d918590610a0c90869061290d565b611aca565b6000546001600160a01b03610100909104163314610a5f5760405162461bcd60e51b815260206004820181905260248201526000805160206129768339815191526044820152606401610861565b610a67611e02565b565b6000546001600160a01b03610100909104163314610ab75760405162461bcd60e51b815260206004820181905260248201526000805160206129768339815191526044820152606401610861565b6001600160a01b03166000908152600a60205260409020805460ff19811660ff90911615179055565b6109d23382611e9e565b6000546001600160a01b03610100909104163314610b385760405162461bcd60e51b815260206004820181905260248201526000805160206129768339815191526044820152606401610861565b6009805460ff19166001179055565b6000546001600160a01b03610100909104163314610b955760405162461bcd60e51b815260206004820181905260248201526000805160206129768339815191526044820152606401610861565b610a676000611fff565b6000610bab8333610646565b905081811015610c095760405162461bcd60e51b8152602060048201526024808201527f45524332303a206275726e20616d6f756e74206578636565647320616c6c6f77604482015263616e636560e01b6064820152608401610861565b610c168333848403611aca565b610c208383611e9e565b505050565b6000600c6000610c3460065490565b8152602001908152602001600020604051806060016040529081600082015481526020016001820154815260200160028201548152505090506000600854118015610c8e5750600d546040820151610c8c9042612742565b115b156109d257610ca1600680546001019055565b60405180606001604052807f00000000000000000000000000000000000000000000000000000000000000006001600160a01b03166318160ddd6040518163ffffffff1660e01b8152600401602060405180830381865afa158015610d0a573d6000803e3d6000fd5b505050506040513d601f19601f82011682018060405250810190610d2e9190612925565b8152602001610d3c60035490565b815260200142815250600c6000610d5260065490565b815260200190815260200160002060008201518160000155602082015181600101556040820151816002015590505050565b6000546001600160a01b03610100909104163314610dd25760405162461bcd60e51b815260206004820181905260248201526000805160206129768339815191526044820152606401610861565b610a6761206f565b60606005805461077d906128b0565b3360009081526002602090815260408083206001600160a01b038616845290915281205482811015610e835760405162461bcd60e51b815260206004820152602560248201527f45524332303a2064656372656173656420616c6c6f77616e63652062656c6f7760448201527f207a65726f0000000000000000000000000000000000000000000000000000006064820152608401610861565b610e903385858403611aca565b5060019392505050565b6000805460ff1615610ee15760405162461bcd60e51b815260206004820152601060248201526f14185d5cd8589b194e881c185d5cd95960821b6044820152606401610861565b61080d338484611bee565b600060085411610f3e5760405162461bcd60e51b815260206004820152601a60248201527f57616974696e6720666f72206f776e657220746f2073746172740000000000006044820152606401610861565b60095460ff16151560011415610fd857336000908152600a602052604090205460ff161515600114610fd85760405162461bcd60e51b815260206004820152603160248201527f496e766573746f72206d7573742062652077686974656c697374656420746f2060448201527f75736520746869732066756e6374696f6e0000000000000000000000000000006064820152608401610861565b60005460ff161561101e5760405162461bcd60e51b815260206004820152601060248201526f14185d5cd8589b194e881c185d5cd95960821b6044820152606401610861565b611027336120ea565b600754600090611040906001600160a01b0316836106d8565b336000908152600b60205260409020600381015460029091015491925083916110699190612742565b10156110b75760405162461bcd60e51b815260206004820152601e60248201527f436c61696d206d6f7265207468616e206d6178696d756d20616d6f756e7400006044820152606401610861565b600754604051636eb1769f60e11b815233600482015230602482015282916001600160a01b03169063dd62ed3e90604401602060405180830381865afa158015611105573d6000803e3d6000fd5b505050506040513d601f19601f820116820180604052508101906111299190612925565b101561119d5760405162461bcd60e51b815260206004820152603e60248201527f4d75737420617070726f7665207468697320636f6e747261637420746f20737060448201527f656e64206d6f7265207468616e2077697468647261776c20616d6f756e7400006064820152608401610861565b6007546040516370a0823160e01b815233600482015283916001600160a01b0316906370a0823190602401602060405180830381865afa1580156111e5573d6000803e3d6000fd5b505050506040513d601f19601f820116820180604052508101906112099190612925565b10156112575760405162461bcd60e51b815260206004820152601a60248201527f425553442062616c616e6365206973206e6f7420656e6f7567680000000000006044820152606401610861565b336000818152600b60205260409020805460ff191690556112789083611e9e565b336000908152600b60205260408120600301805484929061129a90849061290d565b90915550506007546112b7906001600160a01b031633308461216a565b60075460405163bc157ac160e01b8152600481018390526001600160a01b039182166024820152600060448201819052917f0000000000000000000000000000000000000000000000000000000000000000169063bc157ac1906064016020604051808303816000875af1158015611333573d6000803e3d6000fd5b505050506040513d601f19601f820116820180604052508101906113579190612925565b60405163a9059cbb60e01b8152336004820152602481018290529091507f00000000000000000000000000000000000000000000000000000000000000006001600160a01b03169063a9059cbb906044016020604051808303816000875af11580156113c7573d6000803e3d6000fd5b505050506040513d601f19601f820116820180604052508101906113eb91906128eb565b5060408051338152602081018590527f5a20425ee28c08dfaf53c051ce9fb1fdfedad2949379924d3313a74c2c61a2a5910160405180910390a1505050565b6000546001600160a01b036101009091041633146114785760405162461bcd60e51b815260206004820181905260248201526000805160206129768339815191526044820152606401610861565b600854156114c85760405162461bcd60e51b815260206004820152601060248201527f416c7265616479207374617274656421000000000000000000000000000000006044820152606401610861565b42600855604080516060810190915260008152602081016114e860035490565b815260200142815250600c60006114fe60065490565b8152602001908152602001600020600082015181600001556020820151816001015560408201518160020155905050565b6000546001600160a01b0361010090910416331461157d5760405162461bcd60e51b815260206004820181905260248201526000805160206129768339815191526044820152606401610861565b600780547fffffffffffffffffffffffff0000000000000000000000000000000000000000166001600160a01b0383811691821790925560405163095ea7b360e01b81527f000000000000000000000000000000000000000000000000000000000000000090921660048301526d314dc6448d9338c15b0a0000000060248301529063095ea7b3906044016020604051808303816000875af1158015611627573d6000803e3d6000fd5b505050506040513d601f19601f8201168201806040525081019061164b91906128eb565b5050565b6000546001600160a01b0361010090910416331461169d5760405162461bcd60e51b815260206004820181905260248201526000805160206129768339815191526044820152606401610861565b6009805460ff19169055565b6000546001600160a01b036101009091041633146116f75760405162461bcd60e51b815260206004820181905260248201526000805160206129768339815191526044820152606401610861565b6001600160a01b0381166117735760405162461bcd60e51b815260206004820152602660248201527f4f776e61626c653a206e6577206f776e657220697320746865207a65726f206160448201527f64647265737300000000000000000000000000000000000000000000000000006064820152608401610861565b6109d281611fff565b5490565b80546001019055565b6117ad60405180606001604052806000815260200160008152602001600081525090565b60085415806117bc5750600354155b156117e6576040518060600160405280600081526020016000815260200160008152509050919050565b60006117f160065490565b6000818152600c6020908152604080832081516060810183528154815260018083015482860152600290920154818401526001600160a01b0389168552600b9093529083206004810154910154939450909284111561193c576001600160a01b0386166000908152600b60205260409020600101545b8481101561193a57600c600061187e83600161290d565b8152602001908152602001600020600101546118af886001600160a01b031660009081526001602052604090205490565b6000838152600c60208190526040822054620f424092620186a092906118d688600161290d565b8152602001908152602001600020600001546118f29190612742565b6118fc919061286f565b611906919061288e565b611910919061286f565b61191a919061288e565b9150611926828461290d565b9250806119328161293e565b915050611867565b505b600d54604084015161194e9042612742565b1115611a7d57600060405180606001604052807f00000000000000000000000000000000000000000000000000000000000000006001600160a01b03166318160ddd6040518163ffffffff1660e01b8152600401602060405180830381865afa1580156119bf573d6000803e3d6000fd5b505050506040513d601f19601f820116820180604052508101906119e39190612925565b81526020016119f160035490565b81526020014281525090508060200151611a20886001600160a01b031660009081526001602052604090205490565b6000878152600c60205260409020548351620f424091620186a091611a459190612742565b611a4f919061286f565b611a59919061288e565b611a63919061286f565b611a6d919061288e565b9150611a79828461290d565b9250505b604080516060810182526001600160a01b0388166000908152600b60205291909120600201548190611ab090859061290d565b815260200182815260200185815250945050505050919050565b6001600160a01b038316611b2c5760405162461bcd60e51b8152602060048201526024808201527f45524332303a20617070726f76652066726f6d20746865207a65726f206164646044820152637265737360e01b6064820152608401610861565b6001600160a01b038216611b8d5760405162461bcd60e51b815260206004820152602260248201527f45524332303a20617070726f766520746f20746865207a65726f206164647265604482015261737360f01b6064820152608401610861565b6001600160a01b0383811660008181526002602090815260408083209487168084529482529182902085905590518481527f8c5be1e5ebec7d5bd14f71427d1e84f3dd0314c0f7b2291e5b200ac8c7c3b925910160405180910390a3505050565b6001600160a01b038316611c6a5760405162461bcd60e51b815260206004820152602560248201527f45524332303a207472616e736665722066726f6d20746865207a65726f20616460448201527f64726573730000000000000000000000000000000000000000000000000000006064820152608401610861565b6001600160a01b038216611ccc5760405162461bcd60e51b815260206004820152602360248201527f45524332303a207472616e7366657220746f20746865207a65726f206164647260448201526265737360e81b6064820152608401610861565b611cd78383836121d9565b6001600160a01b03831660009081526001602052604090205481811015611d665760405162461bcd60e51b815260206004820152602660248201527f45524332303a207472616e7366657220616d6f756e742065786365656473206260448201527f616c616e636500000000000000000000000000000000000000000000000000006064820152608401610861565b6001600160a01b03808516600090815260016020526040808220858503905591851681529081208054849290611d9d90849061290d565b92505081905550826001600160a01b0316846001600160a01b03167fddf252ad1be2c89b69c2b068fc378daa952ba7f163c4a11628f55a4df523b3ef84604051611de991815260200190565b60405180910390a3611dfc8484846122a6565b50505050565b60005460ff16611e545760405162461bcd60e51b815260206004820152601460248201527f5061757361626c653a206e6f74207061757365640000000000000000000000006044820152606401610861565b6000805460ff191690557f5db9ee0a495bf2e6ff9c91a7834c1ba4fdd244a5e8aa4e537bd38aeae4b073aa335b6040516001600160a01b03909116815260200160405180910390a1565b6001600160a01b038216611efe5760405162461bcd60e51b815260206004820152602160248201527f45524332303a206275726e2066726f6d20746865207a65726f206164647265736044820152607360f81b6064820152608401610861565b611f0a826000836121d9565b6001600160a01b03821660009081526001602052604090205481811015611f7e5760405162461bcd60e51b815260206004820152602260248201527f45524332303a206275726e20616d6f756e7420657863656564732062616c616e604482015261636560f01b6064820152608401610861565b6001600160a01b0383166000908152600160205260408120838303905560038054849290611fad908490612742565b90915550506040518281526000906001600160a01b038516907fddf252ad1be2c89b69c2b068fc378daa952ba7f163c4a11628f55a4df523b3ef9060200160405180910390a3610c20836000846122a6565b600080546001600160a01b038381166101008181027fffffffffffffffffffffff0000000000000000000000000000000000000000ff851617855560405193049190911692909183917f8be0079c531659141344cd1fd0a4f28419497f9722a3daafe3b4186f6b6457e091a35050565b60005460ff16156120b55760405162461bcd60e51b815260206004820152601060248201526f14185d5cd8589b194e881c185d5cd95960821b6044820152606401610861565b6000805460ff191660011790557f62e78cea01bee320cd4e420270b5ea74000d11b0c9f74754ebdbfc544b05a258611e813390565b6120f2610c25565b6006546001600160a01b0382166000908152600b602052604090206001015410156109d257600061212282611789565b6020808201516001600160a01b0385166000908152600b909252604091829020600481019190915582516002820155910151600180830191909155815460ff19161790555050565b604080516001600160a01b0385811660248301528416604482015260648082018490528251808303909101815260849091019091526020810180517bffffffffffffffffffffffffffffffffffffffffffffffffffffffff166323b872dd60e01b179052611dfc9085906123f4565b600854158015906121f257506001600160a01b03831615155b801561220657506001600160a01b03821615155b15610c2057612214836120ea565b61221d826120ea565b6001600160a01b0383166000908152600b602052604090206001015415610c20576001600160a01b0383166000908152600b602052604090205460ff16610c205760405162461bcd60e51b815260206004820152601e60248201527f43616e6e6f74207472616e7366657220616674657220657865726369736500006044820152606401610861565b600854158015906122bf57506001600160a01b03831615155b80156122d357506001600160a01b03821615155b15610c20576001600160a01b0383166000908152600160205260408120546122fc90839061290d565b6001600160a01b0385166000908152600b6020526040902060040154612322908461286f565b61232c919061288e565b6001600160a01b0385166000908152600b6020526040902060020154909150612356908290612742565b6001600160a01b038086166000908152600b6020526040808220600290810194909455918616815220015461238c90829061290d565b6001600160a01b038481166000818152600b60209081526040918290206002019490945580519288168352928201529081018290527fa5e7f28477710ffd7076262c099ba6ebe7599787e25f94ce5460a1320671cdbb9060600160405180910390a150505050565b6000612449826040518060400160405280602081526020017f5361666545524332303a206c6f772d6c6576656c2063616c6c206661696c6564815250856001600160a01b03166124d99092919063ffffffff16565b805190915015610c20578080602001905181019061246791906128eb565b610c205760405162461bcd60e51b815260206004820152602a60248201527f5361666545524332303a204552433230206f7065726174696f6e20646964206e60448201527f6f742073756363656564000000000000000000000000000000000000000000006064820152608401610861565b60606106d0848460008585843b6125325760405162461bcd60e51b815260206004820152601d60248201527f416464726573733a2063616c6c20746f206e6f6e2d636f6e74726163740000006044820152606401610861565b600080866001600160a01b0316858760405161254e9190612959565b60006040518083038185875af1925050503d806000811461258b576040519150601f19603f3d011682016040523d82523d6000602084013e612590565b606091505b50915091506125a08282866125ab565b979650505050505050565b606083156125ba575081610767565b8251156125ca5782518084602001fd5b8160405162461bcd60e51b81526004016108619190612671565b80356001600160a01b03811681146125fb57600080fd5b919050565b60006020828403121561261257600080fd5b610767826125e4565b6000806040838503121561262e57600080fd5b612637836125e4565b946020939093013593505050565b60005b83811015612660578181015183820152602001612648565b83811115611dfc5750506000910152565b6020815260008251806020840152612690816040850160208701612645565b601f01601f19169190910160400192915050565b6000602082840312156126b657600080fd5b5035919050565b6000806000606084860312156126d257600080fd5b6126db846125e4565b92506126e9602085016125e4565b9150604084013590509250925092565b6000806040838503121561270c57600080fd5b612715836125e4565b9150612723602084016125e4565b90509250929050565b634e487b7160e01b600052601160045260246000fd5b6000828210156127545761275461272c565b500390565b600181815b8085111561279457816000190482111561277a5761277a61272c565b8085161561278757918102915b93841c939080029061275e565b509250929050565b6000826127ab57506001610811565b816127b857506000610811565b81600181146127ce57600281146127d8576127f4565b6001915050610811565b60ff8411156127e9576127e961272c565b50506001821b610811565b5060208310610133831016604e8410600b8410161715612817575081810a610811565b6128218383612759565b80600019048211156128355761283561272c565b029392505050565b600061076760ff84168361279c565b60006020828403121561285e57600080fd5b815160ff8116811461076757600080fd5b60008160001904831182151516156128895761288961272c565b500290565b6000826128ab57634e487b7160e01b600052601260045260246000fd5b500490565b600181811c908216806128c457607f821691505b602082108114156128e557634e487b7160e01b600052602260045260246000fd5b50919050565b6000602082840312156128fd57600080fd5b8151801515811461076757600080fd5b600082198211156129205761292061272c565b500190565b60006020828403121561293757600080fd5b5051919050565b60006000198214156129525761295261272c565b5060010190565b6000825161296b818460208701612645565b919091019291505056fe4f776e61626c653a2063616c6c6572206973206e6f7420746865206f776e6572a164736f6c634300080a000a",
  "devdoc": {
    "kind": "dev",
    "methods": {
      "allowance(address,address)": {
        "details": "See {IERC20-allowance}."
      },
      "approve(address,uint256)": {
        "details": "See {IERC20-approve}. Requirements: - `spender` cannot be the zero address."
      },
      "balanceOf(address)": {
        "details": "See {IERC20-balanceOf}."
      },
      "burn(uint256)": {
        "details": "Destroys `amount` tokens from the caller. See {ERC20-_burn}."
      },
      "burnFrom(address,uint256)": {
        "details": "Destroys `amount` tokens from `account`, deducting from the caller's allowance. See {ERC20-_burn} and {ERC20-allowance}. Requirements: - the caller must have allowance for ``accounts``'s tokens of at least `amount`."
      },
      "decimals()": {
        "details": "Returns the number of decimals used to get its user representation. For example, if `decimals` equals `2`, a balance of `505` tokens should be displayed to a user as `5.05` (`505 / 10 ** 2`). Tokens usually opt for a value of 18, imitating the relationship between Ether and Wei. This is the value {ERC20} uses, unless this function is overridden; NOTE: This information is only used for _display_ purposes: it in no way affects any of the arithmetic of the contract, including {IERC20-balanceOf} and {IERC20-transfer}."
      },
      "decreaseAllowance(address,uint256)": {
        "details": "Atomically decreases the allowance granted to `spender` by the caller. This is an alternative to {approve} that can be used as a mitigation for problems described in {IERC20-approve}. Emits an {Approval} event indicating the updated allowance. Requirements: - `spender` cannot be the zero address. - `spender` must have allowance for the caller of at least `subtractedValue`."
      },
      "increaseAllowance(address,uint256)": {
        "details": "Atomically increases the allowance granted to `spender` by the caller. This is an alternative to {approve} that can be used as a mitigation for problems described in {IERC20-approve}. Emits an {Approval} event indicating the updated allowance. Requirements: - `spender` cannot be the zero address."
      },
      "name()": {
        "details": "Returns the name of the token."
      },
      "owner()": {
        "details": "Returns the address of the current owner."
      },
      "paused()": {
        "details": "Returns true if the contract is paused, and false otherwise."
      },
      "renounceOwnership()": {
        "details": "Leaves the contract without owner. It will not be possible to call `onlyOwner` functions anymore. Can only be called by the current owner. NOTE: Renouncing ownership will leave the contract without an owner, thereby removing any functionality that is only available to the owner."
      },
      "symbol()": {
        "details": "Returns the symbol of the token, usually a shorter version of the name."
      },
      "toTokenAmount(address,uint256)": {
        "params": {
          "amount_": "uint256"
        },
        "returns": {
          "value_": "uint256"
        }
      },
      "totalSupply()": {
        "details": "See {IERC20-totalSupply}."
      },
      "transfer(address,uint256)": {
        "details": "See {IERC20-transfer}. Requirements: - `recipient` cannot be the zero address. - the caller must have a balance of at least `amount`."
      },
      "transferFrom(address,address,uint256)": {
        "details": "See {IERC20-transferFrom}. Emits an {Approval} event indicating the updated allowance. This is not required by the EIP. See the note at the beginning of {ERC20}. Requirements: - `sender` and `recipient` cannot be the zero address. - `sender` must have a balance of at least `amount`. - the caller must have allowance for ``sender``'s tokens of at least `amount`."
      },
      "transferOwnership(address)": {
        "details": "Transfers ownership of the contract to a new account (`newOwner`). Can only be called by the current owner."
      }
    },
    "version": 1
  },
  "userdoc": {
    "events": {
      "ClaimableTransfer(address,address,uint256)": {
        "notice": "Event "
      }
    },
    "kind": "user",
    "methods": {
      "RATE_DENOMINATOR()": {
        "notice": "Constant "
      },
      "massApprove()": {
        "notice": "mass approval saves gas"
      },
      "spaceCount()": {
        "notice": "Variables "
      },
      "toTokenAmount(address,uint256)": {
        "notice": "convert pHecta to busd"
      }
    },
    "version": 1
  },
  "storageLayout": {
    "storage": [
      {
        "astId": 122,
        "contract": "contracts/preHecta/pHecta.sol:PHecta",
        "label": "_paused",
        "offset": 0,
        "slot": "0",
        "type": "t_bool"
      },
      {
        "astId": 7,
        "contract": "contracts/preHecta/pHecta.sol:PHecta",
        "label": "_owner",
        "offset": 1,
        "slot": "0",
        "type": "t_address"
      },
      {
        "astId": 212,
        "contract": "contracts/preHecta/pHecta.sol:PHecta",
        "label": "_balances",
        "offset": 0,
        "slot": "1",
        "type": "t_mapping(t_address,t_uint256)"
      },
      {
        "astId": 218,
        "contract": "contracts/preHecta/pHecta.sol:PHecta",
        "label": "_allowances",
        "offset": 0,
        "slot": "2",
        "type": "t_mapping(t_address,t_mapping(t_address,t_uint256))"
      },
      {
        "astId": 220,
        "contract": "contracts/preHecta/pHecta.sol:PHecta",
        "label": "_totalSupply",
        "offset": 0,
        "slot": "3",
        "type": "t_uint256"
      },
      {
        "astId": 222,
        "contract": "contracts/preHecta/pHecta.sol:PHecta",
        "label": "_name",
        "offset": 0,
        "slot": "4",
        "type": "t_string_storage"
      },
      {
        "astId": 224,
        "contract": "contracts/preHecta/pHecta.sol:PHecta",
        "label": "_symbol",
        "offset": 0,
        "slot": "5",
        "type": "t_string_storage"
      },
      {
        "astId": 4706,
        "contract": "contracts/preHecta/pHecta.sol:PHecta",
        "label": "spaceCount",
        "offset": 0,
        "slot": "6",
        "type": "t_struct(Counter)1456_storage"
      },
      {
        "astId": 4712,
        "contract": "contracts/preHecta/pHecta.sol:PHecta",
        "label": "busdAddress",
        "offset": 0,
        "slot": "7",
        "type": "t_address"
      },
      {
        "astId": 4714,
        "contract": "contracts/preHecta/pHecta.sol:PHecta",
        "label": "startTimestamp",
        "offset": 0,
        "slot": "8",
        "type": "t_uint256"
      },
      {
        "astId": 4716,
        "contract": "contracts/preHecta/pHecta.sol:PHecta",
        "label": "useWhiteList",
        "offset": 0,
        "slot": "9",
        "type": "t_bool"
      },
      {
        "astId": 4720,
        "contract": "contracts/preHecta/pHecta.sol:PHecta",
        "label": "investors",
        "offset": 0,
        "slot": "10",
        "type": "t_mapping(t_address,t_bool)"
      },
      {
        "astId": 4725,
        "contract": "contracts/preHecta/pHecta.sol:PHecta",
        "label": "infos",
        "offset": 0,
        "slot": "11",
        "type": "t_mapping(t_address,t_struct(Info)4766_storage)"
      },
      {
        "astId": 4730,
        "contract": "contracts/preHecta/pHecta.sol:PHecta",
        "label": "spaces",
        "offset": 0,
        "slot": "12",
        "type": "t_mapping(t_uint256,t_struct(SpaceInfo)4773_storage)"
      },
      {
        "astId": 4733,
        "contract": "contracts/preHecta/pHecta.sol:PHecta",
        "label": "spaceLength",
        "offset": 0,
        "slot": "13",
        "type": "t_uint256"
      }
    ],
    "types": {
      "t_address": {
        "encoding": "inplace",
        "label": "address",
        "numberOfBytes": "20"
      },
      "t_bool": {
        "encoding": "inplace",
        "label": "bool",
        "numberOfBytes": "1"
      },
      "t_mapping(t_address,t_bool)": {
        "encoding": "mapping",
        "key": "t_address",
        "label": "mapping(address => bool)",
        "numberOfBytes": "32",
        "value": "t_bool"
      },
      "t_mapping(t_address,t_mapping(t_address,t_uint256))": {
        "encoding": "mapping",
        "key": "t_address",
        "label": "mapping(address => mapping(address => uint256))",
        "numberOfBytes": "32",
        "value": "t_mapping(t_address,t_uint256)"
      },
      "t_mapping(t_address,t_struct(Info)4766_storage)": {
        "encoding": "mapping",
        "key": "t_address",
        "label": "mapping(address => struct PHecta.Info)",
        "numberOfBytes": "32",
        "value": "t_struct(Info)4766_storage"
      },
      "t_mapping(t_address,t_uint256)": {
        "encoding": "mapping",
        "key": "t_address",
        "label": "mapping(address => uint256)",
        "numberOfBytes": "32",
        "value": "t_uint256"
      },
      "t_mapping(t_uint256,t_struct(SpaceInfo)4773_storage)": {
        "encoding": "mapping",
        "key": "t_uint256",
        "label": "mapping(uint256 => struct PHecta.SpaceInfo)",
        "numberOfBytes": "32",
        "value": "t_struct(SpaceInfo)4773_storage"
      },
      "t_string_storage": {
        "encoding": "bytes",
        "label": "string",
        "numberOfBytes": "32"
      },
      "t_struct(Counter)1456_storage": {
        "encoding": "inplace",
        "label": "struct Counters.Counter",
        "members": [
          {
            "astId": 1455,
            "contract": "contracts/preHecta/pHecta.sol:PHecta",
            "label": "_value",
            "offset": 0,
            "slot": "0",
            "type": "t_uint256"
          }
        ],
        "numberOfBytes": "32"
      },
      "t_struct(Info)4766_storage": {
        "encoding": "inplace",
        "label": "struct PHecta.Info",
        "members": [
          {
            "astId": 4757,
            "contract": "contracts/preHecta/pHecta.sol:PHecta",
            "label": "isTransferable",
            "offset": 0,
            "slot": "0",
            "type": "t_bool"
          },
          {
            "astId": 4759,
            "contract": "contracts/preHecta/pHecta.sol:PHecta",
            "label": "lastRebaseSpaceCount",
            "offset": 0,
            "slot": "1",
            "type": "t_uint256"
          },
          {
            "astId": 4761,
            "contract": "contracts/preHecta/pHecta.sol:PHecta",
            "label": "maxClaim",
            "offset": 0,
            "slot": "2",
            "type": "t_uint256"
          },
          {
            "astId": 4763,
            "contract": "contracts/preHecta/pHecta.sol:PHecta",
            "label": "claimed",
            "offset": 0,
            "slot": "3",
            "type": "t_uint256"
          },
          {
            "astId": 4765,
            "contract": "contracts/preHecta/pHecta.sol:PHecta",
            "label": "currentSpaceProfit",
            "offset": 0,
            "slot": "4",
            "type": "t_uint256"
          }
        ],
        "numberOfBytes": "160"
      },
      "t_struct(SpaceInfo)4773_storage": {
        "encoding": "inplace",
        "label": "struct PHecta.SpaceInfo",
        "members": [
          {
            "astId": 4768,
            "contract": "contracts/preHecta/pHecta.sol:PHecta",
            "label": "totalHecta",
            "offset": 0,
            "slot": "0",
            "type": "t_uint256"
          },
          {
            "astId": 4770,
            "contract": "contracts/preHecta/pHecta.sol:PHecta",
            "label": "totalPHecta",
            "offset": 0,
            "slot": "1",
            "type": "t_uint256"
          },
          {
            "astId": 4772,
            "contract": "contracts/preHecta/pHecta.sol:PHecta",
            "label": "startedTime",
            "offset": 0,
            "slot": "2",
            "type": "t_uint256"
          }
        ],
        "numberOfBytes": "96"
      },
      "t_uint256": {
        "encoding": "inplace",
        "label": "uint256",
        "numberOfBytes": "32"
      }
    }
  }
}