{
  "address": "0x9aE390630EB2e60999E5065267b02f477bEeEBCF",
  "abi": [
    {
      "inputs": [
        {
          "internalType": "contract IHectagonAuthority",
          "name": "_authority",
          "type": "address"
        },
        {
          "internalType": "contract IERC20",
          "name": "_hecta",
          "type": "address"
        },
        {
          "internalType": "contract IgHECTA",
          "name": "_gHecta",
          "type": "address"
        },
        {
          "internalType": "contract ITreasury",
          "name": "_treasury",
          "type": "address"
        }
      ],
      "stateMutability": "nonpayable",
      "type": "constructor"
    },
    {
      "inputs": [],
      "name": "UNAUTHORIZED",
      "type": "error"
    },
    {
      "anonymous": false,
      "inputs": [
        {
          "indexed": false,
          "internalType": "contract IHectagonAuthority",
          "name": "authority",
          "type": "address"
        }
      ],
      "name": "AuthorityUpdated",
      "type": "event"
    },
    {
      "anonymous": false,
      "inputs": [
        {
          "indexed": true,
          "internalType": "uint256",
          "name": "id",
          "type": "uint256"
        },
        {
          "indexed": false,
          "internalType": "uint256",
          "name": "amount",
          "type": "uint256"
        },
        {
          "indexed": false,
          "internalType": "uint256",
          "name": "price",
          "type": "uint256"
        },
        {
          "indexed": false,
          "internalType": "uint256",
          "name": "noteId",
          "type": "uint256"
        },
        {
          "indexed": true,
          "internalType": "address",
          "name": "buyer",
          "type": "address"
        },
        {
          "indexed": true,
          "internalType": "address",
          "name": "referral",
          "type": "address"
        },
        {
          "indexed": false,
          "internalType": "uint256",
          "name": "commission",
          "type": "uint256"
        },
        {
          "indexed": false,
          "internalType": "uint256",
          "name": "toBuyer",
          "type": "uint256"
        },
        {
          "indexed": false,
          "internalType": "uint256",
          "name": "toDaoCommunity",
          "type": "uint256"
        },
        {
          "indexed": false,
          "internalType": "uint256",
          "name": "toDaoInvestment",
          "type": "uint256"
        }
      ],
      "name": "Bond",
      "type": "event"
    },
    {
      "anonymous": false,
      "inputs": [
        {
          "indexed": true,
          "internalType": "uint256",
          "name": "id",
          "type": "uint256"
        }
      ],
      "name": "CloseMarket",
      "type": "event"
    },
    {
      "anonymous": false,
      "inputs": [
        {
          "indexed": true,
          "internalType": "uint256",
          "name": "id",
          "type": "uint256"
        },
        {
          "indexed": true,
          "internalType": "address",
          "name": "baseToken",
          "type": "address"
        },
        {
          "indexed": true,
          "internalType": "address",
          "name": "quoteToken",
          "type": "address"
        },
        {
          "indexed": false,
          "internalType": "uint256",
          "name": "initialPrice",
          "type": "uint256"
        }
      ],
      "name": "CreateMarket",
      "type": "event"
    },
    {
      "anonymous": false,
      "inputs": [
        {
          "indexed": true,
          "internalType": "uint256",
          "name": "id",
          "type": "uint256"
        },
        {
          "indexed": false,
          "internalType": "uint64",
          "name": "oldControlVariable",
          "type": "uint64"
        },
        {
          "indexed": false,
          "internalType": "uint64",
          "name": "newControlVariable",
          "type": "uint64"
        }
      ],
      "name": "Tuned",
      "type": "event"
    },
    {
      "inputs": [
        {
          "internalType": "uint256",
          "name": "",
          "type": "uint256"
        }
      ],
      "name": "adjustments",
      "outputs": [
        {
          "internalType": "uint64",
          "name": "change",
          "type": "uint64"
        },
        {
          "internalType": "uint48",
          "name": "lastAdjustment",
          "type": "uint48"
        },
        {
          "internalType": "uint48",
          "name": "timeToAdjusted",
          "type": "uint48"
        },
        {
          "internalType": "bool",
          "name": "active",
          "type": "bool"
        }
      ],
      "stateMutability": "view",
      "type": "function"
    },
    {
      "inputs": [],
      "name": "authority",
      "outputs": [
        {
          "internalType": "contract IHectagonAuthority",
          "name": "",
          "type": "address"
        }
      ],
      "stateMutability": "view",
      "type": "function"
    },
    {
      "inputs": [
        {
          "internalType": "uint256",
          "name": "_id",
          "type": "uint256"
        }
      ],
      "name": "close",
      "outputs": [],
      "stateMutability": "nonpayable",
      "type": "function"
    },
    {
      "inputs": [
        {
          "internalType": "contract IERC20",
          "name": "_quoteToken",
          "type": "address"
        },
        {
          "internalType": "uint256[3]",
          "name": "_market",
          "type": "uint256[3]"
        },
        {
          "internalType": "bool[2]",
          "name": "_booleans",
          "type": "bool[2]"
        },
        {
          "internalType": "uint256[2]",
          "name": "_terms",
          "type": "uint256[2]"
        },
        {
          "internalType": "uint32[2]",
          "name": "_intervals",
          "type": "uint32[2]"
        }
      ],
      "name": "create",
      "outputs": [
        {
          "internalType": "uint256",
          "name": "id_",
          "type": "uint256"
        }
      ],
      "stateMutability": "nonpayable",
      "type": "function"
    },
    {
      "inputs": [
        {
          "internalType": "uint256",
          "name": "_id",
          "type": "uint256"
        }
      ],
      "name": "currentControlVariable",
      "outputs": [
        {
          "internalType": "uint256",
          "name": "",
          "type": "uint256"
        }
      ],
      "stateMutability": "view",
      "type": "function"
    },
    {
      "inputs": [
        {
          "internalType": "uint256",
          "name": "_id",
          "type": "uint256"
        }
      ],
      "name": "currentDebt",
      "outputs": [
        {
          "internalType": "uint256",
          "name": "",
          "type": "uint256"
        }
      ],
      "stateMutability": "view",
      "type": "function"
    },
    {
      "inputs": [],
      "name": "daoCommunityPercent",
      "outputs": [
        {
          "internalType": "uint256",
          "name": "",
          "type": "uint256"
        }
      ],
      "stateMutability": "view",
      "type": "function"
    },
    {
      "inputs": [],
      "name": "daoInvestmentPercent",
      "outputs": [
        {
          "internalType": "uint256",
          "name": "",
          "type": "uint256"
        }
      ],
      "stateMutability": "view",
      "type": "function"
    },
    {
      "inputs": [
        {
          "internalType": "uint256",
          "name": "_id",
          "type": "uint256"
        }
      ],
      "name": "debtDecay",
      "outputs": [
        {
          "internalType": "uint64",
          "name": "",
          "type": "uint64"
        }
      ],
      "stateMutability": "view",
      "type": "function"
    },
    {
      "inputs": [
        {
          "internalType": "uint256",
          "name": "_id",
          "type": "uint256"
        }
      ],
      "name": "debtRatio",
      "outputs": [
        {
          "internalType": "uint256",
          "name": "",
          "type": "uint256"
        }
      ],
      "stateMutability": "view",
      "type": "function"
    },
    {
      "inputs": [
        {
          "internalType": "uint256",
          "name": "_id",
          "type": "uint256"
        },
        {
          "internalType": "uint256",
          "name": "_amount",
          "type": "uint256"
        },
        {
          "internalType": "uint256",
          "name": "_maxPrice",
          "type": "uint256"
        },
        {
          "internalType": "address",
          "name": "_user",
          "type": "address"
        },
        {
          "internalType": "address",
          "name": "_referral",
          "type": "address"
        }
      ],
      "name": "deposit",
      "outputs": [
        {
          "components": [
            {
              "internalType": "uint256",
              "name": "finalPayout",
              "type": "uint256"
            },
            {
              "internalType": "uint256",
              "name": "expiry",
              "type": "uint256"
            },
            {
              "internalType": "uint256",
              "name": "index",
              "type": "uint256"
            }
          ],
          "internalType": "struct IBondDepository.UserBond",
          "name": "userBond_",
          "type": "tuple"
        }
      ],
      "stateMutability": "nonpayable",
      "type": "function"
    },
    {
      "inputs": [],
      "name": "getReward",
      "outputs": [],
      "stateMutability": "nonpayable",
      "type": "function"
    },
    {
      "inputs": [
        {
          "internalType": "address",
          "name": "_user",
          "type": "address"
        }
      ],
      "name": "indexesFor",
      "outputs": [
        {
          "internalType": "uint256[]",
          "name": "",
          "type": "uint256[]"
        }
      ],
      "stateMutability": "view",
      "type": "function"
    },
    {
      "inputs": [
        {
          "internalType": "uint256",
          "name": "_id",
          "type": "uint256"
        }
      ],
      "name": "isLive",
      "outputs": [
        {
          "internalType": "bool",
          "name": "",
          "type": "bool"
        }
      ],
      "stateMutability": "view",
      "type": "function"
    },
    {
      "inputs": [],
      "name": "liveMarkets",
      "outputs": [
        {
          "internalType": "uint256[]",
          "name": "",
          "type": "uint256[]"
        }
      ],
      "stateMutability": "view",
      "type": "function"
    },
    {
      "inputs": [
        {
          "internalType": "address",
          "name": "_token",
          "type": "address"
        }
      ],
      "name": "liveMarketsFor",
      "outputs": [
        {
          "internalType": "uint256[]",
          "name": "",
          "type": "uint256[]"
        }
      ],
      "stateMutability": "view",
      "type": "function"
    },
    {
      "inputs": [
        {
          "internalType": "uint256",
          "name": "_id",
          "type": "uint256"
        }
      ],
      "name": "marketPrice",
      "outputs": [
        {
          "internalType": "uint256",
          "name": "",
          "type": "uint256"
        }
      ],
      "stateMutability": "view",
      "type": "function"
    },
    {
      "inputs": [
        {
          "internalType": "uint256",
          "name": "",
          "type": "uint256"
        }
      ],
      "name": "markets",
      "outputs": [
        {
          "internalType": "uint256",
          "name": "capacity",
          "type": "uint256"
        },
        {
          "internalType": "contract IERC20",
          "name": "quoteToken",
          "type": "address"
        },
        {
          "internalType": "bool",
          "name": "capacityInQuote",
          "type": "bool"
        },
        {
          "internalType": "uint64",
          "name": "totalDebt",
          "type": "uint64"
        },
        {
          "internalType": "uint64",
          "name": "maxPayout",
          "type": "uint64"
        },
        {
          "internalType": "uint64",
          "name": "sold",
          "type": "uint64"
        },
        {
          "internalType": "uint256",
          "name": "purchased",
          "type": "uint256"
        }
      ],
      "stateMutability": "view",
      "type": "function"
    },
    {
      "inputs": [
        {
          "internalType": "address",
          "name": "",
          "type": "address"
        },
        {
          "internalType": "uint256",
          "name": "",
          "type": "uint256"
        }
      ],
      "name": "marketsForQuote",
      "outputs": [
        {
          "internalType": "uint256",
          "name": "",
          "type": "uint256"
        }
      ],
      "stateMutability": "view",
      "type": "function"
    },
    {
      "inputs": [
        {
          "internalType": "uint256",
          "name": "",
          "type": "uint256"
        }
      ],
      "name": "metadata",
      "outputs": [
        {
          "internalType": "uint48",
          "name": "lastTune",
          "type": "uint48"
        },
        {
          "internalType": "uint48",
          "name": "lastDecay",
          "type": "uint48"
        },
        {
          "internalType": "uint48",
          "name": "length",
          "type": "uint48"
        },
        {
          "internalType": "uint48",
          "name": "depositInterval",
          "type": "uint48"
        },
        {
          "internalType": "uint48",
          "name": "tuneInterval",
          "type": "uint48"
        },
        {
          "internalType": "uint8",
          "name": "quoteDecimals",
          "type": "uint8"
        }
      ],
      "stateMutability": "view",
      "type": "function"
    },
    {
      "inputs": [
        {
          "internalType": "address",
          "name": "",
          "type": "address"
        },
        {
          "internalType": "uint256",
          "name": "",
          "type": "uint256"
        }
      ],
      "name": "notes",
      "outputs": [
        {
          "internalType": "uint256",
          "name": "payout",
          "type": "uint256"
        },
        {
          "internalType": "uint48",
          "name": "created",
          "type": "uint48"
        },
        {
          "internalType": "uint48",
          "name": "matured",
          "type": "uint48"
        },
        {
          "internalType": "uint48",
          "name": "redeemed",
          "type": "uint48"
        },
        {
          "internalType": "uint48",
          "name": "marketID",
          "type": "uint48"
        }
      ],
      "stateMutability": "view",
      "type": "function"
    },
    {
      "inputs": [],
      "name": "partnerTermCap",
      "outputs": [
        {
          "internalType": "uint256",
          "name": "",
          "type": "uint256"
        }
      ],
      "stateMutability": "view",
      "type": "function"
    },
    {
      "inputs": [
        {
          "internalType": "address",
          "name": "",
          "type": "address"
        }
      ],
      "name": "partnerTerms",
      "outputs": [
        {
          "internalType": "uint256",
          "name": "amount",
          "type": "uint256"
        },
        {
          "internalType": "uint256",
          "name": "percent",
          "type": "uint256"
        }
      ],
      "stateMutability": "view",
      "type": "function"
    },
    {
      "inputs": [
        {
          "internalType": "uint256",
          "name": "_amount",
          "type": "uint256"
        },
        {
          "internalType": "uint256",
          "name": "_id",
          "type": "uint256"
        }
      ],
      "name": "payoutFor",
      "outputs": [
        {
          "internalType": "uint256",
          "name": "",
          "type": "uint256"
        }
      ],
      "stateMutability": "view",
      "type": "function"
    },
    {
      "inputs": [
        {
          "internalType": "address",
          "name": "_user",
          "type": "address"
        },
        {
          "internalType": "uint256",
          "name": "_index",
          "type": "uint256"
        }
      ],
      "name": "pendingFor",
      "outputs": [
        {
          "internalType": "uint256",
          "name": "payout_",
          "type": "uint256"
        },
        {
          "internalType": "bool",
          "name": "matured_",
          "type": "bool"
        }
      ],
      "stateMutability": "view",
      "type": "function"
    },
    {
      "inputs": [
        {
          "internalType": "address",
          "name": "_from",
          "type": "address"
        },
        {
          "internalType": "uint256",
          "name": "_index",
          "type": "uint256"
        }
      ],
      "name": "pullNote",
      "outputs": [
        {
          "internalType": "uint256",
          "name": "newIndex_",
          "type": "uint256"
        }
      ],
      "stateMutability": "nonpayable",
      "type": "function"
    },
    {
      "inputs": [
        {
          "internalType": "address",
          "name": "_to",
          "type": "address"
        },
        {
          "internalType": "uint256",
          "name": "_index",
          "type": "uint256"
        }
      ],
      "name": "pushNote",
      "outputs": [],
      "stateMutability": "nonpayable",
      "type": "function"
    },
    {
      "inputs": [
        {
          "internalType": "address",
          "name": "_user",
          "type": "address"
        },
        {
          "internalType": "uint256[]",
          "name": "_indexes",
          "type": "uint256[]"
        },
        {
          "internalType": "bool",
          "name": "_unstake",
          "type": "bool"
        }
      ],
      "name": "redeem",
      "outputs": [
        {
          "internalType": "uint256",
          "name": "",
          "type": "uint256"
        }
      ],
      "stateMutability": "nonpayable",
      "type": "function"
    },
    {
      "inputs": [
        {
          "internalType": "address",
          "name": "_user",
          "type": "address"
        },
        {
          "internalType": "bool",
          "name": "_unstake",
          "type": "bool"
        }
      ],
      "name": "redeemAll",
      "outputs": [
        {
          "internalType": "uint256",
          "name": "",
          "type": "uint256"
        }
      ],
      "stateMutability": "nonpayable",
      "type": "function"
    },
    {
      "inputs": [],
      "name": "referTermCap",
      "outputs": [
        {
          "internalType": "uint256",
          "name": "",
          "type": "uint256"
        }
      ],
      "stateMutability": "view",
      "type": "function"
    },
    {
      "inputs": [
        {
          "internalType": "address",
          "name": "",
          "type": "address"
        }
      ],
      "name": "referTerms",
      "outputs": [
        {
          "internalType": "uint256",
          "name": "referrerPercent",
          "type": "uint256"
        },
        {
          "internalType": "uint256",
          "name": "buyerPercent",
          "type": "uint256"
        }
      ],
      "stateMutability": "view",
      "type": "function"
    },
    {
      "inputs": [
        {
          "internalType": "address",
          "name": "",
          "type": "address"
        }
      ],
      "name": "rewards",
      "outputs": [
        {
          "internalType": "uint256",
          "name": "",
          "type": "uint256"
        }
      ],
      "stateMutability": "view",
      "type": "function"
    },
    {
      "inputs": [
        {
          "internalType": "contract IHectagonAuthority",
          "name": "_newAuthority",
          "type": "address"
        }
      ],
      "name": "setAuthority",
      "outputs": [],
      "stateMutability": "nonpayable",
      "type": "function"
    },
    {
      "inputs": [
        {
          "internalType": "uint256",
          "name": "daoInvestmentPercent_",
          "type": "uint256"
        },
        {
          "internalType": "uint256",
          "name": "daoCommunityPercent_",
          "type": "uint256"
        }
      ],
      "name": "setDaoRewards",
      "outputs": [],
      "stateMutability": "nonpayable",
      "type": "function"
    },
    {
      "inputs": [
        {
          "internalType": "address",
          "name": "_partner",
          "type": "address"
        },
        {
          "internalType": "uint256",
          "name": "_amount",
          "type": "uint256"
        },
        {
          "internalType": "uint256",
          "name": "_percent",
          "type": "uint256"
        }
      ],
      "name": "setPartnerTerm",
      "outputs": [],
      "stateMutability": "nonpayable",
      "type": "function"
    },
    {
      "inputs": [
        {
          "internalType": "uint256",
          "name": "_cap",
          "type": "uint256"
        }
      ],
      "name": "setPartnerTermCap",
      "outputs": [],
      "stateMutability": "nonpayable",
      "type": "function"
    },
    {
      "inputs": [
        {
          "internalType": "address",
          "name": "_referrer",
          "type": "address"
        },
        {
          "internalType": "uint256",
          "name": "_referrerPercent",
          "type": "uint256"
        },
        {
          "internalType": "uint256",
          "name": "_buyerPercent",
          "type": "uint256"
        }
      ],
      "name": "setReferTerm",
      "outputs": [],
      "stateMutability": "nonpayable",
      "type": "function"
    },
    {
      "inputs": [
        {
          "internalType": "uint256",
          "name": "_cap",
          "type": "uint256"
        }
      ],
      "name": "setReferTermCap",
      "outputs": [],
      "stateMutability": "nonpayable",
      "type": "function"
    },
    {
      "inputs": [
        {
          "internalType": "uint256",
          "name": "",
          "type": "uint256"
        }
      ],
      "name": "terms",
      "outputs": [
        {
          "internalType": "bool",
          "name": "fixedTerm",
          "type": "bool"
        },
        {
          "internalType": "uint64",
          "name": "controlVariable",
          "type": "uint64"
        },
        {
          "internalType": "uint48",
          "name": "vesting",
          "type": "uint48"
        },
        {
          "internalType": "uint48",
          "name": "conclusion",
          "type": "uint48"
        },
        {
          "internalType": "uint64",
          "name": "maxDebt",
          "type": "uint64"
        }
      ],
      "stateMutability": "view",
      "type": "function"
    },
    {
      "inputs": [],
      "name": "updateTreasury",
      "outputs": [],
      "stateMutability": "nonpayable",
      "type": "function"
    }
  ],
  "transactionHash": "0x7c27873283965826b162de10e39aa081d34fcdb0e7530a1d097a3682ee135cc6",
  "args": [
    "0x6FCb3832d50D9142ce88985ab0b95c71227366B3",
    "0x343915085b919fbd4414F7046f903d194c6F60EE",
    "0x7D31ed03c2442F9ffc4f22d90772EE1f32fa9b0D",
    "0x4059c4a0b8a2B528C4f2E101A3bB8fB169aBa4fB"
  ],
  "solcInputHash": "ca12d8af804850e81cc663dd9685dae9",
  "bytecode": "0x60e06040526107d06004556127106005819055600681905561afc86007556080523480156200002d57600080fd5b506040516200491f3803806200491f833981016040819052620000509162000183565b600080546001600160a01b0319166001600160a01b03861690811790915560405190815284908490849084908490849082907f2f658b440c35314f52658ea8a740e05b284cdc84dc9ae01e891f21b8933e7cad9060200160405180910390a1506001600160a01b0390811660a05292831660c05250600a80546001600160a01b03191691831691909117905560405163095ea7b360e01b81528582166004820152722cd76fe086b93ce2f768a00b22a000000000006024820152908616925063095ea7b391506044016020604051808303816000875af115801562000139573d6000803e3d6000fd5b505050506040513d601f19601f820116820180604052508101906200015f9190620001eb565b505050505062000216565b6001600160a01b03811681146200018057600080fd5b50565b600080600080608085870312156200019a57600080fd5b8451620001a7816200016a565b6020860151909450620001ba816200016a565b6040860151909350620001cd816200016a565b6060860151909250620001e0816200016a565b939692955090935050565b600060208284031215620001fe57600080fd5b815180151581146200020f57600080fd5b9392505050565b60805160a05160c05161468c6200029360003960008181612523015281816125bf01526130c9015260008181610a2c01528181610f53015281816110e7015281816129e40152818161358a015261388f0152600081816139b101528181613a0101528181613a8801528181613b810152613bf2015261468c6000f3fe608060405234801561001057600080fd5b50600436106102c85760003560e01c8063a42206101161017b578063c0aa0e8a116100d8578063e0b117ff1161008c578063e481b26511610071578063e481b265146107aa578063f1b7dc78146107bd578063ff43a1bf146107d057600080fd5b8063e0b117ff1461070b578063e3684e391461075357600080fd5b8063c9b67af5116100bd578063c9b67af5146106dd578063d62fbdd3146106e5578063d6db4df8146106f857600080fd5b8063c0aa0e8a14610666578063c3e0fb1c146106b557600080fd5b8063bc24cea91161012f578063bcb2966711610114578063bcb2966714610615578063bf7e214f14610628578063c0680e201461065357600080fd5b8063bc24cea91461056d578063bc3b2b121461058057600080fd5b8063abbf4b1711610160578063abbf4b17146104bb578063b1283e77146104e6578063b15780461461054657600080fd5b8063a422061014610495578063a5874627146104a857600080fd5b806346aed74e116102295780637a9e5e4b116101dd57806386ff8b84116101c257806386ff8b841461047b578063953db4a4146104845780639c7697871461048d57600080fd5b80637a9e5e4b146104335780637c770aae1461044657600080fd5b80636a6c575d1161020e5780636a6c575d146104045780636f345cae146104175780636f6ff0ad1461042057600080fd5b806346aed74e146103d157806364914439146103e457600080fd5b806327507458116102805780633adec5a7116102655780633adec5a71461037a5780633c4290e11461038d5780633d18b912146103c957600080fd5b806327507458146103445780633a3d63ba1461036757600080fd5b80630a9d85eb116102b15780630a9d85eb146103095780630aebeb4e1461031c57806321a7d29b1461033157600080fd5b806306d008db146102cd5780630700037d146102e9575b600080fd5b6102d660075481565b6040519081526020015b60405180910390f35b6102d66102f7366004613e4a565b60016020526000908152604090205481565b6102d6610317366004613e67565b6107e3565b61032f61032a366004613e67565b61083d565b005b6102d661033f366004614007565b6108db565b610357610352366004613e67565b610fdb565b60405190151581526020016102e0565b61032f610375366004613e67565b611044565b6102d6610388366004613e67565b611051565b6103b461039b366004613e4a565b6003602052600090815260409020805460019091015482565b604080519283526020830191909152016102e0565b61032f6110ad565b6102d66103df3660046140c8565b611158565b6103f76103f2366004613e4a565b611174565b6040516102e09190614101565b6102d6610412366004614145565b611302565b6102d660055481565b61032f61042e366004614145565b6113d2565b61032f610441366004613e4a565b6113e5565b610459610454366004614167565b61144e565b60408051825181526020808401519082015291810151908201526060016102e0565b6102d660065481565b6102d660045481565b61032f611935565b6102d66104a33660046141bd565b611bce565b61032f6104b63660046141e9565b611e61565b6104ce6104c9366004613e67565b611f3d565b6040516001600160401b0390911681526020016102e0565b6104f96104f4366004613e67565b612021565b604080519788526001600160a01b039096166020880152931515948601949094526001600160401b0391821660608601528116608085015290911660a083015260c082015260e0016102e0565b6103b4610554366004613e4a565b6002602052600090815260409020805460019091015482565b61032f61057b3660046141e9565b61208f565b6105dd61058e366004613e67565b600e602052600090815260409020546001600160401b0381169065ffffffffffff600160401b82048116916e01000000000000000000000000000081049091169060ff600160a01b9091041684565b604080516001600160401b0395909516855265ffffffffffff93841660208601529190921690830152151560608201526080016102e0565b6102d6610623366004613e67565b612174565b60005461063b906001600160a01b031681565b6040516001600160a01b0390911681526020016102e0565b6102d66106613660046141bd565b6121d0565b610679610674366004613e67565b612201565b6040805195151586526001600160401b03948516602087015265ffffffffffff938416908601529116606084015216608082015260a0016102e0565b6106c86106c33660046141bd565b612260565b604080519283529015156020830152016102e0565b6103f761232b565b6102d66106f336600461421e565b612413565b61032f6107063660046141bd565b61262c565b61071e6107193660046141bd565b6126fb565b6040805195865265ffffffffffff9485166020870152928416928501929092528216606084015216608082015260a0016102e0565b610766610761366004613e67565b61275e565b6040805165ffffffffffff97881681529587166020870152938616938501939093529084166060840152909216608082015260ff90911660a082015260c0016102e0565b6103f76107b8366004613e4a565b6127bc565b6102d66107cb366004613e67565b6129e0565b61032f6107de366004613e67565b612aa1565b6000806107ef83612aae565b90508060000151600c8481548110610809576108096142e8565b60009182526020909120015461082d919061010090046001600160401b0316614314565b6001600160401b03169392505050565b610845612bc3565b42600c8281548110610859576108596142e8565b90600052602060002001600001600f6101000a81548165ffffffffffff021916908365ffffffffffff1602179055506000600b828154811061089d5761089d6142e8565b6000918252602082206004909102019190915560405182917f8401d05adbea6548a6999cc1540766e6d2ff919292142862893d0e62ec79fbe591a250565b60006108e5612bc3565b60208301516000906108f890429061433c565b90506000876001600160a01b031663313ce5676040518163ffffffff1660e01b8152600401602060405180830381865afa15801561093a573d6000803e3d6000fd5b505050506040513d601f19601f8201168201806040525081019061095e9190614353565b60ff1690506000868160200201516109775787516109af565b61098282600a61445a565b6020890151895161099b90670de0b6b3a7640000614466565b6109a5919061449b565b6109af919061449b565b855190915060009084906109c99063ffffffff16846144af565b6001600160401b03166109dc919061449b565b90506000620186a08a600260200201516109ff906001600160401b038616614466565b610a09919061449b565b610a1c906001600160401b0385166144de565b90506000836001600160401b03167f00000000000000000000000000000000000000000000000000000000000000006001600160a01b03166318160ddd6040518163ffffffff1660e01b8152600401602060405180830381865afa158015610a88573d6000803e3d6000fd5b505050506040513d601f19601f82011682018060405250810190610aac91906144f6565b60208d0151610abb9190614466565b610ac5919061449b565b600b80546040805160e0810190915290995091925090808d6000602002015181526020018e6001600160a01b031681526020018c600060028110610b0b57610b0b6142e8565b60209081029190910151151582526001600160401b0380891683830152878116604080850191909152600060608086018290526080958601829052875460018181018a5598835291859020875160049093020191825593860151818801805488850151968901518616600160a81b0267ffffffffffffffff60a81b19971515600160a01b027fffffffffffffffffffffff0000000000000000000000000000000000000000009092166001600160a01b03909416939093171795909516179093559284015160028301805460a0808801518516600160401b026fffffffffffffffffffffffffffffffff19909216939094169290921791909117905560c09093015160039091015580519182019052600c9181908d90602002015115158152602001836001600160401b031681526020018b600060028110610c4f57610c4f6142e8565b602002015165ffffffffffff1681526020018b600160028110610c7457610c746142e8565b6020908102919091015165ffffffffffff90811683526001600160401b038088169383019390935284546001810186556000958652828620855191018054868501516040808901516060808b01516080909b01518a16600160a81b0267ffffffffffffffff60a81b199b8916600160781b027fffffffffffffffffffffff000000000000ffffffffffffffffffffffffffffff938a16690100000000000000000002939093167fffffffffffffffffffffff000000000000000000000000ffffffffffffffffff95909b166101000268ffffffffffffffff00199815159890981668ffffffffffffffffff1990961695909517969096179290921697909717179690961695909517909455825160c081018452428216808252928101929092528a1691810191909152600d9290918201908b906020908102919091015163ffffffff168252018a6001602002015163ffffffff1665ffffffffffff1681526020018760ff168152509080600181540180825580915050600190039060005260206000200160009091909190915060008201518160000160006101000a81548165ffffffffffff021916908365ffffffffffff16021790555060208201518160000160066101000a81548165ffffffffffff021916908365ffffffffffff160217905550604082015181600001600c6101000a81548165ffffffffffff021916908365ffffffffffff16021790555060608201518160000160126101000a81548165ffffffffffff021916908365ffffffffffff16021790555060808201518160000160186101000a81548165ffffffffffff021916908365ffffffffffff16021790555060a082015181600001601e6101000a81548160ff021916908360ff1602179055505050600f60008d6001600160a01b03166001600160a01b031681526020019081526020016000208790806001815401808255809150506001900390600052602060002001600090919091909150558b6001600160a01b03167f00000000000000000000000000000000000000000000000000000000000000006001600160a01b0316887f2f6ff727bd580b1d1b8332e28aa93ed4ec9d8b08d6e30d6b4c9f7aa63ca17f638e600160038110610fb057610fb06142e8565b6020020151604051610fc491815260200190565b60405180910390a450505050505095945050505050565b6000600b8281548110610ff057610ff06142e8565b90600052602060002090600402016000015460001415801561103e575042600c8381548110611021576110216142e8565b600091825260209091200154600160781b900465ffffffffffff16115b92915050565b61104c612c6b565b600555565b6000600d8281548110611066576110666142e8565b60009182526020909120015461108790600160f01b900460ff16600a61450f565b611090836129e0565b611099846107e3565b6110a39190614466565b61103e919061449b565b3360008181526001602052604080822080549290555163a9059cbb60e01b8152600481019290925260248201819052906001600160a01b037f0000000000000000000000000000000000000000000000000000000000000000169063a9059cbb906044016020604051808303816000875af1158015611130573d6000803e3d6000fd5b505050506040513d601f19601f82011682018060405250810190611154919061451e565b5050565b600061116d83611167856127bc565b84612413565b9392505050565b6001600160a01b0381166000908152600f602090815260408083208054825181850281018501909352808352606094938301828280156111d357602002820191906000526020600020905b8154815260200190600101908083116111bf575b50505050509050600080600090505b82518110156112325761120d838281518110611200576112006142e8565b6020026020010151610fdb565b15611220578161121c8161453b565b9250505b8061122a8161453b565b9150506111e2565b506000816001600160401b0381111561124d5761124d613e80565b604051908082528060200260200182016040528015611276578160200160208202803683370190505b5090506000805b84518110156112f75761129b858281518110611200576112006142e8565b156112e5578481815181106112b2576112b26142e8565b60200260200101518383815181106112cc576112cc6142e8565b6020908102919091010152816112e18161453b565b9250505b806112ef8161453b565b91505061127d565b509095945050505050565b600080600d8381548110611318576113186142e8565b60009182526020918290206040805160c081018252919092015465ffffffffffff8082168352600160301b8204811694830194909452600160601b8104841692820192909252600160901b820483166060820152600160c01b8204909216608083015260ff600160f01b9091041660a0820181905290915061139b90600a61450f565b6113a484611051565b6113b686670de0b6b3a7640000614466565b6113c0919061449b565b6113ca919061449b565b949350505050565b6113da612c6b565b600691909155600755565b6113ed612c6b565b6000805473ffffffffffffffffffffffffffffffffffffffff19166001600160a01b0383169081179091556040519081527f2f658b440c35314f52658ea8a740e05b284cdc84dc9ae01e891f21b8933e7cad9060200160405180910390a150565b61147260405180606001604052806000815260200160008152602001600081525090565b61149d6040518060800160405280600081526020016000815260200160008152602001600081525090565b6000600b88815481106114b2576114b26142e8565b906000526020600020906004020190506000600c89815481106114d7576114d76142e8565b60009182526020918290206040805160a081018252919092015460ff8116151582526001600160401b03610100820481169483019490945265ffffffffffff69010000000000000000008204811693830193909352600160781b8104831660608301819052600160a81b909104909316608082015292504291908216106115a55760405162461bcd60e51b815260206004820152601c60248201527f4465706f7369746f72793a206d61726b657420636f6e636c756465640000000060448201526064015b60405180910390fd5b6115af8a82612cbc565b60006115ba8b612efe565b90508881111561160c5760405162461bcd60e51b815260206004820152601f60248201527f4465706f7369746f72793a206d6f7265207468616e206d617820707269636500604482015260640161159c565b6000600d8c81548110611621576116216142e8565b60009182526020909120015461164290600160f01b900460ff16600a61450f565b826116558d670de0b6b3a7640000614466565b61165f919061449b565b611669919061449b565b60028601549091506001600160401b03168111156116c95760405162461bcd60e51b815260206004820152601d60248201527f4465706f7369746f72793a206d61782073697a65206578636565646564000000604482015260640161159c565b6001850154600160a01b900460ff166116e257806116e4565b8a5b8560000160008282546116f7919061433c565b9091555050835161170c57836040015161171c565b82846040015161171c9190614556565b65ffffffffffff1660208801526003850180548c91906000906117409084906144de565b909155505060028501805482919060089061176c908490600160401b90046001600160401b0316614580565b92506101000a8154816001600160401b0302191690836001600160401b03160217905550808560010160158282829054906101000a90046001600160401b03166117b69190614580565b92506101000a8154816001600160401b0302191690836001600160401b031602179055506117eb898289602001518f8c612f74565b6040890191909152606081015190965061180590826144de565b876000018181525050876001600160a01b0316896001600160a01b03168d7f4f0ed72ede64d6052fad7cbe06ab6234ec2c0cc3255a8566e9fecff3958142388e868c604001518c600001518d606001518e604001518f6020015160405161189d9796959493929190968752602087019590955260408601939093526060850191909152608084015260a083015260c082015260e00190565b60405180910390a4600a5460018601546118c6916001600160a01b03918216913391168e61329a565b600185015460808501516001600160401b03600160a81b90920482169116101561191c5760008086556040518d917f8401d05adbea6548a6999cc1540766e6d2ff919292142862893d0e62ec79fbe591a2611926565b6119268c84613309565b50505050505095945050505050565b60008054906101000a90046001600160a01b03166001600160a01b0316630c340a246040518163ffffffff1660e01b8152600401602060405180830381865afa158015611986573d6000803e3d6000fd5b505050506040513d601f19601f820116820180604052508101906119aa91906145a2565b6001600160a01b0316336001600160a01b03161480611a4e575060008054906101000a90046001600160a01b03166001600160a01b031663452a93206040518163ffffffff1660e01b8152600401602060405180830381865afa158015611a15573d6000803e3d6000fd5b505050506040513d601f19601f82011682018060405250810190611a3991906145a2565b6001600160a01b0316336001600160a01b0316145b80611ade575060008054906101000a90046001600160a01b03166001600160a01b0316630505c8c96040518163ffffffff1660e01b8152600401602060405180830381865afa158015611aa5573d6000803e3d6000fd5b505050506040513d601f19601f82011682018060405250810190611ac991906145a2565b6001600160a01b0316336001600160a01b0316145b611b2a5760405162461bcd60e51b815260206004820152600f60248201527f4f6e6c7920617574686f72697a65640000000000000000000000000000000000604482015260640161159c565b60008054906101000a90046001600160a01b03166001600160a01b031663fbfa77cf6040518163ffffffff1660e01b8152600401602060405180830381865afa158015611b7b573d6000803e3d6000fd5b505050506040513d601f19601f82011682018060405250810190611b9f91906145a2565b600a805473ffffffffffffffffffffffffffffffffffffffff19166001600160a01b0392909216919091179055565b6001600160a01b0382811660009081526009602090815260408083208584529091528120549091163314611c445760405162461bcd60e51b815260206004820152601e60248201527f4465706f7369746f72793a207472616e73666572206e6f7420666f756e640000604482015260640161159c565b6001600160a01b0383166000908152600860205260409020805483908110611c6e57611c6e6142e8565b6000918252602090912060029091020160010154600160601b900465ffffffffffff1615611cde5760405162461bcd60e51b815260206004820152601960248201527f4465706f7369746f72793a206e6f74652072656465656d656400000000000000604482015260640161159c565b503360009081526008602052604080822080546001600160a01b038616845291909220805491929184908110611d1657611d166142e8565b600091825260208083208454600181810187559585528285206002948502909201805491909402909101908155918401805492909401805465ffffffffffff19811665ffffffffffff94851690811783558654600160301b908190048616026bffffffffffffffffffffffff1990921617178082558554600160601b9081900485160271ffffffffffff000000000000000000000000198216811783559554600160901b9081900490941690930265ffffffffffff60901b1990951677ffffffffffffffffffffffff00000000000000000000000019909316929092179390931790556001600160a01b0385168152600890915260409020805483908110611e2057611e206142e8565b60009182526020822060029091020190815560010180547fffffffffffffffff00000000000000000000000000000000000000000000000016905592915050565b611e69612bc3565b6001600160a01b038316611ebf5760405162461bcd60e51b815260206004820152601560248201527f5a65726f20616464726573733a20506172746e65720000000000000000000000604482015260640161159c565b600554811115611f035760405162461bcd60e51b815260206004820152600f60248201526e0e4caeec2e4c840e8dede40d0d2ced608b1b604482015260640161159c565b60408051808201825292835260208084019283526001600160a01b0390941660009081526002909452909220905181559051600190910155565b600080600d8381548110611f5357611f536142e8565b600091825260208083206040805160c081018252939091015465ffffffffffff8082168552600160301b82048116938501849052600160601b8204811692850192909252600160901b810482166060850152600160c01b81049091166080840152600160f01b900460ff1660a0830152909250611fd0904261433c565b9050816040015165ffffffffffff1681600b8681548110611ff357611ff36142e8565b60009182526020909120600490910201600101546113c09190600160a81b90046001600160401b0316614466565b600b818154811061203157600080fd5b600091825260209091206004909102018054600182015460028301546003909301549193506001600160a01b0381169260ff600160a01b830416926001600160401b03600160a81b90930483169282811692600160401b9004169087565b612097612bc3565b6001600160a01b0383166120ed5760405162461bcd60e51b815260206004820152601660248201527f5a65726f20616464726573733a20526566657272657200000000000000000000604482015260640161159c565b6004546120fa82846144de565b111561213a5760405162461bcd60e51b815260206004820152600f60248201526e0e4caeec2e4c840e8dede40d0d2ced608b1b604482015260640161159c565b60408051808201825292835260208084019283526001600160a01b0390941660009081526003909452909220905181559051600190910155565b600061217f82611f3d565b600b8381548110612192576121926142e8565b906000526020600020906004020160010160159054906101000a90046001600160401b03166121c19190614314565b6001600160401b031692915050565b600f60205281600052604060002081815481106121ec57600080fd5b90600052602060002001600091509150505481565b600c818154811061221157600080fd5b60009182526020909120015460ff811691506001600160401b03610100820481169165ffffffffffff69010000000000000000008204811692600160781b830490911691600160a81b90041685565b6001600160a01b03821660009081526008602052604081208054829182918590811061228e5761228e6142e8565b60009182526020918290206040805160a0810182526002909302909101805480845260019091015465ffffffffffff80821695850195909552600160301b8104851692840192909252600160601b8204841660608401819052600160901b90920490931660808301529194509150158015612315575042816040015165ffffffffffff1611155b80156123215750805115155b9150509250929050565b60606000805b600b548110156123695761234481610fdb565b1561235757816123538161453b565b9250505b806123618161453b565b915050612331565b506000816001600160401b0381111561238457612384613e80565b6040519080825280602002602001820160405280156123ad578160200160208202803683370190505b5090506000805b600b5481101561240a576123c781610fdb565b156123f857808383815181106123df576123df6142e8565b6020908102919091010152816123f48161453b565b9250505b806124028161453b565b9150506123b4565b50909392505050565b60008042815b85518110156124f0576000806124488989858151811061243b5761243b6142e8565b6020026020010151612260565b9150915080156124db576001600160a01b038916600090815260086020526040902088518591908a9086908110612481576124816142e8565b602002602001015181548110612499576124996142e8565b9060005260206000209060020201600101600c6101000a81548165ffffffffffff021916908365ffffffffffff16021790555081856124d891906144de565b94505b505080806124e89061453b565b915050612419565b50831561259957604051635d043b2960e11b8152600481018390526001600160a01b0387811660248301523060448301527f0000000000000000000000000000000000000000000000000000000000000000169063ba087652906064016020604051808303816000875af115801561256c573d6000803e3d6000fd5b505050506040513d601f19601f8201168201806040525081019061259091906144f6565b9250505061116d565b60405163a9059cbb60e01b81526001600160a01b038781166004830152602482018490527f0000000000000000000000000000000000000000000000000000000000000000169063a9059cbb906044016020604051808303816000875af1158015612608573d6000803e3d6000fd5b505050506040513d601f19601f820116820180604052508101906112f7919061451e565b33600090815260086020526040902080548290811061264d5761264d6142e8565b600091825260209091206001600290920201015465ffffffffffff166126b55760405162461bcd60e51b815260206004820152601a60248201527f4465706f7369746f72793a206e6f7465206e6f7420666f756e64000000000000604482015260640161159c565b33600090815260096020908152604080832093835292905220805473ffffffffffffffffffffffffffffffffffffffff19166001600160a01b0392909216919091179055565b6008602052816000526040600020818154811061271757600080fd5b60009182526020909120600290910201805460019091015490925065ffffffffffff8082169250600160301b8204811691600160601b8104821691600160901b9091041685565b600d818154811061276e57600080fd5b60009182526020909120015465ffffffffffff8082169250600160301b8204811691600160601b8104821691600160901b8204811691600160c01b810490911690600160f01b900460ff1686565b6001600160a01b0381166000908152600860209081526040808320805482518185028101850190935280835260609493849084015b828210156128675760008481526020908190206040805160a081018252600286029092018054835260019081015465ffffffffffff80821685870152600160301b8204811693850193909352600160601b810483166060850152600160901b9004909116608083015290835290920191016127f1565b505050509050600080600090505b82518110156128f657828181518110612890576128906142e8565b60200260200101516060015165ffffffffffff1660001480156128d157508281815181106128c0576128c06142e8565b602002602001015160000151600014155b156128e457816128e08161453b565b9250505b806128ee8161453b565b915050612875565b506000816001600160401b0381111561291157612911613e80565b60405190808252806020026020018201604052801561293a578160200160208202803683370190505b5090506000805b84518110156112f75784818151811061295c5761295c6142e8565b60200260200101516060015165ffffffffffff16600014801561299d575084818151811061298c5761298c6142e8565b602002602001015160000151600014155b156129ce57808383815181106129b5576129b56142e8565b6020908102919091010152816129ca8161453b565b9250505b806129d88161453b565b915050612941565b60007f00000000000000000000000000000000000000000000000000000000000000006001600160a01b03166318160ddd6040518163ffffffff1660e01b8152600401602060405180830381865afa158015612a40573d6000803e3d6000fd5b505050506040513d601f19601f82011682018060405250810190612a6491906144f6565b600d8381548110612a7757612a776142e8565b600091825260209091200154612a9890600160f01b900460ff16600a61450f565b61109984612174565b612aa9612c6b565b600455565b60408051606081018252600080825260208201819052918101919091526000828152600e6020908152604091829020825160808101845290546001600160401b038116825265ffffffffffff600160401b82048116938301939093526e01000000000000000000000000000081049092169281019290925260ff600160a01b90910416151560608201819052612b445750919050565b6020810151612b5390426145bf565b65ffffffffffff9081166020840181905260408084015190921611908301819052612b7f578051612bb2565b806040015165ffffffffffff16826020015165ffffffffffff168260000151612ba891906144af565b612bb291906145de565b6001600160401b0316825250919050565b60008054906101000a90046001600160a01b03166001600160a01b0316630505c8c96040518163ffffffff1660e01b8152600401602060405180830381865afa158015612c14573d6000803e3d6000fd5b505050506040513d601f19601f82011682018060405250810190612c3891906145a2565b6001600160a01b0316336001600160a01b031614612c695760405163075fd2b160e01b815260040160405180910390fd5b565b60008054906101000a90046001600160a01b03166001600160a01b0316630c340a246040518163ffffffff1660e01b8152600401602060405180830381865afa158015612c14573d6000803e3d6000fd5b612cc582611f3d565b600b8381548110612cd857612cd86142e8565b906000526020600020906004020160010160158282829054906101000a90046001600160401b0316612d0a9190614314565b92506101000a8154816001600160401b0302191690836001600160401b0316021790555080600d8381548110612d4257612d426142e8565b60009182526020808320909101805465ffffffffffff94909416600160301b026bffffffffffff0000000000001990941693909317909255838152600e909152604090205460ff600160a01b9091041615611154576000828152600e6020526040812090612daf84612aae565b90508060000151600c8581548110612dc957612dc96142e8565b60009182526020909120018054600190612df290849061010090046001600160401b0316614314565b92506101000a8154816001600160401b0302191690836001600160401b03160217905550806040015115612ed157805182548390600090612e3d9084906001600160401b0316614314565b92506101000a8154816001600160401b0302191690836001600160401b03160217905550806020015182600001600e8282829054906101000a900465ffffffffffff16612e8a91906145bf565b82546101009290920a65ffffffffffff81810219909316918316021790915583546dffffffffffff00000000000000001916600160401b9186169190910217835550612ef8565b81547fffffffffffffffffffffff00ffffffffffffffffffffffffffffffffffffffff1682555b50505050565b6000600d8281548110612f1357612f136142e8565b600091825260209091200154612f3490600160f01b900460ff16600a61450f565b612f3d8361388b565b600c8481548110612f5057612f506142e8565b6000918252602090912001546110a3919061010090046001600160401b0316614466565b6000612fa16040518060800160405280600081526020016000815260200160008152602001600081525090565b6000612fae87858a613984565b6001600160a01b038916600090815260086020526040812054606083015192935091612fdb908a906144de565b905060008360000151846060015185602001518660400151612ffd91906144de565b613007919061433c565b613011919061433c565b600a5485519192506001600160a01b0316906340c10f1990309061303590866144de565b6040517fffffffff0000000000000000000000000000000000000000000000000000000060e085901b1681526001600160a01b0390921660048301526024820152604401600060405180830381600087803b15801561309357600080fd5b505af11580156130a7573d6000803e3d6000fd5b5050604051636e553f6560e01b815260048101859052306024820152600092507f00000000000000000000000000000000000000000000000000000000000000006001600160a01b03169150636e553f65906044016020604051808303816000875af115801561311b573d6000803e3d6000fd5b505050506040513d601f19601f8201168201806040525081019061313f91906144f6565b600a546040516340c10f1960e01b81526001600160a01b0390911660048201819052602482018590529192506340c10f1990604401600060405180830381600087803b15801561318e57600080fd5b505af11580156131a2573d6000803e3d6000fd5b5050506001600160a01b03909c166000908152600860209081526040808320815160a08101835294855265ffffffffffff4281168685019081529e8116928601928352606086018581529d81166080870190815282546001818101855593875294909520955160029094029095019283559c5191909c0180549c519b5192518416600160901b0265ffffffffffff60901b19938516600160601b029390931677ffffffffffffffffffffffff000000000000000000000000199c8516600160301b026bffffffffffffffffffffffff19909e1692909416919091179b909b179990991617979097179097559890975095505050505050565b604080516001600160a01b0385811660248301528416604482015260648082018490528251808303909101815260849091019091526020810180517bffffffffffffffffffffffffffffffffffffffffffffffffffffffff166323b872dd60e01b179052612ef8908590613c39565b6000600d838154811061331e5761331e6142e8565b60009182526020918290206040805160c081018252929091015465ffffffffffff808216808552600160301b8304821695850195909552600160601b8204811692840192909252600160901b810482166060840152600160c01b810490911660808301819052600160f01b90910460ff1660a08301529092506133a091614556565b65ffffffffffff168265ffffffffffff1610613886576000600b84815481106133cb576133cb6142e8565b600091825260208083206040805160e08101825260049094029091018054845260018101546001600160a01b0381169385019390935260ff600160a01b8404161515918401919091526001600160401b03600160a81b9092048216606084015260028101548083166080850152600160401b900490911660a08301526003015460c0820152600c8054919350859187908110613469576134696142e8565b60009182526020909120015461348e9190600160781b900465ffffffffffff166145bf565b65ffffffffffff16905060006134a386612efe565b9050600083604001516134b75783516134f1565b60a08501516134c790600a61450f565b845183906134dd90670de0b6b3a7640000614466565b6134e7919061449b565b6134f1919061449b565b905082856060015165ffffffffffff168261350c9190614466565b613516919061449b565b600b8881548110613529576135296142e8565b906000526020600020906004020160020160006101000a8154816001600160401b0302191690836001600160401b03160217905550600083866040015165ffffffffffff16836135799190614466565b613583919061449b565b90506000817f00000000000000000000000000000000000000000000000000000000000000006001600160a01b03166318160ddd6040518163ffffffff1660e01b8152600401602060405180830381865afa1580156135e6573d6000803e3d6000fd5b505050506040513d601f19601f8201168201806040525081019061360a91906144f6565b6136149086614466565b61361e919061449b565b9050887f3070b0e3e52b8713c7489d32604ea4b0970024f74c6e05319269a19bc1e3a9d9600c8b81548110613655576136556142e8565b60009182526020918290200154604080516101009092046001600160401b0390811683528616928201929092520160405180910390a2600c898154811061369e5761369e6142e8565b6000918252602090912001546001600160401b0361010090910481169082161061370c5780600c8a815481106136d6576136d66142e8565b9060005260206000200160000160016101000a8154816001600160401b0302191690836001600160401b03160217905550613844565b600081600c8b81548110613722576137226142e8565b600091825260209091200154613746919061010090046001600160401b0316614314565b90506040518060800160405280826001600160401b031681526020018a65ffffffffffff168152602001896080015165ffffffffffff16815260200160011515815250600e60008c815260200190815260200160002060008201518160000160006101000a8154816001600160401b0302191690836001600160401b0316021790555060208201518160000160086101000a81548165ffffffffffff021916908365ffffffffffff160217905550604082015181600001600e6101000a81548165ffffffffffff021916908365ffffffffffff16021790555060608201518160000160146101000a81548160ff021916908315150217905550905050505b87600d8a81548110613858576138586142e8565b6000918252602090912001805465ffffffffffff191665ffffffffffff929092169190911790555050505050505b505050565b60007f00000000000000000000000000000000000000000000000000000000000000006001600160a01b03166318160ddd6040518163ffffffff1660e01b8152600401602060405180830381865afa1580156138eb573d6000803e3d6000fd5b505050506040513d601f19601f8201168201806040525081019061390f91906144f6565b600d8381548110613922576139226142e8565b60009182526020909120015461394390600160f01b900460ff16600a61450f565b600b8481548110613956576139566142e8565b60009182526020909120600490910201600101546110a39190600160a81b90046001600160401b0316614466565b6139af6040518060800160405280600081526020016000815260200160008152602001600081525090565b7f0000000000000000000000000000000000000000000000000000000000000000600654856139de9190614466565b6139e8919061449b565b816020018181516139f991906144de565b9052506007547f000000000000000000000000000000000000000000000000000000000000000090613a2b9086614466565b613a35919061449b565b81604001818151613a4691906144de565b9052506001600160a01b03821660009081526002602052604090206001015415613b42576001600160a01b0382166000908152600260205260408120600101547f000000000000000000000000000000000000000000000000000000000000000090613ab29087614466565b613abc919061449b565b6001600160a01b0384166000908152600260205260409020549091508110613b01576001600160a01b0383166000908152600260205260409020546060830152613b09565b606082018190525b60608201516001600160a01b03841660009081526002602052604081208054909190613b3690849061433c565b9091555061116d915050565b6001600160a01b038316600090815260036020908152604091829020825180840190935280548084526001909101549183019190915215613be65780517f000000000000000000000000000000000000000000000000000000000000000090613bab9087614466565b613bb5919061449b565b8083526001600160a01b03851660009081526001602052604081208054909190613be09084906144de565b90915550505b602081015115613c31577f0000000000000000000000000000000000000000000000000000000000000000816020015186613c219190614466565b613c2b919061449b565b60608301525b509392505050565b6000613c8e826040518060400160405280602081526020017f5361666545524332303a206c6f772d6c6576656c2063616c6c206661696c6564815250856001600160a01b0316613d1e9092919063ffffffff16565b8051909150156138865780806020019051810190613cac919061451e565b6138865760405162461bcd60e51b815260206004820152602a60248201527f5361666545524332303a204552433230206f7065726174696f6e20646964206e60448201527f6f74207375636365656400000000000000000000000000000000000000000000606482015260840161159c565b60606113ca8484600085856001600160a01b0385163b613d805760405162461bcd60e51b815260206004820152601d60248201527f416464726573733a2063616c6c20746f206e6f6e2d636f6e7472616374000000604482015260640161159c565b600080866001600160a01b03168587604051613d9c9190614630565b60006040518083038185875af1925050503d8060008114613dd9576040519150601f19603f3d011682016040523d82523d6000602084013e613dde565b606091505b5091509150613dee828286613df9565b979650505050505050565b60608315613e0857508161116d565b825115613e185782518084602001fd5b8160405162461bcd60e51b815260040161159c919061464c565b6001600160a01b0381168114613e4757600080fd5b50565b600060208284031215613e5c57600080fd5b813561116d81613e32565b600060208284031215613e7957600080fd5b5035919050565b634e487b7160e01b600052604160045260246000fd5b604080519081016001600160401b0381118282101715613eb857613eb8613e80565b60405290565b604051601f8201601f191681016001600160401b0381118282101715613ee657613ee6613e80565b604052919050565b6000604051606081018181106001600160401b0382111715613f1257613f12613e80565b6040529050806060830184811115613f2957600080fd5b835b81811015613f43578035835260209283019201613f2b565b50505092915050565b8015158114613e4757600080fd5b8035613f6581613f4c565b919050565b600082601f830112613f7b57600080fd5b613f83613e96565b806040840185811115613f9557600080fd5b845b818110156112f7578035845260209384019301613f97565b600082601f830112613fc057600080fd5b613fc8613e96565b806040840185811115613fda57600080fd5b845b818110156112f757803563ffffffff81168114613ff95760008081fd5b845260209384019301613fdc565b6000806000806000610140868803121561402057600080fd5b853561402b81613e32565b94506020603f8701881361403e57600080fd5b61404a88828901613eee565b945087609f88011261405b57600080fd5b614063613e96565b8060c089018a81111561407557600080fd5b60808a015b8181101561409a57803561408d81613f4c565b845292840192840161407a565b508196506140a88b82613f6a565b9550505050506140bc876101008801613faf565b90509295509295909350565b600080604083850312156140db57600080fd5b82356140e681613e32565b915060208301356140f681613f4c565b809150509250929050565b6020808252825182820181905260009190848201906040850190845b818110156141395783518352928401929184019160010161411d565b50909695505050505050565b6000806040838503121561415857600080fd5b50508035926020909101359150565b600080600080600060a0868803121561417f57600080fd5b853594506020860135935060408601359250606086013561419f81613e32565b915060808601356141af81613e32565b809150509295509295909350565b600080604083850312156141d057600080fd5b82356141db81613e32565b946020939093013593505050565b6000806000606084860312156141fe57600080fd5b833561420981613e32565b95602085013595506040909401359392505050565b60008060006060848603121561423357600080fd5b833561423e81613e32565b92506020848101356001600160401b038082111561425b57600080fd5b818701915087601f83011261426f57600080fd5b81358181111561428157614281613e80565b8060051b9150614292848301613ebe565b818152918301840191848101908a8411156142ac57600080fd5b938501935b838510156142ca578435825293850193908501906142b1565b8097505050505050506142df60408501613f5a565b90509250925092565b634e487b7160e01b600052603260045260246000fd5b634e487b7160e01b600052601160045260246000fd5b60006001600160401b0383811690831681811015614334576143346142fe565b039392505050565b60008282101561434e5761434e6142fe565b500390565b60006020828403121561436557600080fd5b815160ff8116811461116d57600080fd5b600181815b808511156143b1578160001904821115614397576143976142fe565b808516156143a457918102915b93841c939080029061437b565b509250929050565b6000826143c85750600161103e565b816143d55750600061103e565b81600181146143eb57600281146143f557614411565b600191505061103e565b60ff841115614406576144066142fe565b50506001821b61103e565b5060208310610133831016604e8410600b8410161715614434575081810a61103e565b61443e8383614376565b8060001904821115614452576144526142fe565b029392505050565b600061116d83836143b9565b6000816000190483118215151615614480576144806142fe565b500290565b634e487b7160e01b600052601260045260246000fd5b6000826144aa576144aa614485565b500490565b60006001600160401b03808316818516818304811182151516156144d5576144d56142fe565b02949350505050565b600082198211156144f1576144f16142fe565b500190565b60006020828403121561450857600080fd5b5051919050565b600061116d60ff8416836143b9565b60006020828403121561453057600080fd5b815161116d81613f4c565b600060001982141561454f5761454f6142fe565b5060010190565b600065ffffffffffff808316818516808303821115614577576145776142fe565b01949350505050565b60006001600160401b03808316818516808303821115614577576145776142fe565b6000602082840312156145b457600080fd5b815161116d81613e32565b600065ffffffffffff83811690831681811015614334576143346142fe565b60006001600160401b03808416806145f8576145f8614485565b92169190910492915050565b60005b8381101561461f578181015183820152602001614607565b83811115612ef85750506000910152565b60008251614642818460208701614604565b9190910192915050565b602081526000825180602084015261466b816040850160208701614604565b601f01601f1916919091016040019291505056fea164736f6c634300080a000a",
  "devdoc": {
    "kind": "dev",
    "methods": {
      "close(uint256)": {
        "params": {
          "_id": "ID of market to close"
        }
      },
      "create(address,uint256[3],bool[2],uint256[2],uint32[2])": {
        "details": "current price should be in 9 decimals.",
        "params": {
          "_booleans": "[capacity in quote, fixed term]",
          "_intervals": "[deposit interval (seconds), tune interval (seconds)]",
          "_market": "[capacity (in HECTA or quote), initial price / HECTA (9 decimals), debt buffer (3 decimals)]",
          "_quoteToken": "token used to deposit",
          "_terms": "[vesting length (if fixed term) or vested timestamp, conclusion timestamp]"
        },
        "returns": {
          "id_": "        ID of new bond market"
        }
      },
      "currentControlVariable(uint256)": {
        "details": "accounts for control variable adjustment",
        "params": {
          "_id": "ID of market"
        },
        "returns": {
          "_0": "control variable for market in HECTA decimals"
        }
      },
      "currentDebt(uint256)": {
        "details": "accounts for debt decay since last deposit",
        "params": {
          "_id": "ID of market"
        },
        "returns": {
          "_0": "current debt for market in HECTA decimals"
        }
      },
      "debtDecay(uint256)": {
        "params": {
          "_id": "ID of market"
        },
        "returns": {
          "_0": "amount of debt to decay"
        }
      },
      "debtRatio(uint256)": {
        "details": "uses current debt, which accounts for debt decay since last deposit (vs _debtRatio())",
        "params": {
          "_id": "ID of market"
        },
        "returns": {
          "_0": "debt ratio for market in quote decimals"
        }
      },
      "deposit(uint256,uint256,uint256,address,address)": {
        "params": {
          "_amount": "the amount of quote token to spend",
          "_id": "the ID of the market",
          "_maxPrice": "the maximum price at which to buy",
          "_referral": "the front end operator address",
          "_user": "the recipient of the payout"
        }
      },
      "indexesFor(address)": {
        "params": {
          "_user": "the user to query notes for"
        },
        "returns": {
          "_0": "the pending notes for the user"
        }
      },
      "isLive(uint256)": {
        "params": {
          "_id": "ID of market"
        }
      },
      "liveMarketsFor(address)": {
        "params": {
          "_token": "quote token to check for"
        }
      },
      "marketPrice(uint256)": {
        "details": "accounts for debt and control variable decay since last deposit (vs _marketPrice())",
        "params": {
          "_id": "ID of market"
        },
        "returns": {
          "_0": "price for market in HECTA decimals price is derived from the equation p = cv * dr where p = price cv = control variable dr = debt ratio dr = d / s where d = debt s = supply of token at market creation d -= ( d * (dt / l) ) where dt = change in time l = length of program"
        }
      },
      "payoutFor(uint256,uint256)": {
        "details": "accounts for debt and control variable decay so it is up to date1e18 = hecta decimals (9) + market price decimals (9)",
        "params": {
          "_amount": "amount of quote tokens to spend",
          "_id": "ID of market"
        },
        "returns": {
          "_0": "amount of HECTA to be paid in HECTA decimals"
        }
      },
      "pendingFor(address,uint256)": {
        "params": {
          "_index": "the index of the note in the user's array",
          "_user": "the user that the note belongs to"
        },
        "returns": {
          "matured_": "   if the payout can be redeemed",
          "payout_": "    the payout due, in gHecta"
        }
      },
      "pullNote(address,uint256)": {
        "params": {
          "_from": "the address that approved the note transfer",
          "_index": "the index of the note to transfer (in the sender's array)"
        }
      },
      "pushNote(address,uint256)": {
        "params": {
          "_index": "index of note to approve transfer for",
          "_to": "address to approve note transfer for"
        }
      },
      "redeem(address,uint256[],bool)": {
        "params": {
          "_indexes": "the note indexes to redeem",
          "_unstake": "option for redeem gHecta or Hecta",
          "_user": "the user to redeem for"
        },
        "returns": {
          "_0": "sum of payout sent, in gHecta or Hecta"
        }
      },
      "redeemAll(address,bool)": {
        "details": "if possible, query indexesFor() off-chain and input in redeem() to save gas",
        "params": {
          "_unstake": "option for redeem gHecta or Hecta",
          "_user": "user to redeem all notes for"
        },
        "returns": {
          "_0": "sum of payout sent, in gHecta or Hecta"
        }
      }
    },
    "title": "Hectagon Bond Depository",
    "version": 1
  },
  "userdoc": {
    "kind": "user",
    "methods": {
      "close(uint256)": {
        "notice": "disable existing market"
      },
      "create(address,uint256[3],bool[2],uint256[2],uint32[2])": {
        "notice": "creates a new market type"
      },
      "currentControlVariable(uint256)": {
        "notice": "up to date control variable"
      },
      "currentDebt(uint256)": {
        "notice": "calculate debt factoring in decay"
      },
      "debtDecay(uint256)": {
        "notice": "amount of debt to decay from total debt for market ID"
      },
      "debtRatio(uint256)": {
        "notice": "calculate current ratio of debt to supply"
      },
      "deposit(uint256,uint256,uint256,address,address)": {
        "notice": "deposit quote tokens in exchange for a bond from a specified market"
      },
      "indexesFor(address)": {
        "notice": "all pending notes for user"
      },
      "isLive(uint256)": {
        "notice": "is a given market accepting deposits"
      },
      "liveMarkets()": {
        "notice": "returns an array of all active market IDs"
      },
      "liveMarketsFor(address)": {
        "notice": "returns an array of all active market IDs for a given quote token"
      },
      "marketPrice(uint256)": {
        "notice": "calculate current market price of quote token in base token"
      },
      "payoutFor(uint256,uint256)": {
        "notice": "payout due for amount of quote tokens"
      },
      "pendingFor(address,uint256)": {
        "notice": "calculate amount available for claim for a single note"
      },
      "pullNote(address,uint256)": {
        "notice": "transfer a note that has been approved by an address"
      },
      "pushNote(address,uint256)": {
        "notice": "approve an address to transfer a note"
      },
      "redeem(address,uint256[],bool)": {
        "notice": "redeem notes for user"
      },
      "redeemAll(address,bool)": {
        "notice": "redeem all redeemable markets for user"
      },
      "setPartnerTerm(address,uint256,uint256)": {
        "notice": "set partner term"
      },
      "setPartnerTermCap(uint256)": {
        "notice": "set Cap for referrer % reward"
      },
      "setReferTerm(address,uint256,uint256)": {
        "notice": "set referrer term"
      },
      "setReferTermCap(uint256)": {
        "notice": "set Cap for referrer % reward"
      }
    },
    "version": 1
  },
  "storageLayout": {
    "storage": [
      {
        "astId": 12083,
        "contract": "contracts/BondDepository.sol:HectagonBondDepository",
        "label": "authority",
        "offset": 0,
        "slot": "0",
        "type": "t_contract(IHectagonAuthority)8713"
      },
      {
        "astId": 11731,
        "contract": "contracts/BondDepository.sol:HectagonBondDepository",
        "label": "rewards",
        "offset": 0,
        "slot": "1",
        "type": "t_mapping(t_address,t_uint256)"
      },
      {
        "astId": 11736,
        "contract": "contracts/BondDepository.sol:HectagonBondDepository",
        "label": "partnerTerms",
        "offset": 0,
        "slot": "2",
        "type": "t_mapping(t_address,t_struct(PartnerTerm)11727_storage)"
      },
      {
        "astId": 11741,
        "contract": "contracts/BondDepository.sol:HectagonBondDepository",
        "label": "referTerms",
        "offset": 0,
        "slot": "3",
        "type": "t_mapping(t_address,t_struct(ReferTerm)11722_storage)"
      },
      {
        "astId": 11744,
        "contract": "contracts/BondDepository.sol:HectagonBondDepository",
        "label": "referTermCap",
        "offset": 0,
        "slot": "4",
        "type": "t_uint256"
      },
      {
        "astId": 11747,
        "contract": "contracts/BondDepository.sol:HectagonBondDepository",
        "label": "partnerTermCap",
        "offset": 0,
        "slot": "5",
        "type": "t_uint256"
      },
      {
        "astId": 11750,
        "contract": "contracts/BondDepository.sol:HectagonBondDepository",
        "label": "daoInvestmentPercent",
        "offset": 0,
        "slot": "6",
        "type": "t_uint256"
      },
      {
        "astId": 11753,
        "contract": "contracts/BondDepository.sol:HectagonBondDepository",
        "label": "daoCommunityPercent",
        "offset": 0,
        "slot": "7",
        "type": "t_uint256"
      },
      {
        "astId": 12218,
        "contract": "contracts/BondDepository.sol:HectagonBondDepository",
        "label": "notes",
        "offset": 0,
        "slot": "8",
        "type": "t_mapping(t_address,t_array(t_struct(Note)8726_storage)dyn_storage)"
      },
      {
        "astId": 12224,
        "contract": "contracts/BondDepository.sol:HectagonBondDepository",
        "label": "noteTransfers",
        "offset": 0,
        "slot": "9",
        "type": "t_mapping(t_address,t_mapping(t_uint256,t_address))"
      },
      {
        "astId": 12230,
        "contract": "contracts/BondDepository.sol:HectagonBondDepository",
        "label": "treasury",
        "offset": 0,
        "slot": "10",
        "type": "t_contract(ITreasury)8800"
      },
      {
        "astId": 3930,
        "contract": "contracts/BondDepository.sol:HectagonBondDepository",
        "label": "markets",
        "offset": 0,
        "slot": "11",
        "type": "t_array(t_struct(Market)8391_storage)dyn_storage"
      },
      {
        "astId": 3934,
        "contract": "contracts/BondDepository.sol:HectagonBondDepository",
        "label": "terms",
        "offset": 0,
        "slot": "12",
        "type": "t_array(t_struct(Terms)8402_storage)dyn_storage"
      },
      {
        "astId": 3938,
        "contract": "contracts/BondDepository.sol:HectagonBondDepository",
        "label": "metadata",
        "offset": 0,
        "slot": "13",
        "type": "t_array(t_struct(Metadata)8415_storage)dyn_storage"
      },
      {
        "astId": 3943,
        "contract": "contracts/BondDepository.sol:HectagonBondDepository",
        "label": "adjustments",
        "offset": 0,
        "slot": "14",
        "type": "t_mapping(t_uint256,t_struct(Adjustment)8424_storage)"
      },
      {
        "astId": 3948,
        "contract": "contracts/BondDepository.sol:HectagonBondDepository",
        "label": "marketsForQuote",
        "offset": 0,
        "slot": "15",
        "type": "t_mapping(t_address,t_array(t_uint256)dyn_storage)"
      }
    ],
    "types": {
      "t_address": {
        "encoding": "inplace",
        "label": "address",
        "numberOfBytes": "20"
      },
      "t_array(t_struct(Market)8391_storage)dyn_storage": {
        "base": "t_struct(Market)8391_storage",
        "encoding": "dynamic_array",
        "label": "struct IBondDepository.Market[]",
        "numberOfBytes": "32"
      },
      "t_array(t_struct(Metadata)8415_storage)dyn_storage": {
        "base": "t_struct(Metadata)8415_storage",
        "encoding": "dynamic_array",
        "label": "struct IBondDepository.Metadata[]",
        "numberOfBytes": "32"
      },
      "t_array(t_struct(Note)8726_storage)dyn_storage": {
        "base": "t_struct(Note)8726_storage",
        "encoding": "dynamic_array",
        "label": "struct INoteKeeper.Note[]",
        "numberOfBytes": "32"
      },
      "t_array(t_struct(Terms)8402_storage)dyn_storage": {
        "base": "t_struct(Terms)8402_storage",
        "encoding": "dynamic_array",
        "label": "struct IBondDepository.Terms[]",
        "numberOfBytes": "32"
      },
      "t_array(t_uint256)dyn_storage": {
        "base": "t_uint256",
        "encoding": "dynamic_array",
        "label": "uint256[]",
        "numberOfBytes": "32"
      },
      "t_bool": {
        "encoding": "inplace",
        "label": "bool",
        "numberOfBytes": "1"
      },
      "t_contract(IERC20)1052": {
        "encoding": "inplace",
        "label": "contract IERC20",
        "numberOfBytes": "20"
      },
      "t_contract(IHectagonAuthority)8713": {
        "encoding": "inplace",
        "label": "contract IHectagonAuthority",
        "numberOfBytes": "20"
      },
      "t_contract(ITreasury)8800": {
        "encoding": "inplace",
        "label": "contract ITreasury",
        "numberOfBytes": "20"
      },
      "t_mapping(t_address,t_array(t_struct(Note)8726_storage)dyn_storage)": {
        "encoding": "mapping",
        "key": "t_address",
        "label": "mapping(address => struct INoteKeeper.Note[])",
        "numberOfBytes": "32",
        "value": "t_array(t_struct(Note)8726_storage)dyn_storage"
      },
      "t_mapping(t_address,t_array(t_uint256)dyn_storage)": {
        "encoding": "mapping",
        "key": "t_address",
        "label": "mapping(address => uint256[])",
        "numberOfBytes": "32",
        "value": "t_array(t_uint256)dyn_storage"
      },
      "t_mapping(t_address,t_mapping(t_uint256,t_address))": {
        "encoding": "mapping",
        "key": "t_address",
        "label": "mapping(address => mapping(uint256 => address))",
        "numberOfBytes": "32",
        "value": "t_mapping(t_uint256,t_address)"
      },
      "t_mapping(t_address,t_struct(PartnerTerm)11727_storage)": {
        "encoding": "mapping",
        "key": "t_address",
        "label": "mapping(address => struct FrontEndRewarder.PartnerTerm)",
        "numberOfBytes": "32",
        "value": "t_struct(PartnerTerm)11727_storage"
      },
      "t_mapping(t_address,t_struct(ReferTerm)11722_storage)": {
        "encoding": "mapping",
        "key": "t_address",
        "label": "mapping(address => struct FrontEndRewarder.ReferTerm)",
        "numberOfBytes": "32",
        "value": "t_struct(ReferTerm)11722_storage"
      },
      "t_mapping(t_address,t_uint256)": {
        "encoding": "mapping",
        "key": "t_address",
        "label": "mapping(address => uint256)",
        "numberOfBytes": "32",
        "value": "t_uint256"
      },
      "t_mapping(t_uint256,t_address)": {
        "encoding": "mapping",
        "key": "t_uint256",
        "label": "mapping(uint256 => address)",
        "numberOfBytes": "32",
        "value": "t_address"
      },
      "t_mapping(t_uint256,t_struct(Adjustment)8424_storage)": {
        "encoding": "mapping",
        "key": "t_uint256",
        "label": "mapping(uint256 => struct IBondDepository.Adjustment)",
        "numberOfBytes": "32",
        "value": "t_struct(Adjustment)8424_storage"
      },
      "t_struct(Adjustment)8424_storage": {
        "encoding": "inplace",
        "label": "struct IBondDepository.Adjustment",
        "members": [
          {
            "astId": 8417,
            "contract": "contracts/BondDepository.sol:HectagonBondDepository",
            "label": "change",
            "offset": 0,
            "slot": "0",
            "type": "t_uint64"
          },
          {
            "astId": 8419,
            "contract": "contracts/BondDepository.sol:HectagonBondDepository",
            "label": "lastAdjustment",
            "offset": 8,
            "slot": "0",
            "type": "t_uint48"
          },
          {
            "astId": 8421,
            "contract": "contracts/BondDepository.sol:HectagonBondDepository",
            "label": "timeToAdjusted",
            "offset": 14,
            "slot": "0",
            "type": "t_uint48"
          },
          {
            "astId": 8423,
            "contract": "contracts/BondDepository.sol:HectagonBondDepository",
            "label": "active",
            "offset": 20,
            "slot": "0",
            "type": "t_bool"
          }
        ],
        "numberOfBytes": "32"
      },
      "t_struct(Market)8391_storage": {
        "encoding": "inplace",
        "label": "struct IBondDepository.Market",
        "members": [
          {
            "astId": 8377,
            "contract": "contracts/BondDepository.sol:HectagonBondDepository",
            "label": "capacity",
            "offset": 0,
            "slot": "0",
            "type": "t_uint256"
          },
          {
            "astId": 8380,
            "contract": "contracts/BondDepository.sol:HectagonBondDepository",
            "label": "quoteToken",
            "offset": 0,
            "slot": "1",
            "type": "t_contract(IERC20)1052"
          },
          {
            "astId": 8382,
            "contract": "contracts/BondDepository.sol:HectagonBondDepository",
            "label": "capacityInQuote",
            "offset": 20,
            "slot": "1",
            "type": "t_bool"
          },
          {
            "astId": 8384,
            "contract": "contracts/BondDepository.sol:HectagonBondDepository",
            "label": "totalDebt",
            "offset": 21,
            "slot": "1",
            "type": "t_uint64"
          },
          {
            "astId": 8386,
            "contract": "contracts/BondDepository.sol:HectagonBondDepository",
            "label": "maxPayout",
            "offset": 0,
            "slot": "2",
            "type": "t_uint64"
          },
          {
            "astId": 8388,
            "contract": "contracts/BondDepository.sol:HectagonBondDepository",
            "label": "sold",
            "offset": 8,
            "slot": "2",
            "type": "t_uint64"
          },
          {
            "astId": 8390,
            "contract": "contracts/BondDepository.sol:HectagonBondDepository",
            "label": "purchased",
            "offset": 0,
            "slot": "3",
            "type": "t_uint256"
          }
        ],
        "numberOfBytes": "128"
      },
      "t_struct(Metadata)8415_storage": {
        "encoding": "inplace",
        "label": "struct IBondDepository.Metadata",
        "members": [
          {
            "astId": 8404,
            "contract": "contracts/BondDepository.sol:HectagonBondDepository",
            "label": "lastTune",
            "offset": 0,
            "slot": "0",
            "type": "t_uint48"
          },
          {
            "astId": 8406,
            "contract": "contracts/BondDepository.sol:HectagonBondDepository",
            "label": "lastDecay",
            "offset": 6,
            "slot": "0",
            "type": "t_uint48"
          },
          {
            "astId": 8408,
            "contract": "contracts/BondDepository.sol:HectagonBondDepository",
            "label": "length",
            "offset": 12,
            "slot": "0",
            "type": "t_uint48"
          },
          {
            "astId": 8410,
            "contract": "contracts/BondDepository.sol:HectagonBondDepository",
            "label": "depositInterval",
            "offset": 18,
            "slot": "0",
            "type": "t_uint48"
          },
          {
            "astId": 8412,
            "contract": "contracts/BondDepository.sol:HectagonBondDepository",
            "label": "tuneInterval",
            "offset": 24,
            "slot": "0",
            "type": "t_uint48"
          },
          {
            "astId": 8414,
            "contract": "contracts/BondDepository.sol:HectagonBondDepository",
            "label": "quoteDecimals",
            "offset": 30,
            "slot": "0",
            "type": "t_uint8"
          }
        ],
        "numberOfBytes": "32"
      },
      "t_struct(Note)8726_storage": {
        "encoding": "inplace",
        "label": "struct INoteKeeper.Note",
        "members": [
          {
            "astId": 8717,
            "contract": "contracts/BondDepository.sol:HectagonBondDepository",
            "label": "payout",
            "offset": 0,
            "slot": "0",
            "type": "t_uint256"
          },
          {
            "astId": 8719,
            "contract": "contracts/BondDepository.sol:HectagonBondDepository",
            "label": "created",
            "offset": 0,
            "slot": "1",
            "type": "t_uint48"
          },
          {
            "astId": 8721,
            "contract": "contracts/BondDepository.sol:HectagonBondDepository",
            "label": "matured",
            "offset": 6,
            "slot": "1",
            "type": "t_uint48"
          },
          {
            "astId": 8723,
            "contract": "contracts/BondDepository.sol:HectagonBondDepository",
            "label": "redeemed",
            "offset": 12,
            "slot": "1",
            "type": "t_uint48"
          },
          {
            "astId": 8725,
            "contract": "contracts/BondDepository.sol:HectagonBondDepository",
            "label": "marketID",
            "offset": 18,
            "slot": "1",
            "type": "t_uint48"
          }
        ],
        "numberOfBytes": "64"
      },
      "t_struct(PartnerTerm)11727_storage": {
        "encoding": "inplace",
        "label": "struct FrontEndRewarder.PartnerTerm",
        "members": [
          {
            "astId": 11724,
            "contract": "contracts/BondDepository.sol:HectagonBondDepository",
            "label": "amount",
            "offset": 0,
            "slot": "0",
            "type": "t_uint256"
          },
          {
            "astId": 11726,
            "contract": "contracts/BondDepository.sol:HectagonBondDepository",
            "label": "percent",
            "offset": 0,
            "slot": "1",
            "type": "t_uint256"
          }
        ],
        "numberOfBytes": "64"
      },
      "t_struct(ReferTerm)11722_storage": {
        "encoding": "inplace",
        "label": "struct FrontEndRewarder.ReferTerm",
        "members": [
          {
            "astId": 11719,
            "contract": "contracts/BondDepository.sol:HectagonBondDepository",
            "label": "referrerPercent",
            "offset": 0,
            "slot": "0",
            "type": "t_uint256"
          },
          {
            "astId": 11721,
            "contract": "contracts/BondDepository.sol:HectagonBondDepository",
            "label": "buyerPercent",
            "offset": 0,
            "slot": "1",
            "type": "t_uint256"
          }
        ],
        "numberOfBytes": "64"
      },
      "t_struct(Terms)8402_storage": {
        "encoding": "inplace",
        "label": "struct IBondDepository.Terms",
        "members": [
          {
            "astId": 8393,
            "contract": "contracts/BondDepository.sol:HectagonBondDepository",
            "label": "fixedTerm",
            "offset": 0,
            "slot": "0",
            "type": "t_bool"
          },
          {
            "astId": 8395,
            "contract": "contracts/BondDepository.sol:HectagonBondDepository",
            "label": "controlVariable",
            "offset": 1,
            "slot": "0",
            "type": "t_uint64"
          },
          {
            "astId": 8397,
            "contract": "contracts/BondDepository.sol:HectagonBondDepository",
            "label": "vesting",
            "offset": 9,
            "slot": "0",
            "type": "t_uint48"
          },
          {
            "astId": 8399,
            "contract": "contracts/BondDepository.sol:HectagonBondDepository",
            "label": "conclusion",
            "offset": 15,
            "slot": "0",
            "type": "t_uint48"
          },
          {
            "astId": 8401,
            "contract": "contracts/BondDepository.sol:HectagonBondDepository",
            "label": "maxDebt",
            "offset": 21,
            "slot": "0",
            "type": "t_uint64"
          }
        ],
        "numberOfBytes": "32"
      },
      "t_uint256": {
        "encoding": "inplace",
        "label": "uint256",
        "numberOfBytes": "32"
      },
      "t_uint48": {
        "encoding": "inplace",
        "label": "uint48",
        "numberOfBytes": "6"
      },
      "t_uint64": {
        "encoding": "inplace",
        "label": "uint64",
        "numberOfBytes": "8"
      },
      "t_uint8": {
        "encoding": "inplace",
        "label": "uint8",
        "numberOfBytes": "1"
      }
    }
  }
}