{
  "address": "0x100eaC8c555Ad14c174D1095082504cC29c2D886",
  "abi": [
    {
      "inputs": [
        {
          "internalType": "address",
          "name": "_treasury",
          "type": "address"
        },
        {
          "internalType": "address",
          "name": "_gHecta",
          "type": "address"
        },
        {
          "internalType": "address",
          "name": "_authority",
          "type": "address"
        },
        {
          "internalType": "address",
          "name": "_circulatingHectaContract",
          "type": "address"
        }
      ],
      "stateMutability": "nonpayable",
      "type": "constructor"
    },
    {
      "anonymous": false,
      "inputs": [
        {
          "indexed": true,
          "internalType": "contract IHectagonAuthority",
          "name": "authority",
          "type": "address"
        }
      ],
      "name": "AuthorityUpdated",
      "type": "event"
    },
    {
      "inputs": [
        {
          "internalType": "address",
          "name": "_recipient",
          "type": "address"
        },
        {
          "internalType": "uint256",
          "name": "_rewardRate",
          "type": "uint256"
        }
      ],
      "name": "addRecipient",
      "outputs": [],
      "stateMutability": "nonpayable",
      "type": "function"
    },
    {
      "inputs": [
        {
          "internalType": "uint256",
          "name": "",
          "type": "uint256"
        }
      ],
      "name": "adjustments",
      "outputs": [
        {
          "internalType": "bool",
          "name": "add",
          "type": "bool"
        },
        {
          "internalType": "uint256",
          "name": "rate",
          "type": "uint256"
        },
        {
          "internalType": "uint256",
          "name": "target",
          "type": "uint256"
        }
      ],
      "stateMutability": "view",
      "type": "function"
    },
    {
      "inputs": [],
      "name": "authority",
      "outputs": [
        {
          "internalType": "contract IHectagonAuthority",
          "name": "",
          "type": "address"
        }
      ],
      "stateMutability": "view",
      "type": "function"
    },
    {
      "inputs": [],
      "name": "bounty",
      "outputs": [
        {
          "internalType": "uint256",
          "name": "",
          "type": "uint256"
        }
      ],
      "stateMutability": "view",
      "type": "function"
    },
    {
      "inputs": [],
      "name": "circulatingHectaContract",
      "outputs": [
        {
          "internalType": "contract IHectaCirculatingSupply",
          "name": "",
          "type": "address"
        }
      ],
      "stateMutability": "view",
      "type": "function"
    },
    {
      "inputs": [],
      "name": "distribute",
      "outputs": [],
      "stateMutability": "nonpayable",
      "type": "function"
    },
    {
      "inputs": [
        {
          "internalType": "uint256",
          "name": "",
          "type": "uint256"
        }
      ],
      "name": "info",
      "outputs": [
        {
          "internalType": "uint256",
          "name": "rate",
          "type": "uint256"
        },
        {
          "internalType": "address",
          "name": "recipient",
          "type": "address"
        }
      ],
      "stateMutability": "view",
      "type": "function"
    },
    {
      "inputs": [
        {
          "internalType": "uint256",
          "name": "_rate",
          "type": "uint256"
        }
      ],
      "name": "nextRewardAt",
      "outputs": [
        {
          "internalType": "uint256",
          "name": "",
          "type": "uint256"
        }
      ],
      "stateMutability": "view",
      "type": "function"
    },
    {
      "inputs": [
        {
          "internalType": "address",
          "name": "_recipient",
          "type": "address"
        }
      ],
      "name": "nextRewardFor",
      "outputs": [
        {
          "internalType": "uint256",
          "name": "",
          "type": "uint256"
        }
      ],
      "stateMutability": "view",
      "type": "function"
    },
    {
      "inputs": [
        {
          "internalType": "uint256",
          "name": "_index",
          "type": "uint256"
        }
      ],
      "name": "removeRecipient",
      "outputs": [],
      "stateMutability": "nonpayable",
      "type": "function"
    },
    {
      "inputs": [],
      "name": "retrieveBounty",
      "outputs": [
        {
          "internalType": "uint256",
          "name": "",
          "type": "uint256"
        }
      ],
      "stateMutability": "nonpayable",
      "type": "function"
    },
    {
      "inputs": [
        {
          "internalType": "uint256",
          "name": "_index",
          "type": "uint256"
        },
        {
          "internalType": "bool",
          "name": "_add",
          "type": "bool"
        },
        {
          "internalType": "uint256",
          "name": "_rate",
          "type": "uint256"
        },
        {
          "internalType": "uint256",
          "name": "_target",
          "type": "uint256"
        }
      ],
      "name": "setAdjustment",
      "outputs": [],
      "stateMutability": "nonpayable",
      "type": "function"
    },
    {
      "inputs": [
        {
          "internalType": "contract IHectagonAuthority",
          "name": "_newAuthority",
          "type": "address"
        }
      ],
      "name": "setAuthority",
      "outputs": [],
      "stateMutability": "nonpayable",
      "type": "function"
    },
    {
      "inputs": [
        {
          "internalType": "uint256",
          "name": "_bounty",
          "type": "uint256"
        }
      ],
      "name": "setBounty",
      "outputs": [],
      "stateMutability": "nonpayable",
      "type": "function"
    }
  ],
  "transactionHash": "0x95e6b4c0c19ff242c91a9ec9f904b0691f3d62f8b451692d7d80bf33f59f52f9",
  "args": [
    "0x1Bd552B08B9D7ee239eBbAE747d210aEAA598620",
    "0x8724bFBEc2868CEFc4849A2c3359e322415E4054",
    "0x173Ab5e87B593f68d2BC469554463FfeFAa61C1d",
    "0x86A1777c77B78E58110B0eAE1947AAFfd0c049b1"
  ],
  "solcInputHash": "324cd8bf7a6832202abf9a0d2c64407f",
  "bytecode": "0x610120604052600c60e08190526b15539055551213d49256915160a21b61010090815262000031916000919062000205565b50620f424060c0523480156200004657600080fd5b5060405162001993380380620019938339810160408190526200006991620002c8565b600180546001600160a01b0319166001600160a01b0384169081179091556040518391907f2f658b440c35314f52658ea8a740e05b284cdc84dc9ae01e891f21b8933e7cad90600090a2506001600160a01b038416620001105760405162461bcd60e51b815260206004820152601660248201527f5a65726f20616464726573733a2054726561737572790000000000000000000060448201526064015b60405180910390fd5b6001600160a01b0380851660805283166200016e5760405162461bcd60e51b815260206004820152601460248201527f5a65726f20616464726573733a20674865637461000000000000000000000000604482015260640162000107565b6001600160a01b0380841660a0528116620001db5760405162461bcd60e51b815260206004820152602660248201527f5a65726f20616464726573733a2063697263756c6174696e674865637461436f6044820152651b9d1c9858dd60d21b606482015260840162000107565b600280546001600160a01b0319166001600160a01b03929092169190911790555062000362915050565b828054620002139062000325565b90600052602060002090601f01602090048101928262000237576000855562000282565b82601f106200025257805160ff191683800117855562000282565b8280016001018555821562000282579182015b828111156200028257825182559160200191906001019062000265565b506200029092915062000294565b5090565b5b8082111562000290576000815560010162000295565b80516001600160a01b0381168114620002c357600080fd5b919050565b60008060008060808587031215620002df57600080fd5b620002ea85620002ab565b9350620002fa60208601620002ab565b92506200030a60408601620002ab565b91506200031a60608601620002ab565b905092959194509250565b600181811c908216806200033a57607f821691505b602082108114156200035c57634e487b7160e01b600052602260045260246000fd5b50919050565b60805160a05160c0516115e5620003ae60003960008181610bbf0152611051015260008181610c7b01528181610e2e0152610ed9015260008181610d120152610eac01526115e56000f3fe608060405234801561001057600080fd5b50600436106100ea5760003560e01c8063943dfef11161008c578063c9fa8b2a11610066578063c9fa8b2a1461022a578063e4fc6b6d1461023d578063e7187e8a14610245578063f79822431461024d57600080fd5b8063943dfef1146101be578063bc3b2b12146101c7578063bf7e214f1461021757600080fd5b80635d87d363116100c85780635d87d363146101705780635db854b0146101855780637a9e5e4b146101985780638e69e255146101ab57600080fd5b806313bf537c146100ef5780632e3405991461011f57806336d33f441461014f575b600080fd5b600254610102906001600160a01b031681565b6040516001600160a01b0390911681526020015b60405180910390f35b61013261012d366004611383565b610260565b604080519283526001600160a01b03909116602083015201610116565b61016261015d3660046113b1565b610297565b604051908152602001610116565b61018361017e366004611383565b61033a565b005b6101836101933660046113d5565b610448565b6101836101a63660046113b1565b610848565b6101836101b9366004611383565b61094b565b61016260045481565b6101fa6101d5366004611383565b60036020526000908152604090208054600182015460029092015460ff909116919083565b604080519315158452602084019290925290820152606001610116565b600154610102906001600160a01b031681565b610162610238366004611383565b610bbb565b610183610c70565b610162610e21565b61018361025b366004611417565b610f4d565b6005818154811061027057600080fd5b6000918252602090912060029091020180546001909101549091506001600160a01b031682565b60008060005b60055481101561033357836001600160a01b0316600582815481106102c4576102c4611443565b60009182526020909120600160029092020101546001600160a01b0316141561032157610314600582815481106102fd576102fd611443565b906000526020600020906002020160000154610bbb565b61031e908361146f565b91505b8061032b81611487565b91505061029d565b5092915050565b600160009054906101000a90046001600160a01b03166001600160a01b0316630c340a246040518163ffffffff1660e01b8152600401602060405180830381865afa15801561038d573d6000803e3d6000fd5b505050506040513d601f19601f820116820180604052508101906103b191906114a2565b6001600160a01b0316336001600160a01b0316146000906103ee5760405162461bcd60e51b81526004016103e591906114bf565b60405180910390fd5b5063773594008111156104435760405162461bcd60e51b815260206004820152600860248201527f546f6f206d75636800000000000000000000000000000000000000000000000060448201526064016103e5565b600455565b600160009054906101000a90046001600160a01b03166001600160a01b0316630c340a246040518163ffffffff1660e01b8152600401602060405180830381865afa15801561049b573d6000803e3d6000fd5b505050506040513d601f19601f820116820180604052508101906104bf91906114a2565b6001600160a01b0316336001600160a01b031614806105655750600160009054906101000a90046001600160a01b03166001600160a01b031663452a93206040518163ffffffff1660e01b8152600401602060405180830381865afa15801561052c573d6000803e3d6000fd5b505050506040513d601f19601f8201168201806040525081019061055091906114a2565b6001600160a01b0316336001600160a01b0316145b6105bc5760405162461bcd60e51b815260206004820152602260248201527f43616c6c6572206973206e6f7420676f7665726e6f72206f722067756172646960448201526130b760f11b60648201526084016103e5565b60006001600160a01b0316600585815481106105da576105da611443565b60009182526020909120600160029092020101546001600160a01b031614156106455760405162461bcd60e51b815260206004820152601860248201527f526563697069656e7420646f6573206e6f74206578697374000000000000000060448201526064016103e5565b600160009054906101000a90046001600160a01b03166001600160a01b031663452a93206040518163ffffffff1660e01b8152600401602060405180830381865afa158015610698573d6000803e3d6000fd5b505050506040513d601f19601f820116820180604052508101906106bc91906114a2565b6001600160a01b0316336001600160a01b03161415610762576103e8600585815481106106eb576106eb611443565b90600052602060002090600202016000015460196107099190611567565b6107139190611586565b8211156107625760405162461bcd60e51b815260206004820152601f60248201527f4c696d697465723a2063616e6e6f742061646a757374206279203e322e35250060448201526064016103e5565b82610801576005848154811061077a5761077a611443565b9060005260206000209060020201600001548211156108015760405162461bcd60e51b815260206004820152602f60248201527f43616e6e6f742064656372656173652072617465206279206d6f72652074686160448201527f6e20697420616c7265616479206973000000000000000000000000000000000060648201526084016103e5565b60408051606081018252931515845260208085019384528482019283526000958652600390529093209151825460ff19169015151782555160018201559051600290910155565b600160009054906101000a90046001600160a01b03166001600160a01b0316630c340a246040518163ffffffff1660e01b8152600401602060405180830381865afa15801561089b573d6000803e3d6000fd5b505050506040513d601f19601f820116820180604052508101906108bf91906114a2565b6001600160a01b0316336001600160a01b0316146000906108f35760405162461bcd60e51b81526004016103e591906114bf565b506001805473ffffffffffffffffffffffffffffffffffffffff19166001600160a01b0383169081179091556040517f2f658b440c35314f52658ea8a740e05b284cdc84dc9ae01e891f21b8933e7cad90600090a250565b600160009054906101000a90046001600160a01b03166001600160a01b0316630c340a246040518163ffffffff1660e01b8152600401602060405180830381865afa15801561099e573d6000803e3d6000fd5b505050506040513d601f19601f820116820180604052508101906109c291906114a2565b6001600160a01b0316336001600160a01b03161480610a685750600160009054906101000a90046001600160a01b03166001600160a01b031663452a93206040518163ffffffff1660e01b8152600401602060405180830381865afa158015610a2f573d6000803e3d6000fd5b505050506040513d601f19601f82011682018060405250810190610a5391906114a2565b6001600160a01b0316336001600160a01b0316145b610abf5760405162461bcd60e51b815260206004820152602260248201527f43616c6c6572206973206e6f7420676f7665726e6f72206f722067756172646960448201526130b760f11b60648201526084016103e5565b60006001600160a01b031660058281548110610add57610add611443565b60009182526020909120600160029092020101546001600160a01b03161415610b485760405162461bcd60e51b815260206004820152601860248201527f526563697069656e7420646f6573206e6f74206578697374000000000000000060448201526064016103e5565b600060058281548110610b5d57610b5d611443565b906000526020600020906002020160010160006101000a8154816001600160a01b0302191690836001600160a01b03160217905550600060058281548110610ba757610ba7611443565b600091825260209091206002909102015550565b60007f000000000000000000000000000000000000000000000000000000000000000082600260009054906101000a90046001600160a01b03166001600160a01b0316639358928b6040518163ffffffff1660e01b8152600401602060405180830381865afa158015610c32573d6000803e3d6000fd5b505050506040513d601f19601f82011682018060405250810190610c5691906115a8565b610c609190611567565b610c6a9190611586565b92915050565b336001600160a01b037f00000000000000000000000000000000000000000000000000000000000000001614610cd65760405162461bcd60e51b815260206004820152600b60248201526a4f6e6c792067486563746160a81b60448201526064016103e5565b60005b600554811015610e1e57600060058281548110610cf857610cf8611443565b9060005260206000209060020201600001541115610e0c577f00000000000000000000000000000000000000000000000000000000000000006001600160a01b03166340c10f1960058381548110610d5257610d52611443565b906000526020600020906002020160010160009054906101000a90046001600160a01b0316610d8d600585815481106102fd576102fd611443565b6040517fffffffff0000000000000000000000000000000000000000000000000000000060e085901b1681526001600160a01b0390921660048301526024820152604401600060405180830381600087803b158015610deb57600080fd5b505af1158015610dff573d6000803e3d6000fd5b50505050610e0c81611161565b80610e1681611487565b915050610cd9565b50565b6000336001600160a01b037f00000000000000000000000000000000000000000000000000000000000000001614610e895760405162461bcd60e51b815260206004820152600b60248201526a4f6e6c792067486563746160a81b60448201526064016103e5565b60045415610f4657600480546040516340c10f1960e01b81526001600160a01b037f000000000000000000000000000000000000000000000000000000000000000016926340c10f1992610f13927f000000000000000000000000000000000000000000000000000000000000000092016001600160a01b03929092168252602082015260400190565b600060405180830381600087803b158015610f2d57600080fd5b505af1158015610f41573d6000803e3d6000fd5b505050505b5060045490565b600160009054906101000a90046001600160a01b03166001600160a01b0316630c340a246040518163ffffffff1660e01b8152600401602060405180830381865afa158015610fa0573d6000803e3d6000fd5b505050506040513d601f19601f82011682018060405250810190610fc491906114a2565b6001600160a01b0316336001600160a01b031614600090610ff85760405162461bcd60e51b81526004016103e591906114bf565b506001600160a01b03821661104f5760405162461bcd60e51b815260206004820152601760248201527f5a65726f20616464726573733a20526563697069656e7400000000000000000060448201526064016103e5565b7f00000000000000000000000000000000000000000000000000000000000000008111156110bf5760405162461bcd60e51b815260206004820152601e60248201527f526174652063616e6e6f74206578636565642064656e6f6d696e61746f72000060448201526064016103e5565b604080518082019091529081526001600160a01b03918216602082019081526005805460018101825560009190915291517f036b6384b5eca791c62761152d0c79bb0604c104a5fb6f4eb0703f3154bb3db0600290930292830155517f036b6384b5eca791c62761152d0c79bb0604c104a5fb6f4eb0703f3154bb3db1909101805473ffffffffffffffffffffffffffffffffffffffff191691909216179055565b6000818152600360209081526040918290208251606081018452815460ff16151581526001820154928101839052600290910154928101929092521561126f57805115611273578060200151600583815481106111c0576111c0611443565b9060005260206000209060020201600001546111dc919061146f565b600583815481106111ef576111ef611443565b60009182526020909120600290910201556040810151600580548490811061121957611219611443565b9060005260206000209060020201600001541061126f5760008281526003602052604080822060010191909155810151600580548490811061125d5761125d611443565b60009182526020909120600290910201555b5050565b80602001516005838154811061128b5761128b611443565b9060005260206000209060020201600001541115611300578060200151600583815481106112bb576112bb611443565b9060005260206000209060020201600001546112d791906115c1565b600583815481106112ea576112ea611443565b6000918252602090912060029091020155611327565b60006005838154811061131557611315611443565b60009182526020909120600290910201555b80604001516005838154811061133f5761133f611443565b9060005260206000209060020201600001541161126f5760008281526003602052604080822060010191909155810151600580548490811061125d5761125d611443565b60006020828403121561139557600080fd5b5035919050565b6001600160a01b0381168114610e1e57600080fd5b6000602082840312156113c357600080fd5b81356113ce8161139c565b9392505050565b600080600080608085870312156113eb57600080fd5b843593506020850135801515811461140257600080fd5b93969395505050506040820135916060013590565b6000806040838503121561142a57600080fd5b82356114358161139c565b946020939093013593505050565b634e487b7160e01b600052603260045260246000fd5b634e487b7160e01b600052601160045260246000fd5b6000821982111561148257611482611459565b500190565b600060001982141561149b5761149b611459565b5060010190565b6000602082840312156114b457600080fd5b81516113ce8161139c565b600060208083526000845481600182811c9150808316806114e157607f831692505b8583108114156114ff57634e487b7160e01b85526022600452602485fd5b87860183815260200181801561151c576001811461152d57611558565b60ff19861682528782019650611558565b60008b81526020902060005b8681101561155257815484820152908501908901611539565b83019750505b50949998505050505050505050565b600081600019048311821515161561158157611581611459565b500290565b6000826115a357634e487b7160e01b600052601260045260246000fd5b500490565b6000602082840312156115ba57600080fd5b5051919050565b6000828210156115d3576115d3611459565b50039056fea164736f6c634300080a000a",
  "devdoc": {
    "kind": "dev",
    "methods": {
      "addRecipient(address,uint256)": {
        "params": {
          "_recipient": "address",
          "_rewardRate": "uint"
        }
      },
      "nextRewardAt(uint256)": {
        "params": {
          "_rate": "uint"
        },
        "returns": {
          "_0": "uint"
        }
      },
      "nextRewardFor(address)": {
        "params": {
          "_recipient": "address"
        },
        "returns": {
          "_0": "uint"
        }
      },
      "removeRecipient(uint256)": {
        "params": {
          "_index": "uint"
        }
      },
      "setAdjustment(uint256,bool,uint256,uint256)": {
        "params": {
          "_add": "bool",
          "_index": "uint",
          "_rate": "uint",
          "_target": "uint"
        }
      },
      "setBounty(uint256)": {
        "params": {
          "_bounty": "uint256"
        }
      }
    },
    "version": 1
  },
  "userdoc": {
    "kind": "user",
    "methods": {
      "addRecipient(address,uint256)": {
        "notice": "adds recipient for distributions"
      },
      "distribute()": {
        "notice": "send epoch reward to gHecta contract"
      },
      "nextRewardAt(uint256)": {
        "notice": "view function for next reward at given rate"
      },
      "nextRewardFor(address)": {
        "notice": "view function for next reward for specified address"
      },
      "removeRecipient(uint256)": {
        "notice": "removes recipient for distributions"
      },
      "setAdjustment(uint256,bool,uint256,uint256)": {
        "notice": "set adjustment info for a collector's reward rate"
      },
      "setBounty(uint256)": {
        "notice": "set bounty to incentivize keepers"
      }
    },
    "version": 1
  },
  "storageLayout": {
    "storage": [
      {
        "astId": 12095,
        "contract": "contracts/Distributor.sol:Distributor",
        "label": "UNAUTHORIZED",
        "offset": 0,
        "slot": "0",
        "type": "t_string_storage"
      },
      {
        "astId": 12098,
        "contract": "contracts/Distributor.sol:Distributor",
        "label": "authority",
        "offset": 0,
        "slot": "1",
        "type": "t_contract(IHectagonAuthority)8626"
      },
      {
        "astId": 5258,
        "contract": "contracts/Distributor.sol:Distributor",
        "label": "circulatingHectaContract",
        "offset": 0,
        "slot": "2",
        "type": "t_contract(IHectaCirculatingSupply)8547"
      },
      {
        "astId": 5263,
        "contract": "contracts/Distributor.sol:Distributor",
        "label": "adjustments",
        "offset": 0,
        "slot": "3",
        "type": "t_mapping(t_uint256,t_struct(Adjust)5285_storage)"
      },
      {
        "astId": 5266,
        "contract": "contracts/Distributor.sol:Distributor",
        "label": "bounty",
        "offset": 0,
        "slot": "4",
        "type": "t_uint256"
      },
      {
        "astId": 5278,
        "contract": "contracts/Distributor.sol:Distributor",
        "label": "info",
        "offset": 0,
        "slot": "5",
        "type": "t_array(t_struct(Info)5274_storage)dyn_storage"
      }
    ],
    "types": {
      "t_address": {
        "encoding": "inplace",
        "label": "address",
        "numberOfBytes": "20"
      },
      "t_array(t_struct(Info)5274_storage)dyn_storage": {
        "base": "t_struct(Info)5274_storage",
        "encoding": "dynamic_array",
        "label": "struct Distributor.Info[]",
        "numberOfBytes": "32"
      },
      "t_bool": {
        "encoding": "inplace",
        "label": "bool",
        "numberOfBytes": "1"
      },
      "t_contract(IHectaCirculatingSupply)8547": {
        "encoding": "inplace",
        "label": "contract IHectaCirculatingSupply",
        "numberOfBytes": "20"
      },
      "t_contract(IHectagonAuthority)8626": {
        "encoding": "inplace",
        "label": "contract IHectagonAuthority",
        "numberOfBytes": "20"
      },
      "t_mapping(t_uint256,t_struct(Adjust)5285_storage)": {
        "encoding": "mapping",
        "key": "t_uint256",
        "label": "mapping(uint256 => struct Distributor.Adjust)",
        "numberOfBytes": "32",
        "value": "t_struct(Adjust)5285_storage"
      },
      "t_string_storage": {
        "encoding": "bytes",
        "label": "string",
        "numberOfBytes": "32"
      },
      "t_struct(Adjust)5285_storage": {
        "encoding": "inplace",
        "label": "struct Distributor.Adjust",
        "members": [
          {
            "astId": 5280,
            "contract": "contracts/Distributor.sol:Distributor",
            "label": "add",
            "offset": 0,
            "slot": "0",
            "type": "t_bool"
          },
          {
            "astId": 5282,
            "contract": "contracts/Distributor.sol:Distributor",
            "label": "rate",
            "offset": 0,
            "slot": "1",
            "type": "t_uint256"
          },
          {
            "astId": 5284,
            "contract": "contracts/Distributor.sol:Distributor",
            "label": "target",
            "offset": 0,
            "slot": "2",
            "type": "t_uint256"
          }
        ],
        "numberOfBytes": "96"
      },
      "t_struct(Info)5274_storage": {
        "encoding": "inplace",
        "label": "struct Distributor.Info",
        "members": [
          {
            "astId": 5271,
            "contract": "contracts/Distributor.sol:Distributor",
            "label": "rate",
            "offset": 0,
            "slot": "0",
            "type": "t_uint256"
          },
          {
            "astId": 5273,
            "contract": "contracts/Distributor.sol:Distributor",
            "label": "recipient",
            "offset": 0,
            "slot": "1",
            "type": "t_address"
          }
        ],
        "numberOfBytes": "64"
      },
      "t_uint256": {
        "encoding": "inplace",
        "label": "uint256",
        "numberOfBytes": "32"
      }
    }
  }
}