{
  "address": "0x8724bFBEc2868CEFc4849A2c3359e322415E4054",
  "abi": [
    {
      "inputs": [
        {
          "internalType": "contract IERC20Metadata",
          "name": "_asset",
          "type": "address"
        },
        {
          "internalType": "uint256",
          "name": "_epochLength",
          "type": "uint256"
        },
        {
          "internalType": "uint256",
          "name": "_firstEpochNumber",
          "type": "uint256"
        },
        {
          "internalType": "uint256",
          "name": "_firstEpochTime",
          "type": "uint256"
        },
        {
          "internalType": "address",
          "name": "_authority",
          "type": "address"
        }
      ],
      "stateMutability": "nonpayable",
      "type": "constructor"
    },
    {
      "anonymous": false,
      "inputs": [
        {
          "indexed": true,
          "internalType": "address",
          "name": "owner",
          "type": "address"
        },
        {
          "indexed": true,
          "internalType": "address",
          "name": "spender",
          "type": "address"
        },
        {
          "indexed": false,
          "internalType": "uint256",
          "name": "value",
          "type": "uint256"
        }
      ],
      "name": "Approval",
      "type": "event"
    },
    {
      "anonymous": false,
      "inputs": [
        {
          "indexed": true,
          "internalType": "contract IHectagonAuthority",
          "name": "authority",
          "type": "address"
        }
      ],
      "name": "AuthorityUpdated",
      "type": "event"
    },
    {
      "anonymous": false,
      "inputs": [
        {
          "indexed": true,
          "internalType": "address",
          "name": "caller",
          "type": "address"
        },
        {
          "indexed": true,
          "internalType": "address",
          "name": "owner",
          "type": "address"
        },
        {
          "indexed": false,
          "internalType": "uint256",
          "name": "assets",
          "type": "uint256"
        },
        {
          "indexed": false,
          "internalType": "uint256",
          "name": "shares",
          "type": "uint256"
        }
      ],
      "name": "Deposit",
      "type": "event"
    },
    {
      "anonymous": false,
      "inputs": [
        {
          "indexed": false,
          "internalType": "address",
          "name": "distributor",
          "type": "address"
        }
      ],
      "name": "DistributorSet",
      "type": "event"
    },
    {
      "anonymous": false,
      "inputs": [
        {
          "indexed": true,
          "internalType": "uint256",
          "name": "epoch",
          "type": "uint256"
        },
        {
          "indexed": false,
          "internalType": "uint256",
          "name": "distribute",
          "type": "uint256"
        }
      ],
      "name": "LogEpoch",
      "type": "event"
    },
    {
      "anonymous": false,
      "inputs": [
        {
          "indexed": true,
          "internalType": "address",
          "name": "from",
          "type": "address"
        },
        {
          "indexed": true,
          "internalType": "address",
          "name": "to",
          "type": "address"
        },
        {
          "indexed": false,
          "internalType": "uint256",
          "name": "value",
          "type": "uint256"
        }
      ],
      "name": "Transfer",
      "type": "event"
    },
    {
      "anonymous": false,
      "inputs": [
        {
          "indexed": true,
          "internalType": "address",
          "name": "caller",
          "type": "address"
        },
        {
          "indexed": true,
          "internalType": "address",
          "name": "receiver",
          "type": "address"
        },
        {
          "indexed": true,
          "internalType": "address",
          "name": "owner",
          "type": "address"
        },
        {
          "indexed": false,
          "internalType": "uint256",
          "name": "assets",
          "type": "uint256"
        },
        {
          "indexed": false,
          "internalType": "uint256",
          "name": "shares",
          "type": "uint256"
        }
      ],
      "name": "Withdraw",
      "type": "event"
    },
    {
      "inputs": [
        {
          "internalType": "address",
          "name": "owner",
          "type": "address"
        },
        {
          "internalType": "address",
          "name": "spender",
          "type": "address"
        }
      ],
      "name": "allowance",
      "outputs": [
        {
          "internalType": "uint256",
          "name": "",
          "type": "uint256"
        }
      ],
      "stateMutability": "view",
      "type": "function"
    },
    {
      "inputs": [
        {
          "internalType": "address",
          "name": "spender",
          "type": "address"
        },
        {
          "internalType": "uint256",
          "name": "amount",
          "type": "uint256"
        }
      ],
      "name": "approve",
      "outputs": [
        {
          "internalType": "bool",
          "name": "",
          "type": "bool"
        }
      ],
      "stateMutability": "nonpayable",
      "type": "function"
    },
    {
      "inputs": [],
      "name": "asset",
      "outputs": [
        {
          "internalType": "address",
          "name": "",
          "type": "address"
        }
      ],
      "stateMutability": "view",
      "type": "function"
    },
    {
      "inputs": [],
      "name": "authority",
      "outputs": [
        {
          "internalType": "contract IHectagonAuthority",
          "name": "",
          "type": "address"
        }
      ],
      "stateMutability": "view",
      "type": "function"
    },
    {
      "inputs": [
        {
          "internalType": "address",
          "name": "account",
          "type": "address"
        }
      ],
      "name": "balanceOf",
      "outputs": [
        {
          "internalType": "uint256",
          "name": "",
          "type": "uint256"
        }
      ],
      "stateMutability": "view",
      "type": "function"
    },
    {
      "inputs": [],
      "name": "bountyHunter",
      "outputs": [],
      "stateMutability": "nonpayable",
      "type": "function"
    },
    {
      "inputs": [
        {
          "internalType": "uint256",
          "name": "shares",
          "type": "uint256"
        }
      ],
      "name": "convertToAssets",
      "outputs": [
        {
          "internalType": "uint256",
          "name": "assets",
          "type": "uint256"
        }
      ],
      "stateMutability": "view",
      "type": "function"
    },
    {
      "inputs": [
        {
          "internalType": "uint256",
          "name": "assets",
          "type": "uint256"
        }
      ],
      "name": "convertToShares",
      "outputs": [
        {
          "internalType": "uint256",
          "name": "shares",
          "type": "uint256"
        }
      ],
      "stateMutability": "view",
      "type": "function"
    },
    {
      "inputs": [],
      "name": "decimals",
      "outputs": [
        {
          "internalType": "uint8",
          "name": "",
          "type": "uint8"
        }
      ],
      "stateMutability": "view",
      "type": "function"
    },
    {
      "inputs": [
        {
          "internalType": "address",
          "name": "spender",
          "type": "address"
        },
        {
          "internalType": "uint256",
          "name": "subtractedValue",
          "type": "uint256"
        }
      ],
      "name": "decreaseAllowance",
      "outputs": [
        {
          "internalType": "bool",
          "name": "",
          "type": "bool"
        }
      ],
      "stateMutability": "nonpayable",
      "type": "function"
    },
    {
      "inputs": [
        {
          "internalType": "uint256",
          "name": "assets",
          "type": "uint256"
        },
        {
          "internalType": "address",
          "name": "receiver",
          "type": "address"
        }
      ],
      "name": "deposit",
      "outputs": [
        {
          "internalType": "uint256",
          "name": "",
          "type": "uint256"
        }
      ],
      "stateMutability": "nonpayable",
      "type": "function"
    },
    {
      "inputs": [],
      "name": "distributor",
      "outputs": [
        {
          "internalType": "contract IDistributor",
          "name": "",
          "type": "address"
        }
      ],
      "stateMutability": "view",
      "type": "function"
    },
    {
      "inputs": [],
      "name": "epoch",
      "outputs": [
        {
          "internalType": "uint256",
          "name": "length",
          "type": "uint256"
        },
        {
          "internalType": "uint256",
          "name": "number",
          "type": "uint256"
        },
        {
          "internalType": "uint256",
          "name": "end",
          "type": "uint256"
        }
      ],
      "stateMutability": "view",
      "type": "function"
    },
    {
      "inputs": [
        {
          "internalType": "address",
          "name": "spender",
          "type": "address"
        },
        {
          "internalType": "uint256",
          "name": "addedValue",
          "type": "uint256"
        }
      ],
      "name": "increaseAllowance",
      "outputs": [
        {
          "internalType": "bool",
          "name": "",
          "type": "bool"
        }
      ],
      "stateMutability": "nonpayable",
      "type": "function"
    },
    {
      "inputs": [],
      "name": "index",
      "outputs": [
        {
          "internalType": "uint256",
          "name": "",
          "type": "uint256"
        }
      ],
      "stateMutability": "view",
      "type": "function"
    },
    {
      "inputs": [
        {
          "internalType": "address",
          "name": "",
          "type": "address"
        }
      ],
      "name": "maxDeposit",
      "outputs": [
        {
          "internalType": "uint256",
          "name": "",
          "type": "uint256"
        }
      ],
      "stateMutability": "view",
      "type": "function"
    },
    {
      "inputs": [
        {
          "internalType": "address",
          "name": "",
          "type": "address"
        }
      ],
      "name": "maxMint",
      "outputs": [
        {
          "internalType": "uint256",
          "name": "",
          "type": "uint256"
        }
      ],
      "stateMutability": "view",
      "type": "function"
    },
    {
      "inputs": [
        {
          "internalType": "address",
          "name": "owner",
          "type": "address"
        }
      ],
      "name": "maxRedeem",
      "outputs": [
        {
          "internalType": "uint256",
          "name": "",
          "type": "uint256"
        }
      ],
      "stateMutability": "view",
      "type": "function"
    },
    {
      "inputs": [
        {
          "internalType": "address",
          "name": "owner",
          "type": "address"
        }
      ],
      "name": "maxWithdraw",
      "outputs": [
        {
          "internalType": "uint256",
          "name": "",
          "type": "uint256"
        }
      ],
      "stateMutability": "view",
      "type": "function"
    },
    {
      "inputs": [
        {
          "internalType": "uint256",
          "name": "shares",
          "type": "uint256"
        },
        {
          "internalType": "address",
          "name": "receiver",
          "type": "address"
        }
      ],
      "name": "mint",
      "outputs": [
        {
          "internalType": "uint256",
          "name": "",
          "type": "uint256"
        }
      ],
      "stateMutability": "nonpayable",
      "type": "function"
    },
    {
      "inputs": [],
      "name": "name",
      "outputs": [
        {
          "internalType": "string",
          "name": "",
          "type": "string"
        }
      ],
      "stateMutability": "view",
      "type": "function"
    },
    {
      "inputs": [],
      "name": "nextEpoch",
      "outputs": [
        {
          "internalType": "uint256",
          "name": "bounty",
          "type": "uint256"
        }
      ],
      "stateMutability": "nonpayable",
      "type": "function"
    },
    {
      "inputs": [
        {
          "internalType": "uint256",
          "name": "assets",
          "type": "uint256"
        }
      ],
      "name": "previewDeposit",
      "outputs": [
        {
          "internalType": "uint256",
          "name": "",
          "type": "uint256"
        }
      ],
      "stateMutability": "view",
      "type": "function"
    },
    {
      "inputs": [
        {
          "internalType": "uint256",
          "name": "shares",
          "type": "uint256"
        }
      ],
      "name": "previewMint",
      "outputs": [
        {
          "internalType": "uint256",
          "name": "",
          "type": "uint256"
        }
      ],
      "stateMutability": "view",
      "type": "function"
    },
    {
      "inputs": [
        {
          "internalType": "uint256",
          "name": "shares",
          "type": "uint256"
        }
      ],
      "name": "previewRedeem",
      "outputs": [
        {
          "internalType": "uint256",
          "name": "",
          "type": "uint256"
        }
      ],
      "stateMutability": "view",
      "type": "function"
    },
    {
      "inputs": [
        {
          "internalType": "uint256",
          "name": "assets",
          "type": "uint256"
        }
      ],
      "name": "previewWithdraw",
      "outputs": [
        {
          "internalType": "uint256",
          "name": "",
          "type": "uint256"
        }
      ],
      "stateMutability": "view",
      "type": "function"
    },
    {
      "inputs": [
        {
          "internalType": "uint256",
          "name": "shares",
          "type": "uint256"
        },
        {
          "internalType": "address",
          "name": "receiver",
          "type": "address"
        },
        {
          "internalType": "address",
          "name": "owner",
          "type": "address"
        }
      ],
      "name": "redeem",
      "outputs": [
        {
          "internalType": "uint256",
          "name": "",
          "type": "uint256"
        }
      ],
      "stateMutability": "nonpayable",
      "type": "function"
    },
    {
      "inputs": [],
      "name": "secondsToNextEpoch",
      "outputs": [
        {
          "internalType": "uint256",
          "name": "",
          "type": "uint256"
        }
      ],
      "stateMutability": "view",
      "type": "function"
    },
    {
      "inputs": [
        {
          "internalType": "contract IHectagonAuthority",
          "name": "_newAuthority",
          "type": "address"
        }
      ],
      "name": "setAuthority",
      "outputs": [],
      "stateMutability": "nonpayable",
      "type": "function"
    },
    {
      "inputs": [
        {
          "internalType": "address",
          "name": "_distributor",
          "type": "address"
        }
      ],
      "name": "setDistributor",
      "outputs": [],
      "stateMutability": "nonpayable",
      "type": "function"
    },
    {
      "inputs": [],
      "name": "symbol",
      "outputs": [
        {
          "internalType": "string",
          "name": "",
          "type": "string"
        }
      ],
      "stateMutability": "view",
      "type": "function"
    },
    {
      "inputs": [],
      "name": "totalAssets",
      "outputs": [
        {
          "internalType": "uint256",
          "name": "",
          "type": "uint256"
        }
      ],
      "stateMutability": "view",
      "type": "function"
    },
    {
      "inputs": [],
      "name": "totalSupply",
      "outputs": [
        {
          "internalType": "uint256",
          "name": "",
          "type": "uint256"
        }
      ],
      "stateMutability": "view",
      "type": "function"
    },
    {
      "inputs": [
        {
          "internalType": "address",
          "name": "to",
          "type": "address"
        },
        {
          "internalType": "uint256",
          "name": "amount",
          "type": "uint256"
        }
      ],
      "name": "transfer",
      "outputs": [
        {
          "internalType": "bool",
          "name": "",
          "type": "bool"
        }
      ],
      "stateMutability": "nonpayable",
      "type": "function"
    },
    {
      "inputs": [
        {
          "internalType": "address",
          "name": "from",
          "type": "address"
        },
        {
          "internalType": "address",
          "name": "to",
          "type": "address"
        },
        {
          "internalType": "uint256",
          "name": "amount",
          "type": "uint256"
        }
      ],
      "name": "transferFrom",
      "outputs": [
        {
          "internalType": "bool",
          "name": "",
          "type": "bool"
        }
      ],
      "stateMutability": "nonpayable",
      "type": "function"
    },
    {
      "inputs": [
        {
          "internalType": "uint256",
          "name": "assets",
          "type": "uint256"
        },
        {
          "internalType": "address",
          "name": "receiver",
          "type": "address"
        },
        {
          "internalType": "address",
          "name": "owner",
          "type": "address"
        }
      ],
      "name": "withdraw",
      "outputs": [
        {
          "internalType": "uint256",
          "name": "",
          "type": "uint256"
        }
      ],
      "stateMutability": "nonpayable",
      "type": "function"
    }
  ],
  "transactionHash": "0x6ee136d7b604e156ca21e3b926b0d13abdc66929988b83c18f977aa3115c15a1",
  "args": [
    "0x1409e3889287eb45FcF2BF99F59A5d689CdF339e",
    "28800",
    "0",
    "1659346200",
    "0x173Ab5e87B593f68d2BC469554463FfeFAa61C1d"
  ],
  "solcInputHash": "324cd8bf7a6832202abf9a0d2c64407f",
  "bytecode": "0x60e0604052600c60a08190526b15539055551213d49256915160a21b60c09081526200002f91600591906200015a565b503480156200003d57600080fd5b506040516200233e3803806200233e833981016040819052620000609162000219565b604080518082018252601381527f476f7665726e616e6365204865637461676f6e0000000000000000000000000060208083019182528351808501909452600684526567484543544160d01b90840152815184938993929091620000c7916003916200015a565b508051620000dd9060049060208401906200015a565b5050506001600160a01b03908116608052600680546001600160a01b03191691831691821790556040517f2f658b440c35314f52658ea8a740e05b284cdc84dc9ae01e891f21b8933e7cad90600090a2505060408051606081018252848152602081018490520181905260079290925560085560095550620002b3565b828054620001689062000276565b90600052602060002090601f0160209004810192826200018c5760008555620001d7565b82601f10620001a757805160ff1916838001178555620001d7565b82800160010185558215620001d7579182015b82811115620001d7578251825591602001919060010190620001ba565b50620001e5929150620001e9565b5090565b5b80821115620001e55760008155600101620001ea565b6001600160a01b03811681146200021657600080fd5b50565b600080600080600060a086880312156200023257600080fd5b85516200023f8162000200565b809550506020860151935060408601519250606086015191506080860151620002688162000200565b809150509295509295909350565b600181811c908216806200028b57607f821691505b60208210811415620002ad57634e487b7160e01b600052602260045260246000fd5b50919050565b608051612045620002f96000396000818161031801528181610554015281816105e301528181610f280152818161112801528181611456015261151601526120456000f3fe608060405234801561001057600080fd5b506004361061025c5760003560e01c8063900cf0cf11610145578063ba087652116100bd578063c6e6f5921161008c578063d905777e11610071578063d905777e146104f0578063dd62ed3e14610503578063ef8b30f7146104ca57600080fd5b8063c6e6f592146104ca578063ce96cb77146104dd57600080fd5b8063ba0876521461047c578063bf7e214f1461048f578063bfe10928146104a2578063c63d75b6146104b557600080fd5b8063a457c2d711610114578063aea0e78b116100f9578063aea0e78b1461044e578063b3d7f6b914610456578063b460af941461046957600080fd5b8063a457c2d714610428578063a9059cbb1461043b57600080fd5b8063900cf0cf146103d85780639483c1d71461040557806394bf804d1461040d57806395d89b411461042057600080fd5b8063313ce567116101d85780634cdad506116101a757806370a082311161018c57806370a082311461038957806375619ab5146103b25780637a9e5e4b146103c557600080fd5b80634cdad5061461029b5780636e553f651461037657600080fd5b8063313ce5671461030757806338d52e0f146103165780633950935114610350578063402d267d1461036357600080fd5b8063095ea7b31161022f57806318160ddd1161021457806318160ddd146102e457806323b872dd146102ec5780632986c0e5146102ff57600080fd5b8063095ea7b3146102ae5780630a28a477146102d157600080fd5b806301e1d1141461026157806304b4b8c51461027c57806306fdde031461028657806307a2d13a1461029b575b600080fd5b61026961053c565b6040519081526020015b60405180910390f35b6102846105cc565b005b61028e61060c565b6040516102739190611bb4565b6102696102a9366004611be7565b61069e565b6102c16102bc366004611c15565b6106b1565b6040519015158152602001610273565b6102696102df366004611be7565b6106c9565b600254610269565b6102c16102fa366004611c41565b6106d6565b6102696106fc565b60405160128152602001610273565b7f00000000000000000000000000000000000000000000000000000000000000005b6040516001600160a01b039091168152602001610273565b6102c161035e366004611c15565b61070d565b610269610371366004611c82565b61074c565b610269610384366004611c9f565b61076a565b610269610397366004611c82565b6001600160a01b031660009081526020819052604090205490565b6102846103c0366004611c82565b6107fa565b6102846103d3366004611c82565b610907565b6007546008546009546103ea92919083565b60408051938452602084019290925290820152606001610273565b610269610a0a565b61026961041b366004611c9f565b610a2c565b61028e610a71565b6102c1610436366004611c15565b610a80565b6102c1610449366004611c15565b610b35565b610269610b43565b610269610464366004611be7565b610cf1565b610269610477366004611ccf565b610cfe565b61026961048a366004611ccf565b610d87565b600654610338906001600160a01b031681565b600a54610338906001600160a01b031681565b6102696104c3366004611c82565b5060001990565b6102696104d8366004611be7565b610e12565b6102696104eb366004611c82565b610e1f565b6102696104fe366004611c82565b610e43565b610269610511366004611d11565b6001600160a01b03918216600090815260016020908152604080832093909416825291909152205490565b6040516370a0823160e01b81523060048201526000907f00000000000000000000000000000000000000000000000000000000000000006001600160a01b0316906370a0823190602401602060405180830381865afa1580156105a3573d6000803e3d6000fd5b505050506040513d601f19601f820116820180604052508101906105c79190611d3f565b905090565b60006105d6610b43565b90508015610609576106097f00000000000000000000000000000000000000000000000000000000000000003383610e61565b50565b60606003805461061b90611d58565b80601f016020809104026020016040519081016040528092919081815260200182805461064790611d58565b80156106945780601f1061066957610100808354040283529160200191610694565b820191906000526020600020905b81548152906001019060200180831161067757829003601f168201915b5050505050905090565b60006106ab826000610ef6565b92915050565b6000336106bf818585610fca565b5060019392505050565b60006106ab8260016110ee565b6000336106e48582856111a8565b6106ef85858561123a565b60019150505b9392505050565b60006105c76102a96012600a611e8d565b3360008181526001602090815260408083206001600160a01b03871684529091528120549091906106bf9082908690610747908790611e9c565b610fca565b6000610756611437565b6107615760006106ab565b60001992915050565b60006107758261074c565b8311156107c95760405162461bcd60e51b815260206004820152601e60248201527f455243343632363a206465706f736974206d6f7265207468616e206d6178000060448201526064015b60405180910390fd5b60006107d3610b43565b905060006107e46104d88387611e9c565b90506107f233858784611451565b949350505050565b600660009054906101000a90046001600160a01b03166001600160a01b0316630c340a246040518163ffffffff1660e01b8152600401602060405180830381865afa15801561084d573d6000803e3d6000fd5b505050506040513d601f19601f820116820180604052508101906108719190611eb4565b6001600160a01b0316336001600160a01b0316146005906108a55760405162461bcd60e51b81526004016107c09190611ed1565b50600a805473ffffffffffffffffffffffffffffffffffffffff19166001600160a01b0383169081179091556040519081527f86719c518c7d99ac94b3d405d462ea876ba5cd0a978461dc9a7c9862a94858869060200160405180910390a150565b600660009054906101000a90046001600160a01b03166001600160a01b0316630c340a246040518163ffffffff1660e01b8152600401602060405180830381865afa15801561095a573d6000803e3d6000fd5b505050506040513d601f19601f8201168201806040525081019061097e9190611eb4565b6001600160a01b0316336001600160a01b0316146005906109b25760405162461bcd60e51b81526004016107c09190611ed1565b506006805473ffffffffffffffffffffffffffffffffffffffff19166001600160a01b0383169081179091556040517f2f658b440c35314f52658ea8a740e05b284cdc84dc9ae01e891f21b8933e7cad90600090a250565b60004260076002015411610a1e5750600090565b6009546105c7904290611f79565b600080610a37610b43565b90506000610a4482610e12565b90506000610a5186610cf1565b9050610a68338683610a63868b611e9c565b611451565b95945050505050565b60606004805461061b90611d58565b3360008181526001602090815260408083206001600160a01b038716845290915281205490919083811015610b1d5760405162461bcd60e51b815260206004820152602560248201527f45524332303a2064656372656173656420616c6c6f77616e63652062656c6f7760448201527f207a65726f00000000000000000000000000000000000000000000000000000060648201526084016107c0565b610b2a8286868403610fca565b506001949350505050565b6000336106bf81858561123a565b60004260076002015411610cee57600754600954610b619190611e9c565b60095560088054906000610b7483611f90565b91905055506000610b8361053c565b600a549091506001600160a01b031615801590610ba857506000610ba660025490565b115b15610c9157600a60009054906101000a90046001600160a01b03166001600160a01b031663e4fc6b6d6040518163ffffffff1660e01b8152600401600060405180830381600087803b158015610bfd57600080fd5b505af1158015610c11573d6000803e3d6000fd5b50505050600a60009054906101000a90046001600160a01b03166001600160a01b031663e7187e8a6040518163ffffffff1660e01b81526004016020604051808303816000875af1158015610c6a573d6000803e3d6000fd5b505050506040513d601f19601f82011682018060405250810190610c8e9190611d3f565b91505b600081610c9c61053c565b610ca69190611f79565b600854909150610cb890600190611f79565b6040518281527f1a224258155b16d5f723eec2813e723890e50a957ea2e49c707f88dc1cfdb5ce9060200160405180910390a250505b90565b60006106ab826001610ef6565b6000610d0982610e1f565b841115610d585760405162461bcd60e51b815260206004820152601f60248201527f455243343632363a207769746864726177206d6f7265207468616e206d61780060448201526064016107c0565b6000610d62610b43565b90506000610d6f866106c9565b9050610a68338686610d81868b611e9c565b856114e3565b6000610d9282610e43565b841115610de15760405162461bcd60e51b815260206004820152601d60248201527f455243343632363a2072656465656d206d6f7265207468616e206d617800000060448201526064016107c0565b6000610deb610b43565b9050600081610df98761069e565b610e039190611e9c565b9050610a68338686848a6114e3565b60006106ab8260006110ee565b6001600160a01b0381166000908152602081905260408120546106ab906000610ef6565b6001600160a01b0381166000908152602081905260408120546106ab565b6040516001600160a01b038316602482015260448101829052610ef190849063a9059cbb60e01b906064015b60408051601f198184030181529190526020810180517bffffffffffffffffffffffffffffffffffffffffffffffffffffffff167fffffffff00000000000000000000000000000000000000000000000000000000909316929092179091526115a3565b505050565b600080610f0260025490565b90508015610f2357610f1e610f1561053c565b85908386611688565b6107f2565b6107f27f00000000000000000000000000000000000000000000000000000000000000006001600160a01b031663313ce5676040518163ffffffff1660e01b8152600401602060405180830381865afa158015610f84573d6000803e3d6000fd5b505050506040513d601f19601f82011682018060405250810190610fa89190611fab565b610fb390600a611e8d565b60125b610fc190600a611e8d565b86919086611688565b6001600160a01b03831661102c5760405162461bcd60e51b8152602060048201526024808201527f45524332303a20617070726f76652066726f6d20746865207a65726f206164646044820152637265737360e01b60648201526084016107c0565b6001600160a01b03821661108d5760405162461bcd60e51b815260206004820152602260248201527f45524332303a20617070726f766520746f20746865207a65726f206164647265604482015261737360f01b60648201526084016107c0565b6001600160a01b0383811660008181526001602090815260408083209487168084529482529182902085905590518481527f8c5be1e5ebec7d5bd14f71427d1e84f3dd0314c0f7b2291e5b200ac8c7c3b925910160405180910390a3505050565b6000806110fa60025490565b9050831580611107575080155b61111757610f1e81610fc161053c565b6107f26111266012600a611e8d565b7f00000000000000000000000000000000000000000000000000000000000000006001600160a01b031663313ce5676040518163ffffffff1660e01b8152600401602060405180830381865afa158015611184573d6000803e3d6000fd5b505050506040513d601f19601f82011682018060405250810190610fb69190611fab565b6001600160a01b03838116600090815260016020908152604080832093861683529290522054600019811461123457818110156112275760405162461bcd60e51b815260206004820152601d60248201527f45524332303a20696e73756666696369656e7420616c6c6f77616e636500000060448201526064016107c0565b6112348484848403610fca565b50505050565b6001600160a01b0383166112b65760405162461bcd60e51b815260206004820152602560248201527f45524332303a207472616e736665722066726f6d20746865207a65726f20616460448201527f647265737300000000000000000000000000000000000000000000000000000060648201526084016107c0565b6001600160a01b0382166113185760405162461bcd60e51b815260206004820152602360248201527f45524332303a207472616e7366657220746f20746865207a65726f206164647260448201526265737360e81b60648201526084016107c0565b6001600160a01b038316600090815260208190526040902054818110156113a75760405162461bcd60e51b815260206004820152602660248201527f45524332303a207472616e7366657220616d6f756e742065786365656473206260448201527f616c616e6365000000000000000000000000000000000000000000000000000060648201526084016107c0565b6001600160a01b038085166000908152602081905260408082208585039055918516815290812080548492906113de908490611e9c565b92505081905550826001600160a01b0316846001600160a01b03167fddf252ad1be2c89b69c2b068fc378daa952ba7f163c4a11628f55a4df523b3ef8460405161142a91815260200190565b60405180910390a3611234565b60008061144261053c565b11806105c75750506002541590565b61147d7f00000000000000000000000000000000000000000000000000000000000000008530856116e3565b611487838261171b565b826001600160a01b0316846001600160a01b03167fdcbc1c05240f31ff3ad067ef1ee35ce4997762752e3a095284754544f4c709d784846040516114d5929190918252602082015260400190565b60405180910390a350505050565b826001600160a01b0316856001600160a01b031614611507576115078386836111a8565b61151183826117fa565b61153c7f00000000000000000000000000000000000000000000000000000000000000008584610e61565b826001600160a01b0316846001600160a01b0316866001600160a01b03167ffbde797d201c681b91056529119e0b02407c7bb96a4a2c75c01fc9667232c8db8585604051611594929190918252602082015260400190565b60405180910390a45050505050565b60006115f8826040518060400160405280602081526020017f5361666545524332303a206c6f772d6c6576656c2063616c6c206661696c6564815250856001600160a01b03166119489092919063ffffffff16565b805190915015610ef157808060200190518101906116169190611fce565b610ef15760405162461bcd60e51b815260206004820152602a60248201527f5361666545524332303a204552433230206f7065726174696f6e20646964206e60448201527f6f7420737563636565640000000000000000000000000000000000000000000060648201526084016107c0565b600080611696868686611957565b905060018360028111156116ac576116ac611ff0565b1480156116c95750600084806116c4576116c4612006565b868809115b15610a68576116d9600182611e9c565b9695505050505050565b6040516001600160a01b03808516602483015283166044820152606481018290526112349085906323b872dd60e01b90608401610e8d565b6001600160a01b0382166117715760405162461bcd60e51b815260206004820152601f60248201527f45524332303a206d696e7420746f20746865207a65726f20616464726573730060448201526064016107c0565b80600260008282546117839190611e9c565b90915550506001600160a01b038216600090815260208190526040812080548392906117b0908490611e9c565b90915550506040518181526001600160a01b038316906000907fddf252ad1be2c89b69c2b068fc378daa952ba7f163c4a11628f55a4df523b3ef9060200160405180910390a35050565b6001600160a01b03821661185a5760405162461bcd60e51b815260206004820152602160248201527f45524332303a206275726e2066726f6d20746865207a65726f206164647265736044820152607360f81b60648201526084016107c0565b6001600160a01b038216600090815260208190526040902054818110156118ce5760405162461bcd60e51b815260206004820152602260248201527f45524332303a206275726e20616d6f756e7420657863656564732062616c616e604482015261636560f01b60648201526084016107c0565b6001600160a01b03831660009081526020819052604081208383039055600280548492906118fd908490611f79565b90915550506040518281526000906001600160a01b038516907fddf252ad1be2c89b69c2b068fc378daa952ba7f163c4a11628f55a4df523b3ef9060200160405180910390a3505050565b60606107f28484600085611a07565b6000808060001985870985870292508281108382030391505080600014156119925783828161198857611988612006565b04925050506106f5565b80841161199e57600080fd5b60008486880960026001871981018816978890046003810283188082028403028082028403028082028403028082028403028082028403029081029092039091026000889003889004909101858311909403939093029303949094049190911702949350505050565b606082471015611a7f5760405162461bcd60e51b815260206004820152602660248201527f416464726573733a20696e73756666696369656e742062616c616e636520666f60448201527f722063616c6c000000000000000000000000000000000000000000000000000060648201526084016107c0565b6001600160a01b0385163b611ad65760405162461bcd60e51b815260206004820152601d60248201527f416464726573733a2063616c6c20746f206e6f6e2d636f6e747261637400000060448201526064016107c0565b600080866001600160a01b03168587604051611af2919061201c565b60006040518083038185875af1925050503d8060008114611b2f576040519150601f19603f3d011682016040523d82523d6000602084013e611b34565b606091505b5091509150611b44828286611b4f565b979650505050505050565b60608315611b5e5750816106f5565b825115611b6e5782518084602001fd5b8160405162461bcd60e51b81526004016107c09190611bb4565b60005b83811015611ba3578181015183820152602001611b8b565b838111156112345750506000910152565b6020815260008251806020840152611bd3816040850160208701611b88565b601f01601f19169190910160400192915050565b600060208284031215611bf957600080fd5b5035919050565b6001600160a01b038116811461060957600080fd5b60008060408385031215611c2857600080fd5b8235611c3381611c00565b946020939093013593505050565b600080600060608486031215611c5657600080fd5b8335611c6181611c00565b92506020840135611c7181611c00565b929592945050506040919091013590565b600060208284031215611c9457600080fd5b81356106f581611c00565b60008060408385031215611cb257600080fd5b823591506020830135611cc481611c00565b809150509250929050565b600080600060608486031215611ce457600080fd5b833592506020840135611cf681611c00565b91506040840135611d0681611c00565b809150509250925092565b60008060408385031215611d2457600080fd5b8235611d2f81611c00565b91506020830135611cc481611c00565b600060208284031215611d5157600080fd5b5051919050565b600181811c90821680611d6c57607f821691505b60208210811415611d8d57634e487b7160e01b600052602260045260246000fd5b50919050565b634e487b7160e01b600052601160045260246000fd5b600181815b80851115611de4578160001904821115611dca57611dca611d93565b80851615611dd757918102915b93841c9390800290611dae565b509250929050565b600082611dfb575060016106ab565b81611e08575060006106ab565b8160018114611e1e5760028114611e2857611e44565b60019150506106ab565b60ff841115611e3957611e39611d93565b50506001821b6106ab565b5060208310610133831016604e8410600b8410161715611e67575081810a6106ab565b611e718383611da9565b8060001904821115611e8557611e85611d93565b029392505050565b60006106f560ff841683611dec565b60008219821115611eaf57611eaf611d93565b500190565b600060208284031215611ec657600080fd5b81516106f581611c00565b600060208083526000845481600182811c915080831680611ef357607f831692505b858310811415611f1157634e487b7160e01b85526022600452602485fd5b878601838152602001818015611f2e5760018114611f3f57611f6a565b60ff19861682528782019650611f6a565b60008b81526020902060005b86811015611f6457815484820152908501908901611f4b565b83019750505b50949998505050505050505050565b600082821015611f8b57611f8b611d93565b500390565b6000600019821415611fa457611fa4611d93565b5060010190565b600060208284031215611fbd57600080fd5b815160ff811681146106f557600080fd5b600060208284031215611fe057600080fd5b815180151581146106f557600080fd5b634e487b7160e01b600052602160045260246000fd5b634e487b7160e01b600052601260045260246000fd5b6000825161202e818460208701611b88565b919091019291505056fea164736f6c634300080a000a",
  "devdoc": {
    "kind": "dev",
    "methods": {
      "allowance(address,address)": {
        "details": "See {IERC20-allowance}."
      },
      "approve(address,uint256)": {
        "details": "See {IERC20-approve}. NOTE: If `amount` is the maximum `uint256`, the allowance is not updated on `transferFrom`. This is semantically equivalent to an infinite approval. Requirements: - `spender` cannot be the zero address."
      },
      "asset()": {
        "details": "See {IERC4262-asset}. "
      },
      "balanceOf(address)": {
        "details": "See {IERC20-balanceOf}."
      },
      "convertToAssets(uint256)": {
        "details": "See {IERC4262-convertToAssets}. "
      },
      "convertToShares(uint256)": {
        "details": "See {IERC4262-convertToShares}. "
      },
      "decimals()": {
        "details": "Returns the number of decimals used to get its user representation. For example, if `decimals` equals `2`, a balance of `505` tokens should be displayed to a user as `5.05` (`505 / 10 ** 2`). Tokens usually opt for a value of 18, imitating the relationship between Ether and Wei. This is the value {ERC20} uses, unless this function is overridden; NOTE: This information is only used for _display_ purposes: it in no way affects any of the arithmetic of the contract, including {IERC20-balanceOf} and {IERC20-transfer}."
      },
      "decreaseAllowance(address,uint256)": {
        "details": "Atomically decreases the allowance granted to `spender` by the caller. This is an alternative to {approve} that can be used as a mitigation for problems described in {IERC20-approve}. Emits an {Approval} event indicating the updated allowance. Requirements: - `spender` cannot be the zero address. - `spender` must have allowance for the caller of at least `subtractedValue`."
      },
      "deposit(uint256,address)": {
        "details": "See {IERC4262-deposit}. "
      },
      "increaseAllowance(address,uint256)": {
        "details": "Atomically increases the allowance granted to `spender` by the caller. This is an alternative to {approve} that can be used as a mitigation for problems described in {IERC20-approve}. Emits an {Approval} event indicating the updated allowance. Requirements: - `spender` cannot be the zero address."
      },
      "index()": {
        "returns": {
          "_0": "uint"
        }
      },
      "maxDeposit(address)": {
        "details": "See {IERC4262-maxDeposit}. "
      },
      "maxMint(address)": {
        "details": "See {IERC4262-maxMint}. "
      },
      "maxRedeem(address)": {
        "details": "See {IERC4262-maxRedeem}. "
      },
      "maxWithdraw(address)": {
        "details": "See {IERC4262-maxWithdraw}. "
      },
      "mint(uint256,address)": {
        "details": "See {IERC4262-mint}. "
      },
      "name()": {
        "details": "Returns the name of the token."
      },
      "previewDeposit(uint256)": {
        "details": "See {IERC4262-previewDeposit}. "
      },
      "previewMint(uint256)": {
        "details": "See {IERC4262-previewMint}. "
      },
      "previewRedeem(uint256)": {
        "details": "See {IERC4262-previewRedeem}. "
      },
      "previewWithdraw(uint256)": {
        "details": "See {IERC4262-previewWithdraw}. "
      },
      "redeem(uint256,address,address)": {
        "details": "See {IERC4262-redeem}. "
      },
      "setDistributor(address)": {
        "params": {
          "_distributor": "address"
        }
      },
      "symbol()": {
        "details": "Returns the symbol of the token, usually a shorter version of the name."
      },
      "totalAssets()": {
        "details": "See {IERC4262-totalAssets}. "
      },
      "totalSupply()": {
        "details": "See {IERC20-totalSupply}."
      },
      "transfer(address,uint256)": {
        "details": "See {IERC20-transfer}. Requirements: - `to` cannot be the zero address. - the caller must have a balance of at least `amount`."
      },
      "transferFrom(address,address,uint256)": {
        "details": "See {IERC20-transferFrom}. Emits an {Approval} event indicating the updated allowance. This is not required by the EIP. See the note at the beginning of {ERC20}. NOTE: Does not update the allowance if the current allowance is the maximum `uint256`. Requirements: - `from` and `to` cannot be the zero address. - `from` must have a balance of at least `amount`. - the caller must have allowance for ``from``'s tokens of at least `amount`."
      },
      "withdraw(uint256,address,address)": {
        "details": "See {IERC4262-withdraw}. "
      }
    },
    "version": 1
  },
  "userdoc": {
    "kind": "user",
    "methods": {
      "index()": {
        "notice": "returns the index, which tracks protocol growth"
      },
      "nextEpoch()": {
        "notice": "trigger nextEpoch if epoch over"
      },
      "secondsToNextEpoch()": {
        "notice": "seconds until the next epoch begins"
      },
      "setDistributor(address)": {
        "notice": "sets the contract address for LP staking"
      }
    },
    "version": 1
  },
  "storageLayout": {
    "storage": [
      {
        "astId": 404,
        "contract": "contracts/GovernanceHectagon.sol:GovernanceHectagon",
        "label": "_balances",
        "offset": 0,
        "slot": "0",
        "type": "t_mapping(t_address,t_uint256)"
      },
      {
        "astId": 410,
        "contract": "contracts/GovernanceHectagon.sol:GovernanceHectagon",
        "label": "_allowances",
        "offset": 0,
        "slot": "1",
        "type": "t_mapping(t_address,t_mapping(t_address,t_uint256))"
      },
      {
        "astId": 412,
        "contract": "contracts/GovernanceHectagon.sol:GovernanceHectagon",
        "label": "_totalSupply",
        "offset": 0,
        "slot": "2",
        "type": "t_uint256"
      },
      {
        "astId": 414,
        "contract": "contracts/GovernanceHectagon.sol:GovernanceHectagon",
        "label": "_name",
        "offset": 0,
        "slot": "3",
        "type": "t_string_storage"
      },
      {
        "astId": 416,
        "contract": "contracts/GovernanceHectagon.sol:GovernanceHectagon",
        "label": "_symbol",
        "offset": 0,
        "slot": "4",
        "type": "t_string_storage"
      },
      {
        "astId": 12095,
        "contract": "contracts/GovernanceHectagon.sol:GovernanceHectagon",
        "label": "UNAUTHORIZED",
        "offset": 0,
        "slot": "5",
        "type": "t_string_storage"
      },
      {
        "astId": 12098,
        "contract": "contracts/GovernanceHectagon.sol:GovernanceHectagon",
        "label": "authority",
        "offset": 0,
        "slot": "6",
        "type": "t_contract(IHectagonAuthority)8626"
      },
      {
        "astId": 5851,
        "contract": "contracts/GovernanceHectagon.sol:GovernanceHectagon",
        "label": "epoch",
        "offset": 0,
        "slot": "7",
        "type": "t_struct(Epoch)5848_storage"
      },
      {
        "astId": 5854,
        "contract": "contracts/GovernanceHectagon.sol:GovernanceHectagon",
        "label": "distributor",
        "offset": 0,
        "slot": "10",
        "type": "t_contract(IDistributor)8514"
      }
    ],
    "types": {
      "t_address": {
        "encoding": "inplace",
        "label": "address",
        "numberOfBytes": "20"
      },
      "t_contract(IDistributor)8514": {
        "encoding": "inplace",
        "label": "contract IDistributor",
        "numberOfBytes": "20"
      },
      "t_contract(IHectagonAuthority)8626": {
        "encoding": "inplace",
        "label": "contract IHectagonAuthority",
        "numberOfBytes": "20"
      },
      "t_mapping(t_address,t_mapping(t_address,t_uint256))": {
        "encoding": "mapping",
        "key": "t_address",
        "label": "mapping(address => mapping(address => uint256))",
        "numberOfBytes": "32",
        "value": "t_mapping(t_address,t_uint256)"
      },
      "t_mapping(t_address,t_uint256)": {
        "encoding": "mapping",
        "key": "t_address",
        "label": "mapping(address => uint256)",
        "numberOfBytes": "32",
        "value": "t_uint256"
      },
      "t_string_storage": {
        "encoding": "bytes",
        "label": "string",
        "numberOfBytes": "32"
      },
      "t_struct(Epoch)5848_storage": {
        "encoding": "inplace",
        "label": "struct GovernanceHectagon.Epoch",
        "members": [
          {
            "astId": 5843,
            "contract": "contracts/GovernanceHectagon.sol:GovernanceHectagon",
            "label": "length",
            "offset": 0,
            "slot": "0",
            "type": "t_uint256"
          },
          {
            "astId": 5845,
            "contract": "contracts/GovernanceHectagon.sol:GovernanceHectagon",
            "label": "number",
            "offset": 0,
            "slot": "1",
            "type": "t_uint256"
          },
          {
            "astId": 5847,
            "contract": "contracts/GovernanceHectagon.sol:GovernanceHectagon",
            "label": "end",
            "offset": 0,
            "slot": "2",
            "type": "t_uint256"
          }
        ],
        "numberOfBytes": "96"
      },
      "t_uint256": {
        "encoding": "inplace",
        "label": "uint256",
        "numberOfBytes": "32"
      }
    }
  }
}