{
  "address": "0x029d124Bf3E330760cC0E0d17B380a8198016496",
  "abi": [
    {
      "inputs": [
        {
          "internalType": "address",
          "name": "_hecta",
          "type": "address"
        },
        {
          "internalType": "address",
          "name": "_sHECTA",
          "type": "address"
        },
        {
          "internalType": "address",
          "name": "_gHECTA",
          "type": "address"
        },
        {
          "internalType": "uint256",
          "name": "_epochLength",
          "type": "uint256"
        },
        {
          "internalType": "uint256",
          "name": "_firstEpochNumber",
          "type": "uint256"
        },
        {
          "internalType": "uint256",
          "name": "_firstEpochTime",
          "type": "uint256"
        },
        {
          "internalType": "address",
          "name": "_authority",
          "type": "address"
        }
      ],
      "stateMutability": "nonpayable",
      "type": "constructor"
    },
    {
      "anonymous": false,
      "inputs": [
        {
          "indexed": true,
          "internalType": "contract IHectagonAuthority",
          "name": "authority",
          "type": "address"
        }
      ],
      "name": "AuthorityUpdated",
      "type": "event"
    },
    {
      "anonymous": false,
      "inputs": [
        {
          "indexed": false,
          "internalType": "address",
          "name": "distributor",
          "type": "address"
        }
      ],
      "name": "DistributorSet",
      "type": "event"
    },
    {
      "anonymous": false,
      "inputs": [
        {
          "indexed": false,
          "internalType": "uint256",
          "name": "warmup",
          "type": "uint256"
        }
      ],
      "name": "WarmupSet",
      "type": "event"
    },
    {
      "inputs": [],
      "name": "HECTA",
      "outputs": [
        {
          "internalType": "contract IERC20",
          "name": "",
          "type": "address"
        }
      ],
      "stateMutability": "view",
      "type": "function"
    },
    {
      "inputs": [],
      "name": "authority",
      "outputs": [
        {
          "internalType": "contract IHectagonAuthority",
          "name": "",
          "type": "address"
        }
      ],
      "stateMutability": "view",
      "type": "function"
    },
    {
      "inputs": [
        {
          "internalType": "address",
          "name": "_to",
          "type": "address"
        },
        {
          "internalType": "bool",
          "name": "_rebasing",
          "type": "bool"
        }
      ],
      "name": "claim",
      "outputs": [
        {
          "internalType": "uint256",
          "name": "",
          "type": "uint256"
        }
      ],
      "stateMutability": "nonpayable",
      "type": "function"
    },
    {
      "inputs": [],
      "name": "distributor",
      "outputs": [
        {
          "internalType": "contract IDistributor",
          "name": "",
          "type": "address"
        }
      ],
      "stateMutability": "view",
      "type": "function"
    },
    {
      "inputs": [],
      "name": "epoch",
      "outputs": [
        {
          "internalType": "uint256",
          "name": "length",
          "type": "uint256"
        },
        {
          "internalType": "uint256",
          "name": "number",
          "type": "uint256"
        },
        {
          "internalType": "uint256",
          "name": "end",
          "type": "uint256"
        },
        {
          "internalType": "uint256",
          "name": "distribute",
          "type": "uint256"
        }
      ],
      "stateMutability": "view",
      "type": "function"
    },
    {
      "inputs": [],
      "name": "forfeit",
      "outputs": [
        {
          "internalType": "uint256",
          "name": "",
          "type": "uint256"
        }
      ],
      "stateMutability": "nonpayable",
      "type": "function"
    },
    {
      "inputs": [],
      "name": "gHECTA",
      "outputs": [
        {
          "internalType": "contract IgHECTA",
          "name": "",
          "type": "address"
        }
      ],
      "stateMutability": "view",
      "type": "function"
    },
    {
      "inputs": [],
      "name": "index",
      "outputs": [
        {
          "internalType": "uint256",
          "name": "",
          "type": "uint256"
        }
      ],
      "stateMutability": "view",
      "type": "function"
    },
    {
      "inputs": [],
      "name": "rebase",
      "outputs": [
        {
          "internalType": "uint256",
          "name": "",
          "type": "uint256"
        }
      ],
      "stateMutability": "nonpayable",
      "type": "function"
    },
    {
      "inputs": [],
      "name": "sHECTA",
      "outputs": [
        {
          "internalType": "contract IsHECTA",
          "name": "",
          "type": "address"
        }
      ],
      "stateMutability": "view",
      "type": "function"
    },
    {
      "inputs": [],
      "name": "secondsToNextEpoch",
      "outputs": [
        {
          "internalType": "uint256",
          "name": "",
          "type": "uint256"
        }
      ],
      "stateMutability": "view",
      "type": "function"
    },
    {
      "inputs": [
        {
          "internalType": "contract IHectagonAuthority",
          "name": "_newAuthority",
          "type": "address"
        }
      ],
      "name": "setAuthority",
      "outputs": [],
      "stateMutability": "nonpayable",
      "type": "function"
    },
    {
      "inputs": [
        {
          "internalType": "address",
          "name": "_distributor",
          "type": "address"
        }
      ],
      "name": "setDistributor",
      "outputs": [],
      "stateMutability": "nonpayable",
      "type": "function"
    },
    {
      "inputs": [
        {
          "internalType": "uint256",
          "name": "_warmupPeriod",
          "type": "uint256"
        }
      ],
      "name": "setWarmupLength",
      "outputs": [],
      "stateMutability": "nonpayable",
      "type": "function"
    },
    {
      "inputs": [
        {
          "internalType": "address",
          "name": "_to",
          "type": "address"
        },
        {
          "internalType": "uint256",
          "name": "_amount",
          "type": "uint256"
        },
        {
          "internalType": "bool",
          "name": "_rebasing",
          "type": "bool"
        },
        {
          "internalType": "bool",
          "name": "_claim",
          "type": "bool"
        }
      ],
      "name": "stake",
      "outputs": [
        {
          "internalType": "uint256",
          "name": "",
          "type": "uint256"
        }
      ],
      "stateMutability": "nonpayable",
      "type": "function"
    },
    {
      "inputs": [],
      "name": "supplyInWarmup",
      "outputs": [
        {
          "internalType": "uint256",
          "name": "",
          "type": "uint256"
        }
      ],
      "stateMutability": "view",
      "type": "function"
    },
    {
      "inputs": [],
      "name": "toggleLock",
      "outputs": [],
      "stateMutability": "nonpayable",
      "type": "function"
    },
    {
      "inputs": [
        {
          "internalType": "address",
          "name": "_to",
          "type": "address"
        },
        {
          "internalType": "uint256",
          "name": "_amount",
          "type": "uint256"
        },
        {
          "internalType": "bool",
          "name": "_trigger",
          "type": "bool"
        },
        {
          "internalType": "bool",
          "name": "_rebasing",
          "type": "bool"
        }
      ],
      "name": "unstake",
      "outputs": [
        {
          "internalType": "uint256",
          "name": "amount_",
          "type": "uint256"
        }
      ],
      "stateMutability": "nonpayable",
      "type": "function"
    },
    {
      "inputs": [
        {
          "internalType": "address",
          "name": "_to",
          "type": "address"
        },
        {
          "internalType": "uint256",
          "name": "_amount",
          "type": "uint256"
        }
      ],
      "name": "unwrap",
      "outputs": [
        {
          "internalType": "uint256",
          "name": "sBalance_",
          "type": "uint256"
        }
      ],
      "stateMutability": "nonpayable",
      "type": "function"
    },
    {
      "inputs": [
        {
          "internalType": "address",
          "name": "",
          "type": "address"
        }
      ],
      "name": "warmupInfo",
      "outputs": [
        {
          "internalType": "uint256",
          "name": "deposit",
          "type": "uint256"
        },
        {
          "internalType": "uint256",
          "name": "gons",
          "type": "uint256"
        },
        {
          "internalType": "uint256",
          "name": "expiry",
          "type": "uint256"
        },
        {
          "internalType": "bool",
          "name": "lock",
          "type": "bool"
        }
      ],
      "stateMutability": "view",
      "type": "function"
    },
    {
      "inputs": [],
      "name": "warmupPeriod",
      "outputs": [
        {
          "internalType": "uint256",
          "name": "",
          "type": "uint256"
        }
      ],
      "stateMutability": "view",
      "type": "function"
    },
    {
      "inputs": [
        {
          "internalType": "address",
          "name": "_to",
          "type": "address"
        },
        {
          "internalType": "uint256",
          "name": "_amount",
          "type": "uint256"
        }
      ],
      "name": "wrap",
      "outputs": [
        {
          "internalType": "uint256",
          "name": "gBalance_",
          "type": "uint256"
        }
      ],
      "stateMutability": "nonpayable",
      "type": "function"
    }
  ],
  "transactionHash": "0x7d8830b7ea2fa389cf2c6938203ecfc88d06536778d8e02dc2d6b04fdcb6131a",
  "args": [
    "0xADcB7d1Ae6f2928f3806e7C7036CDf9b4A1539c0",
    "0x1A345506e4Fe9f338B14A0D7a2A936bF9b349caA",
    "0x0fcEadA28638ab28978c9Ac150365AE0A8E22302",
    "3600",
    "0",
    "1646709785",
    "0x288Dd3EBD5cA5A472E40E64871A35f81E6c7A02A"
  ],
  "solcInputHash": "0209da25ecdedb5a1bc14c8ec40c0ead",
  "bytecode": "0x610120604052600c60e08190526b15539055551213d49256915160a21b61010090815262000031916000919062000261565b503480156200003f57600080fd5b506040516200227f3803806200227f833981810160405260e08110156200006557600080fd5b50805160208201516040808401516060850151608086015160a087015160c090970151600180546001600160a01b0319166001600160a01b038316908117909155945196979596939592949193909182917f2f658b440c35314f52658ea8a740e05b284cdc84dc9ae01e891f21b8933e7cad90600090a2506001600160a01b03871662000139576040805162461bcd60e51b815260206004820152601360248201527f5a65726f20616464726573733a20484543544100000000000000000000000000604482015290519081900360640190fd5b6001600160601b0319606088901b166080526001600160a01b038616620001a7576040805162461bcd60e51b815260206004820152601460248201527f5a65726f20616464726573733a20734845435441000000000000000000000000604482015290519081900360640190fd5b6001600160601b0319606087901b1660a0526001600160a01b03851662000215576040805162461bcd60e51b815260206004820152601460248201527f5a65726f20616464726573733a20674845435441000000000000000000000000604482015290519081900360640190fd5b506001600160601b0319606094851b1660c052604080516080810182528481526020810184905290810182905260009401849052600292909255600355600455600555506200030d9050565b828054600181600116156101000203166002900490600052602060002090601f016020900481019282620002995760008555620002e4565b82601f10620002b457805160ff1916838001178555620002e4565b82800160010185558215620002e4579182015b82811115620002e4578251825591602001919060010190620002c7565b50620002f2929150620002f6565b5090565b5b80821115620002f25760008155600101620002f7565b60805160601c60a05160601c60c05160601c611ebf620003c0600039806104f2528061058152806109895280610d415280610da652806112b0528061136a52806119c752806119f75280611b055250806103fe5280610497528061061e52806106715280610bfb5280610ce15280610f5a52806111ca52806112865280611528528061164d528061199752508061064d5280610e5d5280610f1a528061111352806113ff52806117685250611ebf6000f3fe608060405234801561001057600080fd5b50600436106101825760003560e01c806392fd2daf116100d8578063bf7e214f1161008c578063deac361a11610066578063deac361a146103e2578063f3d86e4a146103ea578063ff9413d8146103f257610182565b8063bf7e214f14610396578063bfe109281461039e578063d866c9d8146103a657610182565b8063990966d5116100bd578063990966d514610326578063af14052c14610362578063bf376c7a1461036a57610182565b806392fd2daf146102f05780639483c1d71461031e57610182565b80636746f4c21161013a57806386d51e4e1161011457806386d51e4e1461029d578063900cf0cf146102a55780639238d592146102d357610182565b80636746f4c21461020157806375619ab51461024f5780637a9e5e4b1461027757610182565b806339f476931161016b57806339f47693146101a95780633bdbaa50146101d55780633be1606e146101f957610182565b806320138641146101875780632986c0e5146101a1575b600080fd5b61018f6103fa565b60408051918252519081900360200190f35b61018f610493565b61018f600480360360408110156101bf57600080fd5b506001600160a01b0381351690602001356104ee565b6101dd61064b565b604080516001600160a01b039092168252519081900360200190f35b6101dd61066f565b6102276004803603602081101561021757600080fd5b50356001600160a01b0316610693565b6040805194855260208501939093528383019190915215156060830152519081900360800190f35b6102756004803603602081101561026557600080fd5b50356001600160a01b03166106bd565b005b6102756004803603602081101561028d57600080fd5b50356001600160a01b0316610844565b6101dd610987565b6102ad6109ab565b604080519485526020850193909352838301919091526060830152519081900360800190f35b610275600480360360208110156102e957600080fd5b50356109ba565b61018f6004803603604081101561030657600080fd5b506001600160a01b0381351690602001351515610ae1565b61018f610ca5565b61018f6004803603608081101561033c57600080fd5b506001600160a01b03813516906020810135906040810135151590606001351515610cba565b61018f610f4a565b61018f6004803603604081101561038057600080fd5b506001600160a01b038135169060200135611277565b6101dd6113d2565b6101dd6113e1565b61018f600480360360808110156103bc57600080fd5b506001600160a01b038135169060208101359060408101351515906060013515156113f0565b61018f6116d4565b61018f6116da565b610275611796565b60007f00000000000000000000000000000000000000000000000000000000000000006001600160a01b0316637965d56d6009546040518263ffffffff1660e01b81526004018082815260200191505060206040518083038186803b15801561046257600080fd5b505afa158015610476573d6000803e3d6000fd5b505050506040513d602081101561048c57600080fd5b5051905090565b60007f00000000000000000000000000000000000000000000000000000000000000006001600160a01b0316632986c0e56040518163ffffffff1660e01b815260040160206040518083038186803b15801561046257600080fd5b60007f00000000000000000000000000000000000000000000000000000000000000006001600160a01b0316639dc29fac33846040518363ffffffff1660e01b815260040180836001600160a01b0316815260200182815260200192505050600060405180830381600087803b15801561056757600080fd5b505af115801561057b573d6000803e3d6000fd5b505050507f00000000000000000000000000000000000000000000000000000000000000006001600160a01b031663a8248768836040518263ffffffff1660e01b81526004018082815260200191505060206040518083038186803b1580156105e357600080fd5b505afa1580156105f7573d6000803e3d6000fd5b505050506040513d602081101561060d57600080fd5b505190506106456001600160a01b037f00000000000000000000000000000000000000000000000000000000000000001684836117ba565b92915050565b7f000000000000000000000000000000000000000000000000000000000000000081565b7f000000000000000000000000000000000000000000000000000000000000000081565b60076020526000908152604090208054600182015460028301546003909301549192909160ff1684565b600160009054906101000a90046001600160a01b03166001600160a01b0316630c340a246040518163ffffffff1660e01b815260040160206040518083038186803b15801561070b57600080fd5b505afa15801561071f573d6000803e3d6000fd5b505050506040513d602081101561073557600080fd5b50516000906001600160a01b031633146107e25760405162461bcd60e51b81526020600482019081528254600260001961010060018416150201909116046024830181905290918291604490910190849080156107d35780601f106107a8576101008083540402835291602001916107d3565b820191906000526020600020905b8154815290600101906020018083116107b657829003601f168201915b50509250505060405180910390fd5b50600680546001600160a01b03831673ffffffffffffffffffffffffffffffffffffffff19909116811790915560408051918252517f86719c518c7d99ac94b3d405d462ea876ba5cd0a978461dc9a7c9862a94858869181900360200190a150565b600160009054906101000a90046001600160a01b03166001600160a01b0316630c340a246040518163ffffffff1660e01b815260040160206040518083038186803b15801561089257600080fd5b505afa1580156108a6573d6000803e3d6000fd5b505050506040513d60208110156108bc57600080fd5b50516000906001600160a01b0316331461092f5760405162461bcd60e51b81526020600482019081528254600260001961010060018416150201909116046024830181905290918291604490910190849080156107d35780601f106107a8576101008083540402835291602001916107d3565b506001805473ffffffffffffffffffffffffffffffffffffffff19166001600160a01b0383169081179091556040517f2f658b440c35314f52658ea8a740e05b284cdc84dc9ae01e891f21b8933e7cad90600090a250565b7f000000000000000000000000000000000000000000000000000000000000000081565b60025460035460045460055484565b600160009054906101000a90046001600160a01b03166001600160a01b0316630c340a246040518163ffffffff1660e01b815260040160206040518083038186803b158015610a0857600080fd5b505afa158015610a1c573d6000803e3d6000fd5b505050506040513d6020811015610a3257600080fd5b50516000906001600160a01b03163314610aa55760405162461bcd60e51b81526020600482019081528254600260001961010060018416150201909116046024830181905290918291604490910190849080156107d35780601f106107a8576101008083540402835291602001916107d3565b5060088190556040805182815290517fac17d51c35ac71d3eddc155985908430e88946d51e2f6093e93c1c0aba08f6c49181900360200190a150565b6000610aeb611e14565b506001600160a01b03831660009081526007602090815260409182902082516080810184528154815260018201549281019290925260028101549282019290925260039091015460ff16151560608201819052610b89576001600160a01b0384163314610b895760405162461bcd60e51b8152600401808060200182810382526026815260200180611e676026913960400191505060405180910390fd5b604081015160035410801590610ba25750604081015115155b15610c9b576001600160a01b038416600090815260076020908152604082208281556001810183905560028101929092556003909101805460ff19169055810151600954610bef91611939565b600981905550610c93847f00000000000000000000000000000000000000000000000000000000000000006001600160a01b0316637965d56d84602001516040518263ffffffff1660e01b81526004018082815260200191505060206040518083038186803b158015610c6157600080fd5b505afa158015610c75573d6000803e3d6000fd5b505050506040513d6020811015610c8b57600080fd5b505185611982565b915050610645565b5060009392505050565b600454600090610cb59042611939565b905090565b8260008315610cce57610ccb610f4a565b90505b8215610d1a57610d096001600160a01b037f000000000000000000000000000000000000000000000000000000000000000016333088611b9b565b610d138282611d23565b9150610e3d565b60408051632770a7eb60e21b81523360048201526024810187905290516001600160a01b037f00000000000000000000000000000000000000000000000000000000000000001691639dc29fac91604480830192600092919082900301818387803b158015610d8857600080fd5b505af1158015610d9c573d6000803e3d6000fd5b50505050610e3a817f00000000000000000000000000000000000000000000000000000000000000006001600160a01b031663a8248768856040518263ffffffff1660e01b81526004018082815260200191505060206040518083038186803b158015610e0857600080fd5b505afa158015610e1c573d6000803e3d6000fd5b505050506040513d6020811015610e3257600080fd5b505190611d23565b91505b604080516370a0823160e01b815230600482015290516001600160a01b037f000000000000000000000000000000000000000000000000000000000000000016916370a08231916024808301926020929190829003018186803b158015610ea357600080fd5b505afa158015610eb7573d6000803e3d6000fd5b505050506040513d6020811015610ecd57600080fd5b5051821115610f0d5760405162461bcd60e51b8152600401808060200182810382526026815260200180611e8d6026913960400191505060405180910390fd5b610f416001600160a01b037f00000000000000000000000000000000000000000000000000000000000000001687846117ba565b50949350505050565b60008042600280015411610cb5577f00000000000000000000000000000000000000000000000000000000000000006001600160a01b031663058ecdb46002600301546002600101546040518363ffffffff1660e01b81526004018083815260200182815260200192505050602060405180830381600087803b158015610fd057600080fd5b505af1158015610fe4573d6000803e3d6000fd5b505050506040513d6020811015610ffa57600080fd5b505060025460045461100b91611d23565b6004556003805460010190556006546001600160a01b03161561110f57600660009054906101000a90046001600160a01b03166001600160a01b031663e4fc6b6d6040518163ffffffff1660e01b8152600401600060405180830381600087803b15801561107857600080fd5b505af115801561108c573d6000803e3d6000fd5b50505050600660009054906101000a90046001600160a01b03166001600160a01b031663e7187e8a6040518163ffffffff1660e01b8152600401602060405180830381600087803b1580156110e057600080fd5b505af11580156110f4573d6000803e3d6000fd5b505050506040513d602081101561110a57600080fd5b505190505b60007f00000000000000000000000000000000000000000000000000000000000000006001600160a01b03166370a08231306040518263ffffffff1660e01b815260040180826001600160a01b0316815260200191505060206040518083038186803b15801561117e57600080fd5b505afa158015611192573d6000803e3d6000fd5b505050506040513d60208110156111a857600080fd5b505160408051639358928b60e01b815290519192506000916001600160a01b037f00000000000000000000000000000000000000000000000000000000000000001691639358928b916004808301926020929190829003018186803b15801561121057600080fd5b505afa158015611224573d6000803e3d6000fd5b505050506040513d602081101561123a57600080fd5b505190506112488184611d23565b8211611258576000600555611270565b61126c836112668484611939565b90611939565b6005555b5050905090565b60006112ae6001600160a01b037f000000000000000000000000000000000000000000000000000000000000000016333085611b9b565b7f00000000000000000000000000000000000000000000000000000000000000006001600160a01b03166366a5236c836040518263ffffffff1660e01b81526004018082815260200191505060206040518083038186803b15801561131257600080fd5b505afa158015611326573d6000803e3d6000fd5b505050506040513d602081101561133c57600080fd5b5051604080516340c10f1960e01b81526001600160a01b0386811660048301526024820184905291519293507f0000000000000000000000000000000000000000000000000000000000000000909116916340c10f199160448082019260009290919082900301818387803b1580156113b457600080fd5b505af11580156113c8573d6000803e3d6000fd5b5050505092915050565b6001546001600160a01b031681565b6006546001600160a01b031681565b60006114276001600160a01b037f000000000000000000000000000000000000000000000000000000000000000016333087611b9b565b611439611432610f4a565b8590611d23565b93508180156114485750600854155b1561145f57611458858585611982565b90506116cc565b611467611e14565b506001600160a01b03851660009081526007602090815260409182902082516080810184528154815260018201549281019290925260028101549282019290925260039091015460ff16151560608201819052611505576001600160a01b03861633146115055760405162461bcd60e51b8152600401808060200182810382526028815260200180611e3f6028913960400191505060405180910390fd5b60408051608081019091528151819061151e9088611d23565b81526020016115c17f00000000000000000000000000000000000000000000000000000000000000006001600160a01b0316631bd39674896040518263ffffffff1660e01b81526004018082815260200191505060206040518083038186803b15801561158a57600080fd5b505afa15801561159e573d6000803e3d6000fd5b505050506040513d60208110156115b457600080fd5b5051602085015190611d23565b81526008546003546020909201916115d891611d23565b815260608381015115156020928301526001600160a01b038981166000908152600784526040908190208551815585850151600182015585820151600282015594909201516003909401805460ff19169415159490941790935580516306f4e59d60e21b81526004810189905290516116c4937f00000000000000000000000000000000000000000000000000000000000000001692631bd396749260248082019391829003018186803b15801561168f57600080fd5b505afa1580156116a3573d6000803e3d6000fd5b505050506040513d60208110156116b957600080fd5b505160095490611d23565b600955508390505b949350505050565b60085481565b60006116e4611e14565b503360008181526007602081815260408084208151608081018352815481526001820180548286019081526002840180549584019590955260038401805460ff81161515606086015299895296909552918690559085905593905560ff199093169055905160095461175591611939565b6009558051611790906001600160a01b037f0000000000000000000000000000000000000000000000000000000000000000169033906117ba565b51905090565b336000908152600760205260409020600301805460ff19811660ff90911615179055565b604080516001600160a01b038481166024830152604480830185905283518084039091018152606490920183526020820180517bffffffffffffffffffffffffffffffffffffffffffffffffffffffff1663a9059cbb60e01b178152925182516000946060949389169392918291908083835b6020831061184c5780518252601f19909201916020918201910161182d565b6001836020036101000a0380198251168184511680821785525050505050509050019150506000604051808303816000865af19150503d80600081146118ae576040519150601f19603f3d011682016040523d82523d6000602084013e6118b3565b606091505b50915091508180156118e15750805115806118e157508080602001905160208110156118de57600080fd5b50515b611932576040805162461bcd60e51b815260206004820152600f60248201527f5452414e534645525f4641494c45440000000000000000000000000000000000604482015290519081900360640190fd5b5050505050565b600061197b83836040518060400160405280601e81526020017f536166654d6174683a207375627472616374696f6e206f766572666c6f770000815250611d7d565b9392505050565b600081156119c5576119be6001600160a01b037f00000000000000000000000000000000000000000000000000000000000000001685856117ba565b508161197b565b7f00000000000000000000000000000000000000000000000000000000000000006001600160a01b03166340c10f19857f00000000000000000000000000000000000000000000000000000000000000006001600160a01b03166366a5236c876040518263ffffffff1660e01b81526004018082815260200191505060206040518083038186803b158015611a5957600080fd5b505afa158015611a6d573d6000803e3d6000fd5b505050506040513d6020811015611a8357600080fd5b5051604080517fffffffff0000000000000000000000000000000000000000000000000000000060e086901b1681526001600160a01b039093166004840152602483019190915251604480830192600092919082900301818387803b158015611aeb57600080fd5b505af1158015611aff573d6000803e3d6000fd5b505050507f00000000000000000000000000000000000000000000000000000000000000006001600160a01b03166366a5236c846040518263ffffffff1660e01b81526004018082815260200191505060206040518083038186803b158015611b6757600080fd5b505afa158015611b7b573d6000803e3d6000fd5b505050506040513d6020811015611b9157600080fd5b5051949350505050565b604080516001600160a01b0385811660248301528481166044830152606480830185905283518084039091018152608490920183526020820180517bffffffffffffffffffffffffffffffffffffffffffffffffffffffff166323b872dd60e01b17815292518251600094606094938a169392918291908083835b60208310611c355780518252601f199092019160209182019101611c16565b6001836020036101000a0380198251168184511680821785525050505050509050019150506000604051808303816000865af19150503d8060008114611c97576040519150601f19603f3d011682016040523d82523d6000602084013e611c9c565b606091505b5091509150818015611cca575080511580611cca5750808060200190516020811015611cc757600080fd5b50515b611d1b576040805162461bcd60e51b815260206004820152601460248201527f5452414e534645525f46524f4d5f4641494c4544000000000000000000000000604482015290519081900360640190fd5b505050505050565b60008282018381101561197b576040805162461bcd60e51b815260206004820152601b60248201527f536166654d6174683a206164646974696f6e206f766572666c6f770000000000604482015290519081900360640190fd5b60008184841115611e0c5760405162461bcd60e51b81526004018080602001828103825283818151815260200191508051906020019080838360005b83811015611dd1578181015183820152602001611db9565b50505050905090810190601f168015611dfe5780820380516001836020036101000a031916815260200191505b509250505060405180910390fd5b505050900390565b6040518060800160405280600081526020016000815260200160008152602001600015158152509056fe45787465726e616c206465706f7369747320666f72206163636f756e7420617265206c6f636b656445787465726e616c20636c61696d7320666f72206163636f756e7420617265206c6f636b6564496e73756666696369656e742048454354412062616c616e636520696e20636f6e7472616374a164736f6c6343000705000a",
  "devdoc": {
    "kind": "dev",
    "methods": {
      "claim(address,bool)": {
        "params": {
          "_rebasing": "bool",
          "_to": "address"
        },
        "returns": {
          "_0": "uint"
        }
      },
      "forfeit()": {
        "returns": {
          "_0": "uint"
        }
      },
      "index()": {
        "returns": {
          "_0": "uint"
        }
      },
      "rebase()": {
        "returns": {
          "_0": "uint256"
        }
      },
      "setDistributor(address)": {
        "params": {
          "_distributor": "address"
        }
      },
      "setWarmupLength(uint256)": {
        "params": {
          "_warmupPeriod": "uint"
        }
      },
      "stake(address,uint256,bool,bool)": {
        "params": {
          "_amount": "uint",
          "_claim": "bool",
          "_rebasing": "bool",
          "_to": "address"
        },
        "returns": {
          "_0": "uint"
        }
      },
      "unstake(address,uint256,bool,bool)": {
        "params": {
          "_amount": "uint",
          "_rebasing": "bool",
          "_to": "address",
          "_trigger": "bool"
        },
        "returns": {
          "amount_": "uint"
        }
      },
      "unwrap(address,uint256)": {
        "params": {
          "_amount": "uint",
          "_to": "address"
        },
        "returns": {
          "sBalance_": "uint"
        }
      },
      "wrap(address,uint256)": {
        "params": {
          "_amount": "uint",
          "_to": "address"
        },
        "returns": {
          "gBalance_": "uint"
        }
      }
    },
    "version": 1
  },
  "userdoc": {
    "kind": "user",
    "methods": {
      "claim(address,bool)": {
        "notice": "retrieve stake from warmup"
      },
      "forfeit()": {
        "notice": "forfeit stake and retrieve HECTA"
      },
      "index()": {
        "notice": "returns the sHECTA index, which tracks rebase growth"
      },
      "rebase()": {
        "notice": "trigger rebase if epoch over"
      },
      "secondsToNextEpoch()": {
        "notice": "seconds until the next epoch begins"
      },
      "setDistributor(address)": {
        "notice": "sets the contract address for LP staking"
      },
      "setWarmupLength(uint256)": {
        "notice": "set warmup period for new stakers"
      },
      "stake(address,uint256,bool,bool)": {
        "notice": "stake HECTA to enter warmup"
      },
      "supplyInWarmup()": {
        "notice": "total supply in warmup"
      },
      "toggleLock()": {
        "notice": "prevent new deposits or claims from ext. address (protection from malicious activity)"
      },
      "unstake(address,uint256,bool,bool)": {
        "notice": "redeem sHECTA for HECTAs"
      },
      "unwrap(address,uint256)": {
        "notice": "convert _amount gHECTA into sBalance_ sHECTA"
      },
      "wrap(address,uint256)": {
        "notice": "convert _amount sHECTA into gBalance_ gHECTA"
      }
    },
    "version": 1
  },
  "storageLayout": {
    "storage": [
      {
        "astId": 8857,
        "contract": "contracts/Staking.sol:HectagonStaking",
        "label": "UNAUTHORIZED",
        "offset": 0,
        "slot": "0",
        "type": "t_string_storage"
      },
      {
        "astId": 8859,
        "contract": "contracts/Staking.sol:HectagonStaking",
        "label": "authority",
        "offset": 0,
        "slot": "1",
        "type": "t_contract(IHectagonAuthority)5082"
      },
      {
        "astId": 489,
        "contract": "contracts/Staking.sol:HectagonStaking",
        "label": "epoch",
        "offset": 0,
        "slot": "2",
        "type": "t_struct(Epoch)472_storage"
      },
      {
        "astId": 491,
        "contract": "contracts/Staking.sol:HectagonStaking",
        "label": "distributor",
        "offset": 0,
        "slot": "6",
        "type": "t_contract(IDistributor)4844"
      },
      {
        "astId": 495,
        "contract": "contracts/Staking.sol:HectagonStaking",
        "label": "warmupInfo",
        "offset": 0,
        "slot": "7",
        "type": "t_mapping(t_address,t_struct(Claim)481_storage)"
      },
      {
        "astId": 497,
        "contract": "contracts/Staking.sol:HectagonStaking",
        "label": "warmupPeriod",
        "offset": 0,
        "slot": "8",
        "type": "t_uint256"
      },
      {
        "astId": 499,
        "contract": "contracts/Staking.sol:HectagonStaking",
        "label": "gonsInWarmup",
        "offset": 0,
        "slot": "9",
        "type": "t_uint256"
      }
    ],
    "types": {
      "t_address": {
        "encoding": "inplace",
        "label": "address",
        "numberOfBytes": "20"
      },
      "t_bool": {
        "encoding": "inplace",
        "label": "bool",
        "numberOfBytes": "1"
      },
      "t_contract(IDistributor)4844": {
        "encoding": "inplace",
        "label": "contract IDistributor",
        "numberOfBytes": "20"
      },
      "t_contract(IHectagonAuthority)5082": {
        "encoding": "inplace",
        "label": "contract IHectagonAuthority",
        "numberOfBytes": "20"
      },
      "t_mapping(t_address,t_struct(Claim)481_storage)": {
        "encoding": "mapping",
        "key": "t_address",
        "label": "mapping(address => struct HectagonStaking.Claim)",
        "numberOfBytes": "32",
        "value": "t_struct(Claim)481_storage"
      },
      "t_string_storage": {
        "encoding": "bytes",
        "label": "string",
        "numberOfBytes": "32"
      },
      "t_struct(Claim)481_storage": {
        "encoding": "inplace",
        "label": "struct HectagonStaking.Claim",
        "members": [
          {
            "astId": 474,
            "contract": "contracts/Staking.sol:HectagonStaking",
            "label": "deposit",
            "offset": 0,
            "slot": "0",
            "type": "t_uint256"
          },
          {
            "astId": 476,
            "contract": "contracts/Staking.sol:HectagonStaking",
            "label": "gons",
            "offset": 0,
            "slot": "1",
            "type": "t_uint256"
          },
          {
            "astId": 478,
            "contract": "contracts/Staking.sol:HectagonStaking",
            "label": "expiry",
            "offset": 0,
            "slot": "2",
            "type": "t_uint256"
          },
          {
            "astId": 480,
            "contract": "contracts/Staking.sol:HectagonStaking",
            "label": "lock",
            "offset": 0,
            "slot": "3",
            "type": "t_bool"
          }
        ],
        "numberOfBytes": "128"
      },
      "t_struct(Epoch)472_storage": {
        "encoding": "inplace",
        "label": "struct HectagonStaking.Epoch",
        "members": [
          {
            "astId": 465,
            "contract": "contracts/Staking.sol:HectagonStaking",
            "label": "length",
            "offset": 0,
            "slot": "0",
            "type": "t_uint256"
          },
          {
            "astId": 467,
            "contract": "contracts/Staking.sol:HectagonStaking",
            "label": "number",
            "offset": 0,
            "slot": "1",
            "type": "t_uint256"
          },
          {
            "astId": 469,
            "contract": "contracts/Staking.sol:HectagonStaking",
            "label": "end",
            "offset": 0,
            "slot": "2",
            "type": "t_uint256"
          },
          {
            "astId": 471,
            "contract": "contracts/Staking.sol:HectagonStaking",
            "label": "distribute",
            "offset": 0,
            "slot": "3",
            "type": "t_uint256"
          }
        ],
        "numberOfBytes": "128"
      },
      "t_uint256": {
        "encoding": "inplace",
        "label": "uint256",
        "numberOfBytes": "32"
      }
    }
  }
}