{
  "address": "0x9EEb5D78707E379441C399CEEd85164A1788b620",
  "abi": [
    {
      "inputs": [],
      "stateMutability": "nonpayable",
      "type": "constructor"
    },
    {
      "anonymous": false,
      "inputs": [
        {
          "indexed": true,
          "internalType": "address",
          "name": "owner",
          "type": "address"
        },
        {
          "indexed": true,
          "internalType": "address",
          "name": "spender",
          "type": "address"
        },
        {
          "indexed": false,
          "internalType": "uint256",
          "name": "value",
          "type": "uint256"
        }
      ],
      "name": "Approval",
      "type": "event"
    },
    {
      "anonymous": false,
      "inputs": [
        {
          "indexed": true,
          "internalType": "address",
          "name": "from",
          "type": "address"
        },
        {
          "indexed": false,
          "internalType": "uint256",
          "name": "amount",
          "type": "uint256"
        }
      ],
      "name": "Exercise",
      "type": "event"
    },
    {
      "anonymous": false,
      "inputs": [
        {
          "indexed": true,
          "internalType": "address",
          "name": "previousOwner",
          "type": "address"
        },
        {
          "indexed": true,
          "internalType": "address",
          "name": "newOwner",
          "type": "address"
        }
      ],
      "name": "OwnershipTransferred",
      "type": "event"
    },
    {
      "anonymous": false,
      "inputs": [
        {
          "indexed": false,
          "internalType": "address",
          "name": "account",
          "type": "address"
        }
      ],
      "name": "Paused",
      "type": "event"
    },
    {
      "anonymous": false,
      "inputs": [
        {
          "indexed": true,
          "internalType": "address",
          "name": "from",
          "type": "address"
        },
        {
          "indexed": true,
          "internalType": "address",
          "name": "to",
          "type": "address"
        },
        {
          "indexed": false,
          "internalType": "uint256",
          "name": "value",
          "type": "uint256"
        }
      ],
      "name": "Transfer",
      "type": "event"
    },
    {
      "anonymous": false,
      "inputs": [
        {
          "indexed": false,
          "internalType": "address",
          "name": "account",
          "type": "address"
        }
      ],
      "name": "Unpaused",
      "type": "event"
    },
    {
      "inputs": [],
      "name": "RATE_DENOMINATOR",
      "outputs": [
        {
          "internalType": "uint256",
          "name": "",
          "type": "uint256"
        }
      ],
      "stateMutability": "view",
      "type": "function"
    },
    {
      "inputs": [],
      "name": "RATE_NUMERATOR",
      "outputs": [
        {
          "internalType": "uint256",
          "name": "",
          "type": "uint256"
        }
      ],
      "stateMutability": "view",
      "type": "function"
    },
    {
      "inputs": [
        {
          "internalType": "address",
          "name": "owner",
          "type": "address"
        },
        {
          "internalType": "address",
          "name": "spender",
          "type": "address"
        }
      ],
      "name": "allowance",
      "outputs": [
        {
          "internalType": "uint256",
          "name": "",
          "type": "uint256"
        }
      ],
      "stateMutability": "view",
      "type": "function"
    },
    {
      "inputs": [
        {
          "internalType": "address",
          "name": "spender",
          "type": "address"
        },
        {
          "internalType": "uint256",
          "name": "amount",
          "type": "uint256"
        }
      ],
      "name": "approve",
      "outputs": [
        {
          "internalType": "bool",
          "name": "",
          "type": "bool"
        }
      ],
      "stateMutability": "nonpayable",
      "type": "function"
    },
    {
      "inputs": [
        {
          "internalType": "address",
          "name": "account",
          "type": "address"
        }
      ],
      "name": "balanceOf",
      "outputs": [
        {
          "internalType": "uint256",
          "name": "",
          "type": "uint256"
        }
      ],
      "stateMutability": "view",
      "type": "function"
    },
    {
      "inputs": [],
      "name": "beat",
      "outputs": [],
      "stateMutability": "nonpayable",
      "type": "function"
    },
    {
      "inputs": [
        {
          "internalType": "uint256",
          "name": "amount",
          "type": "uint256"
        }
      ],
      "name": "burn",
      "outputs": [],
      "stateMutability": "nonpayable",
      "type": "function"
    },
    {
      "inputs": [
        {
          "internalType": "address",
          "name": "account",
          "type": "address"
        },
        {
          "internalType": "uint256",
          "name": "amount",
          "type": "uint256"
        }
      ],
      "name": "burnFrom",
      "outputs": [],
      "stateMutability": "nonpayable",
      "type": "function"
    },
    {
      "inputs": [],
      "name": "busdAddress",
      "outputs": [
        {
          "internalType": "address",
          "name": "",
          "type": "address"
        }
      ],
      "stateMutability": "view",
      "type": "function"
    },
    {
      "inputs": [],
      "name": "circulatingHectaContract",
      "outputs": [
        {
          "internalType": "contract IHectaCirculatingSupply",
          "name": "",
          "type": "address"
        }
      ],
      "stateMutability": "view",
      "type": "function"
    },
    {
      "inputs": [
        {
          "internalType": "address",
          "name": "_user",
          "type": "address"
        },
        {
          "internalType": "uint256[]",
          "name": "_indexes",
          "type": "uint256[]"
        }
      ],
      "name": "claim",
      "outputs": [
        {
          "internalType": "uint256",
          "name": "amount_",
          "type": "uint256"
        }
      ],
      "stateMutability": "nonpayable",
      "type": "function"
    },
    {
      "inputs": [
        {
          "internalType": "address",
          "name": "_user",
          "type": "address"
        }
      ],
      "name": "claimAll",
      "outputs": [
        {
          "internalType": "uint256",
          "name": "",
          "type": "uint256"
        }
      ],
      "stateMutability": "nonpayable",
      "type": "function"
    },
    {
      "inputs": [],
      "name": "decimals",
      "outputs": [
        {
          "internalType": "uint8",
          "name": "",
          "type": "uint8"
        }
      ],
      "stateMutability": "view",
      "type": "function"
    },
    {
      "inputs": [
        {
          "internalType": "address",
          "name": "spender",
          "type": "address"
        },
        {
          "internalType": "uint256",
          "name": "subtractedValue",
          "type": "uint256"
        }
      ],
      "name": "decreaseAllowance",
      "outputs": [
        {
          "internalType": "bool",
          "name": "",
          "type": "bool"
        }
      ],
      "stateMutability": "nonpayable",
      "type": "function"
    },
    {
      "inputs": [],
      "name": "disableWhiteList",
      "outputs": [],
      "stateMutability": "nonpayable",
      "type": "function"
    },
    {
      "inputs": [],
      "name": "enableWhiteList",
      "outputs": [],
      "stateMutability": "nonpayable",
      "type": "function"
    },
    {
      "inputs": [
        {
          "internalType": "uint256",
          "name": "amount_",
          "type": "uint256"
        }
      ],
      "name": "exercise",
      "outputs": [],
      "stateMutability": "nonpayable",
      "type": "function"
    },
    {
      "inputs": [
        {
          "internalType": "address",
          "name": "addr",
          "type": "address"
        }
      ],
      "name": "getClaimable",
      "outputs": [
        {
          "internalType": "uint256",
          "name": "",
          "type": "uint256"
        }
      ],
      "stateMutability": "view",
      "type": "function"
    },
    {
      "inputs": [],
      "name": "hectaAddress",
      "outputs": [
        {
          "internalType": "address",
          "name": "",
          "type": "address"
        }
      ],
      "stateMutability": "view",
      "type": "function"
    },
    {
      "inputs": [
        {
          "internalType": "address",
          "name": "",
          "type": "address"
        }
      ],
      "name": "holders",
      "outputs": [
        {
          "internalType": "bool",
          "name": "isTransferable",
          "type": "bool"
        },
        {
          "internalType": "uint256",
          "name": "lastRebaseSpaceIndex",
          "type": "uint256"
        },
        {
          "internalType": "uint256",
          "name": "maxClaim",
          "type": "uint256"
        },
        {
          "internalType": "uint256",
          "name": "claimed",
          "type": "uint256"
        },
        {
          "internalType": "uint256",
          "name": "currentSpaceProfit",
          "type": "uint256"
        }
      ],
      "stateMutability": "view",
      "type": "function"
    },
    {
      "inputs": [
        {
          "internalType": "address",
          "name": "spender",
          "type": "address"
        },
        {
          "internalType": "uint256",
          "name": "addedValue",
          "type": "uint256"
        }
      ],
      "name": "increaseAllowance",
      "outputs": [
        {
          "internalType": "bool",
          "name": "",
          "type": "bool"
        }
      ],
      "stateMutability": "nonpayable",
      "type": "function"
    },
    {
      "inputs": [
        {
          "internalType": "address",
          "name": "_user",
          "type": "address"
        }
      ],
      "name": "indexesFor",
      "outputs": [
        {
          "internalType": "uint256[]",
          "name": "",
          "type": "uint256[]"
        }
      ],
      "stateMutability": "view",
      "type": "function"
    },
    {
      "inputs": [
        {
          "internalType": "address",
          "name": "hectaAddress_",
          "type": "address"
        },
        {
          "internalType": "address",
          "name": "treasuryAddress_",
          "type": "address"
        },
        {
          "internalType": "address",
          "name": "busdAddress_",
          "type": "address"
        },
        {
          "internalType": "contract IHectaCirculatingSupply",
          "name": "circulatingHectaContract_",
          "type": "address"
        }
      ],
      "name": "initialize",
      "outputs": [],
      "stateMutability": "nonpayable",
      "type": "function"
    },
    {
      "inputs": [
        {
          "internalType": "address",
          "name": "",
          "type": "address"
        }
      ],
      "name": "investors",
      "outputs": [
        {
          "internalType": "bool",
          "name": "",
          "type": "bool"
        }
      ],
      "stateMutability": "view",
      "type": "function"
    },
    {
      "inputs": [],
      "name": "massApprove",
      "outputs": [],
      "stateMutability": "nonpayable",
      "type": "function"
    },
    {
      "inputs": [],
      "name": "name",
      "outputs": [
        {
          "internalType": "string",
          "name": "",
          "type": "string"
        }
      ],
      "stateMutability": "view",
      "type": "function"
    },
    {
      "inputs": [
        {
          "internalType": "address",
          "name": "",
          "type": "address"
        },
        {
          "internalType": "uint256",
          "name": "",
          "type": "uint256"
        }
      ],
      "name": "notes",
      "outputs": [
        {
          "internalType": "uint256",
          "name": "claimableAt",
          "type": "uint256"
        },
        {
          "internalType": "uint256",
          "name": "claimedAt",
          "type": "uint256"
        },
        {
          "internalType": "uint256",
          "name": "amount",
          "type": "uint256"
        }
      ],
      "stateMutability": "view",
      "type": "function"
    },
    {
      "inputs": [],
      "name": "owner",
      "outputs": [
        {
          "internalType": "address",
          "name": "",
          "type": "address"
        }
      ],
      "stateMutability": "view",
      "type": "function"
    },
    {
      "inputs": [],
      "name": "pause",
      "outputs": [],
      "stateMutability": "nonpayable",
      "type": "function"
    },
    {
      "inputs": [],
      "name": "paused",
      "outputs": [
        {
          "internalType": "bool",
          "name": "",
          "type": "bool"
        }
      ],
      "stateMutability": "view",
      "type": "function"
    },
    {
      "inputs": [
        {
          "internalType": "address",
          "name": "_user",
          "type": "address"
        },
        {
          "internalType": "uint256",
          "name": "_index",
          "type": "uint256"
        }
      ],
      "name": "pendingFor",
      "outputs": [
        {
          "internalType": "uint256",
          "name": "amount_",
          "type": "uint256"
        },
        {
          "internalType": "bool",
          "name": "claimable_",
          "type": "bool"
        }
      ],
      "stateMutability": "view",
      "type": "function"
    },
    {
      "inputs": [],
      "name": "renounceOwnership",
      "outputs": [],
      "stateMutability": "nonpayable",
      "type": "function"
    },
    {
      "inputs": [
        {
          "internalType": "uint256",
          "name": "spaceLength_",
          "type": "uint256"
        }
      ],
      "name": "setSpaceLength",
      "outputs": [],
      "stateMutability": "nonpayable",
      "type": "function"
    },
    {
      "inputs": [
        {
          "internalType": "uint256",
          "name": "vestingLength_",
          "type": "uint256"
        }
      ],
      "name": "setVestingLength",
      "outputs": [],
      "stateMutability": "nonpayable",
      "type": "function"
    },
    {
      "inputs": [],
      "name": "spaceCounter",
      "outputs": [
        {
          "internalType": "uint256",
          "name": "_value",
          "type": "uint256"
        }
      ],
      "stateMutability": "view",
      "type": "function"
    },
    {
      "inputs": [],
      "name": "spaceLength",
      "outputs": [
        {
          "internalType": "uint256",
          "name": "",
          "type": "uint256"
        }
      ],
      "stateMutability": "view",
      "type": "function"
    },
    {
      "inputs": [
        {
          "internalType": "uint256",
          "name": "",
          "type": "uint256"
        }
      ],
      "name": "spaces",
      "outputs": [
        {
          "internalType": "uint256",
          "name": "totalHecta",
          "type": "uint256"
        },
        {
          "internalType": "uint256",
          "name": "totalPHecta",
          "type": "uint256"
        },
        {
          "internalType": "uint256",
          "name": "startedTime",
          "type": "uint256"
        }
      ],
      "stateMutability": "view",
      "type": "function"
    },
    {
      "inputs": [],
      "name": "start",
      "outputs": [],
      "stateMutability": "nonpayable",
      "type": "function"
    },
    {
      "inputs": [],
      "name": "startTimestamp",
      "outputs": [
        {
          "internalType": "uint256",
          "name": "",
          "type": "uint256"
        }
      ],
      "stateMutability": "view",
      "type": "function"
    },
    {
      "inputs": [],
      "name": "symbol",
      "outputs": [
        {
          "internalType": "string",
          "name": "",
          "type": "string"
        }
      ],
      "stateMutability": "view",
      "type": "function"
    },
    {
      "inputs": [
        {
          "internalType": "address",
          "name": "token",
          "type": "address"
        },
        {
          "internalType": "uint256",
          "name": "amount_",
          "type": "uint256"
        }
      ],
      "name": "toTokenAmount",
      "outputs": [
        {
          "internalType": "uint256",
          "name": "value_",
          "type": "uint256"
        }
      ],
      "stateMutability": "view",
      "type": "function"
    },
    {
      "inputs": [
        {
          "internalType": "address",
          "name": "investor",
          "type": "address"
        }
      ],
      "name": "toggleInvestor",
      "outputs": [],
      "stateMutability": "nonpayable",
      "type": "function"
    },
    {
      "inputs": [],
      "name": "totalSupply",
      "outputs": [
        {
          "internalType": "uint256",
          "name": "",
          "type": "uint256"
        }
      ],
      "stateMutability": "view",
      "type": "function"
    },
    {
      "inputs": [
        {
          "internalType": "address",
          "name": "recipient",
          "type": "address"
        },
        {
          "internalType": "uint256",
          "name": "amount",
          "type": "uint256"
        }
      ],
      "name": "transfer",
      "outputs": [
        {
          "internalType": "bool",
          "name": "",
          "type": "bool"
        }
      ],
      "stateMutability": "nonpayable",
      "type": "function"
    },
    {
      "inputs": [
        {
          "internalType": "address",
          "name": "from",
          "type": "address"
        },
        {
          "internalType": "address",
          "name": "to",
          "type": "address"
        },
        {
          "internalType": "uint256",
          "name": "amount",
          "type": "uint256"
        }
      ],
      "name": "transferFrom",
      "outputs": [
        {
          "internalType": "bool",
          "name": "",
          "type": "bool"
        }
      ],
      "stateMutability": "nonpayable",
      "type": "function"
    },
    {
      "inputs": [
        {
          "internalType": "address",
          "name": "newOwner",
          "type": "address"
        }
      ],
      "name": "transferOwnership",
      "outputs": [],
      "stateMutability": "nonpayable",
      "type": "function"
    },
    {
      "inputs": [],
      "name": "treasuryAddress",
      "outputs": [
        {
          "internalType": "address",
          "name": "",
          "type": "address"
        }
      ],
      "stateMutability": "view",
      "type": "function"
    },
    {
      "inputs": [],
      "name": "unpause",
      "outputs": [],
      "stateMutability": "nonpayable",
      "type": "function"
    },
    {
      "inputs": [],
      "name": "useWhiteList",
      "outputs": [
        {
          "internalType": "bool",
          "name": "",
          "type": "bool"
        }
      ],
      "stateMutability": "view",
      "type": "function"
    },
    {
      "inputs": [],
      "name": "vestingLength",
      "outputs": [
        {
          "internalType": "uint256",
          "name": "",
          "type": "uint256"
        }
      ],
      "stateMutability": "view",
      "type": "function"
    }
  ],
  "transactionHash": "0xc4b87da803e87b64c5c6b9283b10870d77a5525889986b3076fe5d03baa02cfe",
  "args": [],
  "solcInputHash": "324cd8bf7a6832202abf9a0d2c64407f",
  "bytecode": "0x608060405262093a80601155620d2f006012553480156200001f57600080fd5b50604080518082018252601081526f283934bb30ba32902432b1ba30b3b7b760811b6020808301919091528251808401909352600683526570486563746160d01b908301526000805460ff19169055906200007a33620000c7565b81516200008f906004906020850190620009b0565b508051620000a5906005906020840190620009b0565b505050620000c13366b1a2bc2ec500006200012060201b60201c565b62000b5b565b600080546001600160a01b03838116610100818102610100600160a81b0319851617855560405193049190911692909183917f8be0079c531659141344cd1fd0a4f28419497f9722a3daafe3b4186f6b6457e091a35050565b6001600160a01b0382166200017c5760405162461bcd60e51b815260206004820152601f60248201527f45524332303a206d696e7420746f20746865207a65726f20616464726573730060448201526064015b60405180910390fd5b6200018a6000838362000225565b80600360008282546200019e919062000a6c565b90915550506001600160a01b03821660009081526001602052604081208054839290620001cd90849062000a6c565b90915550506040518181526001600160a01b038316906000907fddf252ad1be2c89b69c2b068fc378daa952ba7f163c4a11628f55a4df523b3ef9060200160405180910390a3620002216000838362000301565b5050565b600b54158015906200023f57506001600160a01b03831615155b80156200025457506001600160a01b03821615155b15620002fc57620002658362000416565b620002708262000416565b6001600160a01b0383166000908152600e602052604090206001015415620002fc576001600160a01b0383166000908152600e602052604090205460ff16620002fc5760405162461bcd60e51b815260206004820152601e60248201527f43616e6e6f74207472616e736665722061667465722065786572636973650000604482015260640162000173565b505050565b600b54158015906200031b57506001600160a01b03831615155b80156200033057506001600160a01b03821615155b15620002fc576001600160a01b0383166000908152600160205260408120546200035c90839062000a6c565b6001600160a01b0385166000908152600e602052604090206004015462000384908462000a87565b62000390919062000aa9565b6001600160a01b0385166000908152600e6020526040902060020154909150620003bc90829062000acc565b6001600160a01b038086166000908152600e60205260408082206002908101949094559186168152200154620003f490829062000a6c565b6001600160a01b0384166000908152600e602052604090206002015550505050565b62000420620004cb565b6200043760066200064c60201b620017d91760201c565b6001600160a01b0382166000908152600e60205260409020600101541015620004ad576000620004678262000650565b6020808201516001600160a01b0385166000908152600e909252604091829020600481019190915582516002820155910151600180830191909155815460ff1916179055505b50565b6001600160a01b031660009081526001602052604090205490565b6000600f6000620004e860066200064c60201b620017d91760201c565b8152602001908152602001600020604051806060016040529081600082015481526020016001820154815260200160028201548152505090506000600b54118015620005455750601154604082015162000543904262000acc565b115b15620004ad57620005626006620009a760201b620017dd1760201c565b6040518060600160405280600a60009054906101000a90046001600160a01b03166001600160a01b0316639358928b6040518163ffffffff1660e01b8152600401602060405180830381865afa158015620005c1573d6000803e3d6000fd5b505050506040513d601f19601f82011682018060405250810190620005e7919062000ae6565b8152602001620005f660035490565b815260200142815250600f60006200061a60066200064c60201b620017d91760201c565b815260200190815260200160002060008201518160000155602082015181600101556040820151816002015590505050565b5490565b6200067560405180606001604052806000815260200160008152602001600081525090565b600b541580620006855750600354155b15620006b0576040518060600160405280600081526020016000815260200160008152509050919050565b6000620006c960066200064c60201b620017d91760201c565b6000818152600f6020908152604080832081516060810183528154815260018083015482860152600290920154818401526001600160a01b0389168552600e909352908320600481015491015493945090928411156200081b576001600160a01b0386166000908152600e60205260409020600101545b848110156200081957600f60006200075a83600162000a6c565b8152602001908152602001600020600101546200077d88620004b060201b60201c565b6000838152600f60208190526040822054620f424092620186a09290620007a688600162000a6c565b815260200190815260200160002060000154620007c4919062000acc565b620007d0919062000a87565b620007dc919062000aa9565b620007e8919062000a87565b620007f4919062000aa9565b915062000802828462000a6c565b925080620008108162000b00565b91505062000740565b505b60115460408401516200082f904262000acc565b111562000958576040805160608101808352600a54639358928b60e01b909152915160009282916001600160a01b0390911690639358928b906064808501916020918187030181865afa1580156200088b573d6000803e3d6000fd5b505050506040513d601f19601f82011682018060405250810190620008b1919062000ae6565b8152602001620008c060035490565b815242602091820152810151909150620008ef886001600160a01b031660009081526001602052604090205490565b6000878152600f60205260409020548351620f424091620186a09162000916919062000acc565b62000922919062000a87565b6200092e919062000aa9565b6200093a919062000a87565b62000946919062000aa9565b915062000954828462000a6c565b9250505b604080516060810182526001600160a01b0388166000908152600e602052919091206002015481906200098d90859062000a6c565b815260200182815260200185815250945050505050919050565b80546001019055565b828054620009be9062000b1e565b90600052602060002090601f016020900481019282620009e2576000855562000a2d565b82601f10620009fd57805160ff191683800117855562000a2d565b8280016001018555821562000a2d579182015b8281111562000a2d57825182559160200191906001019062000a10565b5062000a3b92915062000a3f565b5090565b5b8082111562000a3b576000815560010162000a40565b634e487b7160e01b600052601160045260246000fd5b6000821982111562000a825762000a8262000a56565b500190565b600081600019048311821515161562000aa45762000aa462000a56565b500290565b60008262000ac757634e487b7160e01b600052601260045260246000fd5b500490565b60008282101562000ae15762000ae162000a56565b500390565b60006020828403121562000af957600080fd5b5051919050565b600060001982141562000b175762000b1762000a56565b5060010190565b600181811c9082168062000b3357607f821691505b6020821081141562000b5557634e487b7160e01b600052602260045260246000fd5b50919050565b612c408062000b6b6000396000f3fe608060405234801561001057600080fd5b50600436106103365760003560e01c806379cc6790116101b2578063b217f9d4116100f9578063dd62ed3e116100a2578063e6fd48bc1161007c578063e6fd48bc1461073e578063ec8f033614610747578063f2fde38b14610751578063f8c8765e1461076457600080fd5b8063dd62ed3e146106d2578063e0b117ff1461070b578063e481b2651461071e57600080fd5b8063c5f956af116100d3578063c5f956af146106aa578063d99f8674146106bd578063dcd83616146106ca57600080fd5b8063b217f9d414610671578063be9a65551461067a578063c3e0fb1c1461068257600080fd5b806395d89b411161015b578063a9059cbb11610135578063a9059cbb14610642578063a9e1074914610655578063b07f0a411461065e57600080fd5b806395d89b4114610614578063a457c2d71461061c578063a583024b1461062f57600080fd5b80637efad8e01161018c5780637efad8e0146105ec5780638456cb59146105f65780638da5cb5b146105fe57600080fd5b806379cc6790146105c75780637a259dba146105da5780637d0273d0146105e257600080fd5b80633f4ba83a116102815780636f7bc9be1161022a5780637586353b116102045780637586353b1461054457806376a902311461058e57806377329f35146105a1578063795ab83e146105b457600080fd5b80636f7bc9be146104f057806370a0823114610513578063715018a61461053c57600080fd5b8063457182781161025b57806345718278146104ca578063539b2ba4146104dd5780635c975abb146104e557600080fd5b80633f4ba83a1461049c578063418c8526146104a457806342966c68146104b757600080fd5b80631c837c3e116102e3578063313ce567116102bd578063313ce567146104725780633820350914610481578063395093511461048957600080fd5b80631c837c3e146104375780631ed948b31461044c57806323b872dd1461045f57600080fd5b806313bf537c1161031457806313bf537c1461039957806318160ddd146103c457806318a5bbdc146103cc57600080fd5b8063015c1c7a1461033b57806306fdde0314610361578063095ea7b314610376575b600080fd5b61034e610349366004612710565b610777565b6040519081526020015b60405180910390f35b61036961080d565b6040516103589190612768565b610389610384366004612710565b61089f565b6040519015158152602001610358565b600a546103ac906001600160a01b031681565b6040516001600160a01b039091168152602001610358565b60035461034e565b61040d6103da36600461279b565b600e602052600090815260409020805460018201546002830154600384015460049094015460ff90931693919290919085565b6040805195151586526020860194909452928401919091526060830152608082015260a001610358565b61044a6104453660046127b8565b6108b9565b005b61044a61045a3660046127b8565b6108c6565b61038961046d3660046127d1565b6108d3565b60405160098152602001610358565b61044a6108f7565b610389610497366004612710565b610980565b61044a6109bf565b61044a6104b236600461279b565b6109d1565b61044a6104c53660046127b8565b610a02565b61034e6104d8366004612828565b610a0c565b61044a610b4f565b60005460ff16610389565b6103896104fe36600461279b565b600d6020526000908152604090205460ff1681565b61034e61052136600461279b565b6001600160a01b031660009081526001602052604090205490565b61044a610b66565b6105736105523660046127b8565b600f6020526000908152604090208054600182015460029092015490919083565b60408051938452602084019290925290820152606001610358565b6009546103ac906001600160a01b031681565b61034e6105af36600461279b565b610b78565b6007546103ac906001600160a01b031681565b61044a6105d5366004612710565b610b87565b61044a610ba0565b61034e620186a081565b61034e620f424081565b61044a610cf4565b60005461010090046001600160a01b03166103ac565b610369610d04565b61038961062a366004612710565b610d13565b61034e61063d36600461279b565b610dc2565b610389610650366004612710565b610e03565b61034e60115481565b61044a61066c3660046127b8565b610e21565b61034e60125481565b61044a6112c3565b610695610690366004612710565b611382565b60408051928352901515602083015201610358565b6008546103ac906001600160a01b031681565b600c546103899060ff1681565b61044a611411565b61034e6106e03660046128fb565b6001600160a01b03918216600090815260026020908152604080832093909416825291909152205490565b610573610719366004612710565b611425565b61073161072c36600461279b565b611467565b6040516103589190612934565b61034e600b5481565b60065461034e9081565b61044a61075f36600461279b565b611661565b61044a610772366004612978565b6116ee565b60006107856009600a612ace565b836001600160a01b031663313ce5676040518163ffffffff1660e01b8152600401602060405180830381865afa1580156107c3573d6000803e3d6000fd5b505050506040513d601f19601f820116820180604052508101906107e79190612add565b6107f290600a612ace565b6107fc9084612b00565b6108069190612b1f565b9392505050565b60606004805461081c90612b41565b80601f016020809104026020016040519081016040528092919081815260200182805461084890612b41565b80156108955780601f1061086a57610100808354040283529160200191610895565b820191906000526020600020905b81548152906001019060200180831161087857829003601f168201915b5050505050905090565b6000336108ad8185856117e6565b60019150505b92915050565b6108c161190a565b601155565b6108ce61190a565b601255565b6000336108e185828561196a565b6108ec8585856119fc565b506001949350505050565b60095460085460405163095ea7b360e01b81526001600160a01b0391821660048201526d314dc6448d9338c15b0a00000000602482015291169063095ea7b3906044016020604051808303816000875af1158015610959573d6000803e3d6000fd5b505050506040513d601f19601f8201168201806040525081019061097d9190612b7c565b50565b3360008181526002602090815260408083206001600160a01b03871684529091528120549091906108ad90829086906109ba908790612b9e565b6117e6565b6109c761190a565b6109cf611c0a565b565b6109d961190a565b6001600160a01b03166000908152600d60205260409020805460ff19811660ff90911615179055565b61097d3382611c5c565b600042815b8351811015610acf57600080610a4087878581518110610a3357610a33612bb6565b6020026020010151611382565b915091508015610aba576001600160a01b0387166000908152601060205260409020865165ffffffffffff86169190889086908110610a8157610a81612bb6565b602002602001015181548110610a9957610a99612bb6565b6000918252602090912060016003909202010155610ab78286612b9e565b94505b50508080610ac790612bcc565b915050610a11565b5060075460405163a9059cbb60e01b81526001600160a01b038681166004830152602482018590529091169063a9059cbb906044016020604051808303816000875af1158015610b23573d6000803e3d6000fd5b505050506040513d601f19601f82011682018060405250810190610b479190612b7c565b505092915050565b610b5761190a565b600c805460ff19166001179055565b610b6e61190a565b6109cf6000611dc2565b60006108b3826104d884611467565b610b9282338361196a565b610b9c8282611c5c565b5050565b6000600f6000610baf60065490565b8152602001908152602001600020604051806060016040529081600082015481526020016001820154815260200160028201548152505090506000600b54118015610c0957506011546040820151610c079042612be7565b115b1561097d57610c1c600680546001019055565b6040518060600160405280600a60009054906101000a90046001600160a01b03166001600160a01b0316639358928b6040518163ffffffff1660e01b8152600401602060405180830381865afa158015610c7a573d6000803e3d6000fd5b505050506040513d601f19601f82011682018060405250810190610c9e9190612bfe565b8152602001610cac60035490565b815260200142815250600f6000610cc260065490565b815260200190815260200160002060008201518160000155602082015181600101556040820151816002015590505050565b610cfc61190a565b6109cf611e32565b60606005805461081c90612b41565b3360008181526002602090815260408083206001600160a01b038716845290915281205490919083811015610db55760405162461bcd60e51b815260206004820152602560248201527f45524332303a2064656372656173656420616c6c6f77616e63652062656c6f7760448201527f207a65726f00000000000000000000000000000000000000000000000000000060648201526084015b60405180910390fd5b6108ec82868684036117e6565b600080610dce83611e6f565b6001600160a01b0384166000908152600e602052604081206003015482519293509091610dfb9190612be7565b949350505050565b6000610e0d612199565b610e183384846119fc565b50600192915050565b6000600b5411610e735760405162461bcd60e51b815260206004820152601a60248201527f57616974696e6720666f72206f776e657220746f2073746172740000000000006044820152606401610dac565b600c5460ff16151560011415610f0d57336000908152600d602052604090205460ff161515600114610f0d5760405162461bcd60e51b815260206004820152603160248201527f496e766573746f72206d7573742062652077686974656c697374656420746f2060448201527f75736520746869732066756e6374696f6e0000000000000000000000000000006064820152608401610dac565b610f15612199565b610f1e336121ec565b600954600090610f37906001600160a01b031683610777565b336000908152600e6020526040902060038101546002909101549192508391610f609190612be7565b1015610fae5760405162461bcd60e51b815260206004820152601e60248201527f436c61696d206d6f7265207468616e206d6178696d756d20616d6f756e7400006044820152606401610dac565b600954604051636eb1769f60e11b815233600482015230602482015282916001600160a01b03169063dd62ed3e90604401602060405180830381865afa158015610ffc573d6000803e3d6000fd5b505050506040513d601f19601f820116820180604052508101906110209190612bfe565b10156110945760405162461bcd60e51b815260206004820152603e60248201527f4d75737420617070726f7665207468697320636f6e747261637420746f20737060448201527f656e64206d6f7265207468616e2077697468647261776c20616d6f756e7400006064820152608401610dac565b6009546040516370a0823160e01b815233600482015283916001600160a01b0316906370a0823190602401602060405180830381865afa1580156110dc573d6000803e3d6000fd5b505050506040513d601f19601f820116820180604052508101906111009190612bfe565b101561114e5760405162461bcd60e51b815260206004820152601a60248201527f425553442062616c616e6365206973206e6f7420656e6f7567680000000000006044820152606401610dac565b336000818152600e60205260409020805460ff1916905561116f9083611c5c565b336000908152600e602052604081206003018054849290611191908490612b9e565b90915550506008546009546111b5916001600160a01b03918216913391168461226c565b336000908152601060205260409081902081516060810190925260125490919081906111e19042612b9e565b8152600060208083018290526040928301879052845460018082018755958352918190208451600390930201918255830151938101939093559081015160029092019190915560085490516340c10f1960e01b8152306004820152602481018490526001600160a01b03909116906340c10f1990604401600060405180830381600087803b15801561127257600080fd5b505af1158015611286573d6000803e3d6000fd5b50506040518481523392507f5a20425ee28c08dfaf53c051ce9fb1fdfedad2949379924d3313a74c2c61a2a5915060200160405180910390a25050565b6112cb61190a565b600b541561131b5760405162461bcd60e51b815260206004820152601060248201527f416c7265616479207374617274656421000000000000000000000000000000006044820152606401610dac565b42600b556040805160608101909152600081526020810161133b60035490565b815260200142815250600f600061135160065490565b8152602001908152602001600020600082015181600001556020820151816001015560408201518160020155905050565b6001600160a01b0382166000908152601060205260408120805482918291859081106113b0576113b0612bb6565b600091825260209182902060408051606081018252600390930290910180548352600181015493830184905260020154908201819052945091501580156113f8575080514210155b80156114075750604081015115155b9150509250929050565b61141961190a565b600c805460ff19169055565b6010602052816000526040600020818154811061144157600080fd5b600091825260209091206003909102018054600182015460029092015490935090915083565b6001600160a01b0381166000908152601060209081526040808320805482518185028101850190935280835260609493849084015b828210156114ec578382906000526020600020906003020160405180606001604052908160008201548152602001600182015481526020016002820154815250508152602001906001019061149c565b505050509050600080600090505b82518110156115735782818151811061151557611515612bb6565b602002602001015160200151600014801561154e575082818151811061153d5761153d612bb6565b602002602001015160400151600014155b15611561578161155d81612bcc565b9250505b8061156b81612bcc565b9150506114fa565b5060008167ffffffffffffffff81111561158f5761158f612812565b6040519080825280602002602001820160405280156115b8578160200160208202803683370190505b5090506000805b8451811015611656578481815181106115da576115da612bb6565b6020026020010151602001516000148015611613575084818151811061160257611602612bb6565b602002602001015160400151600014155b15611644578083838151811061162b5761162b612bb6565b60209081029190910101528161164081612bcc565b9250505b8061164e81612bcc565b9150506115bf565b509095945050505050565b61166961190a565b6001600160a01b0381166116e55760405162461bcd60e51b815260206004820152602660248201527f4f776e61626c653a206e6577206f776e657220697320746865207a65726f206160448201527f64647265737300000000000000000000000000000000000000000000000000006064820152608401610dac565b61097d81611dc2565b6116f661190a565b600780546001600160a01b038681167fffffffffffffffffffffffff000000000000000000000000000000000000000092831617909255600880548684169083168117909155600980548685169084168117909155600a8054948616949093169390931790915560405163095ea7b360e01b815260048101919091526d314dc6448d9338c15b0a00000000602482015263095ea7b3906044016020604051808303816000875af11580156117ae573d6000803e3d6000fd5b505050506040513d601f19601f820116820180604052508101906117d29190612b7c565b5050505050565b5490565b80546001019055565b6001600160a01b0383166118485760405162461bcd60e51b8152602060048201526024808201527f45524332303a20617070726f76652066726f6d20746865207a65726f206164646044820152637265737360e01b6064820152608401610dac565b6001600160a01b0382166118a95760405162461bcd60e51b815260206004820152602260248201527f45524332303a20617070726f766520746f20746865207a65726f206164647265604482015261737360f01b6064820152608401610dac565b6001600160a01b0383811660008181526002602090815260408083209487168084529482529182902085905590518481527f8c5be1e5ebec7d5bd14f71427d1e84f3dd0314c0f7b2291e5b200ac8c7c3b925910160405180910390a3505050565b6000546001600160a01b036101009091041633146109cf5760405162461bcd60e51b815260206004820181905260248201527f4f776e61626c653a2063616c6c6572206973206e6f7420746865206f776e65726044820152606401610dac565b6001600160a01b0383811660009081526002602090815260408083209386168352929052205460001981146119f657818110156119e95760405162461bcd60e51b815260206004820152601d60248201527f45524332303a20696e73756666696369656e7420616c6c6f77616e63650000006044820152606401610dac565b6119f684848484036117e6565b50505050565b6001600160a01b038316611a785760405162461bcd60e51b815260206004820152602560248201527f45524332303a207472616e736665722066726f6d20746865207a65726f20616460448201527f64726573730000000000000000000000000000000000000000000000000000006064820152608401610dac565b6001600160a01b038216611ada5760405162461bcd60e51b815260206004820152602360248201527f45524332303a207472616e7366657220746f20746865207a65726f206164647260448201526265737360e81b6064820152608401610dac565b611ae58383836122db565b6001600160a01b03831660009081526001602052604090205481811015611b745760405162461bcd60e51b815260206004820152602660248201527f45524332303a207472616e7366657220616d6f756e742065786365656473206260448201527f616c616e636500000000000000000000000000000000000000000000000000006064820152608401610dac565b6001600160a01b03808516600090815260016020526040808220858503905591851681529081208054849290611bab908490612b9e565b92505081905550826001600160a01b0316846001600160a01b03167fddf252ad1be2c89b69c2b068fc378daa952ba7f163c4a11628f55a4df523b3ef84604051611bf791815260200190565b60405180910390a36119f68484846123a8565b611c126124b0565b6000805460ff191690557f5db9ee0a495bf2e6ff9c91a7834c1ba4fdd244a5e8aa4e537bd38aeae4b073aa335b6040516001600160a01b03909116815260200160405180910390a1565b6001600160a01b038216611cbc5760405162461bcd60e51b815260206004820152602160248201527f45524332303a206275726e2066726f6d20746865207a65726f206164647265736044820152607360f81b6064820152608401610dac565b611cc8826000836122db565b6001600160a01b03821660009081526001602052604090205481811015611d3c5760405162461bcd60e51b815260206004820152602260248201527f45524332303a206275726e20616d6f756e7420657863656564732062616c616e604482015261636560f01b6064820152608401610dac565b6001600160a01b0383166000908152600160205260408120838303905560038054849290611d6b908490612be7565b90915550506040518281526000906001600160a01b038516907fddf252ad1be2c89b69c2b068fc378daa952ba7f163c4a11628f55a4df523b3ef9060200160405180910390a3611dbd836000846123a8565b505050565b600080546001600160a01b038381166101008181027fffffffffffffffffffffff0000000000000000000000000000000000000000ff851617855560405193049190911692909183917f8be0079c531659141344cd1fd0a4f28419497f9722a3daafe3b4186f6b6457e091a35050565b611e3a612199565b6000805460ff191660011790557f62e78cea01bee320cd4e420270b5ea74000d11b0c9f74754ebdbfc544b05a258611c3f3390565b611e9360405180606001604052806000815260200160008152602001600081525090565b600b541580611ea25750600354155b15611ecc576040518060600160405280600081526020016000815260200160008152509050919050565b6000611ed760065490565b6000818152600f6020908152604080832081516060810183528154815260018083015482860152600290920154818401526001600160a01b0389168552600e90935290832060048101549101549394509092841115612022576001600160a01b0386166000908152600e60205260409020600101545b8481101561202057600f6000611f64836001612b9e565b815260200190815260200160002060010154611f95886001600160a01b031660009081526001602052604090205490565b6000838152600f60208190526040822054620f424092620186a09290611fbc886001612b9e565b815260200190815260200160002060000154611fd89190612be7565b611fe29190612b00565b611fec9190612b1f565b611ff69190612b00565b6120009190612b1f565b915061200c8284612b9e565b92508061201881612bcc565b915050611f4d565b505b60115460408401516120349042612be7565b111561214c576040805160608101808352600a54639358928b60e01b909152915160009282916001600160a01b0390911690639358928b906064808501916020918187030181865afa15801561208e573d6000803e3d6000fd5b505050506040513d601f19601f820116820180604052508101906120b29190612bfe565b81526020016120c060035490565b815260200142815250905080602001516120ef886001600160a01b031660009081526001602052604090205490565b6000878152600f60205260409020548351620f424091620186a0916121149190612be7565b61211e9190612b00565b6121289190612b1f565b6121329190612b00565b61213c9190612b1f565b91506121488284612b9e565b9250505b604080516060810182526001600160a01b0388166000908152600e6020529190912060020154819061217f908590612b9e565b815260200182815260200185815250945050505050919050565b60005460ff16156109cf5760405162461bcd60e51b815260206004820152601060248201527f5061757361626c653a20706175736564000000000000000000000000000000006044820152606401610dac565b6121f4610ba0565b6006546001600160a01b0382166000908152600e6020526040902060010154101561097d57600061222482611e6f565b6020808201516001600160a01b0385166000908152600e909252604091829020600481019190915582516002820155910151600180830191909155815460ff19161790555050565b604080516001600160a01b0385811660248301528416604482015260648082018490528251808303909101815260849091019091526020810180517bffffffffffffffffffffffffffffffffffffffffffffffffffffffff166323b872dd60e01b1790526119f6908590612502565b600b54158015906122f457506001600160a01b03831615155b801561230857506001600160a01b03821615155b15611dbd57612316836121ec565b61231f826121ec565b6001600160a01b0383166000908152600e602052604090206001015415611dbd576001600160a01b0383166000908152600e602052604090205460ff16611dbd5760405162461bcd60e51b815260206004820152601e60248201527f43616e6e6f74207472616e7366657220616674657220657865726369736500006044820152606401610dac565b600b54158015906123c157506001600160a01b03831615155b80156123d557506001600160a01b03821615155b15611dbd576001600160a01b0383166000908152600160205260408120546123fe908390612b9e565b6001600160a01b0385166000908152600e60205260409020600401546124249084612b00565b61242e9190612b1f565b6001600160a01b0385166000908152600e6020526040902060020154909150612458908290612be7565b6001600160a01b038086166000908152600e6020526040808220600290810194909455918616815220015461248e908290612b9e565b6001600160a01b0384166000908152600e602052604090206002015550505050565b60005460ff166109cf5760405162461bcd60e51b815260206004820152601460248201527f5061757361626c653a206e6f74207061757365640000000000000000000000006044820152606401610dac565b6000612557826040518060400160405280602081526020017f5361666545524332303a206c6f772d6c6576656c2063616c6c206661696c6564815250856001600160a01b03166125e79092919063ffffffff16565b805190915015611dbd57808060200190518101906125759190612b7c565b611dbd5760405162461bcd60e51b815260206004820152602a60248201527f5361666545524332303a204552433230206f7065726174696f6e20646964206e60448201527f6f742073756363656564000000000000000000000000000000000000000000006064820152608401610dac565b6060610dfb8484600085856001600160a01b0385163b6126495760405162461bcd60e51b815260206004820152601d60248201527f416464726573733a2063616c6c20746f206e6f6e2d636f6e74726163740000006044820152606401610dac565b600080866001600160a01b031685876040516126659190612c17565b60006040518083038185875af1925050503d80600081146126a2576040519150601f19603f3d011682016040523d82523d6000602084013e6126a7565b606091505b50915091506126b78282866126c2565b979650505050505050565b606083156126d1575081610806565b8251156126e15782518084602001fd5b8160405162461bcd60e51b8152600401610dac9190612768565b6001600160a01b038116811461097d57600080fd5b6000806040838503121561272357600080fd5b823561272e816126fb565b946020939093013593505050565b60005b8381101561275757818101518382015260200161273f565b838111156119f65750506000910152565b602081526000825180602084015261278781604085016020870161273c565b601f01601f19169190910160400192915050565b6000602082840312156127ad57600080fd5b8135610806816126fb565b6000602082840312156127ca57600080fd5b5035919050565b6000806000606084860312156127e657600080fd5b83356127f1816126fb565b92506020840135612801816126fb565b929592945050506040919091013590565b634e487b7160e01b600052604160045260246000fd5b6000806040838503121561283b57600080fd5b8235612846816126fb565b915060208381013567ffffffffffffffff8082111561286457600080fd5b818601915086601f83011261287857600080fd5b81358181111561288a5761288a612812565b8060051b604051601f19603f830116810181811085821117156128af576128af612812565b6040529182528482019250838101850191898311156128cd57600080fd5b938501935b828510156128eb578435845293850193928501926128d2565b8096505050505050509250929050565b6000806040838503121561290e57600080fd5b8235612919816126fb565b91506020830135612929816126fb565b809150509250929050565b6020808252825182820181905260009190848201906040850190845b8181101561296c57835183529284019291840191600101612950565b50909695505050505050565b6000806000806080858703121561298e57600080fd5b8435612999816126fb565b935060208501356129a9816126fb565b925060408501356129b9816126fb565b915060608501356129c9816126fb565b939692955090935050565b634e487b7160e01b600052601160045260246000fd5b600181815b80851115612a25578160001904821115612a0b57612a0b6129d4565b80851615612a1857918102915b93841c93908002906129ef565b509250929050565b600082612a3c575060016108b3565b81612a49575060006108b3565b8160018114612a5f5760028114612a6957612a85565b60019150506108b3565b60ff841115612a7a57612a7a6129d4565b50506001821b6108b3565b5060208310610133831016604e8410600b8410161715612aa8575081810a6108b3565b612ab283836129ea565b8060001904821115612ac657612ac66129d4565b029392505050565b600061080660ff841683612a2d565b600060208284031215612aef57600080fd5b815160ff8116811461080657600080fd5b6000816000190483118215151615612b1a57612b1a6129d4565b500290565b600082612b3c57634e487b7160e01b600052601260045260246000fd5b500490565b600181811c90821680612b5557607f821691505b60208210811415612b7657634e487b7160e01b600052602260045260246000fd5b50919050565b600060208284031215612b8e57600080fd5b8151801515811461080657600080fd5b60008219821115612bb157612bb16129d4565b500190565b634e487b7160e01b600052603260045260246000fd5b6000600019821415612be057612be06129d4565b5060010190565b600082821015612bf957612bf96129d4565b500390565b600060208284031215612c1057600080fd5b5051919050565b60008251612c2981846020870161273c565b919091019291505056fea164736f6c634300080a000a",
  "devdoc": {
    "kind": "dev",
    "methods": {
      "allowance(address,address)": {
        "details": "See {IERC20-allowance}."
      },
      "approve(address,uint256)": {
        "details": "See {IERC20-approve}. NOTE: If `amount` is the maximum `uint256`, the allowance is not updated on `transferFrom`. This is semantically equivalent to an infinite approval. Requirements: - `spender` cannot be the zero address."
      },
      "balanceOf(address)": {
        "details": "See {IERC20-balanceOf}."
      },
      "burn(uint256)": {
        "details": "Destroys `amount` tokens from the caller. See {ERC20-_burn}."
      },
      "burnFrom(address,uint256)": {
        "details": "Destroys `amount` tokens from `account`, deducting from the caller's allowance. See {ERC20-_burn} and {ERC20-allowance}. Requirements: - the caller must have allowance for ``accounts``'s tokens of at least `amount`."
      },
      "claim(address,uint256[])": {
        "params": {
          "_indexes": "the note indexes to claim",
          "_user": "the user to claim for"
        },
        "returns": {
          "amount_": "    sum of amount sent, in HECTA"
        }
      },
      "claimAll(address)": {
        "details": "if possible, query indexesFor() off-chain and input in claim() to save gas",
        "params": {
          "_user": "user to claim all notes for"
        },
        "returns": {
          "_0": "sum of amount sent, in HECTA"
        }
      },
      "decimals()": {
        "details": "Returns the number of decimals used to get its user representation. For example, if `decimals` equals `2`, a balance of `505` tokens should be displayed to a user as `5.05` (`505 / 10 ** 2`). Tokens usually opt for a value of 18, imitating the relationship between Ether and Wei. This is the value {ERC20} uses, unless this function is overridden; NOTE: This information is only used for _display_ purposes: it in no way affects any of the arithmetic of the contract, including {IERC20-balanceOf} and {IERC20-transfer}."
      },
      "decreaseAllowance(address,uint256)": {
        "details": "Atomically decreases the allowance granted to `spender` by the caller. This is an alternative to {approve} that can be used as a mitigation for problems described in {IERC20-approve}. Emits an {Approval} event indicating the updated allowance. Requirements: - `spender` cannot be the zero address. - `spender` must have allowance for the caller of at least `subtractedValue`."
      },
      "increaseAllowance(address,uint256)": {
        "details": "Atomically increases the allowance granted to `spender` by the caller. This is an alternative to {approve} that can be used as a mitigation for problems described in {IERC20-approve}. Emits an {Approval} event indicating the updated allowance. Requirements: - `spender` cannot be the zero address."
      },
      "name()": {
        "details": "Returns the name of the token."
      },
      "owner()": {
        "details": "Returns the address of the current owner."
      },
      "paused()": {
        "details": "Returns true if the contract is paused, and false otherwise."
      },
      "renounceOwnership()": {
        "details": "Leaves the contract without owner. It will not be possible to call `onlyOwner` functions anymore. Can only be called by the current owner. NOTE: Renouncing ownership will leave the contract without an owner, thereby removing any functionality that is only available to the owner."
      },
      "symbol()": {
        "details": "Returns the symbol of the token, usually a shorter version of the name."
      },
      "toTokenAmount(address,uint256)": {
        "params": {
          "amount_": "uint256"
        },
        "returns": {
          "value_": "uint256"
        }
      },
      "totalSupply()": {
        "details": "See {IERC20-totalSupply}."
      },
      "transferFrom(address,address,uint256)": {
        "details": "See {IERC20-transferFrom}. Emits an {Approval} event indicating the updated allowance. This is not required by the EIP. See the note at the beginning of {ERC20}. NOTE: Does not update the allowance if the current allowance is the maximum `uint256`. Requirements: - `from` and `to` cannot be the zero address. - `from` must have a balance of at least `amount`. - the caller must have allowance for ``from``'s tokens of at least `amount`."
      },
      "transferOwnership(address)": {
        "details": "Transfers ownership of the contract to a new account (`newOwner`). Can only be called by the current owner."
      }
    },
    "version": 1
  },
  "userdoc": {
    "events": {
      "Exercise(address,uint256)": {
        "notice": "Event "
      }
    },
    "kind": "user",
    "methods": {
      "RATE_DENOMINATOR()": {
        "notice": "Constant "
      },
      "claim(address,uint256[])": {
        "notice": "claim notes for user"
      },
      "claimAll(address)": {
        "notice": "claim all claimable markets for user"
      },
      "massApprove()": {
        "notice": "mass approval saves gas"
      },
      "spaceCounter()": {
        "notice": "Variables "
      },
      "toTokenAmount(address,uint256)": {
        "notice": "convert pHecta to busd"
      }
    },
    "version": 1
  },
  "storageLayout": {
    "storage": [
      {
        "astId": 298,
        "contract": "contracts/preHecta/pHecta.sol:PHecta",
        "label": "_paused",
        "offset": 0,
        "slot": "0",
        "type": "t_bool"
      },
      {
        "astId": 7,
        "contract": "contracts/preHecta/pHecta.sol:PHecta",
        "label": "_owner",
        "offset": 1,
        "slot": "0",
        "type": "t_address"
      },
      {
        "astId": 404,
        "contract": "contracts/preHecta/pHecta.sol:PHecta",
        "label": "_balances",
        "offset": 0,
        "slot": "1",
        "type": "t_mapping(t_address,t_uint256)"
      },
      {
        "astId": 410,
        "contract": "contracts/preHecta/pHecta.sol:PHecta",
        "label": "_allowances",
        "offset": 0,
        "slot": "2",
        "type": "t_mapping(t_address,t_mapping(t_address,t_uint256))"
      },
      {
        "astId": 412,
        "contract": "contracts/preHecta/pHecta.sol:PHecta",
        "label": "_totalSupply",
        "offset": 0,
        "slot": "3",
        "type": "t_uint256"
      },
      {
        "astId": 414,
        "contract": "contracts/preHecta/pHecta.sol:PHecta",
        "label": "_name",
        "offset": 0,
        "slot": "4",
        "type": "t_string_storage"
      },
      {
        "astId": 416,
        "contract": "contracts/preHecta/pHecta.sol:PHecta",
        "label": "_symbol",
        "offset": 0,
        "slot": "5",
        "type": "t_string_storage"
      },
      {
        "astId": 9331,
        "contract": "contracts/preHecta/pHecta.sol:PHecta",
        "label": "spaceCounter",
        "offset": 0,
        "slot": "6",
        "type": "t_struct(Counter)2507_storage"
      },
      {
        "astId": 9333,
        "contract": "contracts/preHecta/pHecta.sol:PHecta",
        "label": "hectaAddress",
        "offset": 0,
        "slot": "7",
        "type": "t_address"
      },
      {
        "astId": 9335,
        "contract": "contracts/preHecta/pHecta.sol:PHecta",
        "label": "treasuryAddress",
        "offset": 0,
        "slot": "8",
        "type": "t_address"
      },
      {
        "astId": 9337,
        "contract": "contracts/preHecta/pHecta.sol:PHecta",
        "label": "busdAddress",
        "offset": 0,
        "slot": "9",
        "type": "t_address"
      },
      {
        "astId": 9340,
        "contract": "contracts/preHecta/pHecta.sol:PHecta",
        "label": "circulatingHectaContract",
        "offset": 0,
        "slot": "10",
        "type": "t_contract(IHectaCirculatingSupply)8547"
      },
      {
        "astId": 9342,
        "contract": "contracts/preHecta/pHecta.sol:PHecta",
        "label": "startTimestamp",
        "offset": 0,
        "slot": "11",
        "type": "t_uint256"
      },
      {
        "astId": 9344,
        "contract": "contracts/preHecta/pHecta.sol:PHecta",
        "label": "useWhiteList",
        "offset": 0,
        "slot": "12",
        "type": "t_bool"
      },
      {
        "astId": 9348,
        "contract": "contracts/preHecta/pHecta.sol:PHecta",
        "label": "investors",
        "offset": 0,
        "slot": "13",
        "type": "t_mapping(t_address,t_bool)"
      },
      {
        "astId": 9353,
        "contract": "contracts/preHecta/pHecta.sol:PHecta",
        "label": "holders",
        "offset": 0,
        "slot": "14",
        "type": "t_mapping(t_address,t_struct(Holder)9395_storage)"
      },
      {
        "astId": 9358,
        "contract": "contracts/preHecta/pHecta.sol:PHecta",
        "label": "spaces",
        "offset": 0,
        "slot": "15",
        "type": "t_mapping(t_uint256,t_struct(Space)9409_storage)"
      },
      {
        "astId": 9364,
        "contract": "contracts/preHecta/pHecta.sol:PHecta",
        "label": "notes",
        "offset": 0,
        "slot": "16",
        "type": "t_mapping(t_address,t_array(t_struct(Note)9402_storage)dyn_storage)"
      },
      {
        "astId": 9367,
        "contract": "contracts/preHecta/pHecta.sol:PHecta",
        "label": "spaceLength",
        "offset": 0,
        "slot": "17",
        "type": "t_uint256"
      },
      {
        "astId": 9370,
        "contract": "contracts/preHecta/pHecta.sol:PHecta",
        "label": "vestingLength",
        "offset": 0,
        "slot": "18",
        "type": "t_uint256"
      }
    ],
    "types": {
      "t_address": {
        "encoding": "inplace",
        "label": "address",
        "numberOfBytes": "20"
      },
      "t_array(t_struct(Note)9402_storage)dyn_storage": {
        "base": "t_struct(Note)9402_storage",
        "encoding": "dynamic_array",
        "label": "struct PHecta.Note[]",
        "numberOfBytes": "32"
      },
      "t_bool": {
        "encoding": "inplace",
        "label": "bool",
        "numberOfBytes": "1"
      },
      "t_contract(IHectaCirculatingSupply)8547": {
        "encoding": "inplace",
        "label": "contract IHectaCirculatingSupply",
        "numberOfBytes": "20"
      },
      "t_mapping(t_address,t_array(t_struct(Note)9402_storage)dyn_storage)": {
        "encoding": "mapping",
        "key": "t_address",
        "label": "mapping(address => struct PHecta.Note[])",
        "numberOfBytes": "32",
        "value": "t_array(t_struct(Note)9402_storage)dyn_storage"
      },
      "t_mapping(t_address,t_bool)": {
        "encoding": "mapping",
        "key": "t_address",
        "label": "mapping(address => bool)",
        "numberOfBytes": "32",
        "value": "t_bool"
      },
      "t_mapping(t_address,t_mapping(t_address,t_uint256))": {
        "encoding": "mapping",
        "key": "t_address",
        "label": "mapping(address => mapping(address => uint256))",
        "numberOfBytes": "32",
        "value": "t_mapping(t_address,t_uint256)"
      },
      "t_mapping(t_address,t_struct(Holder)9395_storage)": {
        "encoding": "mapping",
        "key": "t_address",
        "label": "mapping(address => struct PHecta.Holder)",
        "numberOfBytes": "32",
        "value": "t_struct(Holder)9395_storage"
      },
      "t_mapping(t_address,t_uint256)": {
        "encoding": "mapping",
        "key": "t_address",
        "label": "mapping(address => uint256)",
        "numberOfBytes": "32",
        "value": "t_uint256"
      },
      "t_mapping(t_uint256,t_struct(Space)9409_storage)": {
        "encoding": "mapping",
        "key": "t_uint256",
        "label": "mapping(uint256 => struct PHecta.Space)",
        "numberOfBytes": "32",
        "value": "t_struct(Space)9409_storage"
      },
      "t_string_storage": {
        "encoding": "bytes",
        "label": "string",
        "numberOfBytes": "32"
      },
      "t_struct(Counter)2507_storage": {
        "encoding": "inplace",
        "label": "struct Counters.Counter",
        "members": [
          {
            "astId": 2506,
            "contract": "contracts/preHecta/pHecta.sol:PHecta",
            "label": "_value",
            "offset": 0,
            "slot": "0",
            "type": "t_uint256"
          }
        ],
        "numberOfBytes": "32"
      },
      "t_struct(Holder)9395_storage": {
        "encoding": "inplace",
        "label": "struct PHecta.Holder",
        "members": [
          {
            "astId": 9386,
            "contract": "contracts/preHecta/pHecta.sol:PHecta",
            "label": "isTransferable",
            "offset": 0,
            "slot": "0",
            "type": "t_bool"
          },
          {
            "astId": 9388,
            "contract": "contracts/preHecta/pHecta.sol:PHecta",
            "label": "lastRebaseSpaceIndex",
            "offset": 0,
            "slot": "1",
            "type": "t_uint256"
          },
          {
            "astId": 9390,
            "contract": "contracts/preHecta/pHecta.sol:PHecta",
            "label": "maxClaim",
            "offset": 0,
            "slot": "2",
            "type": "t_uint256"
          },
          {
            "astId": 9392,
            "contract": "contracts/preHecta/pHecta.sol:PHecta",
            "label": "claimed",
            "offset": 0,
            "slot": "3",
            "type": "t_uint256"
          },
          {
            "astId": 9394,
            "contract": "contracts/preHecta/pHecta.sol:PHecta",
            "label": "currentSpaceProfit",
            "offset": 0,
            "slot": "4",
            "type": "t_uint256"
          }
        ],
        "numberOfBytes": "160"
      },
      "t_struct(Note)9402_storage": {
        "encoding": "inplace",
        "label": "struct PHecta.Note",
        "members": [
          {
            "astId": 9397,
            "contract": "contracts/preHecta/pHecta.sol:PHecta",
            "label": "claimableAt",
            "offset": 0,
            "slot": "0",
            "type": "t_uint256"
          },
          {
            "astId": 9399,
            "contract": "contracts/preHecta/pHecta.sol:PHecta",
            "label": "claimedAt",
            "offset": 0,
            "slot": "1",
            "type": "t_uint256"
          },
          {
            "astId": 9401,
            "contract": "contracts/preHecta/pHecta.sol:PHecta",
            "label": "amount",
            "offset": 0,
            "slot": "2",
            "type": "t_uint256"
          }
        ],
        "numberOfBytes": "96"
      },
      "t_struct(Space)9409_storage": {
        "encoding": "inplace",
        "label": "struct PHecta.Space",
        "members": [
          {
            "astId": 9404,
            "contract": "contracts/preHecta/pHecta.sol:PHecta",
            "label": "totalHecta",
            "offset": 0,
            "slot": "0",
            "type": "t_uint256"
          },
          {
            "astId": 9406,
            "contract": "contracts/preHecta/pHecta.sol:PHecta",
            "label": "totalPHecta",
            "offset": 0,
            "slot": "1",
            "type": "t_uint256"
          },
          {
            "astId": 9408,
            "contract": "contracts/preHecta/pHecta.sol:PHecta",
            "label": "startedTime",
            "offset": 0,
            "slot": "2",
            "type": "t_uint256"
          }
        ],
        "numberOfBytes": "96"
      },
      "t_uint256": {
        "encoding": "inplace",
        "label": "uint256",
        "numberOfBytes": "32"
      }
    }
  }
}