{
  "address": "0x9D9cB55BCe2450E1d10d1ce35D5dbBB6c860Cc0A",
  "abi": [
    {
      "inputs": [],
      "stateMutability": "nonpayable",
      "type": "constructor"
    },
    {
      "anonymous": false,
      "inputs": [
        {
          "indexed": true,
          "internalType": "address",
          "name": "owner",
          "type": "address"
        },
        {
          "indexed": true,
          "internalType": "address",
          "name": "spender",
          "type": "address"
        },
        {
          "indexed": false,
          "internalType": "uint256",
          "name": "value",
          "type": "uint256"
        }
      ],
      "name": "Approval",
      "type": "event"
    },
    {
      "anonymous": false,
      "inputs": [
        {
          "indexed": true,
          "internalType": "address",
          "name": "from",
          "type": "address"
        },
        {
          "indexed": false,
          "internalType": "uint256",
          "name": "amount",
          "type": "uint256"
        }
      ],
      "name": "Exercise",
      "type": "event"
    },
    {
      "anonymous": false,
      "inputs": [
        {
          "indexed": true,
          "internalType": "address",
          "name": "previousOwner",
          "type": "address"
        },
        {
          "indexed": true,
          "internalType": "address",
          "name": "newOwner",
          "type": "address"
        }
      ],
      "name": "OwnershipTransferred",
      "type": "event"
    },
    {
      "anonymous": false,
      "inputs": [
        {
          "indexed": false,
          "internalType": "address",
          "name": "account",
          "type": "address"
        }
      ],
      "name": "Paused",
      "type": "event"
    },
    {
      "anonymous": false,
      "inputs": [
        {
          "indexed": true,
          "internalType": "address",
          "name": "from",
          "type": "address"
        },
        {
          "indexed": true,
          "internalType": "address",
          "name": "to",
          "type": "address"
        },
        {
          "indexed": false,
          "internalType": "uint256",
          "name": "value",
          "type": "uint256"
        }
      ],
      "name": "Transfer",
      "type": "event"
    },
    {
      "anonymous": false,
      "inputs": [
        {
          "indexed": false,
          "internalType": "address",
          "name": "account",
          "type": "address"
        }
      ],
      "name": "Unpaused",
      "type": "event"
    },
    {
      "inputs": [],
      "name": "RATE_DENOMINATOR",
      "outputs": [
        {
          "internalType": "uint256",
          "name": "",
          "type": "uint256"
        }
      ],
      "stateMutability": "view",
      "type": "function"
    },
    {
      "inputs": [],
      "name": "RATE_NUMERATOR",
      "outputs": [
        {
          "internalType": "uint256",
          "name": "",
          "type": "uint256"
        }
      ],
      "stateMutability": "view",
      "type": "function"
    },
    {
      "inputs": [
        {
          "internalType": "address",
          "name": "owner",
          "type": "address"
        },
        {
          "internalType": "address",
          "name": "spender",
          "type": "address"
        }
      ],
      "name": "allowance",
      "outputs": [
        {
          "internalType": "uint256",
          "name": "",
          "type": "uint256"
        }
      ],
      "stateMutability": "view",
      "type": "function"
    },
    {
      "inputs": [
        {
          "internalType": "address",
          "name": "spender",
          "type": "address"
        },
        {
          "internalType": "uint256",
          "name": "amount",
          "type": "uint256"
        }
      ],
      "name": "approve",
      "outputs": [
        {
          "internalType": "bool",
          "name": "",
          "type": "bool"
        }
      ],
      "stateMutability": "nonpayable",
      "type": "function"
    },
    {
      "inputs": [
        {
          "internalType": "address",
          "name": "account",
          "type": "address"
        }
      ],
      "name": "balanceOf",
      "outputs": [
        {
          "internalType": "uint256",
          "name": "",
          "type": "uint256"
        }
      ],
      "stateMutability": "view",
      "type": "function"
    },
    {
      "inputs": [],
      "name": "beat",
      "outputs": [],
      "stateMutability": "nonpayable",
      "type": "function"
    },
    {
      "inputs": [
        {
          "internalType": "uint256",
          "name": "amount",
          "type": "uint256"
        }
      ],
      "name": "burn",
      "outputs": [],
      "stateMutability": "nonpayable",
      "type": "function"
    },
    {
      "inputs": [
        {
          "internalType": "address",
          "name": "account",
          "type": "address"
        },
        {
          "internalType": "uint256",
          "name": "amount",
          "type": "uint256"
        }
      ],
      "name": "burnFrom",
      "outputs": [],
      "stateMutability": "nonpayable",
      "type": "function"
    },
    {
      "inputs": [],
      "name": "busdAddress",
      "outputs": [
        {
          "internalType": "address",
          "name": "",
          "type": "address"
        }
      ],
      "stateMutability": "view",
      "type": "function"
    },
    {
      "inputs": [],
      "name": "decimals",
      "outputs": [
        {
          "internalType": "uint8",
          "name": "",
          "type": "uint8"
        }
      ],
      "stateMutability": "view",
      "type": "function"
    },
    {
      "inputs": [
        {
          "internalType": "address",
          "name": "spender",
          "type": "address"
        },
        {
          "internalType": "uint256",
          "name": "subtractedValue",
          "type": "uint256"
        }
      ],
      "name": "decreaseAllowance",
      "outputs": [
        {
          "internalType": "bool",
          "name": "",
          "type": "bool"
        }
      ],
      "stateMutability": "nonpayable",
      "type": "function"
    },
    {
      "inputs": [],
      "name": "disableWhiteList",
      "outputs": [],
      "stateMutability": "nonpayable",
      "type": "function"
    },
    {
      "inputs": [],
      "name": "enableWhiteList",
      "outputs": [],
      "stateMutability": "nonpayable",
      "type": "function"
    },
    {
      "inputs": [
        {
          "internalType": "uint256",
          "name": "amount_",
          "type": "uint256"
        }
      ],
      "name": "exercise",
      "outputs": [],
      "stateMutability": "nonpayable",
      "type": "function"
    },
    {
      "inputs": [
        {
          "internalType": "address",
          "name": "addr",
          "type": "address"
        }
      ],
      "name": "getClaimable",
      "outputs": [
        {
          "internalType": "uint256",
          "name": "",
          "type": "uint256"
        }
      ],
      "stateMutability": "view",
      "type": "function"
    },
    {
      "inputs": [],
      "name": "hectaAddress",
      "outputs": [
        {
          "internalType": "address",
          "name": "",
          "type": "address"
        }
      ],
      "stateMutability": "view",
      "type": "function"
    },
    {
      "inputs": [
        {
          "internalType": "address",
          "name": "",
          "type": "address"
        }
      ],
      "name": "holders",
      "outputs": [
        {
          "internalType": "bool",
          "name": "isTransferable",
          "type": "bool"
        },
        {
          "internalType": "uint256",
          "name": "lastRebaseSpaceIndex",
          "type": "uint256"
        },
        {
          "internalType": "uint256",
          "name": "maxClaim",
          "type": "uint256"
        },
        {
          "internalType": "uint256",
          "name": "claimed",
          "type": "uint256"
        },
        {
          "internalType": "uint256",
          "name": "currentSpaceProfit",
          "type": "uint256"
        }
      ],
      "stateMutability": "view",
      "type": "function"
    },
    {
      "inputs": [
        {
          "internalType": "address",
          "name": "spender",
          "type": "address"
        },
        {
          "internalType": "uint256",
          "name": "addedValue",
          "type": "uint256"
        }
      ],
      "name": "increaseAllowance",
      "outputs": [
        {
          "internalType": "bool",
          "name": "",
          "type": "bool"
        }
      ],
      "stateMutability": "nonpayable",
      "type": "function"
    },
    {
      "inputs": [
        {
          "internalType": "address",
          "name": "hectaAddress_",
          "type": "address"
        },
        {
          "internalType": "address",
          "name": "treasuryAddress_",
          "type": "address"
        },
        {
          "internalType": "address",
          "name": "busdAddress_",
          "type": "address"
        }
      ],
      "name": "initialize",
      "outputs": [],
      "stateMutability": "nonpayable",
      "type": "function"
    },
    {
      "inputs": [
        {
          "internalType": "address",
          "name": "",
          "type": "address"
        }
      ],
      "name": "investors",
      "outputs": [
        {
          "internalType": "bool",
          "name": "",
          "type": "bool"
        }
      ],
      "stateMutability": "view",
      "type": "function"
    },
    {
      "inputs": [],
      "name": "massApprove",
      "outputs": [],
      "stateMutability": "nonpayable",
      "type": "function"
    },
    {
      "inputs": [],
      "name": "name",
      "outputs": [
        {
          "internalType": "string",
          "name": "",
          "type": "string"
        }
      ],
      "stateMutability": "view",
      "type": "function"
    },
    {
      "inputs": [],
      "name": "owner",
      "outputs": [
        {
          "internalType": "address",
          "name": "",
          "type": "address"
        }
      ],
      "stateMutability": "view",
      "type": "function"
    },
    {
      "inputs": [],
      "name": "pause",
      "outputs": [],
      "stateMutability": "nonpayable",
      "type": "function"
    },
    {
      "inputs": [],
      "name": "paused",
      "outputs": [
        {
          "internalType": "bool",
          "name": "",
          "type": "bool"
        }
      ],
      "stateMutability": "view",
      "type": "function"
    },
    {
      "inputs": [],
      "name": "renounceOwnership",
      "outputs": [],
      "stateMutability": "nonpayable",
      "type": "function"
    },
    {
      "inputs": [
        {
          "internalType": "uint256",
          "name": "spaceLength_",
          "type": "uint256"
        }
      ],
      "name": "setSpaceLength",
      "outputs": [],
      "stateMutability": "nonpayable",
      "type": "function"
    },
    {
      "inputs": [],
      "name": "spaceCounter",
      "outputs": [
        {
          "internalType": "uint256",
          "name": "_value",
          "type": "uint256"
        }
      ],
      "stateMutability": "view",
      "type": "function"
    },
    {
      "inputs": [],
      "name": "spaceLength",
      "outputs": [
        {
          "internalType": "uint256",
          "name": "",
          "type": "uint256"
        }
      ],
      "stateMutability": "view",
      "type": "function"
    },
    {
      "inputs": [
        {
          "internalType": "uint256",
          "name": "",
          "type": "uint256"
        }
      ],
      "name": "spaces",
      "outputs": [
        {
          "internalType": "uint256",
          "name": "totalHecta",
          "type": "uint256"
        },
        {
          "internalType": "uint256",
          "name": "totalPHecta",
          "type": "uint256"
        },
        {
          "internalType": "uint256",
          "name": "startedTime",
          "type": "uint256"
        }
      ],
      "stateMutability": "view",
      "type": "function"
    },
    {
      "inputs": [],
      "name": "start",
      "outputs": [],
      "stateMutability": "nonpayable",
      "type": "function"
    },
    {
      "inputs": [],
      "name": "startTimestamp",
      "outputs": [
        {
          "internalType": "uint256",
          "name": "",
          "type": "uint256"
        }
      ],
      "stateMutability": "view",
      "type": "function"
    },
    {
      "inputs": [],
      "name": "symbol",
      "outputs": [
        {
          "internalType": "string",
          "name": "",
          "type": "string"
        }
      ],
      "stateMutability": "view",
      "type": "function"
    },
    {
      "inputs": [
        {
          "internalType": "address",
          "name": "token",
          "type": "address"
        },
        {
          "internalType": "uint256",
          "name": "amount_",
          "type": "uint256"
        }
      ],
      "name": "toTokenAmount",
      "outputs": [
        {
          "internalType": "uint256",
          "name": "value_",
          "type": "uint256"
        }
      ],
      "stateMutability": "view",
      "type": "function"
    },
    {
      "inputs": [
        {
          "internalType": "address",
          "name": "investor",
          "type": "address"
        }
      ],
      "name": "toggleInvestor",
      "outputs": [],
      "stateMutability": "nonpayable",
      "type": "function"
    },
    {
      "inputs": [],
      "name": "totalSupply",
      "outputs": [
        {
          "internalType": "uint256",
          "name": "",
          "type": "uint256"
        }
      ],
      "stateMutability": "view",
      "type": "function"
    },
    {
      "inputs": [
        {
          "internalType": "address",
          "name": "recipient",
          "type": "address"
        },
        {
          "internalType": "uint256",
          "name": "amount",
          "type": "uint256"
        }
      ],
      "name": "transfer",
      "outputs": [
        {
          "internalType": "bool",
          "name": "",
          "type": "bool"
        }
      ],
      "stateMutability": "nonpayable",
      "type": "function"
    },
    {
      "inputs": [
        {
          "internalType": "address",
          "name": "sender",
          "type": "address"
        },
        {
          "internalType": "address",
          "name": "recipient",
          "type": "address"
        },
        {
          "internalType": "uint256",
          "name": "amount",
          "type": "uint256"
        }
      ],
      "name": "transferFrom",
      "outputs": [
        {
          "internalType": "bool",
          "name": "",
          "type": "bool"
        }
      ],
      "stateMutability": "nonpayable",
      "type": "function"
    },
    {
      "inputs": [
        {
          "internalType": "address",
          "name": "newOwner",
          "type": "address"
        }
      ],
      "name": "transferOwnership",
      "outputs": [],
      "stateMutability": "nonpayable",
      "type": "function"
    },
    {
      "inputs": [],
      "name": "treasuryAddress",
      "outputs": [
        {
          "internalType": "address",
          "name": "",
          "type": "address"
        }
      ],
      "stateMutability": "view",
      "type": "function"
    },
    {
      "inputs": [],
      "name": "unpause",
      "outputs": [],
      "stateMutability": "nonpayable",
      "type": "function"
    },
    {
      "inputs": [],
      "name": "useWhiteList",
      "outputs": [
        {
          "internalType": "bool",
          "name": "",
          "type": "bool"
        }
      ],
      "stateMutability": "view",
      "type": "function"
    }
  ],
  "transactionHash": "0xde983f4d671e56c1e0508d45b1d713f073413b77eb6a255bdb5ef1eda3b20078",
  "args": [],
  "solcInputHash": "4870e25cb77f243915d1f400f87ce4b6",
  "bytecode": "0x608060405262093a80600f553480156200001857600080fd5b50604080518082018252601081526f283934bb30ba32902432b1ba30b3b7b760811b6020808301919091528251808401909352600683526570486563746160d01b908301526000805460ff19169055906200007333620000c0565b815162000088906004906020850190620009a9565b5080516200009e906005906020840190620009a9565b505050620000ba3366b1a2bc2ec500006200011960201b60201c565b62000b54565b600080546001600160a01b03838116610100818102610100600160a81b0319851617855560405193049190911692909183917f8be0079c531659141344cd1fd0a4f28419497f9722a3daafe3b4186f6b6457e091a35050565b6001600160a01b038216620001755760405162461bcd60e51b815260206004820152601f60248201527f45524332303a206d696e7420746f20746865207a65726f20616464726573730060448201526064015b60405180910390fd5b62000183600083836200021e565b806003600082825462000197919062000a65565b90915550506001600160a01b03821660009081526001602052604081208054839290620001c690849062000a65565b90915550506040518181526001600160a01b038316906000907fddf252ad1be2c89b69c2b068fc378daa952ba7f163c4a11628f55a4df523b3ef9060200160405180910390a36200021a60008383620002fa565b5050565b600a54158015906200023857506001600160a01b03831615155b80156200024d57506001600160a01b03821615155b15620002f5576200025e836200040f565b62000269826200040f565b6001600160a01b0383166000908152600d602052604090206001015415620002f5576001600160a01b0383166000908152600d602052604090205460ff16620002f55760405162461bcd60e51b815260206004820152601e60248201527f43616e6e6f74207472616e73666572206166746572206578657263697365000060448201526064016200016c565b505050565b600a54158015906200031457506001600160a01b03831615155b80156200032957506001600160a01b03821615155b15620002f5576001600160a01b0383166000908152600160205260408120546200035590839062000a65565b6001600160a01b0385166000908152600d60205260409020600401546200037d908462000a80565b62000389919062000aa2565b6001600160a01b0385166000908152600d6020526040902060020154909150620003b590829062000ac5565b6001600160a01b038086166000908152600d60205260408082206002908101949094559186168152200154620003ed90829062000a65565b6001600160a01b0384166000908152600d602052604090206002015550505050565b62000419620004c4565b6200043060066200064560201b620016ed1760201c565b6001600160a01b0382166000908152600d60205260409020600101541015620004a6576000620004608262000649565b6020808201516001600160a01b0385166000908152600d909252604091829020600481019190915582516002820155910151600180830191909155815460ff1916179055505b50565b6001600160a01b031660009081526001602052604090205490565b6000600e6000620004e160066200064560201b620016ed1760201c565b8152602001908152602001600020604051806060016040529081600082015481526020016001820154815260200160028201548152505090506000600a541180156200053e5750600f5460408201516200053c904262000ac5565b115b15620004a6576200055b6006620009a060201b620016f11760201c565b6040518060600160405280600760009054906101000a90046001600160a01b03166001600160a01b03166318160ddd6040518163ffffffff1660e01b8152600401602060405180830381865afa158015620005ba573d6000803e3d6000fd5b505050506040513d601f19601f82011682018060405250810190620005e0919062000adf565b8152602001620005ef60035490565b815260200142815250600e60006200061360066200064560201b620016ed1760201c565b815260200190815260200160002060008201518160000155602082015181600101556040820151816002015590505050565b5490565b6200066e60405180606001604052806000815260200160008152602001600081525090565b600a5415806200067e5750600354155b15620006a9576040518060600160405280600081526020016000815260200160008152509050919050565b6000620006c260066200064560201b620016ed1760201c565b6000818152600e6020908152604080832081516060810183528154815260018083015482860152600290920154818401526001600160a01b0389168552600d9093529083206004810154910154939450909284111562000814576001600160a01b0386166000908152600d60205260409020600101545b848110156200081257600e60006200075383600162000a65565b8152602001908152602001600020600101546200077688620004a960201b60201c565b6000838152600e60208190526040822054620f424092620186a092906200079f88600162000a65565b815260200190815260200160002060000154620007bd919062000ac5565b620007c9919062000a80565b620007d5919062000aa2565b620007e1919062000a80565b620007ed919062000aa2565b9150620007fb828462000a65565b925080620008098162000af9565b91505062000739565b505b600f54604084015162000828904262000ac5565b1115620009515760408051606081018083526007546318160ddd60e01b909152915160009282916001600160a01b03909116906318160ddd906064808501916020918187030181865afa15801562000884573d6000803e3d6000fd5b505050506040513d601f19601f82011682018060405250810190620008aa919062000adf565b8152602001620008b960035490565b815242602091820152810151909150620008e8886001600160a01b031660009081526001602052604090205490565b6000878152600e60205260409020548351620f424091620186a0916200090f919062000ac5565b6200091b919062000a80565b62000927919062000aa2565b62000933919062000a80565b6200093f919062000aa2565b91506200094d828462000a65565b9250505b604080516060810182526001600160a01b0388166000908152600d602052919091206002015481906200098690859062000a65565b815260200182815260200185815250945050505050919050565b80546001019055565b828054620009b79062000b17565b90600052602060002090601f016020900481019282620009db576000855562000a26565b82601f10620009f657805160ff191683800117855562000a26565b8280016001018555821562000a26579182015b8281111562000a2657825182559160200191906001019062000a09565b5062000a3492915062000a38565b5090565b5b8082111562000a34576000815560010162000a39565b634e487b7160e01b600052601160045260246000fd5b6000821982111562000a7b5762000a7b62000a4f565b500190565b600081600019048311821515161562000a9d5762000a9d62000a4f565b500290565b60008262000ac057634e487b7160e01b600052601260045260246000fd5b500490565b60008282101562000ada5762000ada62000a4f565b500390565b60006020828403121562000af257600080fd5b5051919050565b600060001982141562000b105762000b1062000a4f565b5060010190565b600181811c9082168062000b2c57607f821691505b6020821081141562000b4e57634e487b7160e01b600052602260045260246000fd5b50919050565b6128f38062000b646000396000f3fe608060405234801561001057600080fd5b50600436106102de5760003560e01c806379cc679011610186578063a9e10749116100e3578063d99f867411610097578063e6fd48bc11610071578063e6fd48bc14610649578063ec8f033614610652578063f2fde38b1461065c57600080fd5b8063d99f8674146105fb578063dcd8361614610608578063dd62ed3e1461061057600080fd5b8063be9a6555116100c8578063be9a6555146105cd578063c0c53b8b146105d5578063c5f956af146105e857600080fd5b8063a9e10749146105b1578063b07f0a41146105ba57600080fd5b80638da5cb5b1161013a578063a457c2d71161011f578063a457c2d714610578578063a583024b1461058b578063a9059cbb1461059e57600080fd5b80638da5cb5b1461055a57806395d89b411461057057600080fd5b80637d0273d01161016b5780637d0273d01461053e5780637efad8e0146105485780638456cb591461055257600080fd5b806379cc6790146105235780637a259dba1461053657600080fd5b80633f4ba83a1161023f5780636f7bc9be116101f35780637586353b116101cd5780637586353b1461049b57806376a90231146104e5578063795ab83e1461051057600080fd5b80636f7bc9be1461044757806370a082311461046a578063715018a61461049357600080fd5b806342966c681161022457806342966c6814610421578063539b2ba4146104345780635c975abb1461043c57600080fd5b80633f4ba83a14610406578063418c85261461040e57600080fd5b80631c837c3e11610296578063313ce5671161027b578063313ce567146103dc57806338203509146103eb57806339509351146103f357600080fd5b80631c837c3e146103b457806323b872dd146103c957600080fd5b8063095ea7b3116102c7578063095ea7b31461031e57806318160ddd1461034157806318a5bbdc1461034957600080fd5b8063015c1c7a146102e357806306fdde0314610309575b600080fd5b6102f66102f136600461250e565b61066f565b6040519081526020015b60405180910390f35b610311610705565b6040516103009190612564565b61033161032c36600461250e565b610797565b6040519015158152602001610300565b6003546102f6565b61038a610357366004612597565b600d602052600090815260409020805460018201546002830154600384015460049094015460ff90931693919290919085565b6040805195151586526020860194909452928401919091526060830152608082015260a001610300565b6103c76103c23660046125b2565b6107ae565b005b6103316103d73660046125cb565b610806565b60405160098152602001610300565b6103c76108c5565b61033161040136600461250e565b61094e565b6103c761098a565b6103c761041c366004612597565b6109e2565b6103c761042f3660046125b2565b610a59565b6103c7610a63565b60005460ff16610331565b610331610455366004612597565b600c6020526000908152604090205460ff1681565b6102f6610478366004612597565b6001600160a01b031660009081526001602052604090205490565b6103c7610ac0565b6104ca6104a93660046125b2565b600e6020526000908152604090208054600182015460029092015490919083565b60408051938452602084019290925290820152606001610300565b6009546104f8906001600160a01b031681565b6040516001600160a01b039091168152602001610300565b6007546104f8906001600160a01b031681565b6103c761053136600461250e565b610b18565b6103c7610b9e565b6102f6620186a081565b6102f6620f424081565b6103c7610cf2565b60005461010090046001600160a01b03166104f8565b610311610d48565b61033161058636600461250e565b610d57565b6102f6610599366004612597565b610e08565b6103316105ac36600461250e565b610e49565b6102f6600f5481565b6103c76105c83660046125b2565b610e9b565b6103c761139c565b6103c76105e3366004612607565b6114a1565b6008546104f8906001600160a01b031681565b600b546103319060ff1681565b6103c76115c0565b6102f661061e36600461264a565b6001600160a01b03918216600090815260026020908152604080832093909416825291909152205490565b6102f6600a5481565b6006546102f69081565b6103c761066a366004612597565b61161a565b600061067d6009600a612777565b836001600160a01b031663313ce5676040518163ffffffff1660e01b8152600401602060405180830381865afa1580156106bb573d6000803e3d6000fd5b505050506040513d601f19601f820116820180604052508101906106df9190612786565b6106ea90600a612777565b6106f490846127a9565b6106fe91906127c8565b9392505050565b606060048054610714906127ea565b80601f0160208091040260200160405190810160405280929190818152602001828054610740906127ea565b801561078d5780601f106107625761010080835404028352916020019161078d565b820191906000526020600020905b81548152906001019060200180831161077057829003601f168201915b5050505050905090565b60006107a43384846116fa565b5060015b92915050565b6000546001600160a01b036101009091041633146108015760405162461bcd60e51b815260206004820181905260248201526000805160206128c783398151915260448201526064015b60405180910390fd5b600f55565b600061081384848461181e565b6001600160a01b0384166000908152600260209081526040808320338452909152902054828110156108ad5760405162461bcd60e51b815260206004820152602860248201527f45524332303a207472616e7366657220616d6f756e742065786365656473206160448201527f6c6c6f77616e636500000000000000000000000000000000000000000000000060648201526084016107f8565b6108ba85338584036116fa565b506001949350505050565b60095460085460405163095ea7b360e01b81526001600160a01b0391821660048201526d314dc6448d9338c15b0a00000000602482015291169063095ea7b3906044016020604051808303816000875af1158015610927573d6000803e3d6000fd5b505050506040513d601f19601f8201168201806040525081019061094b9190612825565b50565b3360008181526002602090815260408083206001600160a01b038716845290915281205490916107a4918590610985908690612847565b6116fa565b6000546001600160a01b036101009091041633146109d85760405162461bcd60e51b815260206004820181905260248201526000805160206128c783398151915260448201526064016107f8565b6109e0611a2c565b565b6000546001600160a01b03610100909104163314610a305760405162461bcd60e51b815260206004820181905260248201526000805160206128c783398151915260448201526064016107f8565b6001600160a01b03166000908152600c60205260409020805460ff19811660ff90911615179055565b61094b3382611ac8565b6000546001600160a01b03610100909104163314610ab15760405162461bcd60e51b815260206004820181905260248201526000805160206128c783398151915260448201526064016107f8565b600b805460ff19166001179055565b6000546001600160a01b03610100909104163314610b0e5760405162461bcd60e51b815260206004820181905260248201526000805160206128c783398151915260448201526064016107f8565b6109e06000611c29565b6000610b24833361061e565b905081811015610b825760405162461bcd60e51b8152602060048201526024808201527f45524332303a206275726e20616d6f756e74206578636565647320616c6c6f77604482015263616e636560e01b60648201526084016107f8565b610b8f83338484036116fa565b610b998383611ac8565b505050565b6000600e6000610bad60065490565b8152602001908152602001600020604051806060016040529081600082015481526020016001820154815260200160028201548152505090506000600a54118015610c075750600f546040820151610c05904261285f565b115b1561094b57610c1a600680546001019055565b6040518060600160405280600760009054906101000a90046001600160a01b03166001600160a01b03166318160ddd6040518163ffffffff1660e01b8152600401602060405180830381865afa158015610c78573d6000803e3d6000fd5b505050506040513d601f19601f82011682018060405250810190610c9c9190612876565b8152602001610caa60035490565b815260200142815250600e6000610cc060065490565b815260200190815260200160002060008201518160000155602082015181600101556040820151816002015590505050565b6000546001600160a01b03610100909104163314610d405760405162461bcd60e51b815260206004820181905260248201526000805160206128c783398151915260448201526064016107f8565b6109e0611c99565b606060058054610714906127ea565b3360009081526002602090815260408083206001600160a01b038616845290915281205482811015610df15760405162461bcd60e51b815260206004820152602560248201527f45524332303a2064656372656173656420616c6c6f77616e63652062656c6f7760448201527f207a65726f00000000000000000000000000000000000000000000000000000060648201526084016107f8565b610dfe33858584036116fa565b5060019392505050565b600080610e1483611d14565b6001600160a01b0384166000908152600d602052604081206003015482519293509091610e41919061285f565b949350505050565b6000805460ff1615610e905760405162461bcd60e51b815260206004820152601060248201526f14185d5cd8589b194e881c185d5cd95960821b60448201526064016107f8565b6107a433848461181e565b6000600a5411610eed5760405162461bcd60e51b815260206004820152601a60248201527f57616974696e6720666f72206f776e657220746f20737461727400000000000060448201526064016107f8565b600b5460ff16151560011415610f8757336000908152600c602052604090205460ff161515600114610f875760405162461bcd60e51b815260206004820152603160248201527f496e766573746f72206d7573742062652077686974656c697374656420746f2060448201527f75736520746869732066756e6374696f6e00000000000000000000000000000060648201526084016107f8565b60005460ff1615610fcd5760405162461bcd60e51b815260206004820152601060248201526f14185d5cd8589b194e881c185d5cd95960821b60448201526064016107f8565b610fd63361203e565b600954600090610fef906001600160a01b03168361066f565b336000908152600d6020526040902060038101546002909101549192508391611018919061285f565b10156110665760405162461bcd60e51b815260206004820152601e60248201527f436c61696d206d6f7265207468616e206d6178696d756d20616d6f756e74000060448201526064016107f8565b600954604051636eb1769f60e11b815233600482015230602482015282916001600160a01b03169063dd62ed3e90604401602060405180830381865afa1580156110b4573d6000803e3d6000fd5b505050506040513d601f19601f820116820180604052508101906110d89190612876565b101561114c5760405162461bcd60e51b815260206004820152603e60248201527f4d75737420617070726f7665207468697320636f6e747261637420746f20737060448201527f656e64206d6f7265207468616e2077697468647261776c20616d6f756e74000060648201526084016107f8565b6009546040516370a0823160e01b815233600482015283916001600160a01b0316906370a0823190602401602060405180830381865afa158015611194573d6000803e3d6000fd5b505050506040513d601f19601f820116820180604052508101906111b89190612876565b10156112065760405162461bcd60e51b815260206004820152601a60248201527f425553442062616c616e6365206973206e6f7420656e6f75676800000000000060448201526064016107f8565b336000818152600d60205260409020805460ff191690556112279083611ac8565b336000908152600d602052604081206003018054849290611249908490612847565b9091555050600954611266906001600160a01b03163330846120be565b60085460095460405163bc157ac160e01b8152600481018490526001600160a01b03918216602482015260006044820181905292919091169063bc157ac1906064016020604051808303816000875af11580156112c7573d6000803e3d6000fd5b505050506040513d601f19601f820116820180604052508101906112eb9190612876565b60075460405163a9059cbb60e01b8152336004820152602481018390529192506001600160a01b03169063a9059cbb906044016020604051808303816000875af115801561133d573d6000803e3d6000fd5b505050506040513d601f19601f820116820180604052508101906113619190612825565b5060405183815233907f5a20425ee28c08dfaf53c051ce9fb1fdfedad2949379924d3313a74c2c61a2a59060200160405180910390a2505050565b6000546001600160a01b036101009091041633146113ea5760405162461bcd60e51b815260206004820181905260248201526000805160206128c783398151915260448201526064016107f8565b600a541561143a5760405162461bcd60e51b815260206004820152601060248201527f416c72656164792073746172746564210000000000000000000000000000000060448201526064016107f8565b42600a556040805160608101909152600081526020810161145a60035490565b815260200142815250600e600061147060065490565b8152602001908152602001600020600082015181600001556020820151816001015560408201518160020155905050565b6000546001600160a01b036101009091041633146114ef5760405162461bcd60e51b815260206004820181905260248201526000805160206128c783398151915260448201526064016107f8565b600780546001600160a01b038581167fffffffffffffffffffffffff0000000000000000000000000000000000000000928316179092556008805485841690831681179091556009805493851693909216831790915560405163095ea7b360e01b815260048101919091526d314dc6448d9338c15b0a00000000602482015263095ea7b3906044016020604051808303816000875af1158015611596573d6000803e3d6000fd5b505050506040513d601f19601f820116820180604052508101906115ba9190612825565b50505050565b6000546001600160a01b0361010090910416331461160e5760405162461bcd60e51b815260206004820181905260248201526000805160206128c783398151915260448201526064016107f8565b600b805460ff19169055565b6000546001600160a01b036101009091041633146116685760405162461bcd60e51b815260206004820181905260248201526000805160206128c783398151915260448201526064016107f8565b6001600160a01b0381166116e45760405162461bcd60e51b815260206004820152602660248201527f4f776e61626c653a206e6577206f776e657220697320746865207a65726f206160448201527f646472657373000000000000000000000000000000000000000000000000000060648201526084016107f8565b61094b81611c29565b5490565b80546001019055565b6001600160a01b03831661175c5760405162461bcd60e51b8152602060048201526024808201527f45524332303a20617070726f76652066726f6d20746865207a65726f206164646044820152637265737360e01b60648201526084016107f8565b6001600160a01b0382166117bd5760405162461bcd60e51b815260206004820152602260248201527f45524332303a20617070726f766520746f20746865207a65726f206164647265604482015261737360f01b60648201526084016107f8565b6001600160a01b0383811660008181526002602090815260408083209487168084529482529182902085905590518481527f8c5be1e5ebec7d5bd14f71427d1e84f3dd0314c0f7b2291e5b200ac8c7c3b925910160405180910390a3505050565b6001600160a01b03831661189a5760405162461bcd60e51b815260206004820152602560248201527f45524332303a207472616e736665722066726f6d20746865207a65726f20616460448201527f647265737300000000000000000000000000000000000000000000000000000060648201526084016107f8565b6001600160a01b0382166118fc5760405162461bcd60e51b815260206004820152602360248201527f45524332303a207472616e7366657220746f20746865207a65726f206164647260448201526265737360e81b60648201526084016107f8565b61190783838361212d565b6001600160a01b038316600090815260016020526040902054818110156119965760405162461bcd60e51b815260206004820152602660248201527f45524332303a207472616e7366657220616d6f756e742065786365656473206260448201527f616c616e6365000000000000000000000000000000000000000000000000000060648201526084016107f8565b6001600160a01b038085166000908152600160205260408082208585039055918516815290812080548492906119cd908490612847565b92505081905550826001600160a01b0316846001600160a01b03167fddf252ad1be2c89b69c2b068fc378daa952ba7f163c4a11628f55a4df523b3ef84604051611a1991815260200190565b60405180910390a36115ba8484846121fa565b60005460ff16611a7e5760405162461bcd60e51b815260206004820152601460248201527f5061757361626c653a206e6f742070617573656400000000000000000000000060448201526064016107f8565b6000805460ff191690557f5db9ee0a495bf2e6ff9c91a7834c1ba4fdd244a5e8aa4e537bd38aeae4b073aa335b6040516001600160a01b03909116815260200160405180910390a1565b6001600160a01b038216611b285760405162461bcd60e51b815260206004820152602160248201527f45524332303a206275726e2066726f6d20746865207a65726f206164647265736044820152607360f81b60648201526084016107f8565b611b348260008361212d565b6001600160a01b03821660009081526001602052604090205481811015611ba85760405162461bcd60e51b815260206004820152602260248201527f45524332303a206275726e20616d6f756e7420657863656564732062616c616e604482015261636560f01b60648201526084016107f8565b6001600160a01b0383166000908152600160205260408120838303905560038054849290611bd790849061285f565b90915550506040518281526000906001600160a01b038516907fddf252ad1be2c89b69c2b068fc378daa952ba7f163c4a11628f55a4df523b3ef9060200160405180910390a3610b99836000846121fa565b600080546001600160a01b038381166101008181027fffffffffffffffffffffff0000000000000000000000000000000000000000ff851617855560405193049190911692909183917f8be0079c531659141344cd1fd0a4f28419497f9722a3daafe3b4186f6b6457e091a35050565b60005460ff1615611cdf5760405162461bcd60e51b815260206004820152601060248201526f14185d5cd8589b194e881c185d5cd95960821b60448201526064016107f8565b6000805460ff191660011790557f62e78cea01bee320cd4e420270b5ea74000d11b0c9f74754ebdbfc544b05a258611aab3390565b611d3860405180606001604052806000815260200160008152602001600081525090565b600a541580611d475750600354155b15611d71576040518060600160405280600081526020016000815260200160008152509050919050565b6000611d7c60065490565b6000818152600e6020908152604080832081516060810183528154815260018083015482860152600290920154818401526001600160a01b0389168552600d90935290832060048101549101549394509092841115611ec7576001600160a01b0386166000908152600d60205260409020600101545b84811015611ec557600e6000611e09836001612847565b815260200190815260200160002060010154611e3a886001600160a01b031660009081526001602052604090205490565b6000838152600e60208190526040822054620f424092620186a09290611e61886001612847565b815260200190815260200160002060000154611e7d919061285f565b611e8791906127a9565b611e9191906127c8565b611e9b91906127a9565b611ea591906127c8565b9150611eb18284612847565b925080611ebd8161288f565b915050611df2565b505b600f546040840151611ed9904261285f565b1115611ff15760408051606081018083526007546318160ddd60e01b909152915160009282916001600160a01b03909116906318160ddd906064808501916020918187030181865afa158015611f33573d6000803e3d6000fd5b505050506040513d601f19601f82011682018060405250810190611f579190612876565b8152602001611f6560035490565b81526020014281525090508060200151611f94886001600160a01b031660009081526001602052604090205490565b6000878152600e60205260409020548351620f424091620186a091611fb9919061285f565b611fc391906127a9565b611fcd91906127c8565b611fd791906127a9565b611fe191906127c8565b9150611fed8284612847565b9250505b604080516060810182526001600160a01b0388166000908152600d60205291909120600201548190612024908590612847565b815260200182815260200185815250945050505050919050565b612046610b9e565b6006546001600160a01b0382166000908152600d6020526040902060010154101561094b57600061207682611d14565b6020808201516001600160a01b0385166000908152600d909252604091829020600481019190915582516002820155910151600180830191909155815460ff19161790555050565b604080516001600160a01b0385811660248301528416604482015260648082018490528251808303909101815260849091019091526020810180517bffffffffffffffffffffffffffffffffffffffffffffffffffffffff166323b872dd60e01b1790526115ba908590612302565b600a541580159061214657506001600160a01b03831615155b801561215a57506001600160a01b03821615155b15610b99576121688361203e565b6121718261203e565b6001600160a01b0383166000908152600d602052604090206001015415610b99576001600160a01b0383166000908152600d602052604090205460ff16610b995760405162461bcd60e51b815260206004820152601e60248201527f43616e6e6f74207472616e73666572206166746572206578657263697365000060448201526064016107f8565b600a541580159061221357506001600160a01b03831615155b801561222757506001600160a01b03821615155b15610b99576001600160a01b038316600090815260016020526040812054612250908390612847565b6001600160a01b0385166000908152600d602052604090206004015461227690846127a9565b61228091906127c8565b6001600160a01b0385166000908152600d60205260409020600201549091506122aa90829061285f565b6001600160a01b038086166000908152600d602052604080822060029081019490945591861681522001546122e0908290612847565b6001600160a01b0384166000908152600d602052604090206002015550505050565b6000612357826040518060400160405280602081526020017f5361666545524332303a206c6f772d6c6576656c2063616c6c206661696c6564815250856001600160a01b03166123e79092919063ffffffff16565b805190915015610b9957808060200190518101906123759190612825565b610b995760405162461bcd60e51b815260206004820152602a60248201527f5361666545524332303a204552433230206f7065726174696f6e20646964206e60448201527f6f7420737563636565640000000000000000000000000000000000000000000060648201526084016107f8565b6060610e41848460008585843b6124405760405162461bcd60e51b815260206004820152601d60248201527f416464726573733a2063616c6c20746f206e6f6e2d636f6e747261637400000060448201526064016107f8565b600080866001600160a01b0316858760405161245c91906128aa565b60006040518083038185875af1925050503d8060008114612499576040519150601f19603f3d011682016040523d82523d6000602084013e61249e565b606091505b50915091506124ae8282866124b9565b979650505050505050565b606083156124c85750816106fe565b8251156124d85782518084602001fd5b8160405162461bcd60e51b81526004016107f89190612564565b80356001600160a01b038116811461250957600080fd5b919050565b6000806040838503121561252157600080fd5b61252a836124f2565b946020939093013593505050565b60005b8381101561255357818101518382015260200161253b565b838111156115ba5750506000910152565b6020815260008251806020840152612583816040850160208701612538565b601f01601f19169190910160400192915050565b6000602082840312156125a957600080fd5b6106fe826124f2565b6000602082840312156125c457600080fd5b5035919050565b6000806000606084860312156125e057600080fd5b6125e9846124f2565b92506125f7602085016124f2565b9150604084013590509250925092565b60008060006060848603121561261c57600080fd5b612625846124f2565b9250612633602085016124f2565b9150612641604085016124f2565b90509250925092565b6000806040838503121561265d57600080fd5b612666836124f2565b9150612674602084016124f2565b90509250929050565b634e487b7160e01b600052601160045260246000fd5b600181815b808511156126ce5781600019048211156126b4576126b461267d565b808516156126c157918102915b93841c9390800290612698565b509250929050565b6000826126e5575060016107a8565b816126f2575060006107a8565b816001811461270857600281146127125761272e565b60019150506107a8565b60ff8411156127235761272361267d565b50506001821b6107a8565b5060208310610133831016604e8410600b8410161715612751575081810a6107a8565b61275b8383612693565b806000190482111561276f5761276f61267d565b029392505050565b60006106fe60ff8416836126d6565b60006020828403121561279857600080fd5b815160ff811681146106fe57600080fd5b60008160001904831182151516156127c3576127c361267d565b500290565b6000826127e557634e487b7160e01b600052601260045260246000fd5b500490565b600181811c908216806127fe57607f821691505b6020821081141561281f57634e487b7160e01b600052602260045260246000fd5b50919050565b60006020828403121561283757600080fd5b815180151581146106fe57600080fd5b6000821982111561285a5761285a61267d565b500190565b6000828210156128715761287161267d565b500390565b60006020828403121561288857600080fd5b5051919050565b60006000198214156128a3576128a361267d565b5060010190565b600082516128bc818460208701612538565b919091019291505056fe4f776e61626c653a2063616c6c6572206973206e6f7420746865206f776e6572a164736f6c634300080a000a",
  "devdoc": {
    "kind": "dev",
    "methods": {
      "allowance(address,address)": {
        "details": "See {IERC20-allowance}."
      },
      "approve(address,uint256)": {
        "details": "See {IERC20-approve}. Requirements: - `spender` cannot be the zero address."
      },
      "balanceOf(address)": {
        "details": "See {IERC20-balanceOf}."
      },
      "burn(uint256)": {
        "details": "Destroys `amount` tokens from the caller. See {ERC20-_burn}."
      },
      "burnFrom(address,uint256)": {
        "details": "Destroys `amount` tokens from `account`, deducting from the caller's allowance. See {ERC20-_burn} and {ERC20-allowance}. Requirements: - the caller must have allowance for ``accounts``'s tokens of at least `amount`."
      },
      "decimals()": {
        "details": "Returns the number of decimals used to get its user representation. For example, if `decimals` equals `2`, a balance of `505` tokens should be displayed to a user as `5.05` (`505 / 10 ** 2`). Tokens usually opt for a value of 18, imitating the relationship between Ether and Wei. This is the value {ERC20} uses, unless this function is overridden; NOTE: This information is only used for _display_ purposes: it in no way affects any of the arithmetic of the contract, including {IERC20-balanceOf} and {IERC20-transfer}."
      },
      "decreaseAllowance(address,uint256)": {
        "details": "Atomically decreases the allowance granted to `spender` by the caller. This is an alternative to {approve} that can be used as a mitigation for problems described in {IERC20-approve}. Emits an {Approval} event indicating the updated allowance. Requirements: - `spender` cannot be the zero address. - `spender` must have allowance for the caller of at least `subtractedValue`."
      },
      "increaseAllowance(address,uint256)": {
        "details": "Atomically increases the allowance granted to `spender` by the caller. This is an alternative to {approve} that can be used as a mitigation for problems described in {IERC20-approve}. Emits an {Approval} event indicating the updated allowance. Requirements: - `spender` cannot be the zero address."
      },
      "name()": {
        "details": "Returns the name of the token."
      },
      "owner()": {
        "details": "Returns the address of the current owner."
      },
      "paused()": {
        "details": "Returns true if the contract is paused, and false otherwise."
      },
      "renounceOwnership()": {
        "details": "Leaves the contract without owner. It will not be possible to call `onlyOwner` functions anymore. Can only be called by the current owner. NOTE: Renouncing ownership will leave the contract without an owner, thereby removing any functionality that is only available to the owner."
      },
      "symbol()": {
        "details": "Returns the symbol of the token, usually a shorter version of the name."
      },
      "toTokenAmount(address,uint256)": {
        "params": {
          "amount_": "uint256"
        },
        "returns": {
          "value_": "uint256"
        }
      },
      "totalSupply()": {
        "details": "See {IERC20-totalSupply}."
      },
      "transfer(address,uint256)": {
        "details": "See {IERC20-transfer}. Requirements: - `recipient` cannot be the zero address. - the caller must have a balance of at least `amount`."
      },
      "transferFrom(address,address,uint256)": {
        "details": "See {IERC20-transferFrom}. Emits an {Approval} event indicating the updated allowance. This is not required by the EIP. See the note at the beginning of {ERC20}. Requirements: - `sender` and `recipient` cannot be the zero address. - `sender` must have a balance of at least `amount`. - the caller must have allowance for ``sender``'s tokens of at least `amount`."
      },
      "transferOwnership(address)": {
        "details": "Transfers ownership of the contract to a new account (`newOwner`). Can only be called by the current owner."
      }
    },
    "version": 1
  },
  "userdoc": {
    "events": {
      "Exercise(address,uint256)": {
        "notice": "Event "
      }
    },
    "kind": "user",
    "methods": {
      "RATE_DENOMINATOR()": {
        "notice": "Constant "
      },
      "massApprove()": {
        "notice": "mass approval saves gas"
      },
      "spaceCounter()": {
        "notice": "Variables "
      },
      "toTokenAmount(address,uint256)": {
        "notice": "convert pHecta to busd"
      }
    },
    "version": 1
  },
  "storageLayout": {
    "storage": [
      {
        "astId": 122,
        "contract": "contracts/preHecta/pHecta.sol:PHecta",
        "label": "_paused",
        "offset": 0,
        "slot": "0",
        "type": "t_bool"
      },
      {
        "astId": 7,
        "contract": "contracts/preHecta/pHecta.sol:PHecta",
        "label": "_owner",
        "offset": 1,
        "slot": "0",
        "type": "t_address"
      },
      {
        "astId": 212,
        "contract": "contracts/preHecta/pHecta.sol:PHecta",
        "label": "_balances",
        "offset": 0,
        "slot": "1",
        "type": "t_mapping(t_address,t_uint256)"
      },
      {
        "astId": 218,
        "contract": "contracts/preHecta/pHecta.sol:PHecta",
        "label": "_allowances",
        "offset": 0,
        "slot": "2",
        "type": "t_mapping(t_address,t_mapping(t_address,t_uint256))"
      },
      {
        "astId": 220,
        "contract": "contracts/preHecta/pHecta.sol:PHecta",
        "label": "_totalSupply",
        "offset": 0,
        "slot": "3",
        "type": "t_uint256"
      },
      {
        "astId": 222,
        "contract": "contracts/preHecta/pHecta.sol:PHecta",
        "label": "_name",
        "offset": 0,
        "slot": "4",
        "type": "t_string_storage"
      },
      {
        "astId": 224,
        "contract": "contracts/preHecta/pHecta.sol:PHecta",
        "label": "_symbol",
        "offset": 0,
        "slot": "5",
        "type": "t_string_storage"
      },
      {
        "astId": 4706,
        "contract": "contracts/preHecta/pHecta.sol:PHecta",
        "label": "spaceCounter",
        "offset": 0,
        "slot": "6",
        "type": "t_struct(Counter)1456_storage"
      },
      {
        "astId": 4708,
        "contract": "contracts/preHecta/pHecta.sol:PHecta",
        "label": "hectaAddress",
        "offset": 0,
        "slot": "7",
        "type": "t_address"
      },
      {
        "astId": 4710,
        "contract": "contracts/preHecta/pHecta.sol:PHecta",
        "label": "treasuryAddress",
        "offset": 0,
        "slot": "8",
        "type": "t_address"
      },
      {
        "astId": 4712,
        "contract": "contracts/preHecta/pHecta.sol:PHecta",
        "label": "busdAddress",
        "offset": 0,
        "slot": "9",
        "type": "t_address"
      },
      {
        "astId": 4714,
        "contract": "contracts/preHecta/pHecta.sol:PHecta",
        "label": "startTimestamp",
        "offset": 0,
        "slot": "10",
        "type": "t_uint256"
      },
      {
        "astId": 4716,
        "contract": "contracts/preHecta/pHecta.sol:PHecta",
        "label": "useWhiteList",
        "offset": 0,
        "slot": "11",
        "type": "t_bool"
      },
      {
        "astId": 4720,
        "contract": "contracts/preHecta/pHecta.sol:PHecta",
        "label": "investors",
        "offset": 0,
        "slot": "12",
        "type": "t_mapping(t_address,t_bool)"
      },
      {
        "astId": 4725,
        "contract": "contracts/preHecta/pHecta.sol:PHecta",
        "label": "holders",
        "offset": 0,
        "slot": "13",
        "type": "t_mapping(t_address,t_struct(Holder)4758_storage)"
      },
      {
        "astId": 4730,
        "contract": "contracts/preHecta/pHecta.sol:PHecta",
        "label": "spaces",
        "offset": 0,
        "slot": "14",
        "type": "t_mapping(t_uint256,t_struct(Space)4765_storage)"
      },
      {
        "astId": 4733,
        "contract": "contracts/preHecta/pHecta.sol:PHecta",
        "label": "spaceLength",
        "offset": 0,
        "slot": "15",
        "type": "t_uint256"
      }
    ],
    "types": {
      "t_address": {
        "encoding": "inplace",
        "label": "address",
        "numberOfBytes": "20"
      },
      "t_bool": {
        "encoding": "inplace",
        "label": "bool",
        "numberOfBytes": "1"
      },
      "t_mapping(t_address,t_bool)": {
        "encoding": "mapping",
        "key": "t_address",
        "label": "mapping(address => bool)",
        "numberOfBytes": "32",
        "value": "t_bool"
      },
      "t_mapping(t_address,t_mapping(t_address,t_uint256))": {
        "encoding": "mapping",
        "key": "t_address",
        "label": "mapping(address => mapping(address => uint256))",
        "numberOfBytes": "32",
        "value": "t_mapping(t_address,t_uint256)"
      },
      "t_mapping(t_address,t_struct(Holder)4758_storage)": {
        "encoding": "mapping",
        "key": "t_address",
        "label": "mapping(address => struct PHecta.Holder)",
        "numberOfBytes": "32",
        "value": "t_struct(Holder)4758_storage"
      },
      "t_mapping(t_address,t_uint256)": {
        "encoding": "mapping",
        "key": "t_address",
        "label": "mapping(address => uint256)",
        "numberOfBytes": "32",
        "value": "t_uint256"
      },
      "t_mapping(t_uint256,t_struct(Space)4765_storage)": {
        "encoding": "mapping",
        "key": "t_uint256",
        "label": "mapping(uint256 => struct PHecta.Space)",
        "numberOfBytes": "32",
        "value": "t_struct(Space)4765_storage"
      },
      "t_string_storage": {
        "encoding": "bytes",
        "label": "string",
        "numberOfBytes": "32"
      },
      "t_struct(Counter)1456_storage": {
        "encoding": "inplace",
        "label": "struct Counters.Counter",
        "members": [
          {
            "astId": 1455,
            "contract": "contracts/preHecta/pHecta.sol:PHecta",
            "label": "_value",
            "offset": 0,
            "slot": "0",
            "type": "t_uint256"
          }
        ],
        "numberOfBytes": "32"
      },
      "t_struct(Holder)4758_storage": {
        "encoding": "inplace",
        "label": "struct PHecta.Holder",
        "members": [
          {
            "astId": 4749,
            "contract": "contracts/preHecta/pHecta.sol:PHecta",
            "label": "isTransferable",
            "offset": 0,
            "slot": "0",
            "type": "t_bool"
          },
          {
            "astId": 4751,
            "contract": "contracts/preHecta/pHecta.sol:PHecta",
            "label": "lastRebaseSpaceIndex",
            "offset": 0,
            "slot": "1",
            "type": "t_uint256"
          },
          {
            "astId": 4753,
            "contract": "contracts/preHecta/pHecta.sol:PHecta",
            "label": "maxClaim",
            "offset": 0,
            "slot": "2",
            "type": "t_uint256"
          },
          {
            "astId": 4755,
            "contract": "contracts/preHecta/pHecta.sol:PHecta",
            "label": "claimed",
            "offset": 0,
            "slot": "3",
            "type": "t_uint256"
          },
          {
            "astId": 4757,
            "contract": "contracts/preHecta/pHecta.sol:PHecta",
            "label": "currentSpaceProfit",
            "offset": 0,
            "slot": "4",
            "type": "t_uint256"
          }
        ],
        "numberOfBytes": "160"
      },
      "t_struct(Space)4765_storage": {
        "encoding": "inplace",
        "label": "struct PHecta.Space",
        "members": [
          {
            "astId": 4760,
            "contract": "contracts/preHecta/pHecta.sol:PHecta",
            "label": "totalHecta",
            "offset": 0,
            "slot": "0",
            "type": "t_uint256"
          },
          {
            "astId": 4762,
            "contract": "contracts/preHecta/pHecta.sol:PHecta",
            "label": "totalPHecta",
            "offset": 0,
            "slot": "1",
            "type": "t_uint256"
          },
          {
            "astId": 4764,
            "contract": "contracts/preHecta/pHecta.sol:PHecta",
            "label": "startedTime",
            "offset": 0,
            "slot": "2",
            "type": "t_uint256"
          }
        ],
        "numberOfBytes": "96"
      },
      "t_uint256": {
        "encoding": "inplace",
        "label": "uint256",
        "numberOfBytes": "32"
      }
    }
  }
}